:040000000C94B704A1
:04000C000C948925A2
:040028000C94B40B75
:040038000C947B0B9E
:040040000C94000B11
:080048000C949D100C94A5100E
:040074000C94010CDB
:14008C00000000400000C84100000000000020416EB7B4B02D
:1400A000D7B2E2CAD4B5DAD2BBB4CE00300000000000000075
:1400B400000000000000000000000000000000000000000038
:1400C800000000000000000000000000000000000000000024
:1400DC00000000000000000000000000000000000000000010
:1400F0000000000000000000000000000000000000000000FC
:140104000000000000000000000000000000000000000000E7
:140118000000000000000000000000000000000000000000D3
:14012C000000000000000000000000000000000000000000BF
:140140000000000000000000000000000000000000000000AB
:14015400000000000000000000000000000000000000000097
:14016800000000000000000000000000000000000000000083
:14017C0000000000000000000000000000000000000000006F
:1401900000000000000000000000000000000000000000005B
:1401A400000000000000000000000000000000000000000047
:1401B800000000000000000000000000000000000000000033
:1401CC00000000000000000000000000000000000000E80334
:1401E00000000000000000000000000000000000000000000B
:1401F4000000000000000000000000000000000000000000F7
:140208000000000000000000000000000000000000000000E2
:14021C000000000000000000000000000000000000000000CE
:1406F4004000010000000000000000000000000000000000B1
:140708000000000000000000000000000000000000000000DD
:14071C000000000000000000000000000000000000000000C9
:140730000000000000000000000000000000000000000000B5
:140744000000000000000000000000000000000000000000A1
:1407580000000000000000000000000000000000000000008D
:14076C00000000000000000000000000000000000000000079
:14078000000000000000000000000000000000000000000065
:14079400000000000000000000000000000000000000000051
:1407A80000000000000000000000000000000000000000003D
:1407BC00000000000000000000000000000000000000000029
:1407D000000000000000000000000000000000000000000015
:1407E400000000000000000000000000000000000000000001
:1407F8000000000000000100020003000400060007000900CD
:14080C000A00020003000500060008000900CAFDBEDDD6D89D
:14082000D6C3D6D0A1A3A1A3A1A300CFB5CDB3D6D8D6C3D698
:14083400D0A1A3A1A3A1A3002D2000C8B7C8CF00CAC7B7F178
:14084800D6D8D6C300CEC2B6C8B1A3B4E6CAA7B0DCA3A10018
:14085C00CEC2B6C8B1A3B4E6B3C9B9A6A3A100CAB1BCE4B1A1
:14087000A3B4E6B3C9B9A6A3A100D6D8D6C3CFB5CDB300C904
:14088400E8D6C3CAB1BCE400B6CFB5E7D7D4B6AFBBD6B8B496
:1408980000B1A3B4E6D6D02E202E202E00B1A3B4E600CEC270
:1408AC00B6C80020003A2000202020202020202020202020C0
:1408C000202020200020202020202000BAE3CEC200C9FDCE23
:1408D400C20000D6D8D6C300D4CBD0D000B1E0BCAD00D7B443
:1408E800CCAC3A00C4BFB1EA3A00CEC2B6C83A005400BBD6C5
:1408FC00B8B4D6D02E202E202E00C8A1CFFB00BBD6B8B400DC
:14091000CAC7B7F1BBD6B8B4C9CFB4CEB9A4D7F700B5C8B427
:14092400FD00BDE1CAF800D4DDCDA300B9CAD5CF00CDA3D6D4
:14093800B900C9E8D6C300CDA3D6B92020202000BFAACABC3A
:14094C0020202020002054343A002054333A002054323A0074
:140960002054313A00CAB1BCE43A00323000CFEFD0E1CDBFF2
:14097400DEBFCE51D0400AEA08830024E2EDF9E01EE0EE3933
:14098800F10711F00192FBCF0083ECE9F0E0A0E0B1E019E0D3
:14099C0000E00BBFEE36F10721F0C89531960D92F9CF0E9443
:1409B0004C0AFFCF000F111F0150104081E090E0801791072F
:1409C400C8F308954A935A93A8014150504005E714E0EEDF86
:1409D80081E090E084179507B0F35991499108954A935A9335
:1409EC00A8014150504008EE13E0E8DF81E090E08417950775
:140A0000B0F35991499108954A935A9380EE84BB80916400F2
:140A14008061809364008FED85BB80916500806180936500EB
:140A280001E010E00E94DA0443B355274F3CE0E05E07E9F06E
:140A3C004F3CE0E05E07DCF0473DE0E05E0799F04B3DE0E0B0
:140A50005E0769F04D3DE0E05E0739F04E3DE0E05E0709F053
:140A64000AC005E699C001E697C004E695C005E793C00CE6C2
:140A780091C08FEB85BB8091650080618093650001E010E0BF
:140A8C000E94DA0443B355274F3AE0E05E07E9F04F3AE0E094
:140AA0005E07DCF0473BE0E05E0799F04B3BE0E05E0769F0DD
:140AB4004D3BE0E05E0739F04E3BE0E05E0709F00AC003E7FD
:140AC80069C002E767C004E765C003E663C00BE261C08FE741
:140ADC0085BB8091650080618093650001E010E00E94DA04A6
:140AF00043B355274F36E0E05E07E9F04F36E0E05E07DCF087
:140B04004737E0E05E0799F04B37E0E05E0769F04D37E0E06D
:140B18005E0739F04E37E0E05E0709F00AC000E339C003E30C
:140B2C0037C002E335C001E333C006E331C08FEF85BB809164
:140B400065008F708093650001E010E00E94DA0443B3552702
:140B54004F3EE0E05E07E9F04F3EE0E05E07DCF0473FE0E03E
:140B68005E0799F04B3FE0E05E0769F04D3FE0E05E0739F0A9
:140B7C004E3FE0E05E0709F00AC007E309C008E307C009E39F
:140B900005C004E303C005E301C00EE6599149910895AA92A8
:140BA4004A9330DF402F02E010E00E94E4042ADFA02E401758
:140BB80061F44E3651F020900001241611F40EE608C0409390
:140BCC000001042F04C08EE6809300010EE64991A9900895F1
:140BE0004A935A9322242ABA809165008D7F80936500809102
:140BF40065008160809365008091650088608093650001E078
:140C080010E00E94DA0449B35527407850708FEF8ABB8091A4
:140C1C006500877F809365008A01599149910895AA92A02EEB
:140C3000D7DF00300107E1F7809165008D7F809365008091DF
:140C440065008E7F8093650080916500877F80936500ABBA59
:140C58008091650088608093650001E010E00E94DA04809150
:140C6C006500877F80936500A9900895AA92A02EB1DF0030F1
:140C80000107E1F780916500826080936500809165008E7F2D
:140C94008093650080916500877F80936500ABBA8091650005
:140CA80088608093650001E010E00E94DA0480916500877F0B
:140CBC0080936500A990089501E0B2DF01E010E00C94E4040B
:140CD0004A935A9322242ABA809165008D7F80936500809111
:140CE40065008160809365008091620081608093620001E094
:140CF80010E00E94DA0449B35527407850708FEF8ABB8091B4
:140D0C0062008E7F809362008A01599149910895AA92A02EF9
:140D2000D7DF00300107E1F7809165008D7F809365008091EE
:140D340065008E7F80936500809162008E7F80936200ABBA67
:140D48008091620081608093620001E010E00E94DA0480916C
:140D5C0062008E7F80936200A9900895AA92A02EB1DF0030FF
:140D70000107E1F780916500826080936500809165008E7F3C
:140D840080936500809162008E7F80936200ABBA8091620016
:140D980081608093620001E010E00E94DA04809162008E7F20
:140DAC0080936200A990089501E0B2CFAA924A93A22E402F2E
:140DC000442311F0413019F40A2D56DF06C0423011F0433021
:140DD40011F40A2DC7DF4991A99008954A936A93622F402F9F
:140DE800662321F4042F00581DDF11C0613021F4042F0057D1
:140DFC0017DF0BC0623021F4042F005889DF05C0633019F423
:140E1000042F005783DF6991499108950E942D3A622F402F68
:140E2400AE80662331F4042F0058FEDE0A2D22DF17C06130D7
:140E380031F4042F0057F6DE0A2D1ADF0FC0623031F4042F3A
:140E4C00005866DF0A2D8ADF07C0633029F4042F00575EDF17
:140E60000A2D82DF0C94343A0E942D3AA22E602F4E815F81C1
:140E7400AA2071F4062F0058D7DE05C0FA010081F9DE4F5F33
:140E88005F4FFA0120802220B9F732C08A2D813071F4062F27
:140E9C000057C6DE05C0FA010081E8DE4F5F5F4FFA01208049
:140EB0002220B9F721C08A2D823071F4062F00582DDF05C02F
:140EC400FA0100814FDF4F5F5F4FFA0120802220B9F710C0B7
:140ED8008A2D833069F4062F00571CDF05C0FA0100813EDF5A
:140EEC004F5F5F4FFA0120802220B9F70C94343A0E94233AFC
:140F0000A901602F662311F0613059F405C0FA010081B2DE6B
:140F14004F5F5F4FFA0120802220B9F70EC0623011F06330EC
:140F280051F405C0FA0100811BDF4F5F5F4FFA0120802220FC
:140F3C00B9F70C94283A4A935A9322242ABA809165008D7F79
:140F50008093650080916500816080936500809165008860E8
:140F64008093650001E010E00E94E40449B355274F778FEFEA
:140F78008ABB80916500877F80936500042F59914991089598
:140F8C004A935A9322242ABA809165008D7F80936500809152
:140FA00065008160809365008091620081608093620001E0D5
:140FB40010E00E94E40449B355274F778FEF8ABB809162003B
:140FC8008E7F80936200042F59914991089576DEEDCEAA92B4
:140FDC00BA9222242ABA809165008260809365008091650045
:140FF0008160809365008091650088608093650001E010E0ED
:141004000E94E404A9B2BB248FEF8ABB80916500877F8093C2
:1410180065000A2DB990A9900895AA92BA9222242ABA809146
:14102C00650082608093650080916500816080936500809111
:14104000620081608093620001E010E00E94E404A9B2BB244F
:141054008FEF8ABB809162008E7F809362000A2DB990A99017
:1410680008950E942D3A622F402F662349F4042F0058D8DDC8
:14107C000AE010E00E94DA04AADF24C0613049F4042F005741
:14109000CDDD0AE010E00E94DA049FDF19C0623051F4042FE7
:1410A40000583ADE0AE010E00E94DA04B8DFA02E0DC06330A9
:1410B80051F4042F00572EDE0AE010E00E94DA04ACDFA02E96
:1410CC0001C000270C94343AAA92A02E0A2DA8DD7EDFA990BE
:1410E0000895AA92A02E0A2DA1DD9BDFA99008958AB38F6F15
:1410F4008ABB8FEF8BBB809164008F6080936400809165008E
:141108008F6080936500809161008160809361008091620032
:14111C0081608093620000E383DD08E081DD01E07FDD06E0BD
:141130007DDD0CE07BDD00E3F1DD08E0EFDD01E0EDDD06E017
:14114400EBDD0CE0E9CD4A935A93A8014030450719F40CE005
:1411580069DD30C04130E0E05E0719F40EE062DD29C0423022
:14116C00E0E05E0719F40DE05BDD22C04330E0E05E0719F491
:141180000FE054DD1BC04430E0E05E0719F40CE0C5DD14C058
:141194004530E0E05E0719F40EE0BEDD0DC04630E0E05E07AF
:1411A80019F40DE0B7DD06C04730E0E05E0711F40FE0B0DDC2
:1411BC0059914991089506E333DD06E3A9CD00E32FDD00E394
:1411D000A5CD0E948D390E940E3A622F2197AF848A2D0B8485
:1411E40080198F5FC82ECC0CEADF662349F48B85805881505A
:1411F800888340E880E8A82EE82E22C0613051F48B858058BC
:14120C008150888340E980E8A82E80E9E82E16C0623049F467
:141220008B8580588150888340E880E8A82EE82E0BC063301C
:1412340049F48B8580588150888340E980E8A82E80E9E82EBF
:14124800662311F06130A1F4AA240EC0242E4F5F022DE8DC53
:14125C000881E6DCEE2403C0002708DDE394EC14D8F3A394D9
:141270008A2D803178F317C0623011F0633099F4AA240EC071
:14128400242E4F5F022D48DD088146DDEE2403C0002768DD15
:14129800E394EC14D8F3A3948A2D803178F391DF21960E942D
:1412AC00033A249608950E948D390E940E3A622F2197AF84CC
:1412C0008A2D0B8480198F5FC82ECC0C7ADF662349F48B8550
:1412D40080588150888340E880E8A82EE82E22C0613051F41E
:1412E8008B8580588150888340E980E8A82E80E9E82E16C072
:1412FC00623049F48B8580588150888340E880E8A82EE82ECF
:141310000BC0633049F48B8580588150888340E980E8A82E03
:1413240080E9E82E662311F06130A1F4AA240EC0242E4F5FEA
:14133800022D78DC088176DCEE2403C00FEF98DCE394EC1485
:14134C00D8F3A3948A2D803178F317C0623011F0633099F42E
:14136000AA240EC0242E4F5F022DD8DC0881D6DCEE2403C0EA
:141374000FEFF8DCE394EC14D8F3A3948A2D803178F321DF47
:1413880021960E94033A249608953A932A930E940E3AC02E02
:14139C0004E346DC04E3BCDC6C2D4A8560684068AA2413C03C
:1413B000242E4F5F022D3ADC062F38DCEE2407C0EC85FD85CF
:1413C4000191FD87EC8756DCE3948E2D8831B0F3A3948A2DDE
:1413D800803250F36C2D4A8560684068EE2413C0242E4F5F4F
:1413EC00022D96DC062F94DCEE2407C0EC85FD850191FD87C5
:14140000EC87B2DCE3948E2D8831B0F3A3948A2D803450F364
:1414140006E30ADC06E380DC01E010E00E94DA0400E302DC9E
:1414280000E378DC0E94033A22960895229781E091E099839E
:14143C00888323E0002712DD81E091E099838883222700270F
:141450000BDD87E0888321E001E02BDF08EB1BE00E94E404CA
:1414640087E0888321E001E0B2DE82E0888321E002E01DDF44
:141478000CE211E00E94E40487E0888322E002E0A4DE85E0BA
:14148C00888321E003E00FDF22960895219780E390E090936C
:1414A00011018093100181E3909313018093120182E39093B9
:1414B40015018093140183E3909317018093160184E3909391
:1414C80019018093180185E390931B0180931A0186E3909369
:1414DC001D0180931C0187E390931F0180931E0188E3909341
:1414F00021018093200189E390932301809322018FEF82B9F0
:1415040085E583B978940E9478080E94EB0782E090E0909376
:14151800930E8093920E8CE08883222701E00E94E9088CE0CB
:14152C00888321E001E00E94E9088CE0888322E001E00E942F
:14154000E9088CE0888323E001E00E94E90880E590E09093C0
:1415540047028093460282E190934502809344020E9468307F
:141568000E94F638222700EC0E94D80A28EB0EEF0E94C90A61
:14157C0000270E94F70A0E94871002C00E942925FDCF219623
:14159000089500939A0E2093990E22242EBC0DBD2CBD2FBC47
:1415A40085E08EBD87B7846087BF08950093980E2093970EED
:1415B800222420928A00009389002093880020928B0085E0A4
:1415CC0080938A0080917D00846080937D0008950093960E98
:1415E00002BF87B7816087BF87E083BF08950093950E04BD94
:1415F40087B7806487BF85E085BD08950A921A922A923A9267
:141608004A925A926A927A928A929A920A931A932A933A93E2
:14161C008A939A93AA93BA93EA93FA930FB60A92219722247D
:1416300023BE2090400230904102222059F5332049F580919E
:141644004202909143020197909343028093420224E630E077
:141658008C010E94B939C801C096888322270AE00E940E0749
:14166C0083E7888322270BE00E940E0781E090E02090420245
:141680003090430282159305F0F4222422BE87E083BF19C096
:1416940080914202909143020197909343028093420281307F
:1416A800E0E09E0741F480E290E090934302809342020E9461
:1416BC00F42E222422BE87E083BF219609900FBEF991E99108
:1416D000B991A9919991899139912991199109919990899034
:1416E4007990699059904990399029901990099018950A9221
:1416F8001A922A923A924A925A926A927A928A929A920A93F5
:14170C001A932A933A938A939A93AA93BA93EA93FA930FB6EF
:141720000A9222242EBC0E94CB0F20909A0E2DBC2090990ED5
:141734002CBC85E08EBD09900FBEF991E991B991A9919991F1
:1417480089913991299119910991999089907990699059907E
:14175C004990399029901990099018950A921A922A923A925F
:141770004A925A926A927A928A929A920A931A932A933A9379
:141784008A939A93AA93BA93EA93FA930FB60A92222425BCEB
:141798002090580730905907222051F4332041F480E490E02B
:1417AC0090935907809358070E9489258091580790915907F3
:1417C000019790935907809358072090950E24BC85E085BDAE
:1417D40009900FBEF991E991B991A99199918991399129914B
:1417E800199109919990899079906990599049903990299021
:1417FC001990099018950A921A922A923A928A929A920A9335
:141810001A932A933A938A939A93AA93BA930FB60A92AA921C
:14182400BA92222420928A0085E690E09093110180931001AE
:141838002090480230904902309213012092120120905203F7
:14184C0030905303309215012092140120916E0330916F037E
:1418600000916C0310916D030E94343B1801232C332427FC70
:141874003094309217012092160120916E0330916F03009113
:141888006C0310916D030E94343BC8019070909319018093A2
:14189C0018012090560330905703232C332430921B012092C6
:1418B0001A018091560390915703907090931D0180931C01B3
:1418C40085E690E090931F0180931E0186E6909321018093FC
:1418D800200120908C0330908D0330922301209222012090E1
:1418EC0096043090970430922501209224012091B20430910C
:14190000B3040091B0041091B1040E94343B1801232C3324B1
:1419140027FC309430922701209226012091B2043091B30436
:141928000091B0041091B1040E94343BC801907090932901E9
:14193C008093280120909A0430909B04232C332430922B011A
:1419500020922A0180919A0490919B04907090932D018093D3
:141964002C0186E690E090932F0180932E0187E6909331010F
:14197800809330012090D0043090D104309233012092320123
:14198C002090DA053090DB0530923501209234012091F6058D
:1419A0003091F7050091F4051091F5050E94343B1801232CD8
:1419B400332427FC309430923701209236012091F605309191
:1419C800F7050091F4051091F5050E94343BC80190709093ED
:1419DC003901809338012090DE053090DF05232C33243092D2
:1419F0003B0120923A018091DE059091DF05907090933D0160
:141A040080933C0187E690E090933F0180933E0188E690935B
:141A18004101809340012090140630901506309243012092C7
:141A2C00420120901E0730901F0730924501209244012091F8
:141A40003A0730913B0700913807109139070E94343B180173
:141A5400232C332427FC3094309247012092460120913A07FC
:141A680030913B0700913807109139070E94343BC8019070DC
:141A7C0090934901809348012090220730902307232C332424
:141A900030924B0120924A018091220790912307907090938F
:141AA4004D0180934C0188E690E090934F0180934E0180E26B
:141AB80090933D0280933C02559A2090980E20928900209037
:141ACC00970E2092880085E080938A00B990A99009900FBE3D
:141AE000B991A9919991899139912991199109919990899020
:141AF400399029901990099018954A935A931B9A1C9A01E057
:141B080010E00E94DA041C9801E010E00E94DA041B9801E0C0
:141B1C0010E00E94DA041B9A4427552724C01B9801E010E041
:141B30000E94DA042090440230904502220C331C309245029E
:141B44002092440281B1992784709070959587959595879523
:141B5800282A392A30924502209244021B9A01E010E00E949B
:141B6C00DA044F5F5F4F4830E0E05E07C0F24427552724C011
:141B80001B9801E010E00E94DA042090460230904702220C1E
:141B9400331C309247022092460281B19927847090709595D9
:141BA800879595958795282A392A30924702209246021B9A58
:141BBC0001E010E00E94DA044F5F5F4F4830E0E05E07C0F219
:141BD0001C9A0AE010E00E94DA045991499108954A935A93C6
:141BE4001E9A1F9A01E010E00E94DA041F9801E010E00E9401
:141BF800DA041E9801E010E00E94DA041E9A4427552728C06D
:141C0C001E9801E010E00E94DA042090440230904502220C92
:141C2000331C309245022092440225E030E001B111270072EF
:141C340010700E9492392090440230904502202A312A30924B
:141C48004502209244021E9A01E010E00E94DA044F5F5F4FE4
:141C5C004830E0E05E07A0F24427552728C01E9801E010E0EF
:141C70000E94DA042090460230904702220C331C3092470257
:141C84002092460225E030E001B11127007210700E949239F4
:141C98002090460230904702202A312A30924702209246028D
:141CAC001E9A01E010E00E94DA044F5F5F4F4830E0E05E0722
:141CC000A0F21F9A0AE010E00E94DA045991499108954A932D
:141CD4005A93809162008260809362008091620084608093DB
:141CE800620001E010E00E94DA04809162008B7F8093620043
:141CFC0001E010E00E94DA04809162008D7F8093620001E0AE
:141D100010E00E94DA0480916200826080936200442755279E
:141D240028C0809162008D7F8093620001E010E00E94DA047E
:141D38002090440230904502220C331C30924502209244021C
:141D4C0080B1992781709070282A392A3092450220924402EB
:141D60008091620082608093620001E010E00E94DA044F5FA6
:141D74005F4F4830E0E05E07A0F24427552728C0809162003C
:141D88008D7F8093620001E010E00E94DA04209046023090BD
:141D9C004702220C331C309247022092460280B19927817086
:141DB0009070282A392A309247022092460280916200826010
:141DC4008093620001E010E00E94DA044F5F5F4F4830E0E0B1
:141DD8005E07A0F2809162008460809362000AE010E00E94B8
:141DEC00DA045991499108954A935A93809162008061809373
:141E000062008091620080628093620001E010E00E94DA0451
:141E1400809162008F7D8093620001E010E00E94DA04809164
:141E280062008F7E8093620001E010E00E94DA0480916200FE
:141E3C008061809362004427552733C0809162008F7E8093CF
:141E5000620001E010E00E94DA042090440230904502220CA0
:141E6400331C309245022092440281B19927887090701C0113
:141E780035942794359427943594279440904402509045028D
:141E8C004228532850924502409244028091620080618093B5
:141EA000620001E010E00E94DA044F5F5F4F4830E0E05E0782
:141EB40048F24427552733C0809162008F7E8093620001E030
:141EC80010E00E94DA042090460230904702220C331C309256
:141EDC0047022092460281B19927887090701C013594279424
:141EF0003594279435942794409046025090470242285328B0
:141F040050924702409246028091620080618093620001E0DA
:141F180010E00E94DA044F5F5F4F4830E0E05E0748F2809101
:141F2C0062008062809362000AE010E00E94DA0459914991CA
:141F400008954A935A93A8018AED82B986EF8093610083B1AE
:141F54008C6F83B9809162008F6F809362004030450769F047
:141F68004130E0E05E0759F04230E0E05E0749F04330E0E083
:141F7C005E0739F007C0BDDD05C02CDE03C0A3DE01C032DF7D
:141F9000599149910895AA92BA9280915A0790915B078333A9
:141FA400E0E09E0731F481E090E090935B0780935A078091C4
:141FB8004802909149028130E0E09E07E9F440908A0350902F
:141FCC008B03209088033090890300915A0710915B070E9455
:141FE000663B3A932A931A930A93810192010E94363D14F04A
:141FF400189A07C083B18E7F83B903C083B18E7F83B9809192
:142008008C0390918D038130E0E09E07E9F440908A03509054
:14201C008B03209088033090890300915A0710915B070E9404
:14203000663B3A932A931A930A93810192010E94363D14F0F9
:14204400199A07C083B18D7F83B903C083B18D7F83B9809142
:14205800D0049091D1048130E0E09E07E9F440908A0350907A
:14206C008B03209088033090890300915A0710915B070E94B4
:14208000663B3A932A931A930A93810192010E94363D14F0A9
:142094001A9A07C083B18B7F83B903C083B18B7F83B98091F5
:1420A8001406909115068130E0E09E07E9F440908A0350909E
:1420BC008B03209088033090890300915A0710915B070E9464
:1420D000663B3A932A931A930A93810192010E94363D14F059
:1420E4001B9A07C083B1877F83B903C083B1877F83B98091AC
:1420F8005A0790915B07019690935B0780935A07B990A990DE
:14210C00089522242AB82BB886E08093950087E689B92092A8
:1421200090008AB188698AB908955D9BFECF0CB908955F9BEE
:14213400FECF0CB108950A930FB70A930CB109910FBF0991B1
:1421480018951A922A923A924A925A928A939A93EA93FA9386
:14215C001FB61A92559823B0209423B820903C0230903D02B2
:1421700040903E0250903F024214530490F480E191E0F20134
:14218400EE0FFF1FE80FF91F208031802CB8C201019690936B
:142198003F0280933E02559A0AC02224332430923D02209296
:1421AC003C0230923F0220923E0219901FBEF991E991999138
:1421C00089915990499039902990199018954A935A93A801E4
:1421D40005C0FA010081A7DF4F5F5F4FFA0120802220B9F747
:1421E8000AE09FDF5991499108950E94123A79016801AE801B
:1421FC00BF808FB78F778FBFE199FECFEEBACFBAADBAE29A9B
:14221000E19A01E010E00E94DA0478940C94FC390E94143A1D
:14222400690158018FB78F778FBFE199FECFCEBAAFBAE09A97
:1422380001E010E00E94DA04ADB2BB24789485010C94F739A1
:14224C00AA92BA925801229789EC99E0998388832A2D002751
:142260000E94340785010E9407392296B990A9900895AA9212
:14227400BA92580185010E940739B990A99008950E94493A05
:14228800229781E090E09093870E8093860E84EC99E0998354
:14229C00888321E001E00E9434078FEB99E09983888321E049
:1422B00006E00E9434078AEB99E09983888322E001E00E94BD
:1422C400340785EB99E09983888322E006E00E9434078CEA80
:1422D80099E09983888323E001E00E94340723EA39E003E088
:1422EC000E947E072EE939E003E00E947E078CEA99E0998372
:14230000888323E001E00E94340723EA39E003E00E947E07CD
:142314002EE939E003E00E947E074427552783E0888321E025
:1423280002E00E94590989C3002711278BDFAA24BB24DFC05A
:14233C00AA2049F4BB2039F461E070E021E003E00E94F00671
:1423500023C0C5018130E0E09E0739F461E070E021E008E013
:142364000E94F00617C0C5018230E0E09E0739F462E070E05A
:1423780022E003E00E94F0060BC0C5018330E0E09E0731F406
:14238C0062E070E022E008E00E94F00604E411E095010E9418
:1423A000E73988E492E0F801E80FF91FC080D180CC2011F4A1
:1423B400DD20F9F0C6018130E0E09E0701F18230E0E09E0749
:1423C80009F477C08330E0E09E0709F478C08430E0E09E0767
:1423DC0009F479C08530E0E09E0709F47AC08630E0E09E074B
:1423F00009F47BC07FC029E939E0062F0E947E0779C004E4BA
:1424040011E095010E94E7398CE693E0F801E80FF91F00810D
:142418001181228133810E94343B24E630E00E949D3998018B
:14242C002063062F0E94DC0604E411E095010E94E7398CE6BD
:1424400093E0F801E80FF91F00811181228133810E94343B92
:142454002AE030E00E949D392AE030E00E9499399801206338
:14246800062F0E94DC0604E411E095010E94E7398CE693E091
:14247C00F801E80FF91F00811181228133810E94343B2AE0BF
:1424900030E00E94993998012063062F0E94DC0620E2062FA8
:1424A4000E94DC0621EA062F0E94DC0626EE062F0E94DC060F
:1424B8001DC024E939E0062F0E947E0717C02FE839E0062F75
:1424CC000E947E0711C02AE839E0062F0E947E070BC025E8A5
:1424E00039E0062F0E947E0705C02FE839E0062F0E947E0722
:1424F400C50101965C01C5018430E0E09E0708F41BCF0E94B3
:14250800D105A02E013609F053C088E090E09093930E809329
:14251C00920E40304507C9F04130E0E05E07E1F04230E0E0FD
:142530005E07F9F04330E0E05E0711F14430E0E05E0729F1FC
:142544004530E0E05E0741F14630E0E05E0759F177C283E036
:14255800888321E002E00E94E90870C288E0888321E007E061
:14256C000E94E90869C283E0888322E002E00E94E90862C294
:1425800088E0888322E007E00E94E9085BC283E0888323E0CA
:1425940002E00E94E90854C287E0888323E006E00E94E908BA
:1425A8004DC28BE0888323E00AE00E94E90846C28A2D8436A1
:1425BC0009F04CC04030450769F04130E0E05E07C1F0423038
:1425D000E0E05E0719F14330E0E05E0771F131C283E088836D
:1425E40021E002E00E94E90883E0888322E002E00E94590917
:1425F80042E050E022C288E0888321E007E00E94E90888E043
:14260C00888322E007E00E94590943E050E013C283E088832C
:1426200022E002E00E94E90883E0888323E002E00E945909D8
:1426340044E050E004C288E0888322E007E00E94E90887E022
:14264800888323E006E00E94590945E050E0F5C18A2D853708
:14265C0009F061C04230E0E05E0791F04330E0E05E07E9F0C7
:142670004430E0E05E0741F14530E0E05E0799F14630E0E031
:142684005E0709F43DC0DBC183E0888322E002E00E94E90862
:1426980083E0888321E002E00E94590944275527CCC188E0FD
:1426AC00888322E007E00E94E90888E0888321E007E00E9496
:1426C000590941E050E0BDC185E0888323E002E00E94E908ED
:1426D40083E0888322E002E00E94590942E050E0AEC187E074
:1426E800888323E006E00E94E90888E0888322E007E00E9459
:1426FC00590943E050E09FC18BE0888323E00AE00E94E908BF
:1427100088E0888322E007E00E94590943E050E090C18A2DFA
:142724008C3609F04DC04130E0E05E0769F04330E0E05E0752
:14273800C1F04530E0E05E0719F14630E0E05E0771F17BC1FF
:14274C0088E0888321E007E00E94E90883E0888321E002E03A
:142760000E945909442755276CC188E0888322E007E00E944F
:14277400E90883E0888322E002E00E94590942E050E05DC19A
:1427880087E0888323E006E00E94E90883E0888323E002E0FC
:14279C000E94590944E050E04EC18BE0888323E00AE00E94BD
:1427B000E90887E0888323E006E00E94590945E050E03FC170
:1427C4008A2D823709F04CC04030450769F04230E0E05E07E0
:1427D800C1F04430E0E05E0719F14530E0E05E0771F12BC1B1
:1427EC0083E0888321E002E00E94E90888E0888321E007E09A
:142800000E94590941E050E01CC183E0888322E002E00E949E
:14281400E90888E0888322E007E00E94590943E050E00DC13E
:1428280083E0888323E002E00E94E90887E0888323E006E05B
:14283C000E94590945E050E0FEC087E0888323E006E00E9474
:14285000E9088BE0888323E00AE00E94590946E050E0EFC017
:142864008A2D833709F053C085E090E09093930E8093920E97
:1428780040304507C9F04130E0E05E07E1F04230E0E05E07D9
:14288C00F9F04330E0E05E0711F14430E0E05E0729F145308D
:1428A000E0E05E0741F14630E0E05E0759F1CAC083E08883F0
:1428B40021E002E00E94E908C3C088E0888321E007E00E941A
:1428C800E908BCC083E0888322E002E00E94E908B5C088E0CD
:1428DC00888322E007E00E94E908AEC083E0888323E002E0A0
:1428F0000E94E908A7C087E0888323E006E00E94E908A0C08C
:142904008BE0888323E00AE00E94E90899C08A2D843709F005
:1429180094C040304507F1F04130E0E05E0791F14230E0E070
:14292C005E0709F443C04330E0E05E0709F455C04430E0E054
:142940005E0709F466C04530E0E05E0709F464C04630E0E00A
:142954005E0709F462C073C083E0888321E002E00E94E908D4
:1429680081E090E09093870E8093860E222433243092890E35
:14297C002092880E83E09093930E8093920E5CC088E0888396
:1429900021E007E00E94E90881E090E09093870E8093860E88
:1429A4009093890E8093880E83E09093930E8093920E46C0DC
:1429B80083E0888322E002E00E94E90881E090E09093870E9D
:1429CC008093860E82E09093890E8093880E83E09093930E64
:1429E0008093920E2FC088E0888322E007E00E94E90881E0F1
:1429F40090E09093870E8093860E83E09093890E8093880E3A
:142A08009093930E8093920E19C00E94773515C00E94C335AD
:142A1C0012C08BE0888323E00AE00E94E90881E090E09093EA
:142A3000870E8093860E85E09093930E8093920E01C076CC77
:142A440022960C94523A0E940E3A229744275527222733276D
:142A580001E010E00E94101178012227332702E010E00E9446
:142A6C00101168012227332703E010E00E94101158012227F1
:142A8000332704E010E00E941011B801EE2071F4FF2061F4B1
:142A9400CC2051F4DD2041F4AA2031F4BB2021F400300107B4
:142AA80009F403C184E799E099838883222702E00E94340746
:142ABC008FE699E09983888322E002E00E9434078AE699E047
:142AD0009983888322E008E00E943407222733270027112702
:142AE4000E9410115801B5010130E0E01E0749F444275527D2
:142AF80084E0888322E003E00E94590908C041E050E08AE0EF
:142B0C00888322E009E00E94590900270E94EE0AC9C0809160
:142B20004202909143028130E0E09E0791F58AE0888322E0E4
:142B340009E00E94E90884E0888322E003E00E94E9084030BA
:142B4800450781F40E94EB078EE599E09983888322E005E02A
:142B5C000E9434070E94DC3108EC10E00E94E40481E090E09A
:142B70009093930E8093920E909341028093400280E290939A
:142B840043028093420200270E94EE0AA2C00E94D105A02E38
:142B98006A2D77276C36E0E07E0779F06C36E0E07E070CF4BD
:142BAC0081C06237E0E07E0741F16437E0E07E0709F444C0E3
:142BC00077C0222423BE80E2888322270AE00E940E0780E2EA
:142BD400888322270BE00E940E074130E0E05E0709F064C044
:142BE8008AE0888322E009E00E94E90884E0888322E003E092
:142BFC000E9459094427552755C0222423BE80E288832227E8
:142C10000AE00E940E0780E2888322270BE00E940E07403047
:142C2400450709F043C084E0888322E003E00E94E9088AE003
:142C3800888322E009E00E94590941E050E034C0222423BE22
:142C4C008AE0888322E009E00E94E90884E0888322E003E02D
:142C60000E94E9084030450781F40E94EB078EE599E0998300
:142C7400888322E005E00E9434070E94DC3108EC10E00E9448
:142C8800E40481E090E09093930E8093920E9093410280938F
:142C9C00400280E2909343028093420200270E94EE0A13C02D
:142CB00036CF81E090E09093930E8093920E9093410280934A
:142CC400400280E2909343028093420200270E94EE0A229620
:142CD8000C94033A0E94233A2297442755278CE599E0998366
:142CEC008883222700270E9434072091880E3091890E2F5F4F
:142D00003F4F206300270E94DC062AE300270E94DC0686E5E0
:142D140099E09983888321E001E00E94340780E599E0998352
:142D2800888321E007E00E9434078AE499E09983888322E0B7
:142D3C0001E00E94340785E499E09983888323E000270E94F0
:142D5000340780E499E09983888323E003E00E9434078FE8F6
:142D640099E09983888323E007E00E9434078BE399E09983F1
:142D7800888323E00AE00E94340782E0888323E001E00E947F
:142D8C0059093BC3222702E00E94F006002711276ADA2091BC
:142DA000880E3091890E04E411E00E94E73988E492E0F801BF
:142DB400E80FF91F808191818230E0E09E0709F468C021E0AC
:142DC80004E00E94F0062091880E3091890E04E411E00E9461
:142DDC00E7398CE693E0F801E80FF91F00811181228133816C
:142DF0000E94343B24E630E00E949D399801206301E00E948D
:142E0400DC062091880E3091890E04E411E00E94E7398CE62C
:142E180093E0F801E80FF91F00811181228133810E94343BB0
:142E2C002AE030E00E949D392AE030E00E9499399801206356
:142E400001E00E94DC062091880E3091890E04E411E00E94FF
:142E5400E7398CE693E0F801E80FF91F0081118122813381F3
:142E68000E94343B2AE030E00E9499399801206301E00E9418
:142E7C00DC0620E201E00E94DC0621EA01E00E94DC0626EE75
:142E900001E00E94DC0622E004E00E94F0062091880E309143
:142EA400890E04E411E00E94E73988E492E0F801E80FF91F02
:142EB8006081718160306707F1F06130E0E07E0701F16230FA
:142ECC00E0E07E0709F460C16330E0E07E0709F461C1643004
:142EE000E0E07E0709F462C16530E0E07E0709F476C16630D5
:142EF400E0E07E0709F477C17BC129E939E002E00E947E07E0
:142F080075C18AE399E09983888321E009E00E94340721EAA0
:142F1C0001E00E94DC0626EE01E00E94DC062091880E3091BB
:142F3000890E04E411E00E94E73982E593E0F801E80FF91F79
:142F44006081718182E190E08617970708F52AE030E08B01F5
:142F580001501040169507950F5F1F4F0E94B93998012063F1
:142F6C0002E00E94DC062AE030E08B0101501040169507955D
:142F80000F5F1F4F0E94B7399801206302E00E94DC060FC07E
:142F94009B0121503040369527952F5F3F4F206302E00E9402
:142FA800DC0620E202E00E94DC062AE302E00E94DC0620E256
:142FBC0002E00E94DC0660FF15C025E339E002E00E947E073D
:142FD0002091880E3091890E04E411E00E94E7398EE593E0CD
:142FE400F801E80FF91F6081718119C020E339E002E00E9485
:142FF8007E072091880E3091890E04E411E00E94E73988E698
:14300C0093E0F801E80FF91F00811181228133810E94343BBA
:14302000B80124E630E08B010E94B939C8018063888321E0F1
:1430340009E00E940E072AE030E08B010E94B9392AE030E094
:143048000E94B7399801206301E00E94DC062AE030E08B01BB
:14305C000E94B7399801206301E00E94DC0620E201E00E94C8
:14307000DC0621EA01E00E94DC0626EE01E00E94DC0622E07F
:1430840008E00E94F0062091880E3091890E04E411E00E949E
:14309800E73986E593E0F801E80FF91F6081718120E13EE02C
:1430AC008B010E94B939B8012AE030E00E94B939980120636D
:1430C00002E00E94DC062AE030E08B010E94B7399801206342
:1430D40002E00E94DC062AE302E00E94DC062091880E309107
:1430E800890E04E411E00E94E73986E593E0F801E80FF91FBC
:1430FC00608171812CE330E08B010E94B9392CE330E00E94ED
:14311000B739B8012AE030E00E94B9399801206302E00E94B4
:14312400DC062AE030E08B010E94B7399801206302E00E94DD
:14313800DC062AE302E00E94DC062091880E3091890E04E4A7
:14314C0011E00E94E73986E593E0F801E80FF91F6081718103
:143160002CE330E08B010E94B739B8012AE030E00E94B939B7
:143174009801206302E00E94DC062AE030E08B010E94B7398D
:143188009801206302E00E94DC0630C024E939E002E00E9417
:14319C007E072AC02FE839E002E00E947E0724C089E299E0AF
:1431B0009983888321E009E00E94340788E199E09983888314
:1431C40022E004E00E9434078AE899E09983888322E004E03C
:1431D8000E9434070BC025E839E002E00E947E0705C02FE830
:1431EC0039E002E00E947E070E94D105602F0536F9F482E01C
:14320000888323E001E00E94E90885E0888323E004E00E943F
:14321400E90889E0888323E008E00E94E9088CE0888323E049
:143228000BE00E94E90881E090E09093930E8093920EE6C026
:14323C006C36D1F54130E0E05E0749F04230E0E05E07A1F01F
:143250004330E0E05E07F9F0D6C085E0888323E004E00E945A
:14326400E90882E0888323E001E00E94590944275527C7C0A2
:1432780089E0888323E008E00E94E90885E0888323E004E0F9
:14328C000E94590941E050E0B8C08CE0888323E00BE00E945A
:1432A000E90889E0888323E008E00E94590942E050E0A9C00B
:1432B4006237C9F54030450749F04130E0E05E07A1F0423021
:1432C800E0E05E07F9F09BC085E0888323E004E00E9459092E
:1432DC0082E0888323E001E00E94E90841E050E08CC089E0F4
:1432F000888323E008E00E94590985E0888323E004E00E94D7
:14330400E90842E050E07DC08CE0888323E00BE00E945909CC
:1433180089E0888323E008E00E94E90843E050E06EC0643793
:14332C0009F04AC04030450769F04130E0E05E07B1F04230CC
:14334000E0E05E07C9F04330E0E05E0721F15BC082E0888369
:1433540023E001E00E94E90884E090E09093930E8093920EA3
:143368004FC00091880E1091890E0E94F43547C088E199E02F
:14337C009983888322E004E00E9434070091880E1091890EF4
:143390000E94563638C08CE0888323E00BE00E94E90881E0AA
:1433A40090E090938D0E80938C0E83E09093870E8093860E78
:1433B80087E09093930E8093920E22C06337F9F482E088834D
:1433CC0023E001E00E94E90885E0888323E004E00E94E9088C
:1433E00089E0888323E008E00E94E9088CE0888323E00BE082
:1433F4000E94E90884E090E09093930E8093920E01C0C4CC96
:1434080022960C94283A0E948D390E940E3A5901229782EA25
:14341C0090E06C0184EC7C0166277727442755278C859D858D
:143430008330E0E09E0730F5C88221E002E00E940E079701CF
:143444002F5F3F4F01E00E94DC06C88222E002E00E940E070E
:1434580097012E5F3F4F02E00E94DC06C88223E002E00E9476
:14346C000E0797012D5F3F4F03E00E94DC06002411241D8622
:143480000C868FC08C859D858330E0E09E0750F18630E0E055
:143494009E0730F5C88221E002E00E940E0797012C5F3F4FC5
:1434A80001E00E94DC06C88222E002E00E940E0797012B5FA4
:1434BC003F4F02E00E94DC06C88223E002E00E940E0797018A
:1434D0002A5F3F4F03E00E94DC0681E090E09D878C875FC043
:1434E4008C859D858630E0E09E0750F18930E0E09E0730F502
:1434F800C88221E002E00E940E079701295F3F4F01E00E94AB
:14350C00DC06C88222E002E00E940E079701285F3F4F02E055
:143520000E94DC06C88223E002E00E940E079701275F3F4F81
:1435340003E00E94DC0682E090E09D878C872FC08C859D85F1
:143548008930E0E09E0748F18C30E0E09E0728F5C88221E08F
:14355C0002E00E940E079701265F3F4F01E00E94DC06C88268
:1435700022E002E00E940E079701255F3F4F02E00E94DC069C
:14358400C88223E002E00E940E079701245F3F4F03E00E941F
:14359800DC0683E090E09D878C8701E210E02C853D850E944B
:1435AC00E739A80161E070E0C5C06130E0E07E0771F4FA01F6
:1435C000EE0FFF1FEA0DFB1D8081918180638883262F03E094
:1435D4000E940E0710C0CA010196AC01FC01EE0FFF1FEA0D3E
:1435E800FB1D8081918180638883262F03E00E940E07CA01FC
:1435FC000196AC01FC01EE0FFF1FEA0DFB1D2081318120637A
:14361000062F0E94DC0625E139E0062F0E947E07CA01019610
:14362400AC01FC01EE0FFF1FEA0DFB1D208131812063062FB3
:143638000E94DC06CA010196AC01FC01EE0FFF1FEA0DFB1DC4
:14364C00208131812063062F0E94DC06CA010196AC01FC01CF
:14366000EE0FFF1FEA0DFB1D8081918180638883262F07E0EF
:143674000E940E07CA010196AC01FC01EE0FFF1FEA0DFB1D55
:14368800208131812063062F0E94DC0625E139E0062F0E94A9
:14369C007E07CA010196AC01FC01EE0FFF1FEA0DFB1D2081BE
:1436B00031812063062F0E94DC06CA010196AC01FC01EE0F0F
:1436C400FF1FEA0DFB1D208131812063062F0E94DC0683E1D2
:1436D80099E099838883262F0AE00E943407CA010196AC0113
:1436EC00FC01EE0FFF1FEA0DFB1D208131812063062F0E94F6
:14370000DC06CA010196AC01FC01EE0FFF1FEA0DFB1D2081FC
:1437140031812063062F0E94DC06CA0101966C01AC01FC013A
:14372800EE0FFF1FEA0DFB1D208131812063062F0E94DC06D4
:14373C006F5F7F4F83E090E08617970708F035CF22960E9479
:14375000033A249608950E948D390E940E3ACE84DF842BE0BF
:1437640030E00A851B850E94B93958012BE030E00A851B85DB
:143778000E94B739B80123E030E085010E94B739780100301E
:14378C00010751F0C7010130E0E01E0741F00230E0E01E07BA
:1437A00039F008C041E050E005C042E050E002C043E050E0A7
:1437B4002BE030E00C851D850E94B93923E030E00E94B93978
:1437C80078010030010771F0C7010130E0E01E07A1F002303A
:1437DC00E0E01E0701F10330E0E01E0769F135C080E290E0C9
:1437F0000A841B848015910570F59601850107DE2AC081E4B7
:1438040090E00A841B848015910528F0C0018132E0E09E07F7
:14381800F0F496018501F7DD1AC08A859B858234E0E09E07A3
:14382C0038F082E690E00A841B848015910568F496018501B7
:14384000E6DD09C08A859B858336E0E09E0718F49601850172
:14385400DCDD4130E0E05E0749F403E010E00E94A50804E0CE
:1438680010E00E94A50810C04230E0E05E0721F04330E0E062
:14387C005E0741F4002711270E94A50807E010E00E94A508CA
:143890006030670729F4242F03E00E94F00631C06230E0E0F8
:1438A4007E0729F4242F05E00E94F00628C06430E0E07E07DD
:1438B80029F4242F07E00E94F0061FC06630E0E07E0729F436
:1438CC00242F09E00E94F00616C06830E0E07E0751F4242FC9
:1438E0000AE00E94F00623E139E0042F0E947E0708C069307A
:1438F400E0E07E0721F4242F0BE00E94F0060E94033A2496F7
:1439080008950E94493AEF97EF97EF97EF972C974427552727
:14391C00662777278CE597E0FE01329606E011E0FA93EA93DC
:143930009A938A930E946A3A8CE599E0998388832227002772
:143944000E9434072091880E3091890E2F5F3F4F206300272D
:143958000E94DC062AE300270E94DC0685E399E09983888317
:14396C00222704E00E94340780E399E099838883222707E00A
:143980000E9434078EE099E09983888322270AE00E94340738
:1439940089E099E09983888321E000270E9434078AE699E028
:1439A8009983888322E000270E9434078BE399E099838883D0
:1439BC0023E000270E943407AA24BB2420C01501220C331CD0
:1439D00021012091880E3091890E04E411E00E94E7398AE419
:1439E40092E01801280E391EF201E20DF31D20803180CE01A5
:1439F8000296F201E80FF91F31822082C50101965C01C5014C
:143A0C008438E0E09E07D8F29E012E5F3F4F00271127F7DCCF
:143A20004427552721E003E00E94F00603E010E00E94A5080D
:143A34002BC20E94D105A02E053609F582E0888321E001E0C3
:143A48000E94E90882E0888322E001E00E94E90882E0888387
:143A5C0023E001E00E94E908002711270E94A50804E010E05D
:143A70000E94A50883E090E09093930E8093920E06C28A2D2A
:143A8400853709F046C04538E0E05E0779F482E0888321E0F6
:143A980001E00E94590982E0888322E001E00E94E90844E826
:143AAC0050E0EEC14638E0E05E0779F482E0888322E001E0C7
:143AC0000E94590982E0888323E001E00E94E90845E850E0AD
:143AD400DBC18AE090E08417950708F0D5C183E88417950701
:143AE80008F4D0C1BA012BE030E08A010E94B939980121503E
:143AFC0030400BE010E00E94E739A801CE0102969983888372
:143B10009B0121DEBBC18A2D843609F040C04438E0E05E077F
:143B240079F482E0888321E001E00E94E90882E0888322E0CF
:143B380001E00E94590945E850E0A4C14538E0E05E0779F4C3
:143B4C0082E0888322E001E00E94E90882E0888323E001E031
:143B60000E94590946E850E091C14937E0E05E0708F08CC1B3
:143B7400BA012BE030E08A010E94B93998012F5F3F4F0BE0A8
:143B880010E00E94E739A801CE010296998388839B01DDDDEA
:143B9C0077C18A2D8C3609F049C0BA012BE030E08A010E945F
:143BB000B7390030010789F482E0888321E001E00E94590909
:143BC400002711270E94A50804E010E00E94A50844E850E0C0
:143BD80059C12BE030E08A010E94B7396801C6010230E0E065
:143BEC001E0761F00430E0E01E0741F00630E0E01E0721F0D9
:143C00000830E0E01E0751F442505040CE010296998388839E
:143C14009B018A019EDD38C14030450709F434C14150504032
:143C2800CE010296998388839B018A0190DD2AC18A2D82370B
:143C3C0041F583E890E084179507A0F482E0888321E001E049
:143C50000E94E90882E0888322E001E00E94E90882E088837D
:143C640023E001E00E94E908AB0107C04338E0E05E0718F4B6
:143C7800BA014F5F5F4FCE010296998388839B018A0165DD2A
:143C8C00FFC08A2D843709F098C04438E0E05E0709F03EC00A
:143CA00082E0888321E001E00E94E90882E0888322E001E0DE
:143CB4000E94E90882E0888323E001E00E94E9080027112726
:143CC8000E94A50804E010E00E94A5080E94EB078DEF98E0EE
:143CDC009983888322E005E00E94340781E090E090938B0E5C
:143CF00080938A0E84E09093870E8093860E86E09093930E28
:143D04008093920E9E012E5F3F4F0091880E1091890E0E943D
:143D18001433B9C04538E0E05E0709F582E0888321E001E0E8
:143D2C000E94E90882E0888322E001E00E94E90882E08883A0
:143D400023E001E00E94E908002711270E94A50804E010E076
:143D54000E94A50883E090E09093930E8093920E94C04638F0
:143D6800E0E05E0709F08EC082E0888321E001E00E94E908F9
:143D7C0082E0888322E001E00E94E90882E0888323E001E0FF
:143D90000E94E908002711270E94A50804E010E00E94A508BB
:143DA40081E090E090938D0E80938C0E84E09093870E8093A0
:143DB800860E87E09093930E8093920E64C08A2D803399F06E
:143DCC00813389F0823379F0833369F0843359F0853349F098
:143DE000863339F0873329F0883319F0893309F04DC0443818
:143DF400E0E05E0708F048C02BE030E08A010E94B93923E059
:143E080030E00E94B7390030010731F42A2D206301E00E944A
:143E1C00DC0605C02A2D206302E00E94DC06CE010296FA0149
:143E3000EE0FFF1FE80FF91F8A2D9927C09791838083BA01B4
:143E44006338E0E07E0750F44F5F5F4FCE010296998388835C
:143E58009B018A017CDC16C04338E0E05E0791F482E088836F
:143E6C0021E001E00E945909002711270E94A50804E010E0DA
:143E80000E94A50844E850E063E670E0D4CDEF96EF96EF96BA
:143E9400EF962C960C94523A0E942D3A22974427552780EF8F
:143EA80098E099838883222704E00E94340787EE98E0998354
:143EBC00888321E004E00E9434078EED98E09983888322E009
:143ED00004E00E94340722273327002711270E941011B8019F
:143EE4000030010759F481EA8883222703E00E940E0721ECDF
:143EF80000270E94DC060AC081EA8883222703E00E940E07E8
:143F0C002CEC00270E94DC06442755278AE08883222705E054
:143F20000E945909DCC00E94D105A02E053739F54130E0E00C
:143F34005E0729F04230E0E05E0781F0CEC088E0888321E0F1
:143F480005E00E94E9088AE08883222705E00E9459094427DB
:143F5C005527BFC088E0888322E005E00E94E90888E08883F6
:143F700021E005E00E94590941E050E0B0C08A2D843631F5FB
:143F84004030450729F04130E0E05E0781F0A5C08AE0888373
:143F9800222705E00E94E90888E0888321E005E00E945909F7
:143FAC0041E050E096C088E0888321E005E00E94E90888E006
:143FC000888322E005E00E94590942E050E087C08A2D8536EC
:143FD40039F54030450749F04130E0E05E0761F04230E0E09D
:143FE8005E0779F014C08AE08883222705E00E94E9080DC020
:143FFC0088E0888321E005E00E94E90806C088E0888322E08A
:1440100005E00E94E90881E090E09093930E8093920E5EC0BE
:144024008A2D843709F059C04030450749F04130E0E05E0779
:1440380071F14230E0E05E07B1F14DC06030670719F461E080
:14404C0070E002C0662777277983688322273327002711273A
:144060000E94F9106030670759F481EA8883222703E00E9412
:144074000E0721EC00270E94DC062FC081EA8883222703E0DA
:144088000E940E072CEC00270E94DC0624C088E090E09093CB
:14409C00930E8093920E888321E005E00E94E90819C085E0FA
:1440B00090E09093870E8093860E87E09093930E8093920E4F
:1440C4002224332430928D0E20928C0E88E0888322E005E048
:1440D8000E94E90801C023CF22960C94343A229720908A0EC7
:1440EC0030908B0E222059F4332049F48FEC98E0998388832E
:1441000021E004E00E94340721C080918A0E90918B0E8130F4
:14411400E0E09E0749F480EC98E09983888321E004E00E9463
:14412800340710C080918A0E90918B0E8230E0E09E0741F4C9
:14413C0081EB98E09983888321E004E00E94340704E610E0C8
:144150000E94E4042090860E3090870E3092930E2092920E83
:14416400229608950E942D3A229741E050E088EA98E09983D9
:144178008883222702E00E94340783EA98E09983888322E012
:14418C0002E00E9434078AE699E09983888322E008E00E94C4
:1441A00034078AE0888322E009E00E94590978C00E94D105BC
:1441B400A02E6A2D77276C36E0E07E07A1F08CE690E08617FD
:1441C800970734F06536E0E07E0709F450C064C06237E0E0B7
:1441DC007E07C9F06437E0E07E0741F15BC04130E0E05E07CE
:1441F00009F056C08AE0888322E009E00E94E90884E088834A
:1442040022E003E00E9459094427552747C04030450709F01A
:1442180043C084E0888322E003E00E94E9088AE0888322E031
:14422C0009E00E94590941E050E034C04030450769F484E0CF
:14424000888322E003E00E94E90889E090E09093930E809337
:14425400920E25C08AE0888322E009E00E94E9082090860E9A
:144268003090870E3092930E2092920E16C084E0888322E0F1
:14427C0003E00E94E9088AE0888322E009E00E94E908209015
:14429000860E3090870E3092930E2092920E01C087CF2296AD
:1442A4000C94343A0E942D3AEF9723974427552782E698E0E8
:1442B800FE01B6960CE110E0FA93EA939A938A930E946A3A30
:1442CC0006E00E94BE38B80182E090E0998788872224332409
:1442E0003B862A861B013694279436942794369427943694E4
:1442F40027943D862C86CB018F7090709F878E8705E00E94F9
:14430800BE38B801CB01969587959695879596958795969526
:14431C00879581709070998B888BCB018F7090709B8B8A8B43
:1443300004E00E94BE385801B501CB01969587959695879594
:144344009695879596958795837090709D8B8C8BCB018F70DA
:1443580090709F8B8E8B02E00E94BE385801B501CB0196958E
:14436C00879596958795969587959695879583709070998F31
:14438000888FCB018F7090709B8F8A8F01E00E94BE38580132
:14439400B501CB019695879596958795969587959695879577
:1443A800877090709D8F8C8FCB018F7090709F8F8E8F002786
:1443BC000E94BE385801B501CB0196958795969587959695C1
:1443D0008795969587958770907099A388A3CB018F7090704D
:1443E4009BA38AA3222701E00E94F0066627772720C0CE01BE
:1443F8000896FB01EE0FFF1FE80FF91F2081318120630027F0
:14440C000E94DC0620E200270E94DC066330E0E07E0721F082
:144420006530E0E07E0729F420EA38E000270E947E076F5F53
:144434007F4F6830E0E07E07E0F221E002E00E94F00668E034
:1444480070E020C0CE010896FB01EE0FFF1FE80FF91F2081FC
:14445C003181206301E00E94DC0620E200270E94DC0669306C
:14447000E0E07E0721F06B30E0E07E0729F425E139E000279F
:144484000E947E076F5F7F4F6E30E0E07E07E0F289E099E0CA
:144498009983888322E003E00E9434078AE699E09983888317
:1444AC0022E008E00E94340744275527222701E00E94F0068C
:1444C00003E010E00E94A50884C203E010E00E9426110E9432
:1444D400D105A02E6A2D053771F58DE090E084179507B8F437
:1444E80085E0888322E004E00E94E9088AE0888322E009E077
:1444FC000E94E90821E002E00E94F00603E010E00E94A5087C
:1445100048E050E05EC287E090E08417950708F058C24E3081
:14452400E0E05E0708F053C2222701E00E94F00644275527A8
:144538004CC2643619F587E090E08417950788F44E30E0E0F1
:14454C005E0768F4002711270E94A50885E0888322E004E096
:144560000E9459094EE050E034C287E090E08417950708F4E5
:144574002EC221E002E00E94F00648E050E027C26C3609F0EC
:1445880043C088E090E08417950790F04030450779F04150D7
:14459C0050402227CE018696FA01EE0FFF1FE80FF91F0081A1
:1445B00011810E94F0060DC288E090E08417950798F44E30E5
:1445C400E0E05E0778F44150504021E0CE018696FA01EE0F4D
:1445D800FF1FE80FF91F008111810E94F006F5C14F30E0E002
:1445EC005E0709F0F0C18AE0888322E009E00E94E90885E054
:14460000888322E004E00E9459094EE050E0E1C1623709F01F
:144614003AC04730E0E05E0778F44F5F5F4F2227CE01869600
:14462800FA01EE0FFF1FE80FF91F008111810E94F006CBC122
:14463C004D30E0E05E0778F44F5F5F4F21E0CE018696FA0119
:14465000EE0FFF1FE80FF91F008111810E94F006B8C14E308A
:14466400E0E05E0709F0B3C185E0888322E004E00E94E908C7
:144678008AE0888322E009E00E9459094FE050E0A4C165366B
:14468C00B9F4002711270E94A50885E0888322E004E00E94C7
:1446A000E9088AE0888322E009E00E94E90881E090E090932E
:1446B400930E8093920E8CC1643709F085C04E30E0E05E07D5
:1446C80009F064C028A139A100E110E00E94E73918014AA088
:1446DC005BA0240C351C3F822E822C8D3D8D00E110E00E94E7
:1446F000E73918014E8C5F8C240C351C3D822C82288D398D4F
:1447040000E110E00E94E73918014A8C5B8C240C351C3B82FA
:144718002A822C893D8900E110E00E94E73918014E885F88FD
:14472C00240C351C398228822889398900E110E00E94E7398D
:1447400098012A883B88220D331D2C843D8400E110E02F93D4
:144754003F9391010E94E73918013F912F914E845F84240C9D
:14476800351C81010E94D2382224332430928B0E20928A0E7C
:14477C0088E090E09093870E8093860E86E09093930E8093B5
:14479000920E20C14F30E0E05E0709F01AC1002711270E941B
:1447A400A50885E0888322E004E00E94E9088AE0888322E0F4
:1447B80009E00E94E90881E090E09093930E8093920E04C164
:1447CC00603399F0613389F0623379F0633369F0643359F0E3
:1447E000653349F0663339F0673329F0683319F0693309F046
:1447F400EEC04E30E0E05E0708F0E9C0262F206300270E941E
:14480800DC0620E200270E94DC0677276033E0E07E0709F49A
:14481C002EC06133E0E07E0709F435C06233E0E07E0709F4F8
:144830003CC06333E0E07E0709F443C06433E0E07E0709F4C4
:144844004AC06533E0E07E0709F451C06633E0E07E0709F490
:1448580058C06733E0E07E0709F45FC06833E0E07E0709F45C
:14486C0066C06933E0E07E0709F46DC077C0CE010896FA0168
:14488000EE0FFF1FE80FF91F22243324318220826BC0CE010E
:144894000896FA01EE0FFF1FE80FF91F81E090E09183808365
:1448A8005FC0CE010896FA01EE0FFF1FE80FF91F82E090E079
:1448BC009183808353C0CE010896FA01EE0FFF1FE80FF91F2C
:1448D00083E090E09183808347C0CE010896FA01EE0FFF1F60
:1448E400E80FF91F84E090E0918380833BC0CE010896FA0163
:1448F800EE0FFF1FE80FF91F85E090E0918380832FC0CE01D8
:14490C000896FA01EE0FFF1FE80FF91F86E090E091838083E7
:1449200023C0CE010896FA01EE0FFF1FE80FF91F87E090E037
:144934009183808317C0CE010896FA01EE0FFF1FE80FF91FEF
:1449480088E090E0918380830BC0CE010896FA01EE0FFF1F1E
:14495C00E80FF91F89E090E0918380834330E0E05E0721F09F
:144970004530E0E05E0731F420EA38E000270E947E070DC037
:144984004930E0E05E0721F04B30E0E05E0729F425E139E094
:1449980000270E947E074F5F5F4F4830E0E05E0731F421E09E
:1449AC000EA91FA90E94F0060EC04E30E0E05E0751F4002703
:1449C00011270E94A50885E0888322E004E00E9459097BCDBA
:1449D400EF9623960C94343A229720908C0E30908D0E2220E3
:1449E80081F4332071F48FE898E09983888321E004E00E94F1
:1449FC00340781B5886181BD8EE081BDFFCF80918C0E9091C9
:144A10008D0E8130E0E09E0771F48EE798E09983888321E067
:144A240004E00E9434070091880E1091890E0E94383402E36B
:144A380010E00E94E4042090860E3090870E3092930E209242
:144A4C00920E229608950E94EB078091920E9091930E8130A9
:144A6000E0E09E0719F40E94421152C08091920E9091930E56
:144A74008230E0E09E0719F40E94251547C08091920E909155
:144A8800930E8330E0E09E0719F40E946E163CC08091920E81
:144A9C009091930E8430E0E09E0719F40E94851C31C08091D9
:144AB000920E9091930E8530E0E09E0711F4EED927C08091B2
:144AC400920E9091930E8630E0E09E0711F409DB1DC080918A
:144AD800920E9091930E8730E0E09E0711F440DB13C0809148
:144AEC00920E9091930E8830E0E09E0711F4D6DB09C08091A7
:144B0000920E9091930E8930E0E09E0709F466DF08950A92A6
:144B14001A922A923A924A925A926A927A928A929A920A93A4
:144B28001A932A933A938A939A93AA93BA93EA93FA930FB69F
:144B3C000A920E94193A22974427552789B78B7F89BF87B764
:144B50008F7B87BF80919B0E90919C0E019690939C0E809305
:144B64009B0E88E592E020909B0E30909C0E8215930508F0CB
:144B780027C32224332430929C0E20929B0E20904802309021
:144B8C0049023982288225E830E001E010E00E94F91020901C
:144BA000480230904902C1018130E0E09E0729F08330E0E048
:144BB4009E0709F0AFC020905203309053033982288226E852
:144BC80030E001E010E00E94F9102090540330905503232CDF
:144BDC0033243982288227E830E001E010E00E94F91080915D
:144BF00054039091550390709983888328E830E001E010E0C9
:144C04000E94F9102090560330905703232C332439822882C3
:144C180029E830E001E010E00E94F910809156039091570306
:144C2C009070998388832AE830E001E010E00E94F9102090FF
:144C4000580330905903232C3324398228822BE830E001E0DA
:144C540010E00E94F9108091580390915903907099838883A1
:144C68002CE830E001E010E00E94F91020905C0330905D0369
:144C7C00398228822DE830E001E010E00E94F91020905E030D
:144C900030905F03232C3324398228822EE830E001E010E0EC
:144CA4000E94F91080915E0390915F039070998388832FE81E
:144CB80030E001E010E00E94F91020916A0330916B0300917E
:144CCC006803109169030E94343B1801232C332427FC3094A5
:144CE0003982288220E930E001E010E00E94F91020916A03A8
:144CF40030916B0300916803109169030E94343BC80190709A
:144D08009983888321E930E001E010E00E94F91020908C039B
:144D1C0030908D033982288225E830E002E010E00E94F91034
:144D300080918C0390918D038130E0E09E0729F08330E0E07C
:144D44009E0709F0AFC020909604309097043982288226E836
:144D580030E002E010E00E94F9102090980430909904232CC2
:144D6C0033243982288227E830E002E010E00E94F9108091CA
:144D800098049091990490709983888328E830E002E010E0AC
:144D94000E94F91020909A0430909B04232C332439822882A8
:144DA80029E830E002E010E00E94F91080919A0490919B04EA
:144DBC009070998388832AE830E002E010E00E94F91020906D
:144DD0009C0430909D04232C3324398228822BE830E002E0BE
:144DE40010E00E94F91080919C0490919D0490709983888386
:144DF8002CE830E002E010E00E94F9102090A0043090A1044D
:144E0C00398228822DE830E002E010E00E94F9102090A20435
:144E20003090A304232C3324398228822EE830E002E010E014
:144E34000E94F9108091A2049091A3049070998388832FE802
:144E480030E002E010E00E94F9102091AE043091AF04009161
:144E5C00AC041091AD040E94343B1801232C332427FC309489
:144E70003982288220E930E002E010E00E94F9102091AE04D0
:144E84003091AF040091AC041091AD040E94343BC801907039
:144E98009983888321E930E002E010E00E94F9102090D004C4
:144EAC003090D1043982288225E830E003E010E00E94F9105D
:144EC0008091D0049091D1048130E0E09E0729F08330E0E061
:144ED4009E0709F0AFC02090DA053090DB053982288226E81B
:144EE80030E003E010E00E94F9102090DC053090DD05232CA6
:144EFC0033243982288227E830E003E010E00E94F910809138
:144F1000DC059091DD0590709983888328E830E003E010E08F
:144F24000E94F9102090DE053090DF05232C3324398228828C
:144F380029E830E003E010E00E94F9108091DE059091DF05CD
:144F4C009070998388832AE830E003E010E00E94F9102090DA
:144F6000E0053090E105232C3324398228822BE830E003E0A1
:144F740010E00E94F9108091E0059091E1059070998388836A
:144F88002CE830E003E010E00E94F9102090E4053090E50530
:144F9C00398228822DE830E003E010E00E94F9102090E6055E
:144FB0003090E705232C3324398228822EE830E003E010E03D
:144FC4000E94F9108091E6059091E7059070998388832FE8E7
:144FD80030E003E010E00E94F9102091F2053091F305009145
:144FEC00F0051091F1050E94343B1801232C332427FC30946E
:145000003982288220E930E003E010E00E94F9102091F205F8
:145014003091F3050091F0051091F1050E94343BC8019070D8
:145028009983888321E930E003E010E00E94F91020901406EB
:14503C00309015063982288225E830E004E010E00E94F91084
:1450500080911406909115068130E0E09E0729F08330E0E043
:145064009E0709F0AFC020901E0730901F073982288226E8FD
:1450780030E004E010E00E94F9102090200730902107232C87
:14508C0033243982288227E830E004E010E00E94F9108091A5
:1450A00020079091210790709983888328E830E004E010E071
:1450B4000E94F9102090220730902307232C3324398228826F
:1450C80029E830E004E010E00E94F9108091220790912307AF
:1450DC009070998388832AE830E004E010E00E94F910209048
:1450F000240730902507232C3324398228822BE830E004E083
:1451040010E00E94F91080912407909125079070998388834C
:145118002CE830E004E010E00E94F910209028073090290711
:14512C00398228822DE830E004E010E00E94F91020902A0785
:1451400030902B07232C3324398228822EE830E004E010E064
:145154000E94F91080912A0790912B079070998388832FE8C9
:1451680030E004E010E00E94F9102091360730913707009126
:14517C003407109135070E94343B1801232C332427FC309450
:145190003982288220E930E004E010E00E94F9102091360720
:1451A4003091370700913407109135070E94343BC801907075
:1451B8009983888321E930E004E010E00E94F91080914802C8
:1451CC00909149028130E0E09E0709F073C140915203509119
:1451E000530320905C0330905D03222009F044C0332009F0AB
:1451F40041C080915603909157030196909357038093560341
:1452080020905403309055038215930568F0CA010196909367
:14521C0053038093520381E090E090935D0380935C0348C1F1
:1452300040FF01C045C180915A0390915B03019690935B035F
:1452440080935A0320905803309059032816390608F034C155
:1452580080915E0390915F03019690935F0380935E03222477
:14526C00332430925B0320925A0324C12224332430925D0304
:1452800020925C03309257032092560340FFBDC09A0121501A
:145294003040369527950BE010E00E94E739A8018AE492E0E9
:1452A800FA013296EE0FFF1FE80FF91F208131810AE010E0D8
:1452BC000E94E73998018AE492E0FA013396EE0FFF1FE80FCD
:1452D000F91F20803180220D331D0CE310E00E94E739180128
:1452E4008AE492E0FA01EE0FFF1FE80FF91F208131810AE074
:1452F80010E00E94E73998018AE492E0FA013196EE0FFF1F9A
:14530C00E80FF91F40805180240D351D00E11EE00E94E739C9
:145320002801420C531C5092550340925403442049F455201A
:1453340039F484E090E09093490280934802BEC08AE492E03B
:14534800FA013996EE0FFF1FE80FF91F208131810AE010E030
:14535C000E94E73918018AE492E0FA013896EE0FFF1FE80FA7
:14537000F91F2081318104E610E00E94E7392801420C531C3C
:145384008AE492E0FA013A96EE0FFF1FE80FF91F20803180EF
:14539800420C531C50925F0340925E030091540310915503EC
:1453AC000E94663B1801290100915E0310915F030E94663B2F
:1453C0008CE693E09A938A930E94193B810192010E94933B2F
:1453D4000E94343B10935903009358032224332430925B030A
:1453E80020925A0300915E0310915F030E94663B109369035B
:1453FC000093680330936B0320936A035BC09A0121503040B7
:14541000369527950BE010E00E94E739A8014C5F5F4F8AE4F4
:1454240092E0FA013296EE0FFF1FE80FF91F208131810AE0D8
:1454380010E00E94E73998018AE492E0FA013396EE0FFF1F56
:14544C00E80FF91F20803180220D331D0CE310E00E94E739CC
:1454600018018AE492E0FA01EE0FFF1FE80FF91F20813181C7
:145474000AE010E00E94E73998018AE492E0FA013196EE0F50
:14548800FF1FE80FF91F40805180240D351D00E11EE00E944E
:14549C00E7392801420C531C5092550340925403442041F4FA
:1454B000552031F484E090E0909349028093480280918C030F
:1454C40090918D038130E0E09E0709F073C140919604509194
:1454D80097042090A0043090A104222009F044C0332009F0E1
:1454EC0041C080919A0490919B04019690939B0480939A0432
:1455000020909804309099048215930568F0CA0101969093E2
:1455140097048093960481E090E09093A1048093A00448C1E2
:1455280040FF01C045C180919E0490919F04019690939F0495
:14553C0080939E0420909C0430909D042816390608F034C18B
:145550008091A2049091A30401969093A3048093A204222468
:14556400332430929F0420929E0424C1222433243092A1043A
:145578002092A00430929B0420929A0440FFBDC09A01215050
:14558C003040369527950BE010E00E94E739A8018EE893E0E5
:1455A000FA013296EE0FFF1FE80FF91F208131810AE010E0DD
:1455B4000E94E73998018EE893E0FA013396EE0FFF1FE80FC9
:1455C800F91F20803180220D331D0CE310E00E94E73918012D
:1455DC008EE893E0FA01EE0FFF1FE80FF91F208131810AE070
:1455F00010E00E94E73998018EE893E0FA013196EE0FFF1F96
:14560400E80FF91F40805180240D351D00E11EE00E94E739CE
:145618002801420C531C5092990440929804442049F4552095
:14562C0039F484E090E090938D0380938C03BEC08EE893E0AD
:14564000FA013996EE0FFF1FE80FF91F208131810AE010E035
:145654000E94E73918018EE893E0FA013896EE0FFF1FE80FA3
:14566800F91F2081318104E610E00E94E7392801420C531C41
:14567C008EE893E0FA013A96EE0FFF1FE80FF91F20803180EB
:14569000420C531C5092A3044092A2040091980410919904DD
:1456A4000E94663B180129010091A2041091A3040E94663BAA
:1456B80080EB94E09A938A930E94193B810192010E94933B3A
:1456CC000E94343B10939D0400939C042224332430929F0440
:1456E00020929E040091A2041091A3040E94663B1093AD044C
:1456F4000093AC043093AF042093AE045BC09A0121503040ED
:14570800369527950BE010E00E94E739A8014C5F5F4F8EE8F1
:14571C0093E0FA013296EE0FFF1FE80FF91F208131810AE0DC
:1457300010E00E94E73998018EE893E0FA013396EE0FFF1F52
:14574400E80FF91F20803180220D331D0CE310E00E94E739D1
:1457580018018EE893E0FA01EE0FFF1FE80FF91F20813181C3
:14576C000AE010E00E94E73998018EE893E0FA013196EE0F4C
:14578000FF1FE80FF91F40805180240D351D00E11EE00E9453
:14579400E7392801420C531C5092990440929804442041F475
:1457A800552031F484E090E090938D0380938C038091D00445
:1457BC009091D1048130E0E09E0709F073C14091DA0550910F
:1457D000DB052090E4053090E505222009F044C0332009F017
:1457E40041C08091DE059091DF0501969093DF058093DE0523
:1457F8002090DC053090DD058215930568F0CA01019690935E
:14580C00DB058093DA0581E090E09093E5058093E40548C1D3
:1458200040FF01C045C18091E2059091E30501969093E305CB
:145834008093E2052090E0053090E1052816390608F034C1C1
:145848008091E6059091E70501969093E7058093E605222459
:14585C0033243092E3052092E20524C1222433243092E50570
:145870002092E4053092DF052092DE0540FFBDC09A01215086
:145884003040369527950BE010E00E94E739A80182ED94E0F0
:14589800FA013296EE0FFF1FE80FF91F208131810AE010E0E2
:1458AC000E94E739980182ED94E0FA013396EE0FFF1FE80FD4
:1458C000F91F20803180220D331D0CE310E00E94E739180132
:1458D40082ED94E0FA01EE0FFF1FE80FF91F208131810AE07B
:1458E80010E00E94E739980182ED94E0FA013196EE0FFF1FA1
:1458FC00E80FF91F40805180240D351D00E11EE00E94E739D4
:145910002801420C531C5092DD054092DC05442049F4552010
:1459240039F484E090E09093D1048093D004BEC082ED94E02E
:14593800FA013996EE0FFF1FE80FF91F208131810AE010E03A
:14594C000E94E739180182ED94E0FA013896EE0FFF1FE80FAE
:14596000F91F2081318104E610E00E94E7392801420C531C46
:1459740082ED94E0FA013A96EE0FFF1FE80FF91F20803180F6
:14598800420C531C5092E7054092E6050091DC051091DD05CE
:14599C000E94663B180129010091E6051091E7050E94663B25
:1459B00084EF95E09A938A930E94193B810192010E94933B36
:1459C4000E94343B1093E1050093E005222433243092E30576
:1459D8002092E2050091E6051091E7050E94663B1093F1053D
:1459EC000093F0053093F3052093F2055BC09A012150304023
:145A0000369527950BE010E00E94E739A8014C5F5F4F82EDFD
:145A140094E0FA013296EE0FFF1FE80FF91F208131810AE0E0
:145A280010E00E94E739980182ED94E0FA013396EE0FFF1F5D
:145A3C00E80FF91F20803180220D331D0CE310E00E94E739D6
:145A5000180182ED94E0FA01EE0FFF1FE80FF91F20813181CE
:145A64000AE010E00E94E739980182ED94E0FA013196EE0F57
:145A7800FF1FE80FF91F40805180240D351D00E11EE00E9458
:145A8C00E7392801420C531C5092DD054092DC05442041F4F0
:145AA000552031F484E090E09093D1048093D004809114067A
:145AB400909115068130E0E09E0709F073C140911E07509188
:145AC8001F072090280730902907222009F044C0332009F04A
:145ADC0041C080912207909123070196909323078093220710
:145AF00020902007309021078215930568F0CA0101969093D7
:145B04001F0780931E0781E090E0909329078093280748C1C0
:145B180040FF01C045C18091260790912707019690932707FE
:145B2C008093260720902407309025072816390608F034C1F4
:145B400080912A0790912B07019690932B0780932A07222446
:145B54003324309227072092260724C12224332430922907A3
:145B680020922807309223072092220740FFBDC09A012150B9
:145B7C003040369527950BE010E00E94E739A80186E196E0FB
:145B9000FA013296EE0FFF1FE80FF91F208131810AE010E0E7
:145BA4000E94E739980186E196E0FA013396EE0FFF1FE80FDF
:145BB800F91F20803180220D331D0CE310E00E94E739180137
:145BCC0086E196E0FA01EE0FFF1FE80FF91F208131810AE086
:145BE00010E00E94E739980186E196E0FA013196EE0FFF1FAC
:145BF400E80FF91F40805180240D351D00E11EE00E94E739D9
:145C08002801420C531C5092210740922007442049F4552089
:145C1C0039F484E090E09093150680931406BEC086E196E0AD
:145C3000FA013996EE0FFF1FE80FF91F208131810AE010E03F
:145C44000E94E739180186E196E0FA013896EE0FFF1FE80FB9
:145C5800F91F2081318104E610E00E94E7392801420C531C4B
:145C6C0086E196E0FA013A96EE0FFF1FE80FF91F2080318001
:145C8000420C531C50922B0740922A070091200710912107BB
:145C94000E94663B1801290100912A0710912B070E94663B9E
:145CA80088E397E09A938A930E94193B810192010E94933B41
:145CBC000E94343B10932507009324072224332430922707A9
:145CD0002092260700912A0710912B070E94663B109335072A
:145CE4000093340730933707209336075BC09A012150304056
:145CF800369527950BE010E00E94E739A8014C5F5F4F86E10B
:145D0C0096E0FA013296EE0FFF1FE80FF91F208131810AE0E3
:145D200010E00E94E739980186E196E0FA013396EE0FFF1F68
:145D3400E80FF91F20803180220D331D0CE310E00E94E739DB
:145D4800180186E196E0FA01EE0FFF1FE80FF91F20813181D9
:145D5C000AE010E00E94E739980186E196E0FA013196EE0F62
:145D7000FF1FE80FF91F40805180240D351D00E11EE00E945D
:145D8400E7392801420C531C5092210740922007442041F469
:145D9800552031F484E090E0909315068093140687B78064FC
:145DAC0087BF89B7846089BF22960E941E3A09900FBEF9918F
:145DC000E991B991A99199918991399129911991099199909C
:145DD40089907990699059904990399029901990099018956D
:145DE8000E942D3A229722243324309247022092460282E1E0
:145DFC0090E09093450280934402442755275AC12090460266
:145E10003090470222FE0FC004E411E09A010E94E73988E4E4
:145E240092E0F801E80FF91F82E090E09183808343C104E41B
:145E380011E09A010E94E7398CE693E0F801E80FF91F80910A
:145E4C00460290914702807F907096958795969587959695D8
:145E600087959695879500914402109145020F731070000FFB
:145E7400111F000F111F000F111F000F111F082B192B0E9414
:145E8800663B008311832283338304E411E09A010E94E739BD
:145E9C0088E492E0F801E80FF91F808191818130E0E09E07E3
:145EB00009F0A0C0662777273FC004E411E09A010E94E73925
:145EC40018018CE693E0280E391E3101F10120803180428008
:145ED80053808091460290914702807F9070969587959695AF
:145EEC008795969587959695879500914402109145020F73B7
:145F00001070000F111F000F111F000F111F000F111F082BDE
:145F1400192B0E94663B3A932A931A930A93810192010E9467
:145F2800F93AF30100831183228333836F5F7F4F6930E0E0D7
:145F3C007E0708F4BCCF04E411E09A010E94E73918018CE684
:145F500093E0280E391E3101F101208031804280538008E942
:145F640010E00E94D3393A932A931A930A93810192010E9400
:145F7800933BF301008311832283338304E411E09A010E94CB
:145F8C00E73982E593E0F801E80FF91F2080318020FE01C0CF
:145FA0008DC004E411E09A010E94E739580188E693E0F5013A
:145FB400E80FF91F00811181228133818CE693E01501280E2F
:145FC800391E3A922A920E94043B1801290108E910E00E943F
:145FDC00D3393A932A931A930A93810192010E94363D0CF0AB
:145FF00065C064C004E411E09A010E94E73988E492E0F80147
:14600400E80FF91F808191818530E0E09E0709F035C004E476
:1460180011E09A010E94E73988E492E0F801E80FF91F81E0DF
:14602C0090E09183808304E411E09A010E94E73982E593E0C9
:14604000F801E80FF91F81E090E09183808304E411E09A01E8
:146054000E94E7398CE593E0F801E80FF91F81E090E09183A5
:14606800808385E09983888325E830E08A010F5F1F4F0E946F
:14607C00F9101EC004E411E09A010E94E73988E492E0F8011C
:14609000E80FF91F808191818230E0E09E0771F404E411E085
:1460A4009A010E94E73988E492E0F801E80FF91F2224332408
:1460B800318220824F5F5F4F4430E0E05E0708F4A1CE229667
:1460CC000C94343A0E94233A4427552768C104E411E09A012F
:1460E0000E94E73988E492E0F801E80FF91F222433243182B4
:1460F40020826627772715C004E411E09A010E94E7391801A7
:146108008AE492E0280E391EFB01EE0FFF1FE20DF31D2224BA
:14611C003324318220826F5F7F4F6438E0E07E0738F304E433
:1461300011E09A010E94E73982E593E0F801E80FF91F2224E5
:1461440033243182208204E411E09A010E94E73984E593E089
:14615800F801E80FF91F222433243182208204E411E09A01C5
:14616C000E94E73986E593E0F801E80FF91F22243324318227
:14618000208204E411E09A010E94E73988E593E0F801E80F63
:14619400F91F222433243182208204E411E09A010E94E739B7
:1461A8008AE593E0F801E80FF91F222433243182208204E41F
:1461BC0011E09A010E94E7398CE593E0F801E80FF91F81E034
:1461D00090E09183808304E411E09A010E94E7398EE593E018
:1461E400F801E80FF91F222433243182208204E411E09A0139
:1461F8000E94E73980E693E0F801E80FF91F222433243182A0
:14620C00208204E411E09A010E94E73982E693E0F801E80FDB
:14622000F91F222433243182208204E411E09A010E94E7392A
:1462340084E693E0F801E80FF91F222433243182208204E497
:1462480011E09A010E94E73986E693E0F801E80FF91F2224C7
:14625C0033243182208204E411E09A010E94E73988E693E06B
:14627000F801E80FF91F04E910E00E94D339008311832283CB
:14628400338304E411E09A010E94E7398CE693E0F801E80F45
:14629800F91F04E910E00E94D339008311832283338304E4F5
:1462AC0011E09A010E94E73980E793E0F801E80FF91F04E9C1
:1462C00010E00E94D339008311832283338304E411E09A0146
:1462D4000E94E73984E793E0F801E80FF91F04E910E00E948F
:1462E800D339008311832283338304E411E09A010E94E739EE
:1462FC0088E793E0F801E80FF91F04E910E00E94D339008396
:1463100011832283338304E411E09A010E94E7398CE793E06E
:14632400F801E80FF91F04E910E00E94D33900831183228316
:14633800338304E411E09A010E94E73980E893E0F801E80F9A
:14634C00F91F04E910E00E94D339008311832283338304E440
:1463600011E09A010E94E73984E893E0F801E80FF91F04E907
:1463740010E00E94D339008311832283338304E411E09A0191
:146388000E94E73988E893E0F801E80FF91F00E910E00E94D9
:14639C00D33900831183228333834F5F5F4F4430E0E05E077A
:1463B00008F493CE0C94283A0E94493A442755272CC1222738
:1463C40033278A010F5F1F4F0E941011B8010130E0E01E0772
:1463D80009F01DC125E830E08A010F5F1F4F0E94101118017A
:1463EC0004E411E09A010E94E73988E492E0F801E80FF91F81
:146400003182208204E411E09A010E94E73988E492E0F80126
:14641400E80FF91F608171816130E0E07E0729F06330E0E050
:146428007E0709F0D1C026E830E08A010F5F1F4F0E94101109
:14643C00580104E411E09A010E94E73982E593E0F801E80FF3
:14645000F91FB182A08227E830E08A010F5F1F4F0E94101182
:14646400680128E830E08A010F5F1F4F0E941011580104E430
:1464780011E09A010E94E73984E593E0F801E80FF91F1601C7
:14648C00322C22242A283B283182208229E830E08A010F5F34
:1464A0001F4F0E94101168012AE830E08A010F5F1F4F0E9423
:1464B4001011580104E411E09A010E94E73986E593E0F8014D
:1464C800E80FF91F1601322C22242A283B28318220822BE8D9
:1464DC0030E08A010F5F1F4F0E94101168012CE830E08A015A
:1464F0000F5F1F4F0E941011580104E411E09A010E94E7396A
:1465040088E593E0F801E80FF91F1601322C22242A283B282B
:14651800318220822DE830E08A010F5F1F4F0E941011580172
