:040000000C944F000D
:040028000C949D0691
:040038000C944C06D2
:040040000C94FE0519
:040074000C94EE06F4
:11008C0048656C6C6F20576F726C6421000000000026
:14009E00CFEFD0E1CDBFDEBFCE51D0400AEA08830024E1E122
:1400B200F1E015E0EE3CF10711F00192FBCF0083ECE8F0E0CD
:1400C600A0E0B1E010E000E00BBFED39F10721F0C895319628
:1400DA000D92F9CF0E949805FFCF000F111F0150104081E05D
:1400EE0090E080179107C8F308954A935A93A8014150504073
:1401020005E714E0EEDF81E090E084179507B0F359914991CD
:1401160008954A935A93A8014150504008EE13E0E8DF81E093
:14012A0090E084179507B0F3599149910895AA924A939298D3
:14013E009098929A48E00AC09098A02E00FF02C0919A01C0C4
:1401520091980695909A4A9580E0841798F348E00AC090982C
:14016600A22E20FF02C0919A01C091982695909A4A9580E09B
:14017A00841798F392984991A99008950E94850AC02EAA2484
:14018E0092989098929A48E00AC0EC2CC0FE02C0919A01C069
:1401A20091989098C694909A4A9580E0841798F381B38D7FCF
:1401B60081BB44270EC0909A909801E010E00E947C0000B3CC
:1401CA0002700695142F0E94CD0AA02A4395483080F381B397
:1401DE00876081BB92980A2D0C947A0A81B3876081BB2224C8
:1401F20022BA20E80EE89FCFAA924A93219705E8C1DF07FF4D
:1402060048C005E8BDDF802F82958F708170B9F005E8B6DF72
:14021A00A02E8A2D82958F7081708063888321E000270E948C
:14022E00B60305E8A9DF402F242F2F70206301E00E947E03A6
:140242000FC080E2888321E000270E94B60305E899DF402F15
:14025600242F2F70206301E00E947E0305E890DFA02E05FFED
:14026A000BC080E5888321E005E00E94B6032DE401E00E9470
:14027E007E0321C081E4888321E005E00E94B6032DE401E067
:140292000E947E0316C005E875DFA02E8A2D82958F70837090
:1402A6008063888321E000270E94B60305E868DF402F242FDD
:1402BA002F70206301E00E947E038AE3888321E001E00E940E
:1402CE00B60303E859DFA02E2A2D22952F70206301E00E94BF
:1402E2007E0303E84FDF402F242F2F70206301E00E947E0386
:1402F6002AE301E00E947E0301E842DFA02E2A2D22952F705E
:14030A00206301E00E947E0301E838DF402F242F2F70206374
:14031E0001E00E947E0321964991A990089508954A935A93F9
:1403320080EE84BB809164008061809364008FED85BB809170
:14034600650080618093650001E010E00E94720043B355278E
:14035A004F3CE0E05E07E9F04F3CE0E05E07DCF0473DE0E046
:14036E005E0799F04B3DE0E05E0769F04D3DE0E05E0739F0AF
:140382004E3DE0E05E0709F00AC005E699C001E697C004E688
:1403960095C005E793C00CE691C08FEB85BB8091650080616B
:1403AA008093650001E010E00E94720043B355274F3AE0E027
:1403BE005E07E9F04F3AE0E05E07DCF0473BE0E05E0799F043
:1403D2004B3BE0E05E0769F04D3BE0E05E0739F04E3BE0E0F4
:1403E6005E0709F00AC003E769C002E767C004E765C003E6BF
:1403FA0063C00BE261C08FE785BB8091650080618093650039
:14040E0001E010E00E94720043B355274F36E0E05E07E9F000
:140422004F36E0E05E07DCF04737E0E05E0799F04B37E0E0E2
:140436005E0769F04D37E0E05E0739F04E37E0E05E0709F07F
:14044A000AC000E339C003E337C002E335C001E333C006E381
:14045E0031C08FEF85BB809165008F708093650001E010E01D
:140472000E94720043B355274F3EE0E05E07E9F04F3EE0E018
:140486005E07DCF0473FE0E05E0799F04B3FE0E05E0769F0F5
:14049A004D3FE0E05E0739F04E3FE0E05E0709F00AC007E315
:1404AE0009C008E307C009E305C004E303C005E301C00EE6C7
:1404C200599149910895AA92CA9230DFA02E02E010E00E94DC
:1404D6007C002ADFC02EA01611F40A2D01C00EE6C990A99066
:1404EA0008954A935A9322242ABA809165008D7F8093650073
:1404FE00809165008160809365008091650088608093650045
:1405120001E010E00E947C0049B35527407850708FEF8ABB33
:1405260080916500877F809365008A01599149910895AA92A5
:14053A00A02ED7DF00300107E1F7809165008D7F809365001F
:14054E00809165008E7F8093650080916500877F80936500AA
:1405620001E010E00E947C00ABBA02E010E00E947C00809130
:14057600650088608093650001E010E00E947C008091650047
:14058A00877F80936500A9900895AA92A02EA9DF003001073F
:14059E00E1F780916500826080936500809165008E7F80930B
:1405B200650080916500877F80936500ABBA02E010E00E9403
:1405C6007C008091650088608093650002E010E00E947C00DF
:1405DA0080916500877F80936500A990089501E0A6DF05E0F8
:1405EE0010E00C947C004A935A9322242ABA809165008D7F77
:14060200809365008091650081608093650080916200816049
:140616008093620001E010E00E947C0049B35527407850707C
:14062A008FEF8ABB809162008E7F809362008A0159914991B5
:14063E000895AA92A02ED7DF00300107E1F7809165008D7FB9
:1406520080936500809165008E7F80936500809162008E7FA1
:140666008093620001E010E00E947C00ABBA02E010E00E9443
:14067A007C008091620081608093620001E010E00E947C0038
:14068E00809162008E7F80936200A9900895AA92A02EA9DFFB
:1406A20000300107E1F78091650082608093650080916500EE
:1406B6008E7F80936500809162008E7F80936200ABBA02E06F
:1406CA0010E00E947C008091620081608093620002E010E073
:1406DE000E947C00809162008E7F80936200A990089501E03E
:1406F200A6DF05E010E00C947C00AA924A93A22E402F4423BF
:1407060019F40A2D44DF0EC0413019F40A2D3FDF09C042309C
:14071A0019F40A2DBEDF04C0433011F40A2DB9DF4991A990CC
:14072E0008954A936A93622F402F662321F4042F0058FBDE3E
:1407420011C0613021F4042F0057F5DE0BC0623021F4042F2A
:14075600005873DF05C0633019F4042F00576DDF69914991D6
:14076A0008950E94980A622F402FAE80662331F4042F005833
:14077E00DCDE0A2D08DF17C0613031F4042F0057D4DE0A2D8F
:1407920000DF0FC0623031F4042F005850DF0A2D7CDF07C0DB
:1407A600633029F4042F005748DF0A2D74DF0C949F0A0E9469
:1407BA00980AA22E602F4E815F81AA2071F4062F0058B5DE2C
:1407CE0005C0FA010081DFDE4F5F5F4FFA0120802220B9F730
:1407E20032C08A2D813071F4062F0057A4DE05C0FA010081F5
:1407F600CEDE4F5F5F4FFA0120802220B9F721C08A2D823010
:14080A0071F4062F005817DF05C0FA01008141DF4F5F5F4F35
:14081E00FA0120802220B9F710C08A2D833069F4062F005716
:1408320006DF05C0FA01008130DF4F5F5F4FFA012080222044
:14084600B9F70C949F0A4A935A9322242ABA809165008D7F2F
:14085A008093650080916500816080936500809165008860E5
:14086E008093650001E010E00E947C0049B355274F778FEF53
:140882008ABB80916500877F80936500042F59914991089595
:140896004A935A9322242ABA809165008D7F8093650080914F
:1408AA0065008160809365008091620081608093620001E0D2
:1408BE0010E00E947C0049B355274F778FEF8ABB80916200A4
:1408D2008E7F80936200042F599149910895AA92BA9222242E
:1408E6002ABA809165008260809365008091650081608093E0
:1408FA0065008091650088608093650001E010E00E947C00C0
:14090E00A9B2BB248FEF8ABB80916500877F809365000A2DAD
:14092200B990A9900895AA92BA9222242ABA80916500826098
:14093600809365008091650081608093650080916200816012
:14094A008093620001E010E00E947C00A9B2BB248FEF8ABB38
:14095E00809162008E7F809362000A2DB990A99008950E9498
:14097200980A622F402F662349F4042F0058DBDD0AE010E0EC
:140986000E947200AADF24C0613049F4042F0057D0DD0AE0ED
:14099A0010E00E9472009FDF19C0623051F4042F005849DE65
:1409AE000AE010E00E947200B8DFA02E0DC0633051F4042F0A
:1409C20000573DDE0AE010E00E947200ACDFA02E01C0002780
:1409D6000C949F0AAA92A02E0A2DABDD7EDFA9900895AA928C
:1409EA00A02E0A2DA4DD9BDFA99008958AB38F6F8ABB8FEF25
:1409FE008BBB809164008F6080936400809165008F6080934C
:140A120065008091610081608093610080916200816080933D
:140A2600620000E386DD01E010E00E94720008E080DD01E009
:140A3A0010E00E94720001E07ADD01E010E00E94720006E0A1
:140A4E0074DD01E010E00E9472000CE06EDD01E010E00E94B4
:140A6200720000E3ECDD01E010E00E94720008E0E6DD01E0F1
:140A760010E00E94720001E0E0DD01E010E00E94720006E0FF
:140A8A00DADD01E010E00E9472000CE0D4CD4A935A93A801BC
:140A9E004030450719F40CE048DD30C04130E0E05E0719F4D7
:140AB2000EE041DD29C04230E0E05E0719F40DE03ADD22C0B1
:140AC6004330E0E05E0719F40FE033DD1BC04430E0E05E0704
:140ADA0019F40CE0B0DD14C04530E0E05E0719F40EE0A9DD93
:140AEE000DC04630E0E05E0719F40DE0A2DD06C04730E0E016
:140B02005E0711F40FE09BDD599149910895AA92BA9222976C
:140B1600AA24BB2480E091E0998388832227002748DE2296D8
:140B2A00B990A990089522978FEF82B978940E94FB04222730
:140B3E003327002711270E945D0A402F842F80638883222788
:140B520008E00E94B603842F99270196998388832227332778
:140B6600002711270E94460A242E209423B809C00E94FD00E1
:140B7A000E946402088322E000270E94B603F6CF2296089536
:140B8E000093CB052093CA0522242EBC0DBD2CBD2FBC85E03B
:140BA2008EBD87B7846087BF08950093C9052093C8052224C8
:140BB60020928A00009389002093880020928B0085E08093E3
:140BCA008A0080917D00846080937D0008950093C70502BFCE
:140BDE0087B7816087BF87E083BF08950093C60504BD87B7FB
:140BF200806487BF85E085BD08950A921A922A923A924A92D5
:140C06005A926A927A928A929A920A931A932A933A938A93AD
:140C1A009A93AA93BA93EA93FA930FB60A922197222423BEC5
:140C2E002092C50511C08091C505805D888323E001E00E941C
:140C4200B60304E610E00E947C008091C5058F5F8093C50547
:140C56008091C505853058F32090C70522BE87E083BF2196F3
:140C6A0009900FBEF991E991B991A9919991899139912991C0
:140C7E00199109919990899079906990599049903990299096
:140C92001990099018950A921A922A923A924A925A926A92CB
:140CA6007A928A929A920A931A932A933A938A939A93AA938B
:140CBA00BA93EA93FA930FB60A92219722242EBC2092C5050A
:140CCE0011C08091C505805D888323E003E00E94B60304E653
:140CE20010E00E947C008091C5058F5F8093C5058091C5056F
:140CF600853058F32090CB052DBC2090CA052CBC85E08EBD6A
:140D0A00219609900FBEF991E991B991A99199918991399122
:140D1E002991199109919990899079906990599049903990F4
:140D320029901990099018950A921A922A923A924A925A926D
:140D46006A927A928A929A920A931A932A933A938A939A932B
:140D5A00AA93BA93EA93FA930FB60A92219723B0209423B876
:140D6E00222425BC2092C50511C08091C505805D888323E037
:140D820000270E94B60304E610E00E947C008091C5058F5F1A
:140D96008093C5058091C505853058F32090C60524BC85E0D1
:140DAA0085BD219609900FBEF991E991B991A991999189910A
:140DBE00399129911991099199908990799069905990499053
:140DD200399029901990099018950A921A922A923A924A92F0
:140DE6005A926A927A928A929A920A931A932A933A938A93CC
:140DFA009A93AA93BA93EA93FA930FB60A92219722242EBCDB
:140E0E002092C50511C08091C505805D888323E002E00E9439
:140E2200B60304E610E00E947C008091C5058F5F8093C50565
:140E36008091C505853058F32090C905209289002090C80597
:140E4A002092880085E08EBD219609900FBEF991E991B9913F
:140E5E00A991999189913991299119910991999089907990EF
:140E7200699059904990399029901990099018954A935A9376
:140E860082B18B7F82B91B981C9801E010E00E947200442729
:140E9A00552720C01B9A0AE010E00E94720081B1992784705F
:140EAE00907020900D0130900E01282A392A30920E0120926B
:140EC2000D01220C331C30920E0120920D011B9801E010E07C
:140ED6000E9472004F5F5F4F4830E0E05E07E0F24427552742
:140EEA0022C01B9A0AE010E00E94720081B199278470907089
:140EFE0020900F0130901001282A392A3092100120920F0105
:140F1200910181010E94C60A1093100100930F011B9801E05A
:140F260010E00E9472004F5F5F4F4830E0E05E07D0F201E017
:140F3A0010E00E9472005991499108954A935A9382B18F7D35
:140F4E0082B91E981F9801E010E00E9472004427552720C03B
:140F62001E9A0AE010E00E94720081B1992780729070209041
:140F76000D0130900E01282A392A30920E0120920D01220C16
:140F8A00331C30920E0120920D011E9801E010E00E947200D8
:140F9E004F5F5F4F4830E0E05E07E0F24427552722C01E9AF3
:140FB2000AE010E00E94720081B199278072907020900F0199
:140FC60030901001282A392A3092100120920F0191018101E8
:140FDA000E94C60A1093100100930F011E9801E010E00E9411
:140FEE0072004F5F5F4F4830E0E05E07D0F201E010E00E944F
:1410020072005991499108954A935A93809161008E7F8093AB
:141016006100809162008E7F80936200809162008B7F8093E0
:14102A00620001E010E00E9472004427552728C08091620029
:14103E008160809362000AE010E00E94720080B19927817078
:14105200907020900D0130900E01282A392A30920E012092C5
:141066000D01220C331C30920E0120920D01809162008E7FDA
:14107A008093620001E010E00E9472004F5F5F4F4830E0E074
:14108E005E07A0F2442755272AC080916200816080936200BD
:1410A2000AE010E00E94720080B199278170907020900F01AA
:1410B60030901001282A392A3092100120920F0191018101F7
:1410CA000E94C60A1093100100930F01809162008E7F8093B6
:1410DE00620001E010E00E9472004F5F5F4F4830E0E05E07BE
:1410F20090F201E010E00E9472005991499108954A935A9358
:1411060080916100877F80936100809162008F7E80936200F4
:14111A00809162008F7D8093620001E010E00E94720044277D
:14112E00552728C0809162008061809362000AE010E00E9404
:14114200720080B199278078907020900D0130900E01282A5F
:14115600392A30920E0120920D01220C331C30920E01209291
:14116A000D01809162008F7E8093620001E010E00E94720089
:14117E004F5F5F4F4830E0E05E07A0F2442755272AC08091F0
:1411920062008061809362000AE010E00E94720080B19927B2
:1411A6008078907020900F0130901001282A392A3092100124
:1411BA0020920F01910181010E94C60A1093100100930F0182
:1411CE00809162008F7E8093620001E010E00E9472004F5F85
:1411E2005F4F4830E0E05E0790F201E010E00E94720059915D
:1411F6004991089581B3877081BB00B3087F08958FEF84BB73
:14120A0005BB08950E948E0A5901A8018FEF84BB40304507BD
:14121E0071F401E010E095010E94C60A18012094309445B2F6
:1412320055244220532045BA0EC04130E0E05E0751F401E0D1
:1412460010E095010E94C60A25B23324202A312A25BA0C944A
:14125A00930AAA92BA92580101E010E095010E94C60A23B254
:14126E003324202231228101B990A99008958EE080939500C9
:1412820083E089B92224209290002BB888E18AB908955D9B07
:14129600FECF0CB908950027112722242092CD050BC00030F1
:1412AA00EDE71E0729F481E08093CD0501E005C00F5F1F4F52
:1412BE005F9BF3CF0CB10895AA924A933EC0E7DF00936D0326
:1412D200023009F038C041E00FC0DFDF8DE693E0E42FFF2718
:1412E600E80FF91F00838091CD05813011F401E029C0439527
:1412FA00453078F3209071033324309214012092130145E0C3
:14130E0010C0C5DFA02E8DE693E0E42FFF27E80FF91FA08239
:141322008091CD05813011F401E00EC0439580911301909151
:1413360014010696242E33242816390630F3002701C0C1CF31
:14134A004991A99008950E94870A69017801AA2407C0EA2D1D
:14135E00FF27EE0DFF1D008196DFA3942A2C33242C143D04E3
:14137200A0F30C94730A0E94B40AC8844FEF5FEFAA241BC0D6
:14138600EA2DFF27E00FF11F208033244225532566270EC0E6
:14139A0040FF09C088E094E81A013694279428263926A10164
:1413AE0002C0569547956395683080F3A394AC1418F31A0182
:1413C200232C3324F901208241830C94BD0A0E948E0A422FFF
:1413D60058012397842F825088839E012F5F3F4F8501C7DF79
:1413EA00E42FFF273297EA0DFB1D20803980321449F4E42FEF
:1413FE00FF273197EA0DFB1D20803A80321411F001E001C09B
:14141200002723960C94930A0E94A60AC22EA02E2397498511
:14142600C0921A0140931901A092180122242092160181E09D
:14143A008093170182E080931501842F8B5F88839E012F5F13
:14144E003F4F05E111E091DF8AE191E0E42FFF27E80FF91F91
:14146200298020828BE191E0E42FFF27E80FF91F2A802082BA
:1414760002DF242F3327295F3F4F05E111E065DF23960C944A
:14148A00AD0A0E94870A79016801AE80BF808FB78F778FBF7A
:14149E00E199FECFEEBACFBAADBAE29AE19A01E010E00E94F1
:1414B200720078940C94730AAA92CA92690158018FB78F77E4
:1414C6008FBFE199FECFCEBAAFBAE09A01E010E00E9472002D
:1414DA00ADB278940A2DC990A9900895A990B990C990D990E9
:1414EE00E990F9900895A990B990C990D990E990F99049912B
:14150200599108957A936A935A934A93FA92EA92DA92CA92AA
:14151600BA92AA9208955A934A93BA92AA920895A990B9902B
:14152A004991599108957A936A935A934A93BA92AA92089553
:14153E00A990B990499159916991799108955A934A93DA927C
:14155200CA92BA92AA920895A990B990C990D99049915991FC
:1415660008957A936A935A934A93DA92CA92BA92AA92089513
:14157A00A990B990C990D9904991599169917991089522236F
:14158E0021F0000F111F2A95FACF0895112319F0000F1A95D9
:0415A200FBCF0895DE
:00000001FF
