:040000000C949C00C0
:040028000C94E90843
:040038000C94980884
:040040000C944A08CA
:040074000C943A09A5
:14008C003230006EB7B4B0D7B2E2CAD4B5DAD2BBB4CE0000CE
:1400A0000000000000000000000000506167653800D6D8D613
:1400B400C3CFB5CDB300C9E8D6C3CAB1BCE400B6CFB5E7D714
:1400C800D4B6AFD6D8D6C300506167653300BCD3D4D800B504
:1400DC00C8B4FD00BDE1CAF800D4DDCDA300B9CAD5CF0031BE
:1400F000353000CDA3D6B900C9E8D6C300CDA3D6B9202020EF
:140104002000BFAACABC20202020002054343AB9CAD5CF004F
:140118002054333ACDA3D6B9002054323A38303000205431D6
:0B012C003A31303000CAB1BCE43A00A8
:14013800CFEFD0E1CDBFDEBFCE51D0400AEA08830024EBEA74
:14014C00F1E016E0E637F10711F00192FBCF0083ECE8F0E03E
:14016000A0E0B1E011E000E00BBFE733F10721F0C895319698
:140174000D92F9CF0E94D107FFCF000F111F0150104081E087
:1401880090E080179107C8F308954A935A93A80141505040D8
:14019C0005E714E0EEDF81E090E084179507B0F35991499133
:1401B00008954A935A93A8014150504008EE13E0E8DF81E0F9
:1401C40090E084179507B0F3599149910895AA924A93929839
:1401D8009098929A48E00AC09098A02E00FF02C0919A01C02A
:1401EC0091980695909A4A9580E0841798F348E00AC0909892
:14020000A22E20FF02C0919A01C091982695909A4A9580E000
:14021400841798F392984991A99008950E942C11C02EAA243B
:1402280092989098929A48E00AC0EC2CC0FE02C0919A01C0CE
:14023C0091989098C694909A4A9580E0841798F381B38D7F34
:1402500081BB44270EC0909A909801E010E00E94C90000B3E4
:1402640002700695142F0E947E11A02A4395483080F381B344
:14027800876081BB92980A2D0C94161181B3876081BB22248A
:14028C0022BA20E80EE89FCFAA924A93219705E8C1DF07FFB2
:1402A00048C005E8BDDF802F82958F708170B9F005E8B6DFD8
:1402B400A02E8A2D82958F7081708063888321E000270E94F2
:1402C8009C0405E8A9DF402F242F2F70206301E00E946A0438
:1402DC000FC080E2888321E000270E949C0405E899DF402F94
:1402F000242F2F70206301E00E946A0405E890DFA02E05FF66
:140304000BC080E5888321E005E00E949C042DE401E00E94EE
:140318006A0421C081E4888321E005E00E949C042DE401E0F8
:14032C000E946A0416C005E875DFA02E8A2D82958F70837008
:140340008063888321E000270E949C0405E868DF402F242F5B
:140354002F70206301E00E946A048AE3888321E001E00E9486
:140368009C0403E859DFA02E2A2D22952F70206301E00E943D
:14037C006A0403E84FDF402F242F2F70206301E00E946A0411
:140390002AE301E00E946A0401E842DFA02E2A2D22952F70D6
:1403A400206301E00E946A0401E838DF402F242F2F702063ED
:1403B80001E00E946A0421964991A9900895AA924A9320E0C0
:1403CC0031E001E00E940C050DE824DF202F22952F702F703C
:1403E000206301E00E946A040DE81ADF202F2F70206301E055
:1403F4000E946A042DE201E00E946A0409E80EDFA02E2A2DE2
:1404080022952F702170206301E00E946A0409E803DF402F43
:14041C00242F2F70206301E00E946A042DE201E00E946A0466
:1404300007E8F6DEA02E2A2D22952F702370206301E00E94E1
:140444006A0407E8EBDE402F242F2F70206301E00E946A04A9
:1404580020E201E00E946A0405E8DEDEA02E2A2D22952F7079
:14046C002370206301E00E946A0405E8D3DE402F242F2F7076
:14048000206301E00E946A042AE301E00E946A0403E8C6DE67
:14049400A02E2A2D22952F70206301E00E946A0403E8BCDEE0
:1404A800402F242F2F70206301E00E946A042AE301E00E94DB
:1404BC006A0401E8AFDEA02E2A2D22952F70206301E00E94C7
:1404D0006A0401E8A5DE402F242F2F70206301E00E946A0469
:1404E4004991A990089508954A935A9380EE84BB80916400CB
:1404F8008061809364008FED85BB809165008061809365000D
:14050C0001E010E00E94BF0043B355274F3CE0E05E07E9F0AE
:140520004F3CE0E05E07DCF0473DE0E05E0799F04B3DE0E0D1
:140534005E0769F04D3DE0E05E0739F04E3DE0E05E0709F074
:140548000AC005E699C001E697C004E695C005E793C00CE6E3
:14055C0091C08FEB85BB8091650080618093650001E010E0E0
:140570000E94BF0043B355274F3AE0E05E07E9F04F3AE0E0D4
:140584005E07DCF0473BE0E05E0799F04B3BE0E05E0769F0FE
:140598004D3BE0E05E0739F04E3BE0E05E0709F00AC003E71E
:1405AC0069C002E767C004E765C003E663C00BE261C08FE762
:1405C00085BB8091650080618093650001E010E00E94BF00E6
:1405D40043B355274F36E0E05E07E9F04F36E0E05E07DCF0A8
:1405E8004737E0E05E0799F04B37E0E05E0769F04D37E0E08F
:1405FC005E0739F04E37E0E05E0709F00AC000E339C003E32E
:1406100037C002E335C001E333C006E331C08FEF85BB809185
:1406240065008F708093650001E010E00E94BF0043B3552742
:140638004F3EE0E05E07E9F04F3EE0E05E07DCF0473FE0E05F
:14064C005E0799F04B3FE0E05E0769F04D3FE0E05E0739F0CA
:140660004E3FE0E05E0709F00AC007E309C008E307C009E3C0
:1406740005C004E303C005E301C00EE6599149910895AA92C9
:140688004A9330DF402F02E010E00E94C9002ADFA02E401798
:14069C0061F44E3651F020900301241611F40EE608C04093AE
:1406B0000301042F04C08EE6809303010EE64991A99008950C
:1406C4004A935A9322242ABA809165008D7F80936500809123
:1406D80065008160809365008091650088608093650001E099
:1406EC0010E00E94C90049B35527407850708FEF8ABB8091DB
:140700006500877F809365008A01599149910895AA92A02E0C
:14071400D7DF00300107E1F7809165008D7F80936500809100
:1407280065008E7F8093650080916500877F8093650001E0FE
:14073C0010E00E94C900ABBA02E010E00E94C9008091650036
:1407500088608093650001E010E00E94C90080916500877F7D
:1407640080936500A9900895AA92A02EA9DF00300107E1F791
:1407780080916500826080936500809165008E7F80936500A2
:14078C0080916500877F80936500ABBA02E010E00E94C900C3
:1407A0008091650088608093650002E010E00E94C900809121
:1407B4006500877F80936500A990089501E0A6DF01E010E041
:1407C8000C94C9004A935A9322242ABA809165008D7F80932B
:1407DC0065008091650081608093650080916200816080936E
:1407F000620001E010E00E94C90049B35527407850708FEFE9
:140804008ABB809162008E7F809362008A01599149910895BA
:14081800AA92A02ED7DF00300107E1F7809165008D7F809367
:14082C006500809165008E7F80936500809162008E7F8093C5
:14084000620001E010E00E94C900ABBA02E010E00E94C90064
:140854008091620081608093620001E010E00E94C90080917A
:1408680062008E7F80936200A9900895AA92A02EA9DF003000
:14087C000107E1F780916500826080936500809165008E7F35
:1408900080936500809162008E7F80936200ABBA02E010E0B0
:1408A4000E94C9008091620081608093620002E010E00E9498
:1408B800C900809162008E7F80936200A990089501E0A6DF32
:1408CC0001E010E00C94C900AA924A93A22E402F442311F01E
:1408E000413019F40A2D42DF06C0423011F0433011F40A2D46
:1408F400BFDF4991A99008954A936A93622F402F662321F42A
:14090800042F005801DF11C0613021F4042F0057FBDE0BC0CB
:14091C00623021F4042F005879DF05C0633019F4042F00574E
:1409300073DF6991499108950E944911622F402FAE8066233D
:1409440031F4042F0058E2DE0A2D0EDF17C0613031F4042F4B
:140958000057DADE0A2D06DF0FC0623031F4042F005856DF1A
:14096C000A2D82DF07C0633029F4042F00574EDF0A2D7ADF21
:140980000C9450110E944911A22E602F4E815F81AA2071F429
:14099400062F0058BBDE05C0FA010081E5DE4F5F5F4FFA01CE
:1409A80020802220B9F732C08A2D813071F4062F0057AADED6
:1409BC0005C0FA010081D4DE4F5F5F4FFA0120802220B9F74B
:1409D00021C08A2D823071F4062F00581DDF05C0FA0100819A
:1409E40047DF4F5F5F4FFA0120802220B9F710C08A2D8330B6
:1409F80069F4062F00570CDF05C0FA01008136DF4F5F5F4F65
:140A0C00FA0120802220B9F70C9450110E943F11A901602F1D
:140A2000662311F0613059F405C0FA0100819EDE4F5F5F4F41
:140A3400FA0120802220B9F70EC0623011F0633051F405C023
:140A4800FA01008113DF4F5F5F4FFA0120802220B9F70C94A3
:140A5C0044114A935A9322242ABA809165008D7F8093650043
:140A70008091650081608093650080916500886080936500CD
:140A840001E010E00E94C90049B355274F778FEF8ABB809110
:140A98006500877F80936500042F5991499108954A935A9309
:140AAC0022242ABA809165008D7F80936500809165008160BB
:140AC000809365008091620081608093620001E010E00E946E
:140AD400C90049B355274F778FEF8ABB809162008E7F8093B1
:140AE8006200042F59914991089566DEE9CEAA92BA9222243B
:140AFC002ABA809165008260809365008091650081608093C8
:140B100065008091650088608093650001E010E00E94C9005A
:140B2400A9B2BB248FEF8ABB80916500877F809365000A2D95
:140B3800B990A9900895AA92BA9222242ABA80916500826080
:140B4C008093650080916500816080936500809162008160FA
:140B60008093620001E010E00E94C900A9B2BB248FEF8ABBD3
:140B7400809162008E7F809362000A2DB990A99008950E9480
:140B88004911622F402F662349F4042F0058BCDD0AE010E03B
:140B9C000E94BF00AADF24C0613049F4042F0057B1DD0AE0A7
:140BB00010E00E94BF009FDF19C0623051F4042F00582ADE1F
:140BC4000AE010E00E94BF00B8DFA02E0DC0633051F4042FA5
:140BD80000571EDE0AE010E00E94BF00ACDFA02E01C000273A
:140BEC000C945011AA92A02E0A2D8CDD7EDFA9900895AA92DB
:140C0000A02E0A2D85DD9BDFA99008958AB38F6F8ABB8FEF2B
:140C14008BBB809164008F6080936400809165008F60809333
:140C2800650080916100816080936100809162008160809325
:140C3C00620000E367DD01E010E00E94BF0008E061DD01E0E2
:140C500010E00E94BF0001E05BDD01E010E00E94BF0006E00E
:140C640055DD01E010E00E94BF000CE04FDD01E010E00E948D
:140C7800BF0000E3CDDD01E010E00E94BF0008E0C7DD01E07D
:140C8C0010E00E94BF0001E0C1DD01E010E00E94BF0006E06C
:140CA000BBDD01E010E00E94BF000CE0B5CD4A935A93A80195
:140CB4004030450719F40CE029DD30C04130E0E05E0719F4DE
:140CC8000EE022DD29C04230E0E05E0719F40DE01BDD22C0D7
:140CDC004330E0E05E0719F40FE014DD1BC04430E0E05E070B
:140CF00019F40CE091DD14C04530E0E05E0719F40EE08ADDB9
:140D04000DC04630E0E05E0719F40DE083DD06C04730E0E01C
:140D18005E0711F40FE07CDD59914991089502E010E00E9440
:140D2C00C90006E3EFDC06E371DD02E010E00C94C90002E0E2
:140D400010E00E94C90000E3E3DC00E365DD02E010E00C940B
:140D5400C9000E940A110E942A11622F2197AF848A2D0B8466
:140D680080198F5FC82ECC0CDADF01E010E00E94BF006623AE
:140D7C0049F48B8580588150888340E880E8A82EE82E22C004
:140D9000613051F48B8580588150888340E980E8A82E80E9E5
:140DA400E82E16C0623049F48B8580588150888340E880E82C
:140DB800A82EE82E0BC0633049F48B8580588150888340E9B3
:140DCC0080E8A82E80E9E82E01E010E00E94BF00662311F09A
:140DE0006130A1F4AA240EC0242E4F5F022D90DC08818EDCAF
:140DF400EE2403C00027B8DCE394EC14D8F3A3948A2D80317A
:140E080078F317C0623011F0633099F4AA240EC0242E4F5F45
:140E1C00022DFCDC0881FADCEE2403C0002724DDE394EC14E8
:140E3000D8F3A3948A2D803178F381DF01E010E00E94BF0047
:140E440021960E941F11249608950E940A110E942A11622F8F
:140E58002197AF848A2D0B8480198F5FC82ECC0C5EDF01E0E2
:140E6C0010E00E94BF00662349F48B8580588150888340E86F
:140E800080E8A82EE82E22C0613051F48B858058815088838E
:140E940040E980E8A82E80E9E82E16C0623049F48B858058D7
:140EA8008150888340E880E8A82EE82E0BC0633049F48B8533
:140EBC0080588150888340E980E8A82E80E9E82E662311F0FE
:140ED0006130A1F4AA240EC0242E4F5F022D18DC088116DCAE
:140EE400EE2403C00FEF40DCE394EC14D8F3A3948A2D80312A
:140EF80078F317C0623011F0633099F4AA240EC0242E4F5F55
:140F0C00022D84DC088182DCEE2403C00FEFACDCE394EC1489
:140F2000D8F3A3948A2D803178F309DF01E010E00E94BF00CE
:140F340021960E941F1124960895229784E091E09983888314
:140F480023E000271BDD84E091E0998388832227002714DD16
:140F5C0087E0888321E001E074DF08EB1BE00E94C90087E01A
:140F7000888321E001E0EFDE82E0888321E002E066DF0CE230
:140F840011E00E94C90087E0888322E002E0E1DE85E0888378
:140F980021E003E058DF2296089521972224332430921801A5
:140FAC002092170181E090E090931A018093190182E09093A6
:140FC0001C0180931B0185E090931E0180931D018FEF82B940
:140FD40078940E9406060E94790581E090E090936C068093B6
:140FE8006B068CE08883222701E00E94AB068CE0888321E018
:140FFC0001E00E94AB068CE0888322E001E00E94AB068CE094
:14101000888323E001E00E94AB0602C00E94BC10FDCF2196D7
:141024000895009373062093720622242EBC0DBD2CBD2FBC16
:1410380085E08EBD87B7846087BF08950093710620937006BC
:14104C00222420928A00009389002093880020928B0085E015
:1410600080938A0080917D00846080937D00089500936F0638
:1410740002BF87B7816087BF87E083BF089500936E0604BD34
:1410880087B7806487BF85E085BD08950A921A922A923A92D8
:14109C004A925A926A927A928A929A920A931A932A933A9354
:1410B0008A939A93AA93BA93EA93FA930FB60A9221972224EF
:1410C40023BE20926D0611C080916D06805D888323E001E0F1
:1410D8000E949C0404E610E00E94C90080916D068F5F8093F8
:1410EC006D0680916D06853058F320906F0622BE87E083BF4B
:14110000219609900FBEF991E991B991A99199918991399128
:141114002991199109919990899079906990599049903990FA
:1411280029901990099018950A921A922A923A924A925A9273
:14113C006A927A928A929A920A931A932A933A938A939A9331
:14115000AA93BA93EA93FA930FB60A92219722242EBC2092FC
:141164006D0611C080916D06805D888323E003E00E949C049F
:1411780004E610E00E94C90080916D068F5F80936D06809115
:14118C006D06853058F3209073062DBC209072062CBC85E055
:1411A0008EBD219609900FBEF991E991B991A9919991899107
:1411B400399129911991099199908990799069905990499059
:1411C800399029901990099018950A921A922A923A924A92F6
:1411DC005A926A927A928A929A920A931A932A933A938A93D2
:1411F0009A93AA93BA93EA93FA930FB60A92219723B020948A
:1412040023B8222425BC20926D0611C080916D06805D888372
:1412180023E000270E949C0404E610E00E94C90080916D068D
:14122C008F5F80936D0680916D06853058F320906E0624BCB2
:1412400085E085BD219609900FBEF991E991B991A991999124
:14125400899139912991199109919990899079906990599077
:141268004990399029901990099018950A921A922A923A9258
:14127C004A925A926A927A928A929A920A931A932A933A9372
:141290008A939A93AA93BA93EA93FA930FB60A92219722240D
:1412A4002EBC20926D0611C080916D06805D888323E002E005
:1412B8000E949C0404E610E00E94C90080916D068F5F809316
:1412CC006D0680916D06853058F32090710620928900209005
:1412E00070062092880085E08EBD219609900FBEF991E99179
:1412F400B991A9919991899139912991199109919990899014
:141308007990699059904990399029901990099018954A93BF
:14131C005A9382B18B7F82B91B981C9801E010E00E94BF00BF
:141330004427552720C01B9A0AE010E00E94BF0081B1992700
:14134400847090702090130130901401282A392A309214017C
:1413580020921301220C331C30921401209213011B9801E00D
:14136C0010E00E94BF004F5F5F4F4830E0E05E07E0F24427E6
:14138000552722C01B9A0AE010E00E94BF0081B19927847025
:1413940090702090150130901601282A392A30921601209268
:1413A8001501910181010E94771110931601009315011B98C7
:1413BC0001E010E00E94BF004F5F5F4F4830E0E05E07D0F230
:1413D00001E010E00E94BF005991499108954A935A9382B179
:1413E4008F7D82B91E981F9801E010E00E94BF004427552728
:1413F80020C01E9A0AE010E00E94BF0081B19927807290702A
:14140C002090130130901401282A392A3092140120921301E1
:14142000220C331C30921401209213011E9801E010E00E9475
:14143400BF004F5F5F4F4830E0E05E07E0F24427552722C051
:141448001E9A0AE010E00E94BF0081B1992780729070209009
:14145C00150130901601282A392A30921601209215019101A7
:1414700081010E94771110931601009315011E9801E010E0D2
:141484000E94BF004F5F5F4F4830E0E05E07D0F201E010E067
:141498000E94BF005991499108954A935A93809161008E7F35
:1414AC0080936100809162008E7F80936200809162008B7F46
:1414C0008093620001E010E00E94BF004427552728C0809191
:1414D40062008160809362000AE010E00E94BF0080B1992720
:1414E800817090702090130130901401282A392A30921401DA
:1414FC0020921301220C331C30921401209213018091620089
:141510008E7F8093620001E010E00E94BF004F5F5F4F48303F
:14152400E0E05E07A0F2442755272AC08091620081608093C4
:1415380062000AE010E00E94BF0080B1992781709070209070
:14154C00150130901601282A392A30921601209215019101B6
:1415600081010E9477111093160100931501809162008E7FE8
:141574008093620001E010E00E94BF004F5F5F4F4830E0E028
:141588005E0790F201E010E00E94BF005991499108954A93F8
:14159C005A9380916100877F80936100809162008F7E8093CF
:1415B0006200809162008F7D8093620001E010E00E94BF009F
:1415C4004427552728C0809162008061809362000AE010E0A1
:1415D8000E94BF0080B199278078907020901301309014011C
:1415EC00282A392A3092140120921301220C331C3092140145
:1416000020921301809162008F7E8093620001E010E00E94A8
:14161400BF004F5F5F4F4830E0E05E07A0F2442755272AC0A7
:14162800809162008061809362000AE010E00E94BF0080B179
:14163C009927807890702090150130901601282A392A3092CE
:14165000160120921501910181010E9477111093160100931C
:141664001501809162008F7E8093620001E010E00E94BF0035
:141678004F5F5F4F4830E0E05E0790F201E010E00E94BF00B1
:14168C0059914991089581B3877081BB00B3087F08958FEF2D
:1416A00084BB05BB08950E9435115901A8018FEF84BB403082
:1416B400450771F401E010E095010E9477111801209430944F
:1416C80045B255244220532045BA0EC04130E0E05E0751F421
:1416DC0001E010E095010E94771125B23324202A312A25BAB7
:1416F0000C943A11AA92BA92580101E010E095010E94771189
:1417040023B23324202231228101B990A99008958EE08093EE
:14171800950083E089B92224209290002BB888E18AB90895CF
:14172C005D9BFECF0CB90895002711272224209275060BC0E5
:141740000030EDE71E0729F481E08093750601E005C00F5F4C
:141754001F4F5F9BF3CF0CB10895AA924A933EC0E7DF00938D
:141768000704023009F038C041E00FC0DFDF87E094E0E42FA3
:14177C00FF27E80FF91F008380917506813011F401E029C095
:141790004395453078F320900B0433243092AE012092AD01A6
:1417A40045E010C0C5DFA02E87E094E0E42FFF27E80FF91FA7
:1417B800A08280917506813011F401E00EC043958091AD0173
:1417CC009091AE010696242E33242816390630F3002701C06C
:1417E000C1CF4991A99008950E942E1169017801AA2407C05C
:1417F400EA2DFF27EE0DFF1D008196DFA3942A2C33242C1473
:141808003D04A0F30C940F110E946511C8844FEF5FEFAA247A
:14181C001BC0EA2DFF27E00FF11F208033244225532566273E
:141830000EC040FF09C088E094E81A0136942794282639269D
:14184400A10102C0569547956395683080F3A394AC1418F360
:141858001A01232C3324F901208241830C946E110E94351154
:14186C00422F58012397842F825088839E012F5F3F4F850113
:14188000C7DFE42FFF273297EA0DFB1D20803980321449F4C1
:14189400E42FFF273197EA0DFB1D20803A80321411F001E0AE
:1418A80001C0002723960C943A110E945711C22EA02E23971E
:1418BC004985C092B4014093B301A092B20122242092B0012E
:1418D00081E08093B10182E08093AF01842F8B5F88839E0172
:1418E4002F5F3F4F0FEA11E091DF84EB91E0E42FFF27E80F6A
:1418F800F91F2980208285EB91E0E42FFF27E80FF91F2A80A6
:14190C00208202DF242F3327295F3F4F0FEA11E065DF23969A
:141920000C945E110E942E1179016801AE80BF808FB78F7727
:141934008FBFE199FECFEEBACFBAADBAE29AE19A01E010E0AA
:141948000E94BF0078940C940F11AA92CA92690158018FB7BD
:14195C008F778FBFE199FECFCEBAAFBAE09A01E010E00E94FE
:14197000BF00ADB278940A2DC990A9900895229785EA91E03A
:1419840099838883222700270E94C2040E94E3012296089575
:141998000E94651122978DE991E09983888321E001E00E94D8
:1419AC00C20481EA888321E005E00E949C0426EE01E00E942C
:1419C0006A0485E991E09983888321E006E00E94C20481EAE5
:1419D400888321E00AE00E949C0426EE01E00E946A048CE84E
:1419E80091E09983888322E001E00E94C20483E891E0998310
:1419FC00888322E006E00E94C2048AE791E09983888323E070
:141A100001E00E94C20421E731E003E00E940C052CE631E0A7
:141A240003E00E940C054427552783E0888321E002E00E943E
:141A38002707BAC2AA24BB2481C0AA2049F4BB2039F461E0B2
:141A4C0070E021E003E00E947E0423C0C5018130E0E09E076F
:141A600039F461E070E021E008E00E947E0417C0C501823058
:141A7400E0E09E0739F462E070E022E003E00E947E040BC066
:141A8800C5018330E0E09E0731F462E070E022E008E00E9429
:141A9C007E0487E191E0F501EE0FFF1FE80FF91FC080D1802A
:141AB000CC2011F4DD20D1F0C6018130E0E09E07D9F082301B
:141AC400E0E09E07E9F08330E0E09E07F9F08430E0E09E07B6
:141AD80009F18530E0E09E0719F18630E0E09E0729F129C0BE
:141AEC0027E631E0062F0E940C0523C023E631E0062F0E940C
:141B00000C051DC02EE531E0062F0E940C0517C029E531E0E1
:141B1400062F0E940C0511C024E531E0062F0E940C050BC037
:141B28002FE431E0062F0E940C0505C02AE431E0062F0E94E2
:141B3C000C05C50101965C01C5018430E0E09E0708F479CFA7
:141B500016DF0E944303A02E013609F429C28A2D843609F04D
:141B64004CC04030450769F04130E0E05E07C1F04230E0E0D3
:141B78005E0719F14330E0E05E0771F115C283E0888321E0AA
:141B8C0002E00E94AB0683E0888322E002E00E94270742E0CC
:141BA00050E006C288E0888321E007E00E94AB0688E0888318
:141BB40022E007E00E94270743E050E0F7C183E0888322E0E9
:141BC80002E00E94AB0683E0888323E002E00E94270744E08D
:141BDC0050E0E8C188E0888322E007E00E94AB0687E08883FB
:141BF00023E006E00E94270745E050E0D9C18A2D853709F0CD
:141C040061C04230E0E05E0791F04330E0E05E07E9F04430AE
:141C1800E0E05E0741F14530E0E05E0799F14630E0E05E07A2
:141C2C0009F43DC0BFC183E0888322E002E00E94AB0683E022
:141C4000888321E002E00E94270744275527B0C188E0888307
:141C540022E007E00E94AB0688E0888321E007E00E94270715
:141C680041E050E0A1C185E0888323E002E00E94AB0683E0AA
:141C7C00888322E002E00E94270742E050E092C187E088837E
:141C900023E006E00E94AB0688E0888322E007E00E942707D8
:141CA40043E050E083C18BE0888323E00AE00E94AB0688E077
:141CB800888322E007E00E94270743E050E074C18A2D8C3653
:141CCC0009F04DC04130E0E05E0769F04330E0E05E07C1F0C6
:141CE0004530E0E05E0719F14630E0E05E0771F15FC188E0C7
:141CF400888321E007E00E94AB0683E0888321E002E00E94A3
:141D080027074427552750C188E0888322E007E00E94AB06F2
:141D1C0083E0888322E002E00E94270742E050E041C187E0D6
:141D3000888323E006E00E94AB0683E0888323E002E00E9463
:141D4400270744E050E032C18BE0888323E00AE00E94AB0660
:141D580087E0888323E006E00E94270745E050E023C18A2D5C
:141D6C00823709F04CC04030450769F04230E0E05E07C1F048
:141D80004430E0E05E0719F14530E0E05E0771F10FC183E07D
:141D9400888321E002E00E94AB0688E0888321E007E00E94FD
:141DA800270741E050E000C183E0888322E002E00E94AB0642
:141DBC0088E0888322E007E00E94270743E050E0F1C083E080
:141DD000888323E002E00E94AB0687E0888323E006E00E94BF
:141DE400270745E050E0E2C087E0888323E006E00E94AB0618
:141DF8008BE0888323E00AE00E94270746E050E0D3C08A2D04
:141E0C00833709F03DC085E090E090936C0680936B064030B4
:141E2000450789F04130E0E05E07A1F04230E0E05E07B9F082
:141E34004330E0E05E07D1F04630E0E05E07E9F0B6C083E0F4
:141E4800888321E002E00E94AB06AFC088E0888321E007E07B
:141E5C000E94AB06A8C083E0888322E002E00E94AB06A1C0B1
:141E700088E0888322E007E00E94AB069AC08BE0888323E0DC
:141E84000AE00E94AB0693C08A2D843709F08EC04030450745
:141E9800F1F04130E0E05E0791F14230E0E05E0709F443C0A6
:141EAC004330E0E05E0709F455C04430E0E05E0709F478C0AA
:141EC0004530E0E05E0709F473C04630E0E05E0709F45CC090
:141ED4006DC083E0888321E002E00E94AB0681E090E0909335
:141EE800600680935F0622243324309262062092610683E0C5
:141EFC0090936C0680936B0656C088E0888321E007E00E94A6
:141F1000AB0681E090E09093600680935F069093620680939C
:141F2400610683E090936C0680936B0640C083E0888322E056
:141F380002E00E94AB0681E090E09093600680935F0682E02C
:141F4C00909362068093610683E090936C0680936B0629C017
:141F600088E0888322E007E00E94AB0681E090E09093600664
:141F740080935F0683E0909362068093610690936C068093D1
:141F88006B0613C08BE0888323E00AE00E94AB0681E090E07A
:141F9C009093600680935F0685E090936C0680936B0601C0F1
:141FB00045CD22960C946E11229784E491E09983888321E07A
:141FC40001E00E94C204229608950E943F11229787E391E0E5
:141FD80099838883222704E00E94C2048EE291E09983888331
:141FEC0021E004E00E94C20485E291E09983888322E004E0AF
:142000000E94C20481EA8883222703E00E949C0421EC00274C
:142014000E946A04442755278AE08883222705E00E9427074E
:1420280097C00E944303602F053739F54130E0E05E0729F0BD
:14203C004230E0E05E0781F089C088E0888321E005E00E9444
:14205000AB068AE08883222705E00E942707442755277AC037
:1420640088E0888322E005E00E94AB0688E0888321E005E062
:142078000E94270741E050E06BC0643631F54030450729F073
:14208C004130E0E05E0781F061C08AE08883222705E00E94D3
:1420A000AB0688E0888321E005E00E94270741E050E052C0EF
:1420B40088E0888321E005E00E94AB0688E0888322E005E012
:1420C8000E94270742E050E043C0653639F54030450749F021
:1420DC004130E0E05E0761F04230E0E05E0779F014C08AE0CB
:1420F0008883222705E00E94AB060DC088E0888321E005E02A
:142104000E94AB0606C088E0888322E005E00E94AB0681E0A0
:1421180090E090936C0680936B061BC06437C1F44030450743
:14212C00A9F04130E0E05E0729F04230E0E05E0769F00CC09B
:1421400088E090E090936C0680936B06888321E005E00E9407
:14215400AB0601C068CF22960C94441122978FE191E099836B
:14216800888321E001E00E94C204FFCF229608950E947905CB
:14217C0080916B0690916C068130E0E09E0711F405DC41C03D
:1421900080916B0690916C068230E0E09E0709F438C0809109
:1421A4006B0690916C068330E0E09E0711F402DF2EC0809126
:1421B8006B0690916C068430E0E09E0709F425C080916B0692
:1421CC0090916C068530E0E09E0711F4FADE1BC080916B0618
:1421E00090916C068630E0E09E0709F412C080916B069091CB
:1421F4006C068730E0E09E0709F409C080916B0690916C066E
:142208008830E0E09E0709F4A7DF08953A932A931A930A93B1
:14221C000895A990B990C990D990E990F9900895A990B990AC
:14223000C990D990E990F990499159910895A990B990C9909A
:14224400D990E990F990499159916991799108957A936A93AC
:142258005A934A93FA92EA92DA92CA92BA92AA9208955A93C6
:14226C004A93BA92AA920895A990B9904991599108957A936C
:142280006A935A934A930895499159916991799108957A9374
:142294006A935A934A93BA92AA920895A990B9904991599104
:1422A8006991799108955A934A93DA92CA92BA92AA920895CA
:1422BC00A990B990C990D9904991599108957A936A935A9372
:1422D0004A93DA92CA92BA92AA920895A990B990C990D990EC
:1422E40049915991699179910895222321F0000F111F2A952D
:1022F800FACF0895112319F0000F1A95FBCF08950E
:00000001FF
