:040000000C9450000C
:040028000C94B1077C
:040038000C946007BD
:040040000C94120703
:040074000C940208DE
:13008C00B7B4B0D7B2E2CAD4B5DAD2BBB4CE00000000009F
:1400A000CFEFD0E1CDBFDEBFCE51D0400AEA08830024E3E11E
:1400B400F1E015E0E03DF10711F00192FBCF0083ECE8F0E0D8
:1400C800A0E0B1E010E000E00BBFEF39F10721F0C895319624
:1400DC000D92F9CF0E94A806FFCF000F111F0150104081E04A
:1400F00090E080179107C8F308954A935A93A8014150504071
:1401040005E714E0EEDF81E090E084179507B0F359914991CB
:1401180008954A935A93A8014150504008EE13E0E8DF81E091
:14012C0090E084179507B0F3599149910895AA924A939298D1
:140140009098929A48E00AC09098A02E00FF02C0919A01C0C2
:1401540091980695909A4A9580E0841798F348E00AC090982A
:14016800A22E20FF02C0919A01C091982695909A4A9580E099
:14017C00841798F392984991A99008950E94A90BC02EAA245D
:1401900092989098929A48E00AC0EC2CC0FE02C0919A01C067
:1401A40091989098C694909A4A9580E0841798F381B38D7FCD
:1401B80081BB44270EC0909A909801E010E00E947D0000B3C9
:1401CC0002700695142F0E94F10BA02A4395483080F381B370
:1401E000876081BB92980A2D0C94930B81B3876081BB2224AC
:1401F40022BA20E80EE89FCFAA924A93219705E8C1DF07FF4B
:1402080048C005E8BDDF802F82958F708170B9F005E8B6DF70
:14021C00A02E8A2D82958F7081708063888321E000270E948A
:14023000D60305E8A9DF402F242F2F70206301E00E949E0364
:140244000FC080E2888321E000270E94D60305E899DF402FF3
:14025800242F2F70206301E00E949E0305E890DFA02E05FFCB
:14026C000BC080E5888321E005E00E94D6032DE401E00E944E
:140280009E0321C081E4888321E005E00E94D6032DE401E025
:140294000E949E0316C005E875DFA02E8A2D82958F7083706E
:1402A8008063888321E000270E94D60305E868DF402F242FBB
:1402BC002F70206301E00E949E038AE3888321E001E00E94EC
:1402D000D60303E859DFA02E2A2D22952F70206301E00E949D
:1402E4009E0303E84FDF402F242F2F70206301E00E949E0344
:1402F8002AE301E00E949E0301E842DFA02E2A2D22952F703C
:14030C00206301E00E949E0301E838DF402F242F2F70206352
:1403200001E00E949E0321964991A990089508954A935A93D7
:1403340080EE84BB809164008061809364008FED85BB80916E
:14034800650080618093650001E010E00E94730043B355278B
:14035C004F3CE0E05E07E9F04F3CE0E05E07DCF0473DE0E044
:140370005E0799F04B3DE0E05E0769F04D3DE0E05E0739F0AD
:140384004E3DE0E05E0709F00AC005E699C001E697C004E686
:1403980095C005E793C00CE691C08FEB85BB80916500806169
:1403AC008093650001E010E00E94730043B355274F3AE0E024
:1403C0005E07E9F04F3AE0E05E07DCF0473BE0E05E0799F041
:1403D4004B3BE0E05E0769F04D3BE0E05E0739F04E3BE0E0F2
:1403E8005E0709F00AC003E769C002E767C004E765C003E6BD
:1403FC0063C00BE261C08FE785BB8091650080618093650037
:1404100001E010E00E94730043B355274F36E0E05E07E9F0FD
:140424004F36E0E05E07DCF04737E0E05E0799F04B37E0E0E0
:140438005E0769F04D37E0E05E0739F04E37E0E05E0709F07D
:14044C000AC000E339C003E337C002E335C001E333C006E37F
:1404600031C08FEF85BB809165008F708093650001E010E01B
:140474000E94730043B355274F3EE0E05E07E9F04F3EE0E015
:140488005E07DCF0473FE0E05E0799F04B3FE0E05E0769F0F3
:14049C004D3FE0E05E0739F04E3FE0E05E0709F00AC007E313
:1404B00009C008E307C009E305C004E303C005E301C00EE6C5
:1404C400599149910895AA924A9321972FDF402F02E010E0A3
:1404D8000E947D0029DFA02E4017F9F4423769F486E0888390
:1404EC0021E005E00E94BE0582E0888321E001E00E941C069E
:140500000EC04C3661F482E0888321E001E00E94BE0586E028
:14051400888321E005E00E941C06042F01C00EE621964991A5
:14052800A99008954A935A9322242ABA809165008D7F809360
:14053C00650080916500816080936500809165008860809306
:14055000650001E010E00E947D0049B35527407850708FEFD4
:140564008ABB80916500877F809365008A015991499108955E
:14057800AA92A02ED7DF00300107E1F7809165008D7F80930A
:14058C006500809165008E7F8093650080916500877F80936C
:1405A000650001E010E00E947D00ABBA02E010E00E947D009C
:1405B4008091650088608093650001E010E00E947D0080915C
:1405C8006500877F80936500A9900895AA92A02EA9DF0030A4
:1405DC000107E1F780916500826080936500809165008E7FD8
:1405F0008093650080916500877F80936500ABBA02E010E054
:140604000E947D008091650088608093650002E010E00E9479
:140618007D0080916500877F80936500A990089501E0A6DF21
:14062C0005E010E00C947D004A935A9322242ABA809165005E
:140640008D7F809365008091650081608093650080916200E0
:1406540081608093620001E010E00E947D0049B3552740781C
:1406680050708FEF8ABB809162008E7F809362008A01599191
:14067C0049910895AA92A02ED7DF00300107E1F780916500AD
:140690008D7F80936500809165008E7F809365008091620064
:1406A4008E7F8093620001E010E00E947D00ABBA02E010E099
:1406B8000E947D008091620081608093620001E010E00E94D3
:1406CC007D00809162008E7F80936200A9900895AA92A02EC8
:1406E000A9DF00300107E1F78091650082608093650080918D
:1406F40065008E7F80936500809162008E7F80936200ABBAAE
:1407080002E010E00E947D008091620081608093620002E041
:14071C0010E00E947D00809162008E7F80936200A9900895EF
:1407300001E0A6DF05E010E00C947D00AA924A93A22E402F05
:14074400442319F40A2D44DF0EC0413019F40A2D3FDF09C069
:14075800423019F40A2DBEDF04C0433011F40A2DB9DF499155
:14076C00A99008954A936A93622F402F662321F4042F0058A0
:14078000FBDE11C0613021F4042F0057F5DE0BC0623021F446
:14079400042F005873DF05C0633019F4042F00576DDF69913F
:1407A800499108950E94BC0B622F402FAE80662331F4042F4E
:1407BC000058DCDE0A2D08DF17C0613031F4042F0057D4DE30
:1407D0000A2D00DF0FC0623031F4042F005850DF0A2D7CDF2D
:1407E40007C0633029F4042F005748DF0A2D74DF0C94C30BE1
:1407F8000E94BC0BA22E602F4E815F81AA2071F4062F0058BA
:14080C00B5DE05C0FA010081DFDE4F5F5F4FFA01208022200E
:14082000B9F732C08A2D813071F4062F0057A4DE05C0FA0187
:140834000081CEDE4F5F5F4FFA0120802220B9F721C08A2D02
:14084800823071F4062F005817DF05C0FA01008141DF4F5FF3
:14085C005F4FFA0120802220B9F710C08A2D833069F4062F81
:14087000005706DF05C0FA01008130DF4F5F5F4FFA012080F1
:140884002220B9F70C94C30B4A935A9322242ABA8091650096
:140898008D7F80936500809165008160809365008091650083
:1408AC0088608093650001E010E00E947D0049B355274F77AA
:1408C0008FEF8ABB80916500877F80936500042F5991499176
:1408D40008954A935A9322242ABA809165008D7F8093650085
:1408E800809165008160809365008091620081608093620064
:1408FC0001E010E00E947D0049B355274F778FEF8ABB8091E6
:1409100062008E7F80936200042F59914991089583DE06CF25
:14092400AA92BA9222242ABA8091650082608093650080912C
:1409380065008160809365008091650088608093650001E036
:14094C0010E00E947D00A9B2BB248FEF8ABB80916500877F0F
:14096000809365000A2DB990A9900895AA92BA9222242ABA03
:140974008091650082608093650080916500816080936500D0
:140988008091620081608093620001E010E00E947D00A9B247
:14099C00BB248FEF8ABB809162008E7F809362000A2DB99030
:1409B000A99008950E94BC0B622F402F662349F4042F0058A3
:1409C400D9DD0AE010E00E947300AADF24C0613049F4042F0C
:1409D8000057CEDD0AE010E00E9473009FDF19C0623051F4EC
:1409EC00042F005847DE0AE010E00E947300B8DFA02E0DC026
:140A0000633051F4042F00573BDE0AE010E00E947300ACDFED
:140A1400A02E01C000270C94C30BAA92A02E0A2DA9DD7EDF86
:140A2800A9900895AA92A02E0A2DA2DD9BDFA99008958AB397
:140A3C008F6F8ABB8FEF8BBB809164008F60809364008091B3
:140A500065008F6080936500809161008160809361008091EE
:140A6400620081608093620000E384DD01E010E00E9473009C
:140A780008E07EDD01E010E00E94730001E078DD01E010E03A
:140A8C000E94730006E072DD01E010E00E9473000CE06CDDF1
:140AA00001E010E00E94730000E3EADD01E010E00E947300CC
:140AB40008E0E4DD01E010E00E94730001E0DEDD01E010E032
:140AC8000E94730006E0D8DD01E010E00E9473000CE0D2CDF9
:140ADC004A935A93A8014030450719F40CE046DD30C041305A
:140AF000E0E05E0719F40EE03FDD29C04230E0E05E0719F429
:140B04000DE038DD22C04330E0E05E0719F40FE031DD1BC07C
:140B18004430E0E05E0719F40CE0AEDD14C04530E0E05E073E
:140B2C0019F40EE0A7DD0DC04630E0E05E0719F40DE0A0DD57
:140B400006C04730E0E05E0711F40FE099DD59914991089574
:140B540002E010E00E947D0006E30CDD02E010E00C947D00DB
:140B680002E010E00E947D0000E302DD02E010E00C947D00D7
:140B7C000E94870B0E94A70BAE848A2D0A8480198F5FA82E09
:140B9000AA0CE0DF01E010E00E9473008C85813041F46A8510
:140BA4006058615040E880E8E82EC82E23C08C85823049F455
:140BB8006A856058615040E980E8E82E80E9C82E17C08C85E3
:140BCC00833049F46A856857615040E888E8E82E80E8C82EBA
:140BE0000BC08C85843041F46A856857615040E988E8E82E2E
:140BF40080E9C82E01E010E00E947300CC240EC0242E4F5FEA
:140C0800022DB6DC062FB4DCEE2403C00027DEDCE394EA1427
:140C1C00D8F3C3948C2D803178F3A0DF01E010E00E94730068
:140C30000E949C0B249608950E94870B0E94A70BAE848A2D9F
:140C44000A8480198F5FA82EAA0C82DF01E010E00E947300B4
:140C58008C85813041F46A856058615040E880E8E82EC82E9D
:140C6C0023C08C85823049F46A856058615040E980E8E82E92
:140C800080E9C82E17C08C85833049F46A856857615040E8A2
:140C940088E8E82E80E8C82E0BC08C85843041F46A856857F5
:140CA800615040E988E8E82E80E9C82ECC240EC0242E4F5FBB
:140CBC00022D5CDC062F5ADCEE2403C00FEF84DCE394EA14AA
:140CD000D8F3C3948C2D803178F346DF01E010E00E9473000E
:140CE4000E949C0B24960895229780E091E09983888323E0A8
:140CF80000277EDD80E091E0998388832227002777DD87E043
:140D0C00888321E001E092DF08EB1BE00E947D0087E08883F6
:140D200021E001E02BDF82E0888321E002E084DF0CE211E041
:140D34000E947D0087E0888322E002E01DDF85E0888321E0C9
:140D480003E076DF2296089522978FEF82B978940E941D05C8
:140D5C000E94900422273327002711270E94710B402F842F0B
:140D700080638883222708E00E94D603842F992701969983AF
:140D8400888322273327002711270E945A0B242E209423B866
:140D98000E94760609C00E94FE000E946502088322E0002703
:140DAC000E94D603F6CF229608950093CD052093CC0522246F
:140DC0002EBC0DBD2CBD2FBC85E08EBD87B7846087BF0895E2
:140DD4000093CB052093CA05222420928A00009389002093D5
:140DE800880020928B0085E080938A0080917D0084608093AB
:140DFC007D0008950093C90502BF87B7816087BF87E083BF99
:140E100008950093C80504BD87B7806487BF85E085BD089564
:140E24000A921A922A923A924A925A926A927A928A929A92D2
:140E38000A931A932A933A938A939A93AA93BA93EA93FA93F4
:140E4C000FB60A922197222423BE2092C70511C08091C70526
:140E6000805D888323E001E00E94D60304E610E00E947D003E
:140E74008091C7058F5F8093C7058091C705853058F3209033
:140E8800C90522BE87E083BF219609900FBEF991E991B99194
:140E9C00A991999189913991299119910991999089907990B1
:140EB000699059904990399029901990099018950A921A92BA
:140EC4002A923A924A925A926A927A928A929A920A931A9330
:140ED8002A933A938A939A93AA93BA93EA93FA930FB60A923D
:140EEC00219722242EBC2092C70511C08091C705805D8883F6
:140F000023E003E00E94D60304E610E00E947D008091C705A6
:140F14008F5F8093C7058091C705853058F32090CD052DBCB4
:140F28002090CC052CBC85E08EBD219609900FBEF991E9917B
:140F3C00B991A99199918991399129911991099199908990CF
:140F50007990699059904990399029901990099018950A92BC
:140F64001A922A923A924A925A926A927A928A929A920A9390
:140F78001A932A933A938A939A93AA93BA93EA93FA930FB68B
:140F8C000A92219723B0209423B8222425BC2092C70511C025
:140FA0008091C705805D888323E000270E94D60304E610E0F9
:140FB4000E947D008091C7058F5F8093C7058091C7058530CE
:140FC80058F32090C80524BC85E085BD219609900FBEF9911F
:140FDC00E991B991A9919991899139912991199109919990CE
:140FF00089907990699059904990399029901990099018959F
:141004000A921A922A923A924A925A926A927A928A929A92F0
:141018000A931A932A933A938A939A93AA93BA93EA93FA9312
:14102C000FB60A92219722242EBC2092C70511C08091C7053B
:14104000805D888323E002E00E94D60304E610E00E947D005B
:141054008091C7058F5F8093C7058091C705853058F3209051
:14106800CB05209289002090CA052092880085E08EBD219649
:14107C0009900FBEF991E991B991A9919991899139912991AA
:14109000199109919990899079906990599049903990299080
:1410A4001990099018954A935A9382B18B7F82B91B981C98A0
:1410B80001E010E00E9473004427552720C01B9A0AE010E0E8
:1410CC000E94730081B199278470907020900F013090100184
:1410E000282A392A3092100120920F01220C331C3092100162
:1410F40020920F011B9801E010E00E9473004F5F5F4F4830B9
:14110800E0E05E07E0F24427552722C01B9A0AE010E00E94E2
:14111C00730081B19927847090702090110130901201282A7F
:14113000392A3092120120921101910181010E94EA0B109361
:141144001201009311011B9801E010E00E9473004F5F5F4FEA
:141158004830E0E05E07D0F201E010E00E947300599149917A
:14116C0008954A935A9382B18F7D82B91E981F9801E010E050
:141180000E9473004427552720C01E9A0AE010E00E947300D8
:1411940081B199278072907020900F0130901001282A392A1D
:1411A8003092100120920F01220C331C3092100120920F018C
:1411BC001E9801E010E00E9473004F5F5F4F4830E0E05E078A
:1411D000E0F24427552722C01E9A0AE010E00E94730081B197
:1411E4009927807290702090110130901201282A392A309239
:1411F800120120921101910181010E94EA0B10931201009318
:14120C0011011E9801E010E00E9473004F5F5F4F4830E0E08C
:141220005E07D0F201E010E00E9473005991499108954A936F
:141234005A93809161008E7F80936100809162008E7F809333
:141248006200809162008B7F8093620001E010E00E94730058
:14125C004427552728C0809162008160809362000AE010E00C
:141270000E94730080B199278170907020900F0130901001E2
:14128400282A392A3092100120920F01220C331C30921001BC
:1412980020920F01809162008E7F8093620001E010E00E9418
:1412AC0073004F5F5F4F4830E0E05E07A0F2442755272AC05F
:1412C000809162008160809362000AE010E00E94730080B131
:1412D4009927817090702090110130901201282A392A309249
:1412E800120120921101910181010E94EA0B10931201009327
:1412FC001101809162008E7F8093620001E010E00E947300F1
:141310004F5F5F4F4830E0E05E0790F201E010E00E94730068
:141324005991499108954A935A9380916100877F809361009E
:14133800809162008F7E80936200809162008F7D80936200B8
:14134C0001E010E00E9473004427552728C080916200806184
:14136000809362000AE010E00E94730080B19927807890702C
:1413740020900F0130901001282A392A3092100120920F018A
:14138800220C331C3092100120920F01809162008F7E8093AC
:14139C00620001E010E00E9473004F5F5F4F4830E0E05E07FC
:1413B000A0F2442755272AC0809162008061809362000AE013
:1413C40010E00E94730080B1992780789070209011013090A5
:1413D8001201282A392A3092120120921101910181010E94EA
:1413EC00EA0B1093120100931101809162008F7E80936200A8
:1414000001E010E00E9473004F5F5F4F4830E0E05E0790F277
:1414140001E010E00E94730059914991089581B3877081BB16
:1414280000B3087F08958FEF84BB05BB08950E94B20B590106
:14143C00A8018FEF84BB4030450771F401E010E095010E940C
:14145000EA0B18012094309445B255244220532045BA0EC0F0
:141464004130E0E05E0751F401E010E095010E94EA0B25B2C4
:141478003324202A312A25BA0C94B70BAA92BA92580101E061
:14148C0010E095010E94EA0B23B23324202231228101B990A3
:1414A000A99008958EE08093950083E089B92224209290001F
:1414B4002BB888E18AB908955D9BFECF0CB908950027112772
:1414C80022242092CF050BC00030EDE71E0729F481E08093BF
:1414DC00CF0501E005C00F5F1F4F5F9BF3CF0CB10895AA9254
:1414F0004A933EC0E7DF00936F03023009F038C041E00FC02F
:14150400DFDF8FE693E0E42FFF27E80FF91F00838091CF057D
:14151800813011F401E029C04395453078F32090730333240A
:14152C00309216012092150145E010C0C5DFA02E8FE693E0BB
:14154000E42FFF27E80FF91FA0828091CF05813011F401E0B1
:141554000EC0439580911501909116010696242E33242816FB
:14156800390630F3002701C0C1CF4991A99008950E94AB0B8D
:14157C0069017801AA2407C0EA2DFF27EE0DFF1D008196DF99
:14159000A3942A2C33242C143D04A0F30C948C0B0E94D80B93
:1415A400C8844FEF5FEFAA241BC0EA2DFF27E00FF11F2080D6
:1415B80033244225532566270EC040FF09C088E094E81A0187
:1415CC003694279428263926A10102C056954795639568301E
:1415E00080F3A394AC1418F31A01232C3324F9012082418361
:1415F4000C94E10B0E94B20B422F58012397842F82508883E4
:141608009E012F5F3F4F8501C7DFE42FFF273297EA0DFB1DD6
:14161C0020803980321449F4E42FFF273197EA0DFB1D20802E
:141630003A80321411F001E001C0002723960C94B70B0E941F
:14164400CA0BC22EA02E23974985C0921C0140931B01A092E7
:141658001A0122242092180181E08093190182E08093170137
:14166C00842F8B5F88839E012F5F3F4F07E111E091DF8CE151
:1416800091E0E42FFF27E80FF91F298020828DE191E0E42F60
:14169400FF27E80FF91F2A80208202DF242F3327295F3F4F1D
:1416A80007E111E065DF23960C94D10B0E94AB0B79016801A1
:1416BC00AE80BF808FB78F778FBFE199FECFEEBACFBAADBA34
:1416D000E29AE19A01E010E00E94730078940C948C0BAA92AA
:1416E400CA92690158018FB78F778FBFE199FECFCEBAAFBA01
:1416F800E09A01E010E00E947300ADB278940A2DC990A9904A
:14170C0008953A932A931A930A930895A990B990C990D99077
:14172000E990F9900895A990B990C990D990E990F9904991F6
:1417340059910895A990B990C990D990E990F9904991599110
:141748006991799108957A936A935A934A93FA92EA92DA92A4
:14175C00CA92BA92AA9208955A934A93BA92AA920895A990D0
:14177000B9904991599108957A936A935A934A93BA92AA925F
:141784000895A990B990499159916991799108955A934A9303
:14179800DA92CA92BA92AA920895A990B990C990D990499132
:1417AC00599108957A936A935A934A93DA92CA92BA92AA927E
:1417C0000895A990B990C990D99049915991699179910895CF
:1417D400222321F0000F111F2A95FACF0895112319F0000FFB
:0617E8001A95FBCF0895E5
:00000001FF
