:040000000C942E0529
:04000C000C94DB274E
:040028000C942B0CFD
:040038000C94F20B27
:040040000C94770B9A
:080048000C9464110C94FA11F0
:040074000C94780C64
:14008C00000000400000C84100000000000020416EB7B4B02D
:1400A000D7B2E2CAD4B5DAD2BBB4CE000000000000000000A5
:1400B400000000000000000000000000000000000000000038
:1400C800000000000000000000000000000000000000000024
:1400DC00000000000000000000000000000000000000000010
:1400F0000000000000000000000000000000000000000000FC
:140104000000000000000000000000000000000000000000E7
:140118000000000000000000000000000000000000000000D3
:14012C000000000000000000000000000000000000000000BF
:140140000000000000000000000000000000000000000000AB
:14015400000000000000000000000000000000000000000097
:14016800000000000000000000000000000000000000000083
:14017C0000000000000000000000000000000000000000006F
:1401900000000000000000000000000000000000000000005B
:1401A4000000000000000000000000000000000000007A309D
:1401B800000000000000000000000000000000000000000033
:1401CC0000000000000000000000000000000000000000001F
:1401E00000000000000000000000000000000000000000000B
:1401F4000000000000000000000000000000000000000000F7
:140208000000000000000000000000000000000000000000E2
:14021C000000000000000000000000000000000000000000CE
:140230000000000000000000000000000000000000000000BA
:140244000000000000000000000000000000000000000000A6
:14025800000000000000000000000000000000000000000092
:14026C0000000000000000000000000000000000000000007E
:1402800000000000000000000000000000000000000000006A
:14029400000000000000000000000000000000000000000056
:1402A800000000000000000000000000000000000000000042
:1402BC00000000000000000000000000000000E80300000043
:1402D00000000000000000000000000000000000000000001A
:1402E400000000000000000000000000000000000000000006
:1402F8000000000000000000000000000000000000000000F2
:14030C000000000000000000000000000000000000000000DD
:1407D0000000000000000000000000000000000000400001D4
:1407E400000000000000000000000000000000000000000001
:1407F8000000000000000000000000000000000000000000ED
:14080C000000000000000000000000000000000000000000D8
:140820000000000000000000000000000000000000000000C4
:140834000000000000000000000000000000000000000000B0
:1408480000000000000000000000000000000000000000009C
:14085C00000000000000000000000000000000000000000088
:14087000000000000000000000000000000000000000000074
:14088400000000000000000000000000000000000000000060
:1408980000000000000000000000000000000000000000004C
:1408AC00000000000000000000000000000000000000000038
:1408C000000000000000000000000000000000000000000024
:1408D400000000000000000000000000000000000000000010
:1408E80000000001000200030004000600070009000A0002D0
:1408FC000003000500060008000900CAFDBEDDD6D8D6C3D64A
:14091000D0A1A3A1A3A1A300CFB5CDB3D6D8D6C3D6D0A1A302
:14092400A1A3A1A3002D2000C8B7C8CF00CAC7B7F1D6D8D617
:14093800C300CEC2B6C8B1A3B4E6CAA7B0DCA3A100CEC2B665
:14094C00C8B1A3B4E6B3C9B9A6A3A100CAB1BCE4B1A3B4E6B9
:14096000B3C9B9A6A3A100D6D8D6C3CFB5CDB300C9E8D6C3CF
:14097400CAB1BCE400B6CFB5E7D7D4B6AFBBD6B8B400B1A3D2
:14098800B4E6D6D02E202E202E00B1A3B4E600CEC2B6C80055
:14099C0020003A2000BAE3CEC200C9FDCEC2000020202020CA
:1409B0002020202020202020202020200020202020202000F3
:1409C400D6D8D6C300D4CBD0D000B1E0BCAD00D7B4CCAC3A62
:1409D80000C4BFB1EA3A00CEC2B6C83A005400BBD6B8B4D644
:1409EC00D02E202E202E00C8A1CFFB00BBD6B8B400CAC7B7E5
:140A0000F1BBD6B8B4C9CFB4CEB9A4D7F700B5C8B4FD00BDC4
:140A1400E1CAF800D4DDCDA300B9CAD5CF00CDA3D6B900C91B
:140A2800E8D6C300CDA3D6B92020202000BFAACABC2020206B
:140A3C0020002054343A002054333A002054323A002054313E
:0B0A50003A00CAB1BCE43A00323000AA
:140A5C00CFEFD0E1CDBFDEBFCE51D0400AEA08830024EFEB42
:140A7000FAE01AE0E73DF10711F00192FBCF0083ECE9F0E0FC
:140A8400A0E0B1E01AE000E00BBFEB35F10721F0C89531965C
:140A98000D92F9CF0E94C30AFFCF000F111F0150104081E065
:140AAC0090E080179107C8F308954A935A93A80141505040AB
:140AC00005E714E0EEDF81E090E084179507B0F35991499106
:140AD40008954A935A93A8014150504008EE13E0E8DF81E0CC
:140AE80090E084179507B0F35991499108954A935A9380EE17
:140AFC0084BB809164008061809364008FED85BB80916500A8
:140B100080618093650001E010E00E94510543B355274F3CB2
:140B2400E0E05E07E9F04F3CE0E05E07DCF0473DE0E05E079A
:140B380099F04B3DE0E05E0769F04D3DE0E05E0739F04E3DB7
:140B4C00E0E05E0709F00AC005E699C001E697C004E695C0EC
:140B600005E793C00CE691C08FEB85BB8091650080618093DB
:140B7400650001E010E00E94510543B355274F3AE0E05E071F
:140B8800E9F04F3AE0E05E07DCF0473BE0E05E0799F04B3B50
:140B9C00E0E05E0769F04D3BE0E05E0739F04E3BE0E05E0743
:140BB00009F00AC003E769C002E767C004E765C003E663C02F
:140BC4000BE261C08FE785BB8091650080618093650001E0A9
:140BD80010E00E94510543B355274F36E0E05E07E9F04F36A7
:140BEC00E0E05E07DCF04737E0E05E0799F04B37E0E05E0731
:140C000069F04D37E0E05E0739F04E37E0E05E0709F00AC048
:140C140000E339C003E337C002E335C001E333C006E331C088
:140C28008FEF85BB809165008F708093650001E010E00E949A
:140C3C00510543B355274F3EE0E05E07E9F04F3EE0E05E079F
:140C5000DCF0473FE0E05E0799F04B3FE0E05E0769F04D3FFC
:140C6400E0E05E0739F04E3FE0E05E0709F00AC007E309C006
:140C780008E307C009E305C004E303C005E301C00EE65991D4
:140C8C0049910895AA924A9330DF402F02E010E00E945B0572
:140CA0002ADFA02E401761F44E3651F020900001241611F408
:140CB4000EE608C040930001042F04C08EE6809300010EE629
:140CC8004991A99008954A935A9322242ABA809165008D7FF2
:140CDC0080936500809165008160809365008091650088605F
:140CF0008093650001E010E00E94510549B3552740785070BF
:140D04008FEF8ABB80916500877F809365008A0159914991D5
:140D18000895AA92A02ED7DF00300107E1F7809165008D7FD8
:140D2C0080936500809165008E7F8093650080916500877FC4
:140D400080936500ABBA8091650088608093650001E010E01B
:140D54000E94510580916500877F80936500A9900895AA928D
:140D6800A02EB1DF00300107E1F78091650082608093650039
:140D7C00809165008E7F8093650080916500877F8093650074
:140D9000ABBA8091650088608093650001E010E00E9451054B
:140DA40080916500877F80936500A990089501E0B2DF01E01E
:140DB80010E00C945B054A935A9322242ABA809165008D7FC1
:140DCC00809365008091650081608093650080916200816078
:140DE0008093620001E010E00E94510549B3552740785070D1
:140DF4008FEF8ABB809162008E7F809362008A0159914991E4
:140E08000895AA92A02ED7DF00300107E1F7809165008D7FE7
:140E1C0080936500809165008E7F80936500809162008E7FCF
:140E300080936200ABBA8091620081608093620001E010E03A
:140E44000E945105809162008E7F80936200A9900895AA929B
:140E5800A02EB1DF00300107E1F78091650082608093650048
:140E6C00809165008E7F80936500809162008E7F8093620082
:140E8000ABBA8091620081608093620001E010E00E94510567
:140E9400809162008E7F80936200A990089501E0B2CFAA92E1
:140EA8004A93A22E402F442311F0413019F40A2D56DF06C002
:140EBC00423011F0433011F40A2DC7DF4991A99008954A93CD
:140ED0006A93622F402F662321F4042F00581DDF11C061308A
:140EE40021F4042F005717DF0BC0623021F4042F005889DF00
:140EF80005C0633019F4042F005783DF6991499108950E9482
:140F0C007F3C622F402FAE80662331F4042F0058FEDE0A2D9C
:140F200022DF17C0613031F4042F0057F6DE0A2D1ADF0FC0D2
:140F3400623031F4042F005866DF0A2D8ADF07C0633029F40B
:140F4800042F00575EDF0A2D82DF0C94863C0E947F3CA22EA7
:140F5C00602F4E815F81AA2071F4062F0058D7DE05C0FA0112
:140F70000081F9DE4F5F5F4FFA0120802220B9F732C08A2D83
:140F8400813071F4062F0057C6DE05C0FA010081E8DE4F5F5E
:140F98005F4FFA0120802220B9F721C08A2D823071F4062F26
:140FAC0000582DDF05C0FA0100814FDF4F5F5F4FFA01208067
:140FC0002220B9F710C08A2D833069F4062F00571CDF05C048
:140FD400FA0100813EDF4F5F5F4FFA0120802220B9F70C94E7
:140FE800863C0E94753CA901602F662311F0613059F405C07A
:140FFC00FA010081B2DE4F5F5F4FFA0120802220B9F70EC01E
:14101000623011F0633051F405C0FA0100811BDF4F5F5F4FCA
:14102400FA0120802220B9F70C947A3C4A935A9322242ABAE1
:14103800809165008D7F8093650080916500816080936500DB
:14104C008091650088608093650001E010E00E945B0549B3EB
:1410600055274F778FEF8ABB80916500877F80936500042F50
:141074005991499108954A935A9322242ABA809165008D7F91
:141088008093650080916500816080936500809162008160B9
:14109C008093620001E010E00E945B0549B355274F778FEF3C
:1410B0008ABB809162008E7F80936200042F5991499108955E
:1410C40076DEEDCEAA92BA9222242ABA8091650082608093EC
:1410D80065008091650081608093650080916500886080935F
:1410EC00650001E010E00E945B05A9B2BB248FEF8ABB8091AA
:141100006500877F809365000A2DB990A9900895AA92BA921A
:1411140022242ABA8091650082608093650080916500816076
:14112800809365008091620081608093620001E010E00E94FF
:14113C005B05A9B2BB248FEF8ABB809162008E7F809362004D
:141150000A2DB990A99008950E947F3C622F402F662349F412
:14116400042F0058D8DD0AE010E00E945105AADF24C0613067
:1411780049F4042F0057CDDD0AE010E00E9451059FDF19C0C9
:14118C00623051F4042F00583ADE0AE010E00E945105B8DF6C
:1411A000A02E0DC0633051F4042F00572EDE0AE010E00E94B6
:1411B4005105ACDFA02E01C000270C94863CAA92A02E0A2DED
:1411C800A8DD7EDFA9900895AA92A02E0A2DA1DD9BDFA990E9
:1411DC0008958AB38F6F8ABB8FEF8BBB809164008F608093A7
:1411F0006400809165008F6080936500809161008160809344
:1412040061008091620081608093620000E383DD08E081DD23
:1412180001E07FDD06E07DDD0CE07BDD00E3F1DD08E0EFDD9C
:14122C0001E0EDDD06E0EBDD0CE0E9CD4A935A93A8014030D0
:14124000450719F40CE069DD30C04130E0E05E0719F40EE08E
:1412540062DD29C04230E0E05E0719F40DE05BDD22C0433040
:14126800E0E05E0719F40FE054DD1BC04430E0E05E0719F49F
:14127C000CE0C5DD14C04530E0E05E0719F40EE0BEDD0DC0FF
:141290004630E0E05E0719F40DE0B7DD06C04730E0E05E07BF
:1412A40011F40FE0B0DD59914991089506E333DD06E3A9CDFC
:1412B80000E32FDD00E3A5CD0E94DF3B0E94603C622F21979B
:1412CC00AF848A2D0B8480198F5FC82ECC0CEADF662349F4B1
:1412E0008B8580588150888340E880E8A82EE82E22C0613047
:1412F40051F48B8580588150888340E980E8A82E80E9E82EF7
:1413080016C0623049F48B8580588150888340E880E8A82E02
:14131C00E82E0BC0633049F48B8580588150888340E980E8B7
:14133000A82E80E9E82E662311F06130A1F4AA240EC0242EB6
:141344004F5F022DE8DC0881E6DCEE2403C0002708DDE39451
:14135800EC14D8F3A3948A2D803178F317C0623011F06330AF
:14136C0099F4AA240EC0242E4F5F022D48DD088146DDEE2432
:1413800003C0002768DDE394EC14D8F3A3948A2D803178F3DE
:1413940091DF21960E94553C249608950E94DF3B0E94603C9A
:1413A800622F2197AF848A2D0B8480198F5FC82ECC0C7ADFC1
:1413BC00662349F48B8580588150888340E880E8A82EE82E17
:1413D00022C0613051F48B8580588150888340E980E8A82E26
:1413E40080E9E82E16C0623049F48B8580588150888340E8E5
:1413F80080E8A82EE82E0BC0633049F48B858058815088832E
:14140C0040E980E8A82E80E9E82E662311F06130A1F4AA2468
:141420000EC0242E4F5F022D78DC088176DCEE2403C00FEFB9
:1414340098DCE394EC14D8F3A3948A2D803178F317C062307B
:1414480011F0633099F4AA240EC0242E4F5F022DD8DC088167
:14145C00D6DCEE2403C00FEFF8DCE394EC14D8F3A3948A2DF3
:14147000803178F321DF21960E94553C249608953A932A9381
:141484000E94603CC02E04E346DC04E3BCDC6C2D4A85606870
:141498004068AA2413C0242E4F5F022D3ADC062F38DCEE2457
:1414AC0007C0EC85FD850191FD87EC8756DCE3948E2D8831CC
:1414C000B0F3A3948A2D803250F36C2D4A8560684068EE24A8
:1414D40013C0242E4F5F022D96DC062F94DCEE2407C0EC85A1
:1414E800FD850191FD87EC87B2DCE3948E2D8831B0F3A39492
:1414FC008A2D803450F306E30ADC06E380DC01E010E00E94A7
:14151000510500E302DC00E378DC0E94553C22960895229738
:1415240081E091E09983888323E0002712DD81E091E09983B3
:141538008883222700270BDD87E0888321E001E02BDF08EBEB
:14154C001BE00E945B0587E0888321E001E0B2DE82E088833D
:1415600021E002E01DDF0CE211E00E945B0587E0888322E043
:1415740002E0A4DE85E0888321E003E00FDF229608952197B0
:1415880080E390E090931C0280931B0281E390931E02809351
:14159C001D0282E39093200280931F0283E39093220280937E
:1415B000210284E3909324028093230285E390932602809356
:1415C400250286E3909328028093270287E390932A0280932E
:1415D800290288E390932C0280932B0289E390932E02809306
:1415EC002D028FEF82B985E583B978940E94EF080E946208AC
:1416000082E090E09093CC0A8093CB0A8CE08883222701E082
:141614000E9460098CE0888321E001E00E9460098CE08883DC
:1416280022E001E00E9460098CE0888323E001E00E9460095A
:14163C0080E590E0909334038093330382E190933203809354
:1416500031030E94BA320E94483B222700EC0E944F0B28EB5B
:141664000EEF0E94400B00270E946E0B0E944E1102C00E94E1
:141678007B27FDCF219608950093D30A2093D20A22242EBC6D
:14168C000DBD2CBD2FBC85E08EBD87B7846087BF0895009364
:1416A000D10A2093D00A222420928A000093890020938800F5
:1416B40020928B0085E080938A0080917D00846080937D00E1
:1416C80008950093CF0A02BF87B7816087BF87E083BF089599
:1416DC000093CE0A04BD87B7806487BF85E085BD08950A9286
:1416F0001A922A923A924A925A926A927A928A929A920A93FD
:141704001A932A933A938A939A93AA93BA93EA93FA930FB6F7
:141718000A922197222423BE20902D0330902E03222059F5E1
:14172C00332049F580912F0390913003019790933003809380
:141740002F0324E630E08C010E940B3CC801C0968883222760
:141754000AE00E94850783E7888322270BE00E94850781E031
:1417680090E020902F033090300382159305F0F4222422BEEF
:14177C0087E083BF19C080912F039091300301979093300352
:1417900080932F038130E0E09E0741F480E290E0909330038D
:1417A40080932F030E944631222422BE87E083BF21960990B4
:1417B8000FBEF991E991B991A9919991899139912991199156
:1417CC0009919990899079906990599049903990299019903E
:1417E000099018950A921A922A923A924A925A926A927A920F
:1417F4008A929A920A931A932A933A938A939A93AA93BA93F1
:14180800EA93FA930FB60A9222242EBC0E9492102090D30A60
:14181C002DBC2090D20A2CBC85E08EBD09900FBEF991E99141
:14183000B991A99199918991399129911991099199908990D2
:141844007990699059904990399029901990099018950A92BF
:141858001A922A923A924A925A926A927A928A929A920A9393
:14186C001A932A933A938A939A93AA93BA93EA93FA930FB68E
:141880000A92222425BC2090450830904608222051F43320AC
:1418940041F480E490E090934608809345080E94DB278091B1
:1418A800450890914608019790934608809345082090CE0A7F
:1418BC0024BC85E085BD09900FBEF991E991B991A991999179
:1418D0008991399129911991099199908990799069905990F5
:1418E4004990399029901990099018950A921A922A923A92D6
:1418F8008A929A920A931A932A933A938A939A93AA93BA93EC
:14190C000FB60A92AA92BA92222420928A0085E690E090935E
:141920001C0280931B02209035033090360330921E022092F0
:141934001D0220903F04309040043092200220921F02209121
:141948005B0430915C040091590410915A040E94863D1801A0
:14195C00232C332427FC3094309222022092210220915B041F
:1419700030915C040091590410915A040E94863DC801907027
:1419840090932402809323022090410430904204232C33242D
:141998003092260220922502809141049091420488709070C3
:1419AC0090932802809327022090430430904404232C3324F9
:1419C00030922A022092290280914304909144049070909364
:1419D4002C0280932B0285E690E090932E0280932D0286E6B5
:1419E8009093300280932F022090790430907A0430923202F1
:1419FC00209231022090830530908405309234022092330292
:141A100020919F053091A00500919D0510919E050E94863D2B
:141A24001801232C332427FC30943092360220923502209174
:141A38009F053091A00500919D0510919E050E94863DC801EB
:141A4C00907090933802809337022090410430904204232C93
:141A6000332430923A0220923902809141049091420488707B
:141A7400907090933C0280933B022090870530908805232CD5
:141A8800332430923E0220923D0280918705909188059070B5
:141A9C009093400280933F0286E690E09093420280934102E4
:141AB00087E690934402809343022090BD053090BE0530923D
:141AC4004602209245022090C7063090C80630924802209204
:141AD80047022091E3063091E4060091E1061091E2060E94C9
:141AEC00863D1801232C332427FC309430924A022092490272
:141B00002091E3063091E4060091E1061091E2060E94863D26
:141B1400C801907090934C0280934B02209041043090420428
:141B2800232C332430924E0220924D02809141049091420433
:141B3C00887090709093500280934F022090CB063090CC06B1
:141B5000232C332430925202209251028091CB069091CC06EB
:141B64009070909354028093530287E690E090935602809321
:141B7800550288E6909358028093570220900107309002072A
:141B8C0030925A022092590220900B0830900C0830925C0263
:141BA00020925B0220912708309128080091250810912608C4
:141BB4000E94863D1801232C332427FC309430925E0220923E
:141BC8005D02209127083091280800912508109126080E94AA
:141BDC00863DC80190709093600280935F02209041043090BB
:141BF0004204232C3324309262022092610280914104909143
:141C0400420488709070909364028093630220900F08309006
:141C18001008232C3324309266022092650280910F0890916E
:141C2C0010089070909368028093670288E690E090936A0216
:141C40008093690288E290932A0380932903559A2090D10A9F
:141C5400209289002090D00A2092880085E080938A00B99032
:141C6800A99009900FBEB991A99199918991399129911991D3
:141C7C00099199908990399029901990099018954A935A933D
:141C90001B9A1C9A01E010E00E9451051C9801E010E00E94E5
:141CA40051051B9801E010E00E9451051B9A4427552724C0DA
:141CB8001B9801E010E00E9451052090310330903203220C95
:141CCC00331C309232032092310381B19927847090709595C8
:141CE000879595958795282A392A30923203209231031B9A47
:141CF40001E010E00E9451054F5F5F4F4830E0E05E07C0F268
:141D08004427552724C01B9801E010E00E945105209033039A
:141D1C0030903403220C331C309234032092330381B199276C
:141D3000847090709595879595958795282A392A3092340371
:141D4400209233031B9A01E010E00E9451054F5F5F4F483051
:141D5800E0E05E07C0F21C9A0AE010E00E9451055991499154
:141D6C0008954A935A931E9A1F9A01E010E00E9451051F980B
:141D800001E010E00E9451051E9801E010E00E9451051E9A4F
:141D94004427552728C01E9801E010E00E9451052090310309
:141DA80030903203220C331C309232032092310325E030E0C3
:141DBC0001B11127007210700E94E43B20903103309032039D
:141DD000202A312A30923203209231031E9A01E010E00E9452
:141DE40051054F5F5F4F4830E0E05E07A0F24427552728C03B
:141DF8001E9801E010E00E9451052090330330903403220C4D
:141E0C00331C309234032092330325E030E001B11127007221
:141E200010700E94E43B2090330330903403202A312A309229
:141E34003403209233031E9A01E010E00E9451054F5F5F4F9E
:141E48004830E0E05E07A0F21F9A0AE010E00E9451055991E2
:141E5C00499108954A935A9380916200826080936200809156
:141E7000620084608093620001E010E00E9451058091620067
:141E84008B7F8093620001E010E00E945105809162008D7F83
:141E98008093620001E010E00E945105809162008260809390
:141EAC0062004427552728C0809162008D7F8093620001E01C
:141EC00010E00E9451052090310330903203220C331C30920E
:141ED40032032092310380B1992781709070282A392A309286
:141EE8003203209231038091620082608093620001E010E030
:141EFC000E9451054F5F5F4F4830E0E05E07A0F24427552768
:141F100028C0809162008D7F8093620001E010E00E94510518
:141F24002090330330903403220C331C30923403209233036E
:141F380080B1992781709070282A392A30923403209233031D
:141F4C008091620082608093620001E010E00E9451054F5F40
:141F60005F4F4830E0E05E07A0F280916200846080936200C4
:141F74000AE010E00E9451055991499108954A935A9380914B
:141F880062008061809362008091620080628093620001E0E2
:141F9C0010E00E945105809162008F7D8093620001E010E084
:141FB0000E945105809162008F7E8093620001E010E00E94BD
:141FC4005105809162008061809362004427552733C08091FF
:141FD80062008F7E8093620001E010E00E9451052090310364
:141FEC0030903203220C331C309232032092310381B19927A0
:14200000887090701C0135942794359427943594279440905B
:1420140031035090320342285328509232034092310380915C
:14202800620080618093620001E010E00E9451054F5F5F4FC7
:14203C004830E0E05E0748F24427552733C0809162008F7E5F
:142050008093620001E010E00E945105209033033090340361
:14206400220C331C309234032092330381B199278870907020
:142078001C01359427943594279435942794409033035090C5
:14208C003403422853285092340340923303809162008061AF
:1420A0008093620001E010E00E9451054F5F5F4F4830E0E05A
:1420B4005E0748F2809162008062809362000AE010E00E9433
:1420C80051055991499108954A935A93A8018AED82B986EFB3
:1420DC008093610083B18C6F83B9809162008F6F809362002B
:1420F0004030450769F04130E0E05E0759F04230E0E05E0751
:1421040049F04330E0E05E0739F007C0BDDD05C02CDE03C0DA
:14211800A3DE01C032DF599149910895AA92BA928091470817
:14212C00909148088333E0E09E0731F481E090E090934808AA
:142140008093470880913503909136038130E0E09E07E9F493
:1421540040907704509078042090750430907604009147088D
:14216800109148080E94B83D3A932A931A930A9381019201F2
:14217C000E94883F14F0189A07C083B18E7F83B903C083B1F5
:142190008E7F83B98091790490917A048130E0E09E07E9F4D2
:1421A40040907704509078042090750430907604009147083D
:1421B800109148080E94B83D3A932A931A930A9381019201A2
:1421CC000E94883F14F0199A07C083B18D7F83B903C083B1A5
:1421E0008D7F83B98091BD059091BE058130E0E09E07E9F4F9
:1421F4004090770450907804209075043090760400914708ED
:14220800109148080E94B83D3A932A931A930A938101920151
:14221C000E94883F14F01A9A07C083B18B7F83B903C083B155
:142230008B7F83B980910107909102078130E0E09E07E9F41E
:1422440040907704509078042090750430907604009147089C
:14225800109148080E94B83D3A932A931A930A938101920101
:14226C000E94883F14F01B9A07C083B1877F83B903C083B108
:14228000877F83B9809147089091480801969093480880931A
:142294004708B990A990089522242AB82BB886E080939500AF
:1422A80087E689B9209290008AB188698AB908955D9BFECF60
:1422BC000CB908955F9BFECF0CB108950A921A922A923A92BB
:1422D0004A925A926A927A928A929A920A931A932A933A930E
:1422E4008A939A93AA93BA93EA93FA930FB60A924A935798DB
:1422F8004CB180911A028A3751F4413608F45DC089E6841708
:14230C0008F459C040931A0256C020901A02421559F4E2D081
:142320002224332430921902209218028AE780931A0247C0BC
:14233400403370F189E3841758F180E191E0E0911802F09193
:142348001902EE0FFF1FE80FF91F842F9927C097918380835B
:14235C0080911802909119020196909319028093180283E899
:1423700090E020901802309019028215930508F5222433247B
:1423840030921902209218028AE780931A0217C0413660F05E
:1423980089E6841748F02224332430921902209218024093D6
:1423AC001A0209C02224332430921902209218028AE780936E
:1423C0001A02579A499109900FBEF991E991B991A99199910A
:1423D4008991399129911991099199908990799069905990E6
:1423E8004990399029901990099018951A922A923A924A9287
:1423FC005A928A939A93EA93FA931FB61A9255982090290343
:1424100030902A0340902B0350902C034214530490F48BE121
:1424240092E0F201EE0FFF1FE80FF91F208031802CB8C2011D
:14243800019690932C0380932B03559A0AC02224332430924E
:14244C002A032092290330922C0320922B0319901FBEF99190
:14246000E991999189915990499039902990199018954A9333
:142474005A93A80105C0FA0100811CDF4F5F5F4FFA0120808B
:142488002220B9F70AE014DF5991499108950E946B3C58016E
:14249C0040911001509111014030450769F04130E0E05E07AC
:1424B00069F04230E0E05E0769F04330E0E05E0761F00EC018
:1424C40085010E9446380AC085010E94A83806C085010E949E
:1424D8008A3685010E9424360C94703C4A935A9323B0209411
:1424EC0023B840911A0255274136E0E05E0709F14236E0E0CA
:142500005E0709F14336E0E05E0709F14436E0E05E0709F137
:142514004536E0E05E0709F14636E0E05E0721F14736E0E029
:142528005E0739F14836E0E05E0751F14936E0E05E0769F12D
:14253C0052C000271127A9DF4EC001E010E0A5DF4AC002E043
:1425500010E0A1DF46C003E010E09DDF42C020E131E0002777
:1425640011270E9466353BC020E131E001E010E00E946635D3
:1425780034C020E131E002E010E00E9466352DC020E131E03B
:14258C0003E010E00E94663526C04091100150911101403000
:1425A000450749F04130E0E05E0741F04230E0E05E0739F01B
:1425B40016C00E94C93713C00E94153810C0002711270E9408
:1425C8008A3601E010E00E948A3602E010E00E948A3603E0F5
:1425DC0010E00E948A365991499108950E94643C7901680113
:1425F000AE80BF808FB78F778FBFE199FECFEEBACFBAADBAF1
:14260400E29AE19A01E010E00E94510578940C944E3C0E942A
:14261800663C690158018FB78F778FBFE199FECFCEBAAFBA77
:14262C00E09A01E010E00E945105ADB2BB24789485010C94E7
:14264000493CAA92BA925801229786EB9AE0998388832A2DFE
:1426540000270E94AB0785010E94593B2296B990A990089564
:14266800AA92BA92580185010E94593BB990A99008950E9400
:14267C009B3C229781E090E09093C00A8093BF0A81EB9AE03A
:142690009983888321E001E00E94AB078CEA9AE099838883C2
:1426A40021E006E00E94AB0787EA9AE09983888322E001E0F2
:1426B8000E94AB0782EA9AE09983888322E006E00E94AB0771
:1426CC0089E99AE09983888323E001E00E94AB0720E93AE08C
:1426E00003E00E94F5072BE83AE003E00E94F50789E99AE0CB
:1426F4009983888323E001E00E94AB0720E93AE003E00E94CB
:14270800F5072BE83AE003E00E94F5074427552783E08883BE
:14271C0021E002E00E94D00989C3002711278BDFAA24BB2489
:14273000DFC0AA2049F4BB2039F461E070E021E003E00E94D0
:14274400670723C0C5018130E0E09E0739F461E070E021E095
:1427580008E00E94670717C0C5018230E0E09E0739F462E052
:14276C0070E022E003E00E9467070BC0C5018330E0E09E076B
:1427800031F462E070E022E008E00E94670704E411E0950125
:142794000E94393C85E393E0F801E80FF91FC080D180CC20BA
:1427A80011F4DD20F9F0C6018130E0E09E0701F18230E0E0F1
:1427BC009E0709F477C08330E0E09E0709F478C08430E0E06F
:1427D0009E0709F479C08530E0E09E0709F47AC08630E0E053
:1427E4009E0709F47BC07FC026E83AE0062F0E94F50779C091
:1427F80004E411E095010E94393C89E594E0F801E80FF91F5D
:14280C0000811181228133810E94863D24E630E00E94EF3B03
:1428200098012063062F0E94530704E411E095010E94393CD1
:1428340089E594E0F801E80FF91F00811181228133810E949A
:14284800863D2AE030E00E94EF3B2AE030E00E94EB3B980158
:14285C002063062F0E94530704E411E095010E94393C89E5C0
:1428700094E0F801E80FF91F00811181228133810E94863D09
:142884002AE030E00E94EB3B98012063062F0E94530720E20F
:14289800062F0E94530721EA062F0E94530726EE062F0E94D4
:1428AC0053071DC021E83AE0062F0E94F50717C02CE73AE0E7
:1428C000062F0E94F50711C027E73AE0062F0E94F5070BC09A
:1428D40022E73AE0062F0E94F50705C02CE73AE0062F0E9431
:1428E800F507C50101965C01C5018430E0E09E0708F41BCF61
:1428FC000E944806A02E013609F053C088E090E09093CC0AF6
:142910008093CB0A40304507C9F04130E0E05E07E1F042307D
:14292400E0E05E07F9F04330E0E05E0711F14430E0E05E075E
:1429380029F14530E0E05E0741F14630E0E05E0759F177C287
:14294C0083E0888321E002E00E94600970C288E0888321E075
:1429600007E00E94600969C283E0888322E002E00E946009E9
:1429740062C288E0888322E007E00E9460095BC283E0888339
:1429880023E002E00E94600954C287E0888323E006E00E9438
:14299C0060094DC28BE0888323E00AE00E94600946C28A2D82
:1429B000843609F04CC04030450769F04130E0E05E07C1F0F8
:1429C4004230E0E05E0719F14330E0E05E0771F131C283E00E
:1429D800888321E002E00E94600983E0888322E002E00E94FE
:1429EC00D00942E050E022C288E0888321E007E00E94600962
:142A000088E0888322E007E00E94D00943E050E013C283E060
:142A1400888322E002E00E94600983E0888323E002E00E94BF
:142A2800D00944E050E004C288E0888322E007E00E94600940
:142A3C0087E0888323E006E00E94D00945E050E0F5C18A2DEE
:142A5000853709F061C04230E0E05E0791F04330E0E05E07EC
:142A6400E9F04430E0E05E0741F14530E0E05E0799F1463020
:142A7800E0E05E0709F43DC0DBC183E0888322E002E00E949B
:142A8C00600983E0888321E002E00E94D00944275527CCC18D
:142AA00088E0888322E007E00E94600988E0888321E007E060
:142AB4000E94D00941E050E0BDC185E0888323E002E00E94CD
:142AC800600983E0888322E002E00E94D00942E050E0AEC103
:142ADC0087E0888323E006E00E94600988E0888322E007E024
:142AF0000E94D00943E050E09FC18BE0888323E00AE00E949F
:142B0400600988E0888322E007E00E94D00943E050E090C1D9
:142B18008A2D8C3609F04DC04130E0E05E0769F04330E0E008
:142B2C005E07C1F04530E0E05E0719F14630E0E05E0771F1DE
:142B40007BC188E0888321E007E00E94600983E0888321E070
:142B540002E00E94D009442755276CC188E0888322E007E0A0
:142B68000E94600983E0888322E002E00E94D00942E050E02F
:142B7C005DC187E0888323E006E00E94600983E0888323E050
:142B900002E00E94D00944E050E04EC18BE0888323E00AE00E
:142BA4000E94600987E0888323E006E00E94D00945E050E0E7
:142BB8003FC18A2D823709F04CC04030450769F04230E0E04D
:142BCC005E07C1F04430E0E05E0719F14530E0E05E0771F140
:142BE0002BC183E0888321E002E00E94600988E0888321E025
:142BF40007E00E94D00941E050E01CC183E0888322E002E0EB
:142C08000E94600988E0888322E007E00E94D00943E050E083
:142C1C000DC183E0888323E002E00E94600987E0888323E003
:142C300006E00E94D00945E050E0FEC087E0888323E006E0C1
:142C44000E9460098BE0888323E00AE00E94D00946E050E03D
:142C5800EFC08A2D833709F053C085E090E09093CC0A80935B
:142C6C00CB0A40304507C9F04130E0E05E07E1F04230E0E071
:142C80005E07F9F04330E0E05E0711F14430E0E05E0729F1A5
:142C94004530E0E05E0741F14630E0E05E0759F1CAC083E08E
:142CA800888321E002E00E946009C3C088E0888321E007E041
:142CBC000E946009BCC083E0888322E002E00E946009B5C0AB
:142CD00088E0888322E007E00E946009AEC083E0888323E0AA
:142CE40002E00E946009A7C087E0888323E006E00E94600922
:142CF800A0C08BE0888323E00AE00E94600999C08A2D84372F
:142D0C0009F094C040304507F1F04130E0E05E0791F142303F
:142D2000E0E05E0709F443C04330E0E05E0709F455C044305C
:142D3400E0E05E0709F466C04530E0E05E0709F464C0463012
:142D4800E0E05E0709F462C073C083E0888321E002E00E940D
:142D5C00600981E090E09093C00A8093BF0A22243324309201
:142D7000C20A2092C10A83E09093CC0A8093CB0A5CC088E03E
:142D8400888321E007E00E94600981E090E09093C00A80936C
:142D9800BF0A9093C20A8093C10A83E09093CC0A8093CB0A4D
:142DAC0046C083E0888322E002E00E94600981E090E09093BC
:142DC000C00A8093BF0A82E09093C20A8093C10A83E09093A4
:142DD400CC0A8093CB0A2FC088E0888322E007E00E946009D7
:142DE80081E090E09093C00A8093BF0A83E09093C20A8093D8
:142DFC00C10A9093CC0A8093CB0A19C00E94C93715C00E9425
:142E1000153812C08BE0888323E00AE00E94600981E090E050
:142E24009093C00A8093BF0A85E09093CC0A8093CB0A01C0CA
:142E380076CC22960C94A43C0E94603C2297442755272227E5
:142E4C00332701E010E00E940B1378012227332702E010E099
:142E60000E940B1368012227332703E010E00E940B135801A6
:142E74002227332704E010E00E940B13B801EE2071F4FF20C8
:142E880061F4CC2051F4DD2041F4AA2031F4BB2021F400306F
:142E9C00010709F403C181E69AE099838883222702E00E9484
:142EB000AB078CE59AE09983888322E002E00E94AB0787E5A6
:142EC4009AE09983888322E008E00E94AB0722273327002751
:142ED80011270E940B135801B5010130E0E01E0749F4442721
:142EEC00552784E0888322E003E00E94D00908C041E050E06E
:142F00008AE0888322E009E00E94D00900270E94650BC9C020
:142F140080912F03909130038130E0E09E0791F58AE0888301
:142F280022E009E00E94600984E0888322E003E00E94600940
:142F3C004030450781F40E9462088BE49AE09983888322E032
:142F500005E00E94AB070E942E3408EC10E00E945B0581E0E9
:142F640090E09093CC0A8093CB0A90932E0380932D0380E20F
:142F78009093300380932F0300270E94650BA2C00E9448061F
:142F8C00A02E6A2D77276C36E0E07E0779F06C36E0E07E07F7
:142FA0000CF481C06237E0E07E0741F16437E0E07E0709F4EF
:142FB40044C077C0222423BE80E2888322270AE00E948507D9
:142FC80080E2888322270BE00E9485074130E0E05E0709F097
:142FDC0064C08AE0888322E009E00E94600984E0888322E0E1
:142FF00003E00E94D0094427552755C0222423BE80E28883DF
:1430040022270AE00E94850780E2888322270BE00E94850788
:143018004030450709F043C084E0888322E003E00E9460098D
:14302C008AE0888322E009E00E94D00941E050E034C022242A
:1430400023BE8AE0888322E009E00E94600984E0888322E0BF
:1430540003E00E9460094030450781F40E9462088BE49AE054
:143068009983888322E005E00E94AB070E942E3408EC10E00A
:14307C000E945B0581E090E09093CC0A8093CB0A90932E0338
:1430900080932D0380E29093300380932F0300270E94650BB3
:1430A40013C036CF81E090E09093CC0A8093CB0A90932E033A
:1430B80080932D0380E29093300380932F0300270E94650B8B
:1430CC0022960C94553C0E94753C22974427552789E49AE02D
:1430E00099838883222700270E94AB072091C10A3091C20AE8
:1430F4002F5F3F4F206300270E9453072AE300270E945307D6
:1431080083E49AE09983888321E001E00E94AB078DE39AE08B
:14311C009983888321E007E00E94AB0787E39AE09983888331
:1431300022E001E00E94AB0782E39AE09983888323E0002724
:143144000E94AB078DE29AE09983888323E003E00E94AB07D9
:143158008CE79AE09983888323E007E00E94AB0788E29AE02D
:14316C009983888323E00AE00E94AB0782E0888323E001E096
:143180000E94D00992C3222702E00E946707002711276ADA8D
:143194002091C10A3091C20A04E411E00E94393C85E393E053
:1431A800F801E80FF91F808191818230E0E09E0709F468C0BC
:1431BC0021E004E00E9467072091C10A3091C20A04E411E028
:1431D0000E94393C89E594E0F801E80FF91F00811181228134
:1431E40033810E94863D24E630E00E94EF3B9801206301E0DB
:1431F8000E9453072091C10A3091C20A04E411E00E94393CCE
:14320C0089E594E0F801E80FF91F00811181228133810E94B8
:14322000863D2AE030E00E94EF3B2AE030E00E94EB3B980176
:14323400206301E00E9453072091C10A3091C20A04E411E044
:143248000E94393C89E594E0F801E80FF91F008111812281BB
:14325C0033810E94863D2AE030E00E94EB3B9801206301E066
:143270000E94530720E201E00E94530721EA01E00E94530787
:1432840026EE01E00E94530722E004E00E9467072091C10AD3
:143298003091C20A04E411E00E94393C85E393E0F801E80FDA
:1432AC00F91F6081718160306707F1F06130E0E07E0799F1E4
:1432C0006230E0E07E0709F473C16330E0E07E0709F487C1D5
:1432D4006430E0E07E0709F493C16530E0E07E0709F4A7C17D
:1432E8006630E0E07E0709F4BBC1D2C181E29AE099838883E7
:1432FC0021E009E00E94AB0780E19AE09983888322E004E098
:143310000E94AB0786E89AE09983888322E004E00E94AB070C
:14332400B9C18FE09AE09983888321E009E00E94AB0721EAC2
:1433380001E00E94530726EE01E00E9453072091C10A309176
:14334C00C20A04E411E00E94393C8FE394E0F801E80FF91FC3
:143360006081718182E190E08617970708F52AE030E08B01D5
:1433740001501040169507950F5F1F4F0E940B3C980120637C
:1433880002E00E9453072AE030E08B010150104016950795C5
:14339C000F5F1F4F0E94093C9801206302E00E9453070FC091
:1433B0009B0121503040369527952F5F3F4F206302E00E94E2
:1433C400530720E202E00E9453072AE302E00E94530720E2CE
:1433D80002E00E94530760FF15C02AE03AE002E00E94F5072B
:1433EC002091C10A3091C20A04E411E00E94393C8BE494E0F1
:14340000F801E80FF91F6081718119C025E03AE002E00E9461
:14341400F5072091C10A3091C20A04E411E00E94393C85E545
:1434280094E0F801E80FF91F00811181228133810E94863D45
:14343C00B80124E630E08B010E940B3CC8018063888321E07C
:1434500009E00E9485072AE030E08B010E940B3C2AE030E0A8
:143464000E94093C9801206301E00E9453072AE030E08B01CE
:143478000E94093C9801206301E00E94530720E201E00E94DB
:14348C00530721EA01E00E94530726EE01E00E94530722E0F7
:1434A00008E00E9467072091C10A3091C20A04E411E00E949C
:1434B400393C83E494E0F801E80FF91F6081718120E13EE0BA
:1434C8008B010E940B3CB8012AE030E00E940B3C98012063A3
:1434DC0002E00E9453072AE030E08B010E94093C9801206355
:1434F00002E00E9453072AE302E00E9453072091C10A3091C2
:14350400C20A04E411E00E94393C83E494E0F801E80FF91F14
:14351800608171812CE330E08B010E940B3C2CE330E00E9477
:14352C00093CB8012AE030E00E940B3C9801206302E00E94EA
:1435400053072AE030E08B010E94093C9801206302E00E94F0
:1435540053072AE302E00E9453072091C10A3091C20A04E42D
:1435680011E00E94393C83E494E0F801E80FF91F6081718191
:14357C002CE330E08B010E94093CB8012AE030E00E940B3CED
:143590009801206302E00E9453072AE030E08B010E94093CA0
:1435A4009801206302E00E94530774C081E29AE099838883E1
:1435B80021E009E00E94AB0780E19AE09983888322E004E0D9
:1435CC000E94AB0781E89AE09983888322E004E00E94AB0753
:1435E0005BC080E19AE09983888322E004E00E94AB078CE70D
:1435F4009AE09983888322E004E00E94AB074AC081E29AE001
:143608009983888321E009E00E94AB0780E19AE09983888347
:14361C0022E004E00E94AB0787E79AE09983888322E004E06B
:143630000E94AB0731C081E29AE09983888321E009E00E94B1
:14364400AB0780E19AE09983888322E004E00E94AB0782E71B
:143658009AE09983888322E004E00E94AB0718C081E29AE0CE
:14366C009983888321E009E00E94AB0780E19AE099838883E3
:1436800022E004E00E94AB078CE79AE09983888322E004E002
:143694000E94AB070E944806602F0536F9F482E0888323E0B7
:1436A80001E00E94600985E0888323E004E00E94600989E057
:1436BC00888323E008E00E9460098CE0888323E00BE00E94F2
:1436D000600981E090E09093CC0A8093CB0AE6C06C36D1F5BD
:1436E4004130E0E05E0749F04230E0E05E07A1F04330E0E0A8
:1436F8005E07F9F0D6C085E0888323E004E00E94600982E016
:14370C00888323E001E00E94D00944275527C7C089E088835D
:1437200023E008E00E94600985E0888323E004E00E94D009CD
:1437340041E050E0B8C08CE0888323E00BE00E94600989E0DF
:14374800888323E008E00E94D00942E050E0A9C06237C9F5EA
:14375C004030450749F04130E0E05E07A1F04230E0E05E07A6
:14377000F9F09BC085E0888323E004E00E94D00982E08883C2
:1437840023E001E00E94600941E050E08CC089E0888323E02E
:1437980008E00E94D00985E0888323E004E00E94600942E036
:1437AC0050E07DC08CE0888323E00BE00E94D00989E0888348
:1437C00023E008E00E94600943E050E06EC0643709F04AC0E0
:1437D4004030450769F04130E0E05E07B1F04230E0E05E07FE
:1437E800C9F04330E0E05E0721F15BC082E0888323E001E0FE
:1437FC000E94600984E090E09093CC0A8093CB0A4FC0009159
:14381000C10A1091C20A0E94463847C080E19AE09983888343
:1438240022E004E00E94AB070091C10A1091C20A0E94A8380B
:1438380038C08CE0888323E00BE00E94600981E090E0909320
:14384C00C60A8093C50A83E09093C00A8093BF0A87E0909300
:14386000CC0A8093CB0A22C06337F9F482E0888323E001E0DC
:143874000E94600985E0888323E004E00E94600989E088835F
:1438880023E008E00E9460098CE0888323E00BE00E946009C6
:14389C0084E090E09093CC0A8093CB0A01C06DCC22960C9411
:1438B0007A3C0E94DF3B0E94603C5901229782EA90E06C01F8
:1438C40084EC7C0166277727442755278C859D858330E0E04B
:1438D8009E0730F5C88221E002E00E94850797012F5F3F4F03
:1438EC0001E00E945307C88222E002E00E94850797012E5F6A
:143900003F4F02E00E945307C88223E002E00E948507970152
:143914002D5F3F4F03E00E945307002411241D860C868FC0C9
:143928008C859D858330E0E09E0750F18630E0E09E0730F5BF
:14393C00C88221E002E00E94850797012C5F3F4F01E00E94E8
:143950005307C88222E002E00E94850797012B5F3F4F02E01B
:143964000E945307C88223E002E00E94850797012A5F3F4F47
:1439780003E00E94530781E090E09D878C875FC08C859D8502
:14398C008630E0E09E0750F18930E0E09E0730F5C88221E03D
:1439A00002E00E9485079701295F3F4F01E00E945307C8822E
:1439B40022E002E00E9485079701285F3F4F02E00E94530762
:1439C800C88223E002E00E9485079701275F3F4F03E00E945D
:1439DC00530782E090E09D878C872FC08C859D858930E0E0D9
:1439F0009E0748F18C30E0E09E0728F5C88221E002E00E94D8
:143A040085079701265F3F4F01E00E945307C88222E002E06C
:143A18000E9485079701255F3F4F02E00E945307C88223E097
:143A2C0002E00E9485079701245F3F4F03E00E94530783E08B
:143A400090E09D878C8701E210E02C853D850E94393CA801C5
:143A540061E070E0C5C06130E0E07E0771F4FA01EE0FFF1FF7
:143A6800EA0DFB1D8081918180638883262F03E00E948507D4
:143A7C0010C0CA010196AC01FC01EE0FFF1FEA0DFB1D80812F
:143A9000918180638883262F03E00E948507CA010196AC01AD
:143AA400FC01EE0FFF1FEA0DFB1D208131812063062F0E943A
:143AB800530722E03AE0062F0E94F507CA010196AC01FC01A5
:143ACC00EE0FFF1FEA0DFB1D208131812063062F0E945307B5
:143AE000CA010196AC01FC01EE0FFF1FEA0DFB1D2081318149
:143AF4002063062F0E945307CA010196AC01FC01EE0FFF1FE3
:143B0800EA0DFB1D8081918180638883262F07E00E9485072F
:143B1C00CA010196AC01FC01EE0FFF1FEA0DFB1D208131810C
:143B30002063062F0E94530722E03AE0062F0E94F507CA0113
:143B44000196AC01FC01EE0FFF1FEA0DFB1D2081318120632C
:143B5800062F0E945307CA010196AC01FC01EE0FFF1FEA0D0A
:143B6C00FB1D208131812063062F0E94530780E09AE0998330
:143B80008883262F0AE00E94AB07CA010196AC01FC01EE0F8A
:143B9400FF1FEA0DFB1D208131812063062F0E945307CA011E
:143BA8000196AC01FC01EE0FFF1FEA0DFB1D208131812063C8
:143BBC00062F0E945307CA0101966C01AC01FC01EE0FFF1F30
:143BD000EA0DFB1D208131812063062F0E9453076F5F7F4F2F
:143BE40083E090E08617970708F035CF22960E94553C24961E
:143BF80008950E94DF3B0E94603CCE84DF842BE030E00A85C3
:143C0C001B850E940B3C58012BE030E00A851B850E94093C91
:143C2000B80123E030E085010E94093C78010030010751F065
:143C3400C7010130E0E01E0741F00230E0E01E0739F008C065
:143C480041E050E005C042E050E002C043E050E02BE030E0D0
:143C5C000C851D850E940B3C23E030E00E940B3C7801003093
:143C7000010771F0C7010130E0E01E07A1F00230E0E01E0751
:143C840001F10330E0E01E0769F135C080E290E00A841B84D4
:143C98008015910570F59601850107DE2AC081E490E00A8439
:143CAC001B848015910528F0C0018132E0E09E07F0F49601CE
:143CC0008501F7DD1AC08A859B858234E0E09E0738F082E6E2
:143CD40090E00A841B848015910568F496018501E6DD09C00F
:143CE8008A859B858336E0E09E0718F496018501DCDD413028
:143CFC00E0E05E0749F403E010E00E941C0904E010E00E9442
:143D10001C0910C04230E0E05E0721F04330E0E05E0741F435
:143D2400002711270E941C0907E010E00E941C0960306707C9
:143D380029F4242F03E00E94670731C06230E0E07E0729F42F
:143D4C00242F05E00E94670728C06430E0E07E0729F4242FEA
:143D600007E00E9467071FC06630E0E07E0729F4242F09E045
:143D74000E94670716C06830E0E07E0751F4242F0AE00E9454
:143D8800670720E03AE0042F0E94F50708C06930E0E07E0728
:143D9C0021F4242F0BE00E9467070E94553C249608950E9484
:143DB0009B3CEF97EF97EF97EF972C9744275527662777273B
:143DC40089E498E0FE01329606E011E0FA93EA939A938A9314
:143DD8000E94BC3C89E49AE099838883222700270E94AB076B
:143DEC002091C10A3091C20A2F5F3F4F206300270E945307F8
:143E00002AE300270E9453078AE09AE099838883222704E046
:143E14000E94AB0785E09AE099838883222707E00E94AB07BC
:143E28008BEF99E09983888322270AE00E94AB0786EF99E0F7
:143E3C009983888321E000270E94AB0787E59AE099838883C2
:143E500022E000270E94AB0788E29AE09983888323E00027AC
:143E64000E94AB07AA24BB2420C01501220C331C2101209103
:143E7800C10A3091C20A04E411E00E94393C87E393E01801F8
:143E8C00280E391EF201E20DF31D20803180CE010296F201F8
:143EA000E80FF91F31822082C50101965C01C5018438E0E0AE
:143EB4009E07D8F29E012E5F3F4F00271127F7DC44275527B8
:143EC80021E003E00E94670703E010E00E941C092BC20E94C9
:143EDC004806A02E053609F582E0888321E001E00E94600923
:143EF00082E0888322E001E00E94600982E0888323E001E012
:143F04000E946009002711270E941C0904E010E00E941C09DD
:143F180083E090E09093CC0A8093CB0A06C28A2D853709F0AD
:143F2C0046C04538E0E05E0779F482E0888321E001E00E947B
:143F4000D00982E0888322E001E00E94600944E850E0EEC12E
:143F54004638E0E05E0779F482E0888322E001E00E94D0097E
:143F680082E0888323E001E00E94600945E850E0DBC18AE086
:143F7C0090E08417950708F0D5C183E88417950708F4D0C1CD
:143F9000BA012BE030E08A010E940B3C9801215030400BE06E
:143FA40010E00E94393CA801CE010296998388839B0121DE30
:143FB800BBC18A2D843609F040C04438E0E05E0779F482E09F
:143FCC00888321E001E00E94600982E0888322E001E00E94F7
:143FE000D00945E850E0A4C14538E0E05E0779F482E08883B6
:143FF40022E001E00E94600982E0888323E001E00E94D009FF
:1440080046E850E091C14937E0E05E0708F08CC1BA012BE044
:14401C0030E08A010E940B3C98012F5F3F4F0BE010E00E94DA
:14403000393CA801CE010296998388839B01DDDD77C18A2D8B
:144044008C3609F049C0BA012BE030E08A010E94093C00302C
:14405800010789F482E0888321E001E00E94D00900271127A6
:14406C000E941C0904E010E00E941C0944E850E059C12BE05D
:1440800030E08A010E94093C6801C6010230E0E01E0761F012
:144094000430E0E01E0741F00630E0E01E0721F00830E0E0AA
:1440A8001E0751F442505040CE010296998388839B018A01C3
:1440BC009EDD38C14030450709F434C141505040CE01029646
:1440D000998388839B018A0190DD2AC18A2D823741F583E825
:1440E40090E084179507A0F482E0888321E001E00E94600933
:1440F80082E0888322E001E00E94600982E0888323E001E008
:14410C000E946009AB0107C04338E0E05E0718F4BA014F5F0C
:144120005F4FCE010296998388839B018A0165DDFFC08A2D70
:14413400843709F098C04438E0E05E0709F03EC082E0888366
:1441480021E001E00E94600982E0888322E001E00E9460091B
:14415C0082E0888323E001E00E946009002711270E941C09CD
:1441700004E010E00E941C090E9462088AEE99E0998388837C
:1441840022E005E00E94AB0781E090E09093C40A8093C30A4A
:1441980084E09093C00A8093BF0A86E09093CC0A8093CB0A9F
:1441AC009E012E5F3F4F0091C10A1091C20A0E946635B9C0C6
:1441C0004538E0E05E0709F582E0888321E001E00E946009F1
:1441D40082E0888322E001E00E94600982E0888323E001E02B
:1441E8000E946009002711270E941C0904E010E00E941C09F7
:1441FC0083E090E09093CC0A8093CB0A94C04638E0E05E0704
:1442100009F08EC082E0888321E001E00E94600982E088838C
:1442240022E001E00E94600982E0888323E001E00E9460093C
:14423800002711270E941C0904E010E00E941C0981E090E0E0
:14424C009093C60A8093C50A84E09093C00A8093BF0A87E0F5
:144260009093CC0A8093CB0A64C08A2D803399F0813389F025
:14427400823379F0833369F0843359F0853349F0863339F036
:14428800873329F0883319F0893309F04DC04438E0E05E0728
:14429C0008F048C02BE030E08A010E940B3C23E030E00E94CA
:1442B000093C0030010731F42A2D206301E00E94530705C0DC
:1442C4002A2D206302E00E945307CE010296FA01EE0FFF1FB1
:1442D800E80FF91F8A2D9927C09791838083BA016338E0E0C8
:1442EC007E0750F44F5F5F4FCE010296998388839B018A01E4
:144300007CDC16C04338E0E05E0791F482E0888321E001E007
:144314000E94D009002711270E941C0904E010E00E941C0959
:1443280044E850E063E670E0D4CDEF96EF96EF96EF962C9615
:14433C000C94A43C0E947F3C2297442755278DED99E09983E1
:144350008883222704E00E94AB0784ED99E09983888321E0BB
:1443640004E00E94AB078BEC99E09983888322E004E00E946E
:14437800AB0722273327002711270E940B13B80100300107CC
:14438C0059F481EA8883222703E00E94850721EC00270E942A
:1443A00053070AC081EA8883222703E00E9485072CEC0027D6
:1443B4000E945307442755278AE08883222705E00E94D009F4
:1443C800DCC00E944806A02E053739F54130E0E05E0729F06E
:1443DC004230E0E05E0781F0CEC088E0888321E005E00E943C
:1443F00060098AE08883222705E00E94D00944275527BFC0CC
:1444040088E0888322E005E00E94600988E0888321E005E0E6
:144418000E94D00941E050E0B0C08A2D843631F54030450701
:14442C0029F04130E0E05E0781F0A5C08AE08883222705E054
:144440000E94600988E0888321E005E00E94D00941E050E038
:1444540096C088E0888321E005E00E94600988E0888322E025
:1444680005E00E94D00942E050E087C08A2D853639F5403037
:14447C00450749F04130E0E05E0761F04230E0E05E0779F0C0
:1444900014C08AE08883222705E00E9460090DC088E0888356
:1444A40021E005E00E94600906C088E0888322E005E00E9451
:1444B800600981E090E09093CC0A8093CB0A5EC08A2D843745
:1444CC0009F059C04030450749F04130E0E05E0771F142306B
:1444E000E0E05E07B1F14DC06030670719F461E070E002C096
:1444F400662777277983688322273327002711270E94F412F8
:144508006030670759F481EA8883222703E00E94850721EC77
:14451C0000270E9453072FC081EA8883222703E00E948507A9
:144530002CEC00270E94530724C088E090E09093CC0A809374
:14454400CB0A888321E005E00E94600919C085E090E09093C1
:14455800C00A8093BF0A87E09093CC0A8093CB0A22243324C4
:14456C003092C60A2092C50A88E0888322E005E00E946009C3
:1445800001C023CF22960C94863C22972090C30A3090C40A96
:14459400222059F4332049F48CEB99E09983888321E004E0F8
:1445A8000E94AB0721C08091C30A9091C40A8130E0E09E07E7
:1445BC0049F48DEA99E09983888321E004E00E94AB0710C08E
:1445D0008091C30A9091C40A8230E0E09E0741F48EE999E0CE
:1445E4009983888321E004E00E94AB0704E610E00E945B0587
:1445F8002090BF0A3090C00A3092CC0A2092CB0A2296089538
:14460C000E947F3C229741E050E085E999E0998388832227DC
:1446200002E00E94AB0780E999E09983888322E002E00E94C1
:14463400AB0787E59AE09983888322E008E00E94AB078AE00B
:14464800888322E009E00E94D00978C00E944806A02E6A2D60
:14465C0077276C36E0E07E07A1F08CE690E08617970734F0F3
:144670006536E0E07E0709F450C064C06237E0E07E07C9F08E
:144684006437E0E07E0741F15BC04130E0E05E0709F056C050
:144698008AE0888322E009E00E94600984E0888322E003E04F
:1446AC000E94D0094427552747C04030450709F043C084E075
:1446C000888322E003E00E9460098AE0888322E009E00E94E9
:1446D400D00941E050E034C04030450769F484E0888322E02A
:1446E80003E00E94600989E090E09093CC0A8093CB0A25C031
:1446FC008AE0888322E009E00E9460092090BF0A3090C00A3C
:144710003092CC0A2092CB0A16C084E0888322E003E00E94AA
:1447240060098AE0888322E009E00E9460092090BF0A309074
:14473800C00A3092CC0A2092CB0A01C087CF22960C94863C53
:14474C000E947F3CEF972397442755278FE499E0FE01B6969E
:144760000CE110E0FA93EA939A938A930E94BC3C06E00E94F2
:14477400103BB80182E090E099878887222433243B862A861E
:144788001B01369427943694279436942794369427943D862A
:14479C002C86CB018F7090709F878E8705E00E94103BB801C6
:1447B000CB019695879596958795969587959695879581701C
:1447C4009070998B888BCB018F7090709B8B8A8B04E00E941E
:1447D800103B5801B501CB01969587959695879596958795D2
:1447EC0096958795837090709D8B8C8BCB018F7090709F8B4B
:144800008E8B02E00E94103B5801B501CB019695879596956F
:144814008795969587959695879583709070998F888FCB01E8
:144828008F7090709B8F8A8F01E00E94103B5801B501CB0191
:14483C00969587959695879596958795969587958770907055
:144850009D8F8C8FCB018F7090709F8F8E8F00270E94103BE3
:144864005801B501CB01969587959695879596958795969565
:1448780087958770907099A388A3CB018F7090709BA38AA37C
:14488C00222701E00E9467076627772720C0CE010896FB016A
:1448A000EE0FFF1FE80FF91F20813181206300270E945307E1
:1448B40020E200270E9453076330E0E07E0721F06530E0E08D
:1448C8007E0729F42DE839E000270E94F5076F5F7F4F683013
:1448DC00E0E07E07E0F221E002E00E94670768E070E020C046
:1448F000CE010896FB01EE0FFF1FE80FF91F2081318120634B
:1449040001E00E94530720E200270E9453076930E0E07E07BF
:1449180021F06B30E0E07E0729F422E03AE000270E94F5079C
:14492C006F5F7F4F6E30E0E07E07E0F286EF99E09983888311
:1449400022E003E00E94AB0787E59AE09983888322E008E033
:144954000E94AB0744275527222701E00E94670703E010E007
:144968000E941C0984C203E010E00E9421130E944806A02EC7
:14497C006A2D053771F58DE090E084179507B8F485E08883BE
:1449900022E004E00E9460098AE0888322E009E00E946009B7
:1449A40021E002E00E94670703E010E00E941C0948E050E01A
:1449B8005EC287E090E08417950708F058C24E30E0E05E0708
:1449CC0008F053C2222701E00E946707442755274CC2643601
:1449E00019F587E090E08417950788F44E30E0E05E0768F42C
:1449F400002711270E941C0985E0888322E004E00E94D009B8
:144A08004EE050E034C287E090E08417950708F42EC221E04B
:144A1C0002E00E94670748E050E027C26C3609F043C088E04D
:144A300090E08417950790F04030450779F0415050402227BC
:144A4400CE018696FA01EE0FFF1FE80FF91F008111810E9499
:144A580067070DC288E090E08417950798F44E30E0E05E07CF
:144A6C0078F44150504021E0CE018696FA01EE0FFF1FE80FB0
:144A8000F91F008111810E946707F5C14F30E0E05E0709F094
:144A9400F0C18AE0888322E009E00E94600985E0888322E080
:144AA80004E00E94D0094EE050E0E1C1623709F03AC0473098
:144ABC00E0E05E0778F44F5F5F4F2227CE018696FA01EE0FCD
:144AD000FF1FE80FF91F008111810E946707CBC14D30E0E0B9
:144AE4005E0778F44F5F5F4F21E0CE018696FA01EE0FFF1F8F
:144AF800E80FF91F008111810E946707B8C14E30E0E05E075C
:144B0C0009F0B3C185E0888322E004E00E9460098AE0888352
:144B200022E009E00E94D0094FE050E0A4C16536B9F40027E8
:144B340011270E941C0985E0888322E004E00E9460098AE0A3
:144B4800888322E009E00E94600981E090E09093CC0A80937B
:144B5C00CB0A8CC1643709F085C04E30E0E05E0709F064C08A
:144B700028A139A100E110E00E94393C18014AA05BA0240C78
:144B8400351C3F822E822C8D3D8D00E110E00E94393C1801D7
:144B98004E8C5F8C240C351C3D822C82288D398D00E110E00A
:144BAC000E94393C18014A8C5B8C240C351C3B822A822C8969
:144BC0003D8900E110E00E94393C18014E885F88240C351CDC
:144BD400398228822889398900E110E00E94393C98012A88C2
:144BE8003B88220D331D2C843D8400E110E02F933F9391010F
:144BFC000E94393C18013F912F914E845F84240C351C81012D
:144C10000E94243B222433243092C40A2092C30A88E090E00B
:144C24009093C00A8093BF0A86E09093CC0A8093CB0A20C18B
:144C38004F30E0E05E0709F01AC1002711270E941C0985E065
:144C4C00888322E004E00E9460098AE0888322E009E00E9456
:144C6000600981E090E09093CC0A8093CB0A04C1603399F044
:144C7400613389F0623379F0633369F0643359F0653349F081
:144C8800663339F0673329F0683319F0693309F0EEC04E303E
:144C9C00E0E05E0708F0E9C0262F206300270E94530720E241
:144CB00000270E94530777276033E0E07E0709F42EC06133D8
:144CC400E0E07E0709F435C06233E0E07E0709F43CC063333C
:144CD800E0E07E0709F443C06433E0E07E0709F44AC0653308
:144CEC00E0E07E0709F451C06633E0E07E0709F458C06733D4
:144D0000E0E07E0709F45FC06833E0E07E0709F466C069339F
:144D1400E0E07E0709F46DC077C0CE010896FA01EE0FFF1F62
:144D2800E80FF91F22243324318220826BC0CE010896FA01E3
:144D3C00EE0FFF1FE80FF91F81E090E0918380835FC0CE0163
:144D50000896FA01EE0FFF1FE80FF91F82E090E091838083A3
:144D640053C0CE010896FA01EE0FFF1FE80FF91F83E090E0C3
:144D78009183808347C0CE010896FA01EE0FFF1FE80FF91F77
:144D8C0084E090E0918380833BC0CE010896FA01EE0FFF1FAA
:144DA000E80FF91F85E090E0918380832FC0CE010896FA01AD
:144DB400EE0FFF1FE80FF91F86E090E09183808323C0CE0122
:144DC8000896FA01EE0FFF1FE80FF91F87E090E09183808326
:144DDC0017C0CE010896FA01EE0FFF1FE80FF91F88E090E082
:144DF000918380830BC0CE010896FA01EE0FFF1FE80FF91F3B
:144E040089E090E0918380834330E0E05E0721F04530E0E0CC
:144E18005E0731F42DE839E000270E94F5070DC04930E0E003
:144E2C005E0721F04B30E0E05E0729F422E03AE000270E945A
:144E4000F5074F5F5F4F4830E0E05E0731F421E00EA91FA9C4
:144E54000E9467070EC04E30E0E05E0751F4002711270E9483
:144E68001C0985E0888322E004E00E94D0097BCDEF962396BA
:144E7C000C94863C22972090C50A3090C60A222081F43320EE
:144E900071F48CE799E09983888321E004E00E94AB0781B527
:144EA400886181BD8EE081BDFFCF8091C50A9091C60A8130D7
:144EB800E0E09E0771F48BE699E09983888321E004E00E9484
:144ECC00AB070091C10A1091C20A0E948A3602E310E00E947E
:144EE0005B052090BF0A3090C00A3092CC0A2092CB0A229684
:144EF40008950E9462088091CB0A9091CC0A8130E0E09E070E
:144F080019F40E943D1352C08091CB0A9091CC0A8230E0E035
:144F1C009E0719F40E94201747C08091CB0A9091CC0A83305F
:144F3000E0E09E0719F40E9469183CC08091CB0A9091CC0AFF
:144F44008430E0E09E0719F40E94D71E31C08091CB0A9091A4
:144F5800CC0A8530E0E09E0711F4EED927C08091CB0A90919B
:144F6C00CC0A8630E0E09E0711F409DB1DC08091CB0A909173
:144F8000CC0A8730E0E09E0711F440DB13C08091CB0A909131
:144F9400CC0A8830E0E09E0711F4D6DB09C08091CB0A909190
:144FA800CC0A8930E0E09E0709F466DF08950A921A922A921E
:144FBC003A924A925A926A927A928A929A920A931A932A93F6
:144FD0003A938A939A93AA93BA93EA93FA930FB60A920E941F
:144FE4006B3C22974427552789B78B7F89BF87B78F7B87BF52
:144FF8008091D40A9091D50A01969093D50A8093D40A88E5BF
:14500C0092E02090D40A3090D50A8215930508F027C322249A
:1450200033243092D50A2092D40A2090350330903603398258
:14503400288225E830E001E010E00E94F41220903503309080
:145048003603C1018130E0E09E0729F08330E0E09E0709F019
:14505C00AFC020903F04309040043982288226E830E001E076
:1450700010E00E94F4122090410430904204232C3324398238
:14508400288227E830E001E010E00E94F4128091410490915F
:14509800420490709983888328E830E001E010E00E94F412FE
:1450AC002090430430904404232C33243982288229E830E0C5
:1450C00001E010E00E94F41280914304909144049070998386
:1450D40088832AE830E001E010E00E94F41220904504309069
:1450E8004604232C3324398228822BE830E001E010E00E94C9
:1450FC00F41280914504909146049070998388832CE830E08A
:1451100001E010E00E94F4122090490430904A0439822882A2
:145124002DE830E001E010E00E94F41220904B0430904C04CA
:14513800232C3324398228822EE830E001E010E00E94F412B9
:14514C0080914B0490914C049070998388832FE830E001E04F
:1451600010E00E94F4122091570430915804009155041091EF
:1451740056040E94863D1801232C332427FC3094398228825D
:1451880020E930E001E010E00E94F412209157043091580458
:14519C0000915504109156040E94863DC801907099838883C5
:1451B00021E930E001E010E00E94F4122090790430907A04ED
:1451C4003982288225E830E002E010E00E94F412809179044D
:1451D80090917A048130E0E09E0729F08330E0E09E0709F0E4
:1451EC00AFC020908305309084053982288226E830E002E05A
:1452000010E00E94F4122090850530908605232C332439821C
:14521400288227E830E002E010E00E94F41280918505909187
:14522800860590709983888328E830E002E010E00E94F41226
:14523C002090870530908805232C33243982288229E830E0A9
:1452500002E010E00E94F41280918705909188059070998369
:1452640088832AE830E002E010E00E94F41220908905309091
:145278008A05232C3324398228822BE830E002E010E00E94F1
:14528C00F4128091890590918A059070998388832CE830E06E
:1452A00002E010E00E94F41220908D0530908E053982288286
:1452B4002DE830E002E010E00E94F41220908F0530909005AE
:1452C800232C3324398228822EE830E002E010E00E94F41227
:1452DC0080918F05909190059070998388832FE830E002E033
:1452F00010E00E94F41220919B0530919C050091990510918F
:145304009A050E94863D1801232C332427FC30943982288286
:1453180020E930E002E010E00E94F41220919B0530919C053B
:14532C000091990510919A050E94863DC801907099838883A9
:1453400021E930E002E010E00E94F4122090BD053090BE05D0
:145354003982288225E830E003E010E00E94F4128091BD0575
:145368009091BE058130E0E09E0729F08330E0E09E0709F00D
:14537C00AFC02090C7063090C8063982288226E830E003E03D
:1453900010E00E94F4122090C9063090CA06232C3324398201
:1453A400288227E830E003E010E00E94F4128091C9069091B0
:1453B800CA0690709983888328E830E003E010E00E94F4124F
:1453CC002090CB063090CC06232C33243982288229E830E08E
:1453E00003E010E00E94F4128091CB069091CC06907099834D
:1453F40088832AE830E003E010E00E94F4122090CD063090BA
:14540800CE06232C3324398228822BE830E003E010E00E9419
:14541C00F4128091CD069091CE069070998388832CE830E052
:1454300003E010E00E94F4122090D1063090D2063982288269
:145444002DE830E003E010E00E94F4122090D3063090D40691
:14545800232C3324398228822EE830E003E010E00E94F41294
:14546C008091D3069091D4069070998388832FE830E003E016
:1454800010E00E94F4122091DF063091E0060091DD0610912E
:14549400DE060E94863D1801232C332427FC309439822882B0
:1454A80020E930E003E010E00E94F4122091DF063091E0061F
:1454BC000091DD061091DE060E94863DC8019070998388838E
:1454D00021E930E003E010E00E94F4122090010730900207B2
:1454E4003982288225E830E004E010E00E94F412809101079D
:1454F800909102078130E0E09E0729F08330E0E09E0709F036
:14550C00AFC020900B0830900C083982288226E830E004E01E
:1455200010E00E94F41220900D0830900E08232C33243982E3
:14553400288227E830E004E010E00E94F41280910D089091D7
:145548000E0890709983888328E830E004E010E00E94F41276
:14555C0020900F0830901008232C33243982288229E830E070
:1455700004E010E00E94F41280910F0890911008907099832E
:1455840088832AE830E004E010E00E94F412209011083090E1
:145598001208232C3324398228822BE830E004E010E00E9441
:1455AC00F41280911108909112089070998388832CE830E035
:1455C00004E010E00E94F4122090150830901608398228824B
:1455D4002DE830E004E010E00E94F412209017083090180873
:1455E800232C3324398228822EE830E004E010E00E94F41202
:1455FC0080911708909118089070998388832FE830E004E0F8
:1456100010E00E94F4122091230830912408009121081091CA
:1456240022080E94863D1801232C332427FC309439822882D8
:1456380020E930E004E010E00E94F412209123083091240800
:14564C0000912108109122080E94863DC80190709983888370
:1456600021E930E004E010E00E94F4128091350390913603FD
:145674008130E0E09E0709F073C140913F04509140042090F6
:14568800490430904A04222009F044C0332009F041C0809116
:14569C004304909144040196909344048093430420904104F9
:1456B000309042048215930568F0CA0101969093400480937D
:1456C4003F0481E090E090934A048093490448C140FF01C0E4
:1456D80045C18091470490914804019690934804809347048B
:1456EC0020904504309046042816390608F034C180914B04DD
:1457000090914C04019690934C0480934B0422243324309259
:1457140048042092470424C12224332430924A0420924904A7
:14572800309244042092430440FFBDC09A0121503040369567
:14573C0027950BE010E00E94393CA80187E393E0FA01329662
:14575000EE0FFF1FE80FF91F208131810AE010E00E94393CD7
:14576400980187E393E0FA013396EE0FFF1FE80FF91F20802D
:145778003180220D331D0CE310E00E94393C180187E393E001
:14578C00FA01EE0FFF1FE80FF91F208131810AE010E00E9415
:1457A000393C980187E393E0FA013196EE0FFF1FE80FF91F1E
:1457B40040805180240D351D00E11EE00E94393C2801420C60
:1457C800531C5092420440924104442049F4552039F484E078
:1457DC0090E09093360380933503BEC087E393E0FA0139967D
:1457F000EE0FFF1FE80FF91F208131810AE010E00E94393C37
:14580400180187E393E0FA013896EE0FFF1FE80FF91F208106
:14581800318104E610E00E94393C2801420C531C87E393E016
:14582C00FA013A96EE0FFF1FE80FF91F20803180420C531C65
:1458400050924C0440924B0400914104109142040E94B83DAD
:145854001801290100914B0410914C040E94B83D89E594E0B3
:145868009A938A930E946B3D810192010E94E53D0E94863D5A
:14587C001093460400934504222433243092480420924704A7
:1458900000914B0410914C040E94B83D1093560400935504B3
:1458A40030935804209357045BC09A012150304036952795A5
:1458B8000BE010E00E94393CA8014C5F5F4F87E393E0FA0110
:1458CC003296EE0FFF1FE80FF91F208131810AE010E00E9407
:1458E000393C980187E393E0FA013396EE0FFF1FE80FF91FDB
:1458F40020803180220D331D0CE310E00E94393C180187E357
:1459080093E0FA01EE0FFF1FE80FF91F208131810AE010E0C6
:14591C000E94393C980187E393E0FA013196EE0FFF1FE80F16
:14593000F91F40805180240D351D00E11EE00E94393C280118
:14594400420C531C5092420440924104442041F4552031F420
:1459580084E090E090933603809335038091790490917A0493
:14596C008130E0E09E0709F073C14091830550918405209071
:145980008D0530908E05222009F044C0332009F041C0809191
:145994008705909188050196909388058093870520908505A5
:1459A800309086058215930568F0CA010196909384058093F8
:1459BC00830581E090E090938E0580938D0548C140FF01C01A
:1459D00045C180918B0590918C05019690938C0580938B057C
:1459E4002090890530908A052816390608F034C180918F0513
:1459F8009091900501969093900580938F0522243324309290
:145A0C008C0520928B0524C12224332430928E0520928D0598
:145A2000309288052092870540FFBDC09A01215030403695E2
:145A340027950BE010E00E94393CA8018BE794E0FA0132965E
:145A4800EE0FFF1FE80FF91F208131810AE010E00E94393CDC
:145A5C0098018BE794E0FA013396EE0FFF1FE80FF91F208029
:145A70003180220D331D0CE310E00E94393C18018BE794E0FD
:145A8400FA01EE0FFF1FE80FF91F208131810AE010E00E941A
:145A9800393C98018BE794E0FA013196EE0FFF1FE80FF91F1A
:145AAC0040805180240D351D00E11EE00E94393C2801420C65
:145AC000531C5092860540928505442049F4552039F484E0F3
:145AD40090E090937A0480937904BEC08BE794E0FA013996EF
:145AE800EE0FFF1FE80FF91F208131810AE010E00E94393C3C
:145AFC0018018BE794E0FA013896EE0FFF1FE80FF91F208103
:145B1000318104E610E00E94393C2801420C531C8BE794E012
:145B2400FA013A96EE0FFF1FE80FF91F20803180420C531C6A
:145B38005092900540928F0500918505109186050E94B83D9E
:145B4C001801290100918F05109190050E94B83D8DE995E025
:145B60009A938A930E946B3D810192010E94E53D0E94863D5F
:145B740010938A05009389052224332430928C0520928B0598
:145B880000918F05109190050E94B83D10939A0500939905A4
:145B9C0030939C0520939B055BC09A01215030403695279520
:145BB0000BE010E00E94393CA8014C5F5F4F8BE794E0FA010C
:145BC4003296EE0FFF1FE80FF91F208131810AE010E00E940C
:145BD800393C98018BE794E0FA013396EE0FFF1FE80FF91FD7
:145BEC0020803180220D331D0CE310E00E94393C18018BE754
:145C000094E0FA01EE0FFF1FE80FF91F208131810AE010E0CA
:145C14000E94393C98018BE794E0FA013196EE0FFF1FE80F12
:145C2800F91F40805180240D351D00E11EE00E94393C28011D
:145C3C00420C531C5092860540928505442041F4552031F49B
:145C500084E090E090937A04809379048091BD059091BE0584
:145C64008130E0E09E0709F073C14091C7065091C8062090EC
:145C7800D1063090D206222009F044C0332009F041C080910C
:145C8C00CB069091CC0601969093CC068093CB062090C90651
:145CA0003090CA068215930568F0CA0101969093C806809373
:145CB400C70681E090E09093D2068093D10648C140FF01C050
:145CC80045C18091CF069091D00601969093D0068093CF066D
:145CDC002090CD063090CE062816390608F034C18091D30649
:145CF0009091D40601969093D4068093D306222433243092C6
:145D0400D0062092CF0624C1222433243092D2062092D10689
:145D18003092CC062092CB0640FFBDC09A012150304036955D
:145D2C0027950BE010E00E94393CA8018FEB95E0FA0132965A
:145D4000EE0FFF1FE80FF91F208131810AE010E00E94393CE1
:145D540098018FEB95E0FA013396EE0FFF1FE80FF91F208025
:145D68003180220D331D0CE310E00E94393C18018FEB95E0F9
:145D7C00FA01EE0FFF1FE80FF91F208131810AE010E00E941F
:145D9000393C98018FEB95E0FA013196EE0FFF1FE80FF91F16
:145DA40040805180240D351D00E11EE00E94393C2801420C6A
:145DB800531C5092CA064092C906442049F4552039F484E06E
:145DCC0090E09093BE058093BD05BEC08FEB95E0FA01399661
:145DE000EE0FFF1FE80FF91F208131810AE010E00E94393C41
:145DF40018018FEB95E0FA013896EE0FFF1FE80FF91F2081FF
:145E0800318104E610E00E94393C2801420C531C8FEB95E00E
:145E1C00FA013A96EE0FFF1FE80FF91F20803180420C531C6F
:145E30005092D4064092D3060091C9061091CA060E94B83D8F
:145E4400180129010091D3061091D4060E94B83D81EE96E0A6
:145E58009A938A930E946B3D810192010E94E53D0E94863D64
:145E6C001093CE060093CD06222433243092D0062092CF0689
:145E80000091D3061091D4060E94B83D1093DE060093DD0695
:145E94003093E0062093DF065BC09A0121503040369527959B
:145EA8000BE010E00E94393CA8014C5F5F4F8FEB95E0FA0108
:145EBC003296EE0FFF1FE80FF91F208131810AE010E00E9411
:145ED000393C98018FEB95E0FA013396EE0FFF1FE80FF91FD3
:145EE40020803180220D331D0CE310E00E94393C18018FEB51
:145EF80095E0FA01EE0FFF1FE80FF91F208131810AE010E0CF
:145F0C000E94393C98018FEB95E0FA013196EE0FFF1FE80F0E
:145F2000F91F40805180240D351D00E11EE00E94393C280122
:145F3400420C531C5092CA064092C906442041F4552031F416
:145F480084E090E09093BE058093BD05809101079091020773
:145F5C008130E0E09E0709F073C140910B0850910C08209065
:145F7000150830901608222009F044C0332009F041C0809185
:145F84000F089091100801969093100880930F0820900D08F8
:145F980030900E088215930568F0CA01019690930C088093EC
:145FAC000B0881E090E0909316088093150848C140FF01C083
:145FC00045C18091130890911408019690931408809313085A
:145FD40020901108309012082816390608F034C1809117087C
:145FE8009091180801969093180880931708222433243092F9
:145FFC0014082092130824C122243324309216082092150877
:146010003092100820920F0840FFBDC09A01215030403695D6
:1460240027950BE010E00E94393CA80183E097E0FA01329674
:14603800EE0FFF1FE80FF91F208131810AE010E00E94393CE6
:14604C00980183E097E0FA013396EE0FFF1FE80FF91F20803F
:146060003180220D331D0CE310E00E94393C180183E097E013
:14607400FA01EE0FFF1FE80FF91F208131810AE010E00E9424
:14608800393C980183E097E0FA013196EE0FFF1FE80FF91F30
:14609C0040805180240D351D00E11EE00E94393C2801420C6F
:1460B000531C50920E0840920D08442049F4552039F484E0E7
:1460C40090E09093020780930107BEC083E097E0FA013996EF
:1460D800EE0FFF1FE80FF91F208131810AE010E00E94393C46
:1460EC00180183E097E0FA013896EE0FFF1FE80FF91F208119
:14610000318104E610E00E94393C2801420C531C83E097E028
:14611400FA013A96EE0FFF1FE80FF91F20803180420C531C74
:14612800509218084092170800910D0810910E080E94B83D7C
:14613C001801290100911708109118080E94B83D85E298E025
:146150009A938A930E946B3D810192010E94E53D0E94863D69
:14616400109312080093110822243324309214082092130876
:1461780000911708109118080E94B83D109322080093210882
:14618C0030932408209323085BC09A01215030403695279514
:1461A0000BE010E00E94393CA8014C5F5F4F83E097E0FA0122
:1461B4003296EE0FFF1FE80FF91F208131810AE010E00E9416
:1461C800393C980183E097E0FA013396EE0FFF1FE80FF91FED
:1461DC0020803180220D331D0CE310E00E94393C180183E06D
:1461F00097E0FA01EE0FFF1FE80FF91F208131810AE010E0D2
:146204000E94393C980183E097E0FA013196EE0FFF1FE80F28
:14621800F91F40805180240D351D00E11EE00E94393C280127
:14622C00420C531C50920E0840920D08442041F4552031F48F
:1462400084E090E0909302078093010787B7806487BF89B787
:14625400846089BF22960E94703C09900FBEF991E991B99150
:14626800A99199918991399129911991099199908990799091
:14627C00699059904990399029901990099018950E947F3C85
:14629000229722243324309234032092330382E190E09093CD
:1462A400320380933103442755275AC120903303309034038B
:1462B80022FE0FC004E411E09A010E94393C85E393E0F80184
:1462CC00E80FF91F82E090E09183808343C104E411E09A014E
:1462E0000E94393C89E594E0F801E80FF91F80913303909141
:1462F4003403807F9070969587959695879596958795969560
:14630800879500913103109132030F731070000F111F000F7A
:14631C00111F000F111F000F111F082B192B0E94B83D00832E
:1463300011832283338304E411E09A010E94393C85E393E004
:14634400F801E80FF91F808191818130E0E09E0709F0A0C0BB
:14635800662777273FC004E411E09A010E94393C180189E5F5
:14636C0094E0280E391E3101F1012080318042805380809101
:14638000330390913403807F907096958795969587959695C3
:1463940087959695879500913103109132030F731070000FE6
:1463A800111F000F111F000F111F000F111F082B192B0E94DB
:1463BC00B83D3A932A931A930A93810192010E944B3DF301D1
:1463D00000831183228333836F5F7F4F6930E0E07E0708F4D1
:1463E400BCCF04E411E09A010E94393C180189E594E0280E5E
:1463F800391E3101F101208031804280538008E910E00E94AD
:14640C00253C3A932A931A930A93810192010E94E53DF3017A
:14642000008311832283338304E411E09A010E94393C8FE3F9
:1464340094E0F801E80FF91F2080318020FE01C08DC004E473
:1464480011E09A010E94393C580185E594E0F501E80FF91F61
:14645C00008111812281338189E594E01501280E391E3A9271
:146470002A920E94563D1801290108E910E00E94253C3A9333
:146484002A931A930A93810192010E94883F0CF065C064C03A
:1464980004E411E09A010E94393C85E393E0F801E80FF91F82
:1464AC00808191818530E0E09E0709F035C004E411E09A014D
:1464C0000E94393C85E393E0F801E80FF91F81E090E09183E9
:1464D400808304E411E09A010E94393C8FE394E0F801E80F50
:1464E800F91F81E090E09183808304E411E09A010E94393C15
:1464FC0089E494E0F801E80FF91F81E090E09183808385E056
:146510009983888325E830E08A010F5F1F4F0E94F4121EC046
