:040000000C941E043A
:04000C000C94CA2363
:040028000C94C50A65
:040038000C948C0A8E
:040040000C94330ADF
:040074000C94120BCB
:14008C00000000400000C84100000000000020416EB7B4B02D
:1400A000D7B2E2CAD4B5DAD2BBB4CE00E803000000000000BA
:1400B400000000000000000000000000000000000000000038
:1400C800000000000000000000000000000000000000000024
:1400DC00000000000000000000000000000000000000000010
:1400F0000000000000000000000000000000000000000000FC
:1405B4000000000000000000000000000000400001000000F2
:1405C80000000000000000000000000000000000000000001F
:1405DC0000000000000000000000000000000000000000000B
:1405F0000000000000000000000000000000000000000000F7
:140604000000000000000000000000000000000000000000E2
:140618000000000000000000000000000000000000000000CE
:14062C000000000000000000000000000000000000000000BA
:140640000000000000000000000000000000000000000000A6
:14065400000000000000000000000000000000000000000092
:1406680000000000000000000000000000000000000000007E
:14067C0000000000000000000000000000000000000000006A
:14069000000000000000000000000000000000000000000056
:1406A400000000000000000000000000000000000000000042
:1406B80000000000000000000000000000000000000000002E
:1406CC0001000200030004000600070009000A0002000300EB
:1406E0000500060008000900CAFDBEDDD6D8D6C3D6D0A1A357
:1406F400A1A3A1A300CFB5CDB3D6D8D6C3D6D0A1A3A1A3A150
:14070800A3002D2000C8B7C8CF00CAC7B7F1D6D8D6C300CE89
:14071C00C2B6C8B1A3B4E6CAA7B0DCA3A100CEC2B6C8B1A3F8
:14073000B4E6B3C9B9A6A3A100CAB1BCE4B1A3B4E6B3C9B9BE
:14074400A6A3A100D6D8D6C3CFB5CDB300C9E8D6C3CAB1BCEB
:14075800E400B6CFB5E7D7D4B6AFBBD6B8B400B1A3B4E6D6B7
:14076C00D02E202E202E00B1A3B4E600CEC2B6C80020003A89
:14078000200020202020202020202020202020202020002025
:14079400202020202000BAE3CEC200C9FDCEC20000D6D8D6AA
:1407A800C300D4CBD0D000B1E0BCAD00D7B4CCAC3A00C4BF81
:1407BC00B1EA3A00CEC2B6C83A005400BBD6B8B4D6D02E20C7
:1407D0002E202E00C8A1CFFB00BBD6B8B400CAC7B7F1BBD69F
:1407E400B8B4C9CFB4CEB9A4D7F700B5C8B4FD00BDE1CAF8C2
:1407F80000D4DDCDA300B9CAD5CF00CDA3D6B900C9E8D6C35C
:14080C0000CDA3D6B92020202000BFAACABC202020200020CA
:1408200054343A002054333A002054323A002054313A00CA98
:14083400B1BCE43A00323000CFEFD0E1CDBFDEBFCE51D040FC
:140848000AEA08830024E0EAF8E01DE0EE36F10711F00192AA
:14085C00FBCF0083ECE9F0E0A0E0B1E018E000E00BBFEC33C4
:14087000F10721F0C89531960D92F9CF0E94B409FFCF000FA4
:14088400111F0150104081E090E080179107C8F308954A935A
:140898005A93A8014150504005E714E0EEDF81E090E084177C
:1408AC009507B0F35991499108954A935A93A8014150504004
:1408C00008EE13E0E8DF81E090E084179507B0F35991499105
:1408D400089508954A935A9380EE84BB8091640080618093F6
:1408E80064008FED85BB8091650080618093650001E010E03C
:1408FC000E94410443B355274F3CE0E05E07E9F04F3CE0E0BB
:140910005E07DCF0473DE0E05E0799F04B3DE0E05E0769F06A
:140924004D3DE0E05E0739F04E3DE0E05E0709F00AC005E689
:1409380099C001E697C004E695C005E793C00CE691C08FEBD9
:14094C0085BB8091650080618093650001E010E00E944104D0
:1409600043B355274F3AE0E05E07E9F04F3AE0E05E07DCF010
:14097400473BE0E05E0799F04B3BE0E05E0769F04D3BE0E0F3
:140988005E0739F04E3BE0E05E0709F00AC003E769C002E760
:14099C0067C004E765C003E663C00BE261C08FE785BB80912F
:1409B000650080618093650001E010E00E94410443B355274B
:1409C4004F36E0E05E07E9F04F36E0E05E07DCF04737E0E0E8
:1409D8005E0799F04B37E0E05E0769F04D37E0E05E0739F04B
:1409EC004E37E0E05E0709F00AC000E339C003E337C002E3EC
:140A000035C001E333C006E331C08FEF85BB809165008F7009
:140A14008093650001E010E00E94410443B355274F3EE0E0DF
:140A28005E07E9F04F3EE0E05E07DCF0473FE0E05E0799F0CA
:140A3C004B3FE0E05E0769F04D3FE0E05E0739F04E3FE0E077
:140A50005E0709F00AC007E309C008E307C009E305C004E36D
:140A640003C005E301C00EE6599149910895AA924A9330DF95
:140A7800402F02E010E00E944B042ADFA02E401761F44E3631
:140A8C0051F020900001241611F40EE608C040930001042F62
:140AA00004C08EE6809300010EE64991A99008954A935A9388
:140AB40022242ABA809165008D7F80936500809165008160B3
:140AC800809365008091650088608093650001E010E00E9459
:140ADC00410449B35527407850708FEF8ABB80916500877F92
:140AF000809365008A01599149910895AA92A02ED7DF00309E
:140B04000107E1F7809165008D7F80936500809165008E7F80
:140B18008093650080916500877F80936500ABBA8091650082
:140B2C0088608093650001E010E00E94410480916500877F21
:140B400080936500A9900895AA92A02EB1DF00300107E1F7A9
:140B540080916500826080936500809165008E7F80936500C2
:140B680080916500877F80936500ABBA8091650088608093AF
:140B7C00650001E010E00E94410480916500877F8093650054
:140B9000A990089501E0B2DF01E010E00C944B044A935A937F
:140BA40022242ABA809165008D7F80936500809165008160C2
:140BB800809365008091620081608093620001E010E00E9475
:140BCC00410449B35527407850708FEF8ABB809162008E7F9D
:140BE000809362008A01599149910895AA92A02ED7DF0030B0
:140BF4000107E1F7809165008D7F80936500809165008E7F90
:140C080080936500809162008E7F80936200ABBA8091620093
:140C1C0081608093620001E010E00E944104809162008E7F36
:140C300080936200A9900895AA92A02EB1DF00300107E1F7BB
:140C440080916500826080936500809165008E7F80936500D1
:140C5800809162008E7F80936200ABBA8091620081608093C7
:140C6C00620001E010E00E944104809162008E7F8093620065
:140C8000A990089501E0B2CFAA924A93A22E402F442311F068
:140C9400413019F40A2D56DF06C0423011F0433011F40A2D7A
:140CA800C7DF4991A99008954A936A93622F402F662321F46A
:140CBC00042F00581DDF11C0613021F4042F005717DF0BC0DB
:140CD000623021F4042F005889DF05C0633019F4042F005787
:140CE40083DF6991499108950E94B237622F402FAE806623E7
:140CF80031F4042F0058FEDE0A2D22DF17C0613031F4042F64
:140D0C000057F6DE0A2D1ADF0FC0623031F4042F005866DF22
:140D20000A2D8ADF07C0633029F4042F00575EDF0A2D82DF49
:140D34000C94B9370E94B237A22E602F4E815F81AA2071F453
:140D4800062F0058D7DE05C0FA010081F9DE4F5F5F4FFA01E6
:140D5C0020802220B9F732C08A2D813071F4062F0057C6DE02
:140D700005C0FA010081E8DE4F5F5F4FFA0120802220B9F77F
:140D840021C08A2D823071F4062F00582DDF05C0FA010081D2
:140D98004FDF4F5F5F4FFA0120802220B9F710C08A2D8330F6
:140DAC0069F4062F00571CDF05C0FA0100813EDF4F5F5F4F95
:140DC000FA0120802220B9F70C94B9370E94A837A901602F48
:140DD400662311F0613059F405C0FA010081B2DE4F5F5F4F76
:140DE800FA0120802220B9F70EC0623011F0633051F405C06C
:140DFC00FA0100811BDF4F5F5F4FFA0120802220B9F70C94E4
:140E1000AD374A935A9322242ABA809165008D7F80936500FC
:140E2400809165008160809365008091650088608093650015
:140E380001E010E00E944B0449B355274F778FEF8ABB8091D2
:140E4C006500877F80936500042F5991499108954A935A9351
:140E600022242ABA809165008D7F8093650080916500816003
:140E7400809365008091620081608093620001E010E00E94B6
:140E88004B0449B355274F778FEF8ABB809162008E7F809373
:140E9C006200042F59914991089576DEEDCEAA92BA9222246F
:140EB0002ABA80916500826080936500809165008160809310
:140EC40065008091650088608093650001E010E00E944B041D
:140ED800A9B2BB248FEF8ABB80916500877F809365000A2DDE
:140EEC00B990A9900895AA92BA9222242ABA809165008260C9
:140F0000809365008091650081608093650080916200816042
:140F14008093620001E010E00E944B04A9B2BB248FEF8ABB95
:140F2800809162008E7F809362000A2DB990A99008950E94C8
:140F3C00B237622F402F662349F4042F0058D8DD0AE010E0D8
:140F50000E944104AADF24C0613049F4042F0057CDDD0AE04D
:140F640010E00E9441049FDF19C0623051F4042F00583ADED1
:140F78000AE010E00E944104B8DFA02E0DC0633051F4042F67
:140F8C0000572EDE0AE010E00E944104ACDFA02E01C00027EC
:140FA0000C94B937AA92A02E0A2DA8DD7EDFA9900895AA9278
:140FB400A02E0A2DA1DD9BDFA99008958AB38F6F8ABB8FEF58
:140FC8008BBB809164008F6080936400809165008F6080937C
:140FDC0065008091610081608093610080916200816080936E
:140FF000620000E383DD08E081DD01E07FDD06E07DDD0CE099
:141004007BDD00E3F1DD08E0EFDD01E0EDDD06E0EBDD0CE0D6
:14101800E9CD4A935A93A8014030450719F40CE069DD30C0B0
:14102C004130E0E05E0719F40EE062DD29C04230E0E05E0760
:1410400019F40DE05BDD22C04330E0E05E0719F40FE054DDC3
:141054001BC04430E0E05E0719F40CE0C5DD14C04530E0E070
:141068005E0719F40EE0BEDD0DC04630E0E05E0719F40DE017
:14107C00B7DD06C04730E0E05E0711F40FE0B0DD5991499125
:14109000089506E333DD06E3A9CD00E32FDD00E3A5CD0E9471
:1410A40012370E949337622F2197AF848A2D0B8480198F5F3A
:1410B800C82ECC0CEADF662349F48B8580588150888340E8DB
:1410CC0080E8A82EE82E22C0613051F48B8580588150888340
:1410E00040E980E8A82E80E9E82E16C0623049F48B85805889
:1410F4008150888340E880E8A82EE82E0BC0633049F48B85E5
:1411080080588150888340E980E8A82E80E9E82E662311F0AF
:14111C006130A1F4AA240EC0242E4F5F022DE8DC0881E6DCBF
:14113000EE2403C0002708DDE394EC14D8F3A3948A2D8031E9
:1411440078F317C0623011F0633099F4AA240EC0242E4F5F06
:14115800022D48DD088146DDEE2403C0002768DDE394EC14CB
:14116C00D8F3A3948A2D803178F391DF21960E948837249658
:1411800008950E9412370E949337622F2197AF848A2D0B84A5
:1411940080198F5FC82ECC0C7ADF662349F48B85805881501A
:1411A800888340E880E8A82EE82E22C0613051F48B8580580C
:1411BC008150888340E980E8A82E80E9E82E16C0623049F4B8
:1411D0008B8580588150888340E880E8A82EE82E0BC063306D
:1411E40049F48B8580588150888340E980E8A82E80E9E82E10
:1411F800662311F06130A1F4AA240EC0242E4F5F022D78DC14
:14120C00088176DCEE2403C00FEF98DCE394EC14D8F3A39433
:141220008A2D803178F317C0623011F0633099F4AA240EC0C1
:14123400242E4F5F022DD8DC0881D6DCEE2403C00FEFF8DCE1
:14124800E394EC14D8F3A3948A2D803178F321DF21960E94ED
:14125C008837249608953A932A930E949337C02E04E346DC7B
:1412700004E3BCDC6C2D4A8560684068AA2413C0242E4F5F72
:14128400022D3ADC062F38DCEE2407C0EC85FD850191FD87E6
:14129800EC8756DCE3948E2D8831B0F3A3948A2D803250F32C
:1412AC006C2D4A8560684068EE2413C0242E4F5F022D96DCD0
:1412C000062F94DCEE2407C0EC85FD850191FD87EC87B2DC92
:1412D400E3948E2D8831B0F3A3948A2D803450F306E30ADCC4
:1412E80006E380DC01E010E00E94410400E302DC00E378DCFD
:1412FC000E94883722960895229781E091E09983888323E073
:14131000002712DD81E091E099838883222700270BDD87E0FB
:14132400888321E001E02BDF08EB1BE00E944B0487E088836D
:1413380021E001E0B2DE82E0888321E002E01DDF0CE211E004
:14134C000E944B0487E0888322E002E0A4DE85E0888321E053
:1413600003E00FDF2296089521978FEF82B985E583B9789430
:141374000E94E0070E94530782E090E09093610D8093600DFD
:141388008CE08883222701E00E9451088CE0888321E001E05C
:14139C000E9451088CE0888322E001E00E9451088CE0888376
:1413B00023E001E00E94510880E590E0909315018093140114
:1413C40082E190931301809312010E94A92E0E947B36222740
:1413D80000EE0E940B0A28EB0EEF0E94FC0900270E942A0AA8
:1413EC0002C00E946A23FDCF219608950093680D2093670DAD
:1414000022242EBC0DBD2CBD2FBC85E08EBD87B7846087BFF2
:1414140008950093660D2093650D222420928A00009389005E
:141428002093880020928B0085E080938A0080917D008460C4
:14143C0080937D0008950093640D02BF87B7816087BF87E0DE
:1414500083BF08950093630D04BD87B7806487BF85E085BDD6
:1414640008950A921A922A923A924A925A926A927A928A921B
:141478009A920A931A932A933A938A939A93AA93BA93EA930F
:14148C00FA930FB60A922197222423BE80911001909111012A
:1414A0000197909311018093100124E630E08C010E943E3789
:1414B400C801C096888322270AE00E94760683E788832227EB
:1414C8000BE00E94760681E090E0209010013090110182150C
:1414DC00930520F4222422BE87E083BF219609900FBEF991DA
:1414F000E991B991A9919991899139912991199109919990B5
:14150400899079906990599049903990299019900990189585
:141518000A921A922A923A924A925A926A927A928A929A92D7
:14152C000A931A932A933A938A939A93AA93BA93EA93FA93F9
:141540000FB60A9222242EBC0E949B0D2090680D2DBC2090FE
:14155400670D2CBC85E08EBD09900FBEF991E991B991A99189
:1415680099918991399129911991099199908990799069901F
:14157C0059904990399029901990099018950A921A922A9224
:141590003A924A925A926A927A928A929A920A931A932A935C
:1415A4003A938A939A93AA93BA93EA93FA930FB60A922224E1
:1415B80025BC2090630D24BC85E085BD2090260630902706CE
:1415CC00222051F4332041F480E490E0909327068093260699
:1415E0000E94CA2380912606909127060197909327068093E2
:1415F400260609900FBEF991E991B991A991999189913991BB
:14160800299119910991999089907990699059904990399001
:14161C0029901990099018950A921A922A923A924A925A927A
:141630006A927A928A929A920A931A932A933A938A939A9338
:14164400AA93BA93EA93FA930FB60A92222420928A000E9479
:14165800352D2090660D209289002090650D2092880085E0FD
:14166C0080938A0009900FBEF991E991B991A991999189919B
:14168000399129911991099199908990799069905990499088
:14169400399029901990099018954A935A931B9A1C9A01E0BB
:1416A80010E00E9441041C9801E010E00E9441041B9801E057
:1416BC0010E00E9441041B9A4427552724C01B9801E010E03F
:1416D0000E9441042090120130901301220C331C3092130135
:1416E4002092120181B19927847090709595879595958795BB
:1416F800282A392A30921301209212011B9A01E010E00E9466
:14170C0041044F5F5F4F4830E0E05E07C0F24427552724C00E
:141720001B9801E010E00E9441042090140130901501220C81
:14173400331C309215012092140181B19927847090709595A3
:14174800879595958795282A392A30921501209214011B9A22
:14175C0001E010E00E9441044F5F5F4F4830E0E05E07C0F216
:141770001C9A0AE010E00E9441045991499108954A935A93C3
:141784001E9A1F9A01E010E00E9441041F9801E010E00E94FE
:1417980041041E9801E010E00E9441041E9A4427552728C003
:1417AC001E9801E010E00E9441042090120130901301220CF6
:1417C000331C309213012092120125E030E001B111270072BA
:1417D40010700E9417372090120130901301202A312A309293
:1417E8001301209212011E9A01E010E00E9441044F5F5F4F48
:1417FC004830E0E05E07A0F24427552728C01E9801E010E054
:141810000E9441042090140130901501220C331C30921501ED
:141824002092140125E030E001B11127007210700E94173708
:141838002090140130901501202A312A3092150120921401BD
:14184C001E9A01E010E00E9441044F5F5F4F4830E0E05E071F
:14186000A0F21F9A0AE010E00E9441045991499108954A932A
:141874005A938091620082608093620080916200846080933F
:14188800620001E010E00E944104809162008B7F8093620040
:14189C0001E010E00E944104809162008D7F8093620001E0AB
:1418B00010E00E94410480916200826080936200442755279C
:1418C40028C0809162008D7F8093620001E010E00E9441047C
:1418D8002090120130901301220C331C30921301209212014D
:1418EC0080B1992781709070282A392A3092130120921201B6
:141900008091620082608093620001E010E00E9441044F5FA3
:141914005F4F4830E0E05E07A0F24427552728C080916200A0
:141928008D7F8093620001E010E00E944104209014013090ED
:14193C001501220C331C309215012092140180B19927817083
:141950009070282A392A3092150120921401809162008260DA
:141964008093620001E010E00E9441044F5F5F4F4830E0E0AE
:141978005E07A0F2809162008460809362000AE010E00E941C
:14198C0041045991499108954A935A93809162008061809370
:1419A00062008091620080628093620001E010E00E9441044F
:1419B400809162008F7D8093620001E010E00E944104809162
:1419C80062008F7E8093620001E010E00E94410480916200FC
:1419DC008061809362004427552733C0809162008F7E809334
:1419F000620001E010E00E9441042090120130901301220C04
:141A0400331C309213012092120181B19927887090701C01DD
:141A1800359427943594279435942794409012015090130157
:141A2C0042285328509213014092120180916200806180937F
:141A4000620001E010E00E9441044F5F5F4F4830E0E05E077F
:141A540048F24427552733C0809162008F7E8093620001E094
:141A680010E00E9441042090140130901501220C331C3092B9
:141A7C0015012092140181B19927887090701C0135942794EE
:141A900035942794359427944090140150901501422853287A
:141AA40050921501409214018091620080618093620001E0A5
:141AB80010E00E9441044F5F5F4F4830E0E05E0748F28091FF
:141ACC0062008062809362000AE010E00E94410459914991C8
:141AE00008954A935A93A8018AED82B986EF8093610083B113
:141AF4008C6F83B9809162008F6F809362004030450769F0AC
:141B08004130E0E05E0759F04230E0E05E0749F04330E0E0E7
:141B1C005E0739F007C0BDDD05C02CDE03C0A3DE01C032DFE1
:141B3000599149910895AA92BA928091280690912906833373
:141B4400E0E09E0731F4222433243092290620922806809184
:141B58001601909117018130E0E09E07E9F44090580250902C
:141B6C005902209056023090570200912806109129060E94B8
:141B8000EB383A932A931A930A93810192010E94BB3A14F0AA
:141B9400189A07C083B18E7F83B903C083B18E7F83B98091F6
:141BA8005A0290915B028130E0E09E07E9F440905802509052
:141BBC005902209056023090570200912806109129060E9468
:141BD000EB383A932A931A930A93810192010E94BB3A14F05A
:141BE400199A07C083B18D7F83B903C083B18D7F83B98091A7
:141BF8009E0390919F038130E0E09E07E9F440905802509078
:141C0C005902209056023090570200912806109129060E9417
:141C2000EB383A932A931A930A93810192010E94BB3A14F009
:141C34001A9A07C083B18B7F83B903C083B18B7F83B9809159
:141C4800E2049091E3048130E0E09E07E9F44090580250909D
:141C5C005902209056023090570200912806109129060E94C7
:141C7000EB383A932A931A930A93810192010E94BB3A14F0B9
:141C84001B9A07C083B1877F83B903C083B1877F83B9809110
:141C980028069091290601969093290680932806B990A9900E
:141CAC0008958EE08093950083E089B92224209290002BB861
:141CC00088E18AB908955D9BFECF0CB90895002711272224FB
:141CD40020926A0D0BC00030EDE71E0729F481E080936A0DD7
:141CE80001E005C00F5F1F4F5F9BF3CF0CB10895AA924A9337
:141CFC003EC0E7DF0093FC0A023009F038C041E00FC0DFDFA6
:141D10008CEF9AE0E42FFF27E80FF91F008380916A0D8130C6
:141D240011F401E029C04395453078F32090000B3324309250
:141D3800A3082092A20845E010C0C5DFA02E8CEF9AE0E42F21
:141D4C00FF27E80FF91FA08280916A0D813011F401E00EC03F
:141D600043958091A2089091A3080696242E3324281639064E
:141D740030F3002701C0C1CF4991A99008950E949737690136
:141D88007801AA2407C0EA2DFF27EE0DFF1D008196DFA394B8
:141D9C002A2C33242C143D04A0F30C9481370E94CE37C88427
:141DB0004FEF5FEFAA241BC0EA2DFF27E00FF11F20803324B7
:141DC4004225532566270EC040FF09C088E094E81A01369400
:141DD800279428263926A10102C0569547956395683080F361
:141DEC00A394AC1418F31A01232C3324F901208241830C9420
:141E0000D7370E949E37422F58012397842F825088839E0196
:141E14002F5F3F4F8501C7DFE42FFF273297EA0DFB1D2080C1
:141E28003980321449F4E42FFF273197EA0DFB1D20803A8000
:141E3C00321411F001E001C0002723960C94A3370E94C037B6
:141E5000C22EA02E23974985C092A9084093A808A092A708D1
:141E640022242092A50881E08093A60882E08093A408842FCF
:141E78008B5F88839E012F5F3F4F04EA18E091DF89EA98E065
:141E8C00E42FFF27E80FF91F298020828AEA98E0E42FFF278A
:141EA000E80FF91F2A80208202DF242F3327295F3F4F04EA41
:141EB40018E065DF23960C94C7370E94973779016801AE8006
:141EC800BF808FB78F778FBFE199FECFEEBACFBAADBAE29AD2
:141EDC00E19A01E010E00E94410478940C9481370E949937E9
:141EF000690158018FB78F778FBFE199FECFCEBAAFBAE09ACF
:141F040001E010E00E944104ADB2BB24789485010C947C37EE
:141F1800AA92BA925801229787E998E0998388832A2D00278E
:141F2C000E949C0685010E948C362296B990A9900895AA9260
:141F4000BA92580185010E948C36B990A99008950E94CE3738
:141F5400229781E090E09093550D8093540D82E998E09983F7
:141F6800888321E001E00E949C068DE898E09983888321E01F
:141F7C0006E00E949C0688E898E09983888322E001E00E9493
:141F90009C0683E898E09983888322E006E00E949C068AE7F4
:141FA40098E09983888323E001E00E949C0621E738E003E05F
:141FB8000E94E6062CE638E003E00E94E6068AE798E09983E7
:141FCC00888323E001E00E949C0621E738E003E00E94E6063D
:141FE0002CE638E003E00E94E6064427552783E0888321E0FC
:141FF40002E00E94C10889C3002711278BDFAA24BB24DFC02B
:14200800AA2049F4BB2039F461E070E021E003E00E94580640
:14201C0023C0C5018130E0E09E0739F461E070E021E008E04A
:142030000E94580617C0C5018230E0E09E0739F462E070E029
:1420440022E003E00E9458060BC0C5018330E0E09E0731F4D5
:1420580062E070E022E008E00E94580604E411E095010E94E7
:14206C006C3786E191E0F801E80FF91FC080D180CC2011F45B
:14208000DD20F9F0C6018130E0E09E0701F18230E0E09E0780
:1420940009F477C08330E0E09E0709F478C08430E0E09E079E
:1420A80009F479C08530E0E09E0709F47AC08630E0E09E0782
:1420BC0009F47BC07FC027E638E0062F0E94E60679C004E490
:1420D00011E095010E946C378AE392E0F801E80FF91F0081C8
:1420E4001181228133810E94B93824E630E00E9422379801BE
:1420F8002063062F0E94440604E411E095010E946C378AE30F
:14210C0092E0F801E80FF91F00811181228133810E94B93848
:142120002AE030E00E9422372AE030E00E941E379801206369
:14213400062F0E94440604E411E095010E946C378AE392E0E3
:14214800F801E80FF91F00811181228133810E94B9382AE074
:14215C0030E00E941E3798012063062F0E94440620E2062FF4
:142170000E94440621EA062F0E94440626EE062F0E9444060E
:142184001DC022E638E0062F0E94E60617C02DE538E0062F51
:142198000E94E60611C028E538E0062F0E94E6060BC023E519
:1421AC0038E0062F0E94E60605C02DE538E0062F0E94E60692
:1421C000C50101965C01C5018430E0E09E0708F41BCF0E94EA
:1421D4003905A02E013609F053C088E090E09093610D80932C
:1421E800600D40304507C9F04130E0E05E07E1F04230E0E068
:1421FC005E07F9F04330E0E05E0711F14430E0E05E0729F134
:142210004530E0E05E0741F14630E0E05E0759F177C283E06D
:14222400888321E002E00E94510870C288E0888321E007E030
:142238000E94510869C283E0888322E002E00E94510862C2FB
:14224C0088E0888322E007E00E9451085BC283E0888323E099
:1422600002E00E94510854C287E0888323E006E00E94510821
:142274004DC28BE0888323E00AE00E94510846C28A2D843670
:1422880009F04CC04030450769F04130E0E05E07C1F042306F
:14229C00E0E05E0719F14330E0E05E0771F131C283E08883A4
:1422B00021E002E00E94510883E0888322E002E00E94C1087F
:1422C40042E050E022C288E0888321E007E00E94510888E012
:1422D800888322E007E00E94C10843E050E013C283E08883FD
:1422EC0022E002E00E94510883E0888323E002E00E94C10841
:1423000044E050E004C288E0888322E007E00E94510887E0F1
:14231400888323E006E00E94C10845E050E0F5C18A2D8537D8
:1423280009F061C04230E0E05E0791F04330E0E05E07E9F0FE
:14233C004430E0E05E0741F14530E0E05E0799F14630E0E068
:142350005E0709F43DC0DBC183E0888322E002E00E94510831
:1423640083E0888321E002E00E94C10844275527CCC188E0CD
:14237800888322E007E00E94510888E0888321E007E00E9465
:14238C00C10841E050E0BDC185E0888323E002E00E94510855
:1423A00083E0888322E002E00E94C10842E050E0AEC187E044
:1423B400888323E006E00E94510888E0888322E007E00E9428
:1423C800C10843E050E09FC18BE0888323E00AE00E94510827
:1423DC0088E0888322E007E00E94C10843E050E090C18A2DCB
:1423F0008C3609F04DC04130E0E05E0769F04330E0E05E078A
:14240400C1F04530E0E05E0719F14630E0E05E0771F17BC136
:1424180088E0888321E007E00E94510883E0888321E002E009
:14242C000E94C108442755276CC188E0888322E007E00E941F
:14244000510883E0888322E002E00E94C10842E050E05DC102
:1424540087E0888323E006E00E94510883E0888323E002E0CB
:142468000E94C10844E050E04EC18BE0888323E00AE00E948D
:14247C00510887E0888323E006E00E94C10845E050E03FC1D8
:142490008A2D823709F04CC04030450769F04230E0E05E0717
:1424A400C1F04430E0E05E0719F14530E0E05E0771F12BC1E8
:1424B80083E0888321E002E00E94510888E0888321E007E069
:1424CC000E94C10841E050E01CC183E0888322E002E00E946F
:1424E000510888E0888322E007E00E94C10843E050E00DC1A7
:1424F40083E0888323E002E00E94510887E0888323E006E02B
:142508000E94C10845E050E0FEC087E0888323E006E00E9444
:14251C0051088BE0888323E00AE00E94C10846E050E0EFC07F
:142530008A2D833709F053C085E090E09093610D8093600D34
:1425440040304507C9F04130E0E05E07E1F04230E0E05E0710
:14255800F9F04330E0E05E0711F14430E0E05E0729F14530C4
:14256C00E0E05E0741F14630E0E05E0759F1CAC083E0888327
:1425800021E002E00E945108C3C088E0888321E007E00E94E9
:142594005108BCC083E0888322E002E00E945108B5C088E034
:1425A800888322E007E00E945108AEC083E0888323E002E06F
:1425BC000E945108A7C087E0888323E006E00E945108A0C0F3
:1425D0008BE0888323E00AE00E94510899C08A2D843709F0D5
:1425E40094C040304507F1F04130E0E05E0791F14230E0E0A8
:1425F8005E0709F443C04330E0E05E0709F455C04430E0E08C
:14260C005E0709F466C04530E0E05E0709F464C04630E0E041
:142620005E0709F462C073C083E0888321E002E00E945108A3
:1426340081E090E09093550D8093540D222433243092570D05
:142648002092560D83E09093610D8093600D5CC088E0888366
:14265C0021E007E00E94510881E090E09093550D8093540DBD
:142670009093570D8093560D83E09093610D8093600D46C0DF
:1426840083E0888322E002E00E94510881E090E09093550D9F
:142698008093540D82E09093570D8093560D83E09093610D67
:1426AC008093600D2FC088E0888322E007E00E94510881E0F3
:1426C00090E09093550D8093540D83E09093570D8093560D3D
:1426D4009093610D8093600D19C00E94FC3215C00E94483346
:1426E80012C08BE0888323E00AE00E94510881E090E09093BA
:1426FC00550D8093540D85E09093610D8093600D01C076CC7B
:1427100022960C94D7370E94933722974427552722273327A0
:1427240001E010E00E94760F78012227332702E010E00E9419
:14273800760F68012227332703E010E00E94760F5801222760
:14274C00332704E010E00E94760FB801EE2071F4FF2061F484
:14276000CC2051F4DD2041F4AA2031F4BB2021F400300107EB
:1427740009F4EAC082E498E099838883222702E00E949C0636
:142788008DE398E09983888322E002E00E949C0688E398E023
:14279C009983888322E008E00E949C062227332700271127D2
:1427B0000E94760F5801B5010130E0E01E0749F444275527A5
:1427C40084E0888322E003E00E94C10808C041E050E08AE0BF
:1427D800888322E009E00E94C10800270E94210AB0C0809117
:1427EC001001909111018130E0E09E0731F58AE0888322E0E2
:1428000009E00E94510884E0888322E003E00E945108403021
:14281400450781F40E9453078CE298E09983888322E005E0FF
:142828000E949C060E941D3008EC10E00E944B0481E090E0C3
:14283C009093610D8093600D89C00E943905A02E6A2D77274B
:142850006C36E0E07E0779F06C36E0E07E070CF474C0623770
:14286400E0E07E0741F16437E0E07E0709F443C06AC0222499
:1428780023BE80E2888322270AE00E94760680E288832227F7
:14288C000BE00E9476064130E0E05E0709F057C08AE0888314
:1428A00022E009E00E94510884E0888322E003E00E94C1087F
:1428B4004427552748C0222423BE80E2888322270AE00E94B8
:1428C800760680E2888322270BE00E94760640304507B9F557
:1428DC0084E0888322E003E00E9451088AE0888322E009E039
:1428F0000E94C10841E050E028C0222423BE8AE0888322E092
:1429040009E00E94510884E0888322E003E00E94510840301C
:14291800450781F40E9453078CE298E09983888322E005E0FA
:14292C000E949C060E941D3008EC10E00E944B0481E090E0BE
:142940009093610D8093600D07C04FCF81E090E09093610D2B
:142954008093600D22960C9488370E94A837229744275527B7
:142968008AE298E099838883222700270E949C062091560D88
:14297C003091570D2F5F3F4F206300270E9444062AE300273C
:142990000E94440684E298E09983888321E001E00E949C061C
:1429A4008EE198E09983888321E007E00E949C0688E198E004
:1429B8009983888322E001E00E949C0683E198E099838883BA
:1429CC0023E000270E949C068EE098E09983888323E003E096
:1429E0000E949C068DE598E09983888323E007E00E949C0660
:1429F40089E098E09983888323E00AE00E949C0682E0888329
:142A080023E001E00E94C1083BC3222702E00E94580600271B
:142A1C0011278FDA2091560D3091570D04E411E00E946C37AE
:142A300086E191E0F801E80FF91F808191818230E0E09E0788
:142A440009F468C021E004E00E9458062091560D3091570D3B
:142A580004E411E00E946C378AE392E0F801E80FF91F0081E4
:142A6C001181228133810E94B93824E630E00E94223798012C
:142A8000206301E00E9444062091560D3091570D04E411E0E0
:142A94000E946C378AE392E0F801E80FF91F0081118122814C
:142AA80033810E94B9382AE030E00E9422372AE030E00E9402
:142ABC001E379801206301E00E9444062091560D3091570D8F
:142AD00004E411E00E946C378AE392E0F801E80FF91F00816C
:142AE4001181228133810E94B9382AE030E00E941E379801B8
:142AF800206301E00E94440620E201E00E94440621EA01E0BF
:142B0C000E94440626EE01E00E94440622E004E00E94580602
:142B20002091560D3091570D04E411E00E946C3786E191E072
:142B3400F801E80FF91F6081718160306707F1F06130E0E082
:142B48007E0701F16230E0E07E0709F460C16330E0E07E0735
:142B5C0009F461C16430E0E07E0709F462C16530E0E07E0773
:142B700009F476C16630E0E07E0709F477C17BC127E638E0AC
:142B840002E00E94E60675C188E098E09983888321E009E0A6
:142B98000E949C0621EA01E00E94440626EE01E00E9444062C
:142BAC002091560D3091570D04E411E00E946C3780E292E0EA
:142BC000F801E80FF91F6081718182E190E08617970708F51B
:142BD4002AE030E08B0101501040169507950F5F1F4F0E94E1
:142BE8003E379801206302E00E9444062AE030E08B01015083
:142BFC001040169507950F5F1F4F0E943C379801206302E03F
:142C10000E9444060FC09B0121503040369527952F5F3F4FD5
:142C2400206302E00E94440620E202E00E9444062AE302E08C
:142C38000E94440620E202E00E94440660FF15C023E038E07D
:142C4C0002E00E94E6062091560D3091570D04E411E00E9450
:142C60006C378CE292E0F801E80FF91F6081718119C02EEF0C
:142C740037E002E00E94E6062091560D3091570D04E411E0B3
:142C88000E946C3786E392E0F801E80FF91F0081118122815A
:142C9C0033810E94B938B80124E630E08B010E943E37C8019E
:142CB0008063888321E009E00E9476062AE030E08B010E94D2
:142CC4003E372AE030E00E943C379801206301E00E9444066F
:142CD8002AE030E08B010E943C379801206301E00E94440644
:142CEC0020E201E00E94440621EA01E00E94440626EE01E038
:142D00000E94440622E008E00E9458062091560D3091570DB0
:142D140004E411E00E946C3784E292E0F801E80FF91F6081CC
:142D2800718120E13EE08B010E943E37B8012AE030E00E946E
:142D3C003E379801206302E00E9444062AE030E08B010E94DC
:142D50003C379801206302E00E9444062AE302E00E94440637
:142D64002091560D3091570D04E411E00E946C3784E292E02C
:142D7800F801E80FF91F608171812CE330E08B010E943E37AA
:142D8C002CE330E00E943C37B8012AE030E00E943E3798017C
:142DA000206302E00E9444062AE030E08B010E943C3798017A
:142DB400206302E00E9444062AE302E00E9444062091560DCB
:142DC8003091570D04E411E00E946C3784E292E0F801E80FEC
:142DDC00F91F608171812CE330E08B010E943C37B8012AE075
:142DF00030E00E943E379801206302E00E9444062AE030E0A4
:142E04008B010E943C379801206302E00E94440630C022E637
:142E180038E002E00E94E6062AC02DE538E002E00E94E6069A
:142E2C0024C087EF97E09983888321E009E00E949C0686EEF8
:142E400097E09983888322E004E00E949C0688E598E09983B5
:142E5400888322E004E00E949C060BC023E538E002E00E94C6
:142E6800E60605C02DE538E002E00E94E6060E943905602F9C
:142E7C000536F9F482E0888323E001E00E94510885E088835E
:142E900023E004E00E94510889E0888323E008E00E945108F2
:142EA4008CE0888323E00BE00E94510881E090E09093610D58
:142EB8008093600DE6C06C36D1F54130E0E05E0749F0423037
:142ECC00E0E05E07A1F04330E0E05E07F9F0D6C085E08883B5
:142EE00023E004E00E94510882E0888323E001E00E94C10840
:142EF40044275527C7C089E0888323E008E00E94510885E09D
:142F0800888323E004E00E94C10841E050E0B8C08CE0888318
:142F1C0023E00BE00E94510889E0888323E008E00E94C108EE
:142F300042E050E0A9C06237C9F54030450749F04130E0E055
:142F44005E07A1F04230E0E05E07F9F09BC085E0888323E035
:142F580004E00E94C10882E0888323E001E00E94510841E0A9
:142F6C0050E08CC089E0888323E008E00E94C10885E088839B
:142F800023E004E00E94510842E050E07DC08CE0888323E052
:142F94000BE00E94C10889E0888323E008E00E94510843E056
:142FA80050E06EC0643709F04AC04030450769F04130E0E0D3
:142FBC005E07B1F04230E0E05E07C9F04330E0E05E0721F101
:142FD0005BC082E0888323E001E00E94510884E090E090938F
:142FE400610D8093600D4FC00091560D1091570D0E94793395
:142FF80047C086EE97E09983888322E004E00E949C060091F1
:14300C00560D1091570D0E94DB3338C08CE0888323E00BE03B
:143020000E94510881E090E090935B0D80935A0D83E0909345
:14303400550D8093540D87E09093610D8093600D22C06337BE
:14304800F9F482E0888323E001E00E94510885E0888323E0C8
:14305C0004E00E94510889E0888323E008E00E9451088CE0BB
:14307000888323E00BE00E94510884E090E09093610D8093E0
:14308400600D01C0C4CC22960C94AD370E9412370E949337E7
:143098005901229782EA90E06C0184EC7C0166277727442745
:1430AC0055278C859D858330E0E09E0730F5C88221E002E0F7
:1430C0000E94760697012F5F3F4F01E00E944406C88222E011
:1430D40002E00E94760697012E5F3F4F02E00E944406C8821D
:1430E80023E002E00E94760697012D5F3F4F03E00E94440650
:1430FC00002411241D860C868FC08C859D858330E0E09E0798
:1431100050F18630E0E09E0730F5C88221E002E00E947606DF
:1431240097012C5F3F4F01E00E944406C88222E002E00E9449
:14313800760697012B5F3F4F02E00E944406C88223E002E05A
:14314C000E94760697012A5F3F4F03E00E94440681E090E002
:143160009D878C875FC08C859D858630E0E09E0750F18930BD
:14317400E0E09E0730F5C88221E002E00E9476069701295F52
:143188003F4F01E00E944406C88222E002E00E9476069701F4
:14319C00285F3F4F02E00E944406C88223E002E00E947606EF
:1431B0009701275F3F4F03E00E94440682E090E09D878C8787
:1431C4002FC08C859D858930E0E09E0748F18C30E0E09E075D
:1431D80028F5C88221E002E00E9476069701265F3F4F01E0EF
:1431EC000E944406C88222E002E00E9476069701255F3F4FED
:1432000002E00E944406C88223E002E00E9476069701245F84
:143214003F4F03E00E94440683E090E09D878C8701E210E06C
:143228002C853D850E946C37A80161E070E0C5C06130E0E0CA
:14323C007E0771F4FA01EE0FFF1FEA0DFB1D80819181806379
:143250008883262F03E00E94760610C0CA010196AC01FC012D
:14326400EE0FFF1FEA0DFB1D8081918180638883262F03E0F3
:143278000E947606CA010196AC01FC01EE0FFF1FEA0DFB1DEE
:14328C00208131812063062F0E94440623EE37E0062F0E9438
:1432A000E606CA010196AC01FC01EE0FFF1FEA0DFB1D208157
:1432B40031812063062F0E944406CA010196AC01FC01EE0FA7
:1432C800FF1FEA0DFB1D208131812063062F0E944406CA0103
:1432DC000196AC01FC01EE0FFF1FEA0DFB1D8081918180637D
:1432F0008883262F07E00E947606CA010196AC01FC01EE0F5C
:14330400FF1FEA0DFB1D208131812063062F0E94440623EE80
:1433180037E0062F0E94E606CA010196AC01FC01EE0FFF1FA0
:14332C00EA0DFB1D208131812063062F0E944406CA01019625
:14334000AC01FC01EE0FFF1FEA0DFB1D208131812063062F9A
:143354000E94440681EE97E099838883262F0AE00E949C06E9
:14336800CA010196AC01FC01EE0FFF1FEA0DFB1D20813181C8
:14337C002063062F0E944406CA010196AC01FC01EE0FFF1F72
:14339000EA0DFB1D208131812063062F0E944406CA010196C1
:1433A4006C01AC01FC01EE0FFF1FEA0DFB1D208131812063FE
:1433B800062F0E9444066F5F7F4F83E090E08617970708F03E
:1433CC0035CF22960E948837249608950E9412370E94933722
:1433E000CE84DF842BE030E00A851B850E943E3758012BE05F
:1433F40030E00A851B850E943C37B80123E030E085010E947D
:143408003C3778010030010751F0C7010130E0E01E0741F03C
:14341C000230E0E01E0739F008C041E050E005C042E050E02C
:1434300002C043E050E02BE030E00C851D850E943E3723E00B
:1434440030E00E943E3778010030010771F0C7010130E0E082
:143458001E07A1F00230E0E01E0701F10330E0E01E0769F12F
:14346C0035C080E290E00A841B848015910570F596018501AB
:1434800007DE2AC081E490E00A841B848015910528F0C00163
:143494008132E0E09E07F0F496018501F7DD1AC08A859B852E
:1434A8008234E0E09E0738F082E690E00A841B84801591059D
:1434BC0068F496018501E6DD09C08A859B858336E0E09E07AA
:1434D00018F496018501DCDD4130E0E05E0749F403E010E060
:1434E4000E940D0804E010E00E940D0810C04230E0E05E072B
:1434F80021F04330E0E05E0741F4002711270E940D0807E0E5
:14350C0010E00E940D086030670729F4242F03E00E945806B3
:1435200031C06230E0E07E0729F4242F05E00E94580628C092
:143534006430E0E07E0729F4242F07E00E9458061FC06630DE
:14354800E0E07E0729F4242F09E00E94580616C06830E0E0A3
:14355C007E0751F4242F0AE00E94580621EE37E0042F0E9459
:14357000E60608C06930E0E07E0721F4242F0BE00E94580662
:143584000E948837249608950E94CE37EF97EF97EF97EF97BC
:143598002C9744275527662777278AE296E0FE01329606E0BB
:1435AC0011E0FA93EA939A938A930E94EF378AE298E09983FE
:1435C0008883222700270E949C062091560D3091570D2F5F71
:1435D4003F4F206300270E9444062AE300270E94440683E03C
:1435E80098E099838883222704E00E949C068EEF97E09983AF
:1435FC008883222707E00E949C068CED97E0998388832227DC
:143610000AE00E949C0687ED97E09983888321E000270E949C
:143624009C0688E398E09983888322E000270E949C0689E010
:1436380098E09983888323E000270E949C06AA24BB2420C0E4
:14364C001501220C331C21012091560D3091570D04E411E0A3
:143660000E946C3788E191E01801280E391EF201E20DF31D9F
:1436740020803180CE010296F201E80FF91F31822082C5016D
:1436880001965C01C5018438E0E09E07D8F29E012E5F3F4FCF
:14369C0000271127F7DC4427552721E003E00E94580603E03A
:1436B00010E00E940D082BC20E943905A02E053609F582E029
:1436C400888321E001E00E94510882E0888322E001E00E9418
:1436D800510882E0888323E001E00E945108002711270E9438
:1436EC000D0804E010E00E940D0883E090E09093610D8093B3
:14370000600D06C28A2D853709F046C04538E0E05E0779F4FF
:1437140082E0888321E001E00E94C10882E0888322E001E097
:143728000E94510844E850E0EEC14638E0E05E0779F482E015
:14373C00888322E001E00E94C10882E0888323E001E00E942D
:14375000510845E850E0DBC18AE090E08417950708F0D5C174
:1437640083E88417950708F4D0C1BA012BE030E08A010E941F
:143778003E379801215030400BE010E00E946C37A801CE01B6
:14378C000296998388839B0121DEBBC18A2D843609F040C0E9
:1437A0004438E0E05E0779F482E0888321E001E00E945108BD
:1437B40082E0888322E001E00E94C10845E850E0A4C1453807
:1437C800E0E05E0779F482E0888322E001E00E94510882E0AE
:1437DC00888323E001E00E94C10846E850E091C14937E0E08F
:1437F0005E0708F08CC1BA012BE030E08A010E943E3798010A
:143804002F5F3F4F0BE010E00E946C37A801CE010296998348
:1438180088839B01DDDD77C18A2D8C3609F049C0BA012BE0C2
:14382C0030E08A010E943C370030010789F482E0888321E0B5
:1438400001E00E94C108002711270E940D0804E010E00E949C
:143854000D0844E850E059C12BE030E08A010E943C376801B1
:14386800C6010230E0E01E0761F00430E0E01E0741F006309D
:14387C00E0E01E0721F00830E0E01E0751F442505040CE01EF
:143890000296998388839B018A019EDD38C14030450709F411
:1438A40034C141505040CE010296998388839B018A0190DDD8
:1438B8002AC18A2D823741F583E890E084179507A0F482E063
:1438CC00888321E001E00E94510882E0888322E001E00E940E
:1438E000510882E0888323E001E00E945108AB0107C0433841
:1438F400E0E05E0718F4BA014F5F5F4FCE01029699838883EA
:143908009B018A0165DDFFC08A2D843709F098C04438E0E084
:14391C005E0709F03EC082E0888321E001E00E94510882E08F
:14393000888322E001E00E94510882E0888323E001E00E94A7
:143944005108002711270E940D0804E010E00E940D080E94D3
:1439580053078BEC97E09983888322E005E00E949C0681E060
:14396C0090E09093590D8093580D84E09093550D8093540D79
:1439800086E09093610D8093600D9E012E5F3F4F0091560D0E
:143994001091570D0E945531B9C04538E0E05E0709F582E077
:1439A800888321E001E00E94510882E0888322E001E00E9431
:1439BC00510882E0888323E001E00E945108002711270E9451
:1439D0000D0804E010E00E940D0883E090E09093610D8093CC
:1439E400600D94C04638E0E05E0709F08EC082E0888321E0B6
:1439F80001E00E94510882E0888322E001E00E94510882E032
:143A0C00888323E001E00E945108002711270E940D0804E0C2
:143A200010E00E940D0881E090E090935B0D80935A0D84E0B1
:143A34009093550D8093540D87E09093610D8093600D64C0E9
:143A48008A2D803399F0813389F0823379F0833369F0843366
:143A5C0059F0853349F0863339F0873329F0883319F08933E7
:143A700009F04DC04438E0E05E0708F048C02BE030E08A01F5
:143A84000E943E3723E030E00E943C370030010731F42A2D3B
:143A9800206301E00E94440605C02A2D206302E00E9444065D
:143AAC00CE010296FA01EE0FFF1FE80FF91F8A2D9927C097AC
:143AC00091838083BA016338E0E07E0750F44F5F5F4FCE01D1
:143AD4000296998388839B018A017CDC16C04338E0E05E072A
:143AE80091F482E0888321E001E00E94C108002711270E948A
:143AFC000D0804E010E00E940D0844E850E063E670E0D4CD80
:143B1000EF96EF96EF96EF962C960C94D7370E94B2372297D9
:143B2400442755278EEB97E099838883222704E00E949C061E
:143B380085EB97E09983888321E004E00E949C068CEA97E055
:143B4C009983888322E004E00E949C06222733270027112712
:143B60000E94760FB8010030010759F481EA8883222703E04A
:143B74000E94760621EC00270E9444060AC081EA8883222776
:143B880003E00E9476062CEC00270E944406442755278AE0AC
:143B9C008883222705E00E94C108DCC00E943905A02E0537EB
:143BB00039F54130E0E05E0729F04230E0E05E0781F0CEC08E
:143BC40088E0888321E005E00E9451088AE08883222705E0F6
:143BD8000E94C10844275527BFC088E0888322E005E00E940C
:143BEC00510888E0888321E005E00E94C10841E050E0B0C0E7
:143C00008A2D843631F54030450729F04130E0E05E0781F03D
:143C1400A5C08AE08883222705E00E94510888E0888321E025
:143C280005E00E94C10841E050E096C088E0888321E005E038
:143C3C000E94510888E0888322E005E00E94C10842E050E062
:143C500087C08A2D853639F54030450749F04130E0E05E07EE
:143C640061F04230E0E05E0779F014C08AE08883222705E084
:143C78000E9451080DC088E0888321E005E00E94510806C056
:143C8C0088E0888322E005E00E94510881E090E09093610D6D
:143CA0008093600D5EC08A2D843709F059C04030450749F0F9
:143CB4004130E0E05E0771F14230E0E05E07B1F14DC060302E
:143CC800670719F461E070E002C066277727798368832227BF
:143CDC003327002711270E945F0F6030670759F481EA88834A
:143CF000222703E00E94760621EC00270E9444062FC081EAFC
:143D04008883222703E00E9476062CEC00270E94440624C047
:143D180088E090E09093610D8093600D888321E005E00E941B
:143D2C00510819C085E090E09093550D8093540D87E09093F9
:143D4000610D8093600D2224332430925B0D20925A0D88E039
:143D5400888322E005E00E94510801C023CF22960C94B93773
:143D680022972090580D3090590D222059F4332049F48DE9BE
:143D7C0097E09983888321E004E00E949C0621C08091580D15
:143D90009091590D8130E0E09E0749F48EE897E09983888331
:143DA40021E004E00E949C0610C08091580D9091590D823063
:143DB800E0E09E0741F48FE797E09983888321E004E00E94C2
:143DCC009C0604EF11E00E944B042090540D3090550D309277
:143DE000610D2092600D229608950E94B237229741E050E058
:143DF40086E797E099838883222702E00E949C0681E797E062
:143E08009983888322E002E00E949C0688E398E0998388834D
:143E1C0022E008E00E949C068AE0888322E009E00E94C10899
:143E300078C00E943905A02E6A2D77276C36E0E07E07A1F0EB
:143E44008CE690E08617970734F06536E0E07E0709F450C03C
:143E580064C06237E0E07E07C9F06437E0E07E0741F15BC06E
:143E6C004130E0E05E0709F056C08AE0888322E009E00E949B
:143E8000510884E0888322E003E00E94C1084427552747C028
:143E94004030450709F043C084E0888322E003E00E94510813
:143EA8008AE0888322E009E00E94C10841E050E034C0403086
:143EBC00450769F484E0888322E003E00E94510889E090E021
:143ED0009093610D8093600D25C08AE0888322E009E00E94E6
:143EE40051082090540D3090550D3092610D2092600D16C019
:143EF80084E0888322E003E00E9451088AE0888322E009E007
:143F0C000E9451082090540D3090550D3092610D2092600D24
:143F200001C087CF22960C94B9370E94B237EF9723974427F8
:143F3400552780E397E0FE01B6960CE110E0FA93EA939A93C4
:143F48008A930E94EF3706E00E944336B80182E090E09987D4
:143F5C008887222433243B862A861B0136942794369427940E
:143F700036942794369427943D862C86CB018F7090709F87CD
:143F84008E8705E00E944336B801CB01969587959695879501
:143F9800969587959695879581709070998B888BCB018F7094
:143FAC0090709B8B8A8B04E00E9443365801B501CB019695C1
:143FC0008795969587959695879596958795837090709D8BE1
:143FD4008C8BCB018F7090709F8B8E8B02E00E94433658015E
:143FE800B501CB019695879596958795969587959695879527
:143FFC0083709070998F888FCB018F7090709B8F8A8F01E090
:144010000E9443365801B501CB0196958795969587959695ED
:14402400879596958795877090709D8F8C8FCB018F7090701C
:144038009F8F8E8F00270E9443365801B501CB0196958795C5
:14404C009695879596958795969587958770907099A388A32D
:14406000CB018F7090709BA38AA3222701E00E94580666275F
:14407400772720C0CE010896FB01EE0FFF1FE80FF91F208186
:144088003181206300270E94440620E200270E944406633034
:14409C00E0E07E0721F06530E0E07E0729F42EE637E0002771
:1440B0000E94E6066F5F7F4F6830E0E07E07E0F221E002E040
:1440C4000E94580668E070E020C0CE010896FB01EE0FFF1FEC
:1440D800E80FF91F20813181206301E00E94440620E20027F9
:1440EC000E9444066930E0E07E0721F06B30E0E07E0729F4E8
:1441000023EE37E000270E94E6066F5F7F4F6E30E0E07E074F
:14411400E0F287ED97E09983888322E003E00E949C0688E31F
:1441280098E09983888322E008E00E949C0644275527222786
:14413C0001E00E94580603E010E00E940D0884C203E010E0EB
:144150000E948C0F0E943905A02E6A2D053771F58DE090E05A
:1441640084179507B8F485E0888322E004E00E9451088AE0A9
:14417800888322E009E00E94510821E002E00E94580603E07C
:14418C0010E00E940D0848E050E05EC287E090E084179507F2
:1441A00008F058C24E30E0E05E0708F053C2222701E00E947D
:1441B4005806442755274CC2643619F587E090E084179507EE
:1441C80088F44E30E0E05E0768F4002711270E940D0885E0ED
:1441DC00888322E004E00E94C1084EE050E034C287E090E048
:1441F0008417950708F42EC221E002E00E94580648E050E05D
:1442040027C26C3609F043C088E090E08417950790F0403020
:14421800450779F0415050402227CE018696FA01EE0FFF1F72
:14422C00E80FF91F008111810E9458060DC288E090E084171A
:14424000950798F44E30E0E05E0778F44150504021E0CE0142
:144254008696FA01EE0FFF1FE80FF91F008111810E94580602
:14426800F5C14F30E0E05E0709F0F0C18AE0888322E009E0DE
:14427C000E94510885E0888322E004E00E94C1084EE050E014
:14429000E1C1623709F03AC04730E0E05E0778F44F5F5F4F88
:1442A4002227CE018696FA01EE0FFF1FE80FF91F008111819A
:1442B8000E945806CBC14D30E0E05E0778F44F5F5F4F21E0FB
:1442CC00CE018696FA01EE0FFF1FE80FF91F008111810E9419
:1442E0005806B8C14E30E0E05E0709F0B3C185E0888322E071
:1442F40004E00E9451088AE0888322E009E00E94C1084FE0DD
:1443080050E0A4C16536B9F4002711270E940D0885E088833E
:14431C0022E004E00E9451088AE0888322E009E00E94510851
:1443300081E090E09093610D8093600D8CC1643709F085C071
:144344004E30E0E05E0709F064C028A139A100E110E00E948F
:144358006C3718014AA05BA0240C351C3F822E822C8D3D8D3B
:14436C0000E110E00E946C3718014E8C5F8C240C351C3D8209
:144380002C82288D398D00E110E00E946C3718014A8C5B8C14
:14439400240C351C3B822A822C893D8900E110E00E946C379A
:1443A80018014E885F88240C351C398228822889398900E1F1
:1443BC0010E00E946C3798012A883B88220D331D2C843D84BA
:1443D00000E110E02F933F9391010E946C3718013F912F91F4
:1443E4004E845F84240C351C81010E9457362224332430927F
:1443F800590D2092580D88E090E09093550D8093540D86E0FD
:14440C009093610D8093600D20C14F30E0E05E0709F01AC132
:14442000002711270E940D0885E0888322E004E00E94510821
:144434008AE0888322E009E00E94510881E090E09093610DB7
:144448008093600D04C1603399F0613389F0623379F063335E
:14445C0069F0643359F0653349F0663339F0673329F0683332
:1444700019F0693309F0EEC04E30E0E05E0708F0E9C0262F53
:14448400206300270E94440620E200270E9444067727603348
:14449800E0E07E0709F42EC06133E0E07E0709F435C0623380
:1444AC00E0E07E0709F43CC06333E0E07E0709F443C064334C
:1444C000E0E07E0709F44AC06533E0E07E0709F451C0663318
:1444D400E0E07E0709F458C06733E0E07E0709F45FC06833E4
:1444E800E0E07E0709F466C06933E0E07E0709F46DC077C016
:1444FC00CE010896FA01EE0FFF1FE80FF91F222433243182CA
:1445100020826BC0CE010896FA01EE0FFF1FE80FF91F81E0D7
:1445240090E0918380835FC0CE010896FA01EE0FFF1FE80F63
:14453800F91F82E090E09183808353C0CE010896FA01EE0FF6
:14454C00FF1FE80FF91F83E090E09183808347C0CE010896D0
:14456000FA01EE0FFF1FE80FF91F84E090E0918380833BC03C
:14457400CE010896FA01EE0FFF1FE80FF91F85E090E09183B8
:1445880080832FC0CE010896FA01EE0FFF1FE80FF91F86E035
:14459C0090E09183808323C0CE010896FA01EE0FFF1FE80F27
:1445B000F91F87E090E09183808317C0CE010896FA01EE0FB5
:1445C400FF1FE80FF91F88E090E0918380830BC0CE0108968F
:1445D800FA01EE0FFF1FE80FF91F89E090E091838083433047
:1445EC00E0E05E0721F04530E0E05E0731F42EE637E0002774
:144600000E94E6060DC04930E0E05E0721F04B30E0E05E07FC
:1446140029F423EE37E000270E94E6064F5F5F4F4830E0E004
:144628005E0731F421E00EA91FA90E9458060EC04E30E0E068
:14463C005E0751F4002711270E940D0885E0888322E004E054
:144650000E94C1087BCDEF9623960C94B937229720905A0D05
:1446640030905B0D222081F4332071F48DE597E0998388839B
:1446780021E004E00E949C0681B5886181BD8EE081BDFFCF2E
:14468C0080915A0D90915B0D8130E0E09E0771F48CE497E0B7
:1446A0009983888321E004E00E949C060091560D1091570DBD
:1446B4000E94BD3102E310E00E944B042090540D3090550D69
:1446C8003092610D2092600D229608950E9453078091600DC0
:1446DC009091610D8130E0E09E0719F40E94A80F52C080919C
:1446F000600D9091610D8230E0E09E0719F40E948B1347C04F
:144704008091600D9091610D8330E0E09E0719F40E94AF140A
:144718003CC08091600D9091610D8430E0E09E0719F40E94BC
:14472C00C61A31C08091600D9091610D8530E0E09E0711F47C
:14474000EED927C08091600D9091610D8630E0E09E0711F48A
:1447540009DB1DC08091600D9091610D8730E0E09E0711F462
:1447680040DB13C08091600D9091610D8830E0E09E0711F420
:14477C00D6DB09C08091600D9091610D8930E0E09E0709F487
:1447900066DF08950A921A922A923A924A925A926A927A9293
:1447A4008A929A920A931A932A933A938A939A93AA93BA9311
:1447B800EA93FA930FB60A920E949E3722974427552789B72B
:1447CC008B7F89BF87B78F7B87BF80916B0D90916C0D01963F
:1447E00090936C0D80936B0D89E190E020906B0D30906C0D63
:1447F4008215930508F027C32224332430926C0D20926B0D9E
:1448080020901601309017013982288225E830E001E010E0AA
:14481C000E945F0F2090160130901701C1018130E0E09E0701
:1448300029F08330E0E09E0709F0AFC0209020023090210226
:144844003982288226E830E001E010E00E945F0F2090220228
:1448580030902302232C33243982288227E830E001E010E06C
:14486C000E945F0F809122029091230290709983888328E876
:1448800030E001E010E00E945F0F2090240230902502232C27
:1448940033243982288229E830E001E010E00E945F0F809141
:1448A8002402909125029070998388832AE830E001E010E074
:1448BC000E945F0F2090260230902702232C3324398228820C
:1448D0002BE830E001E010E00E945F0F80912602909127024D
:1448E4009070998388832CE830E001E010E00E945F0F2090E4
:1448F8002A0230902B02398228822DE830E001E010E00E9496
:14490C005F0F20902C0230902D02232C3324398228822EE83B
:1449200030E001E010E00E945F0F80912C0290912D02907003
:14493400998388832FE830E001E010E00E945F0F2091380255
:144948003091390200913602109137020E94B9381801232CC1
:14495C00332427FC30943982288220E930E001E010E00E9418
:144970005F0F209138023091390200913602109137020E9499
:14498400B938C80190709983888321E930E001E010E00E94B1
:144998005F0F20905A0230905B023982288225E830E002E010
:1449AC0010E00E945F0F80915A0290915B028130E0E09E07F6
:1449C00029F08330E0E09E0709F0AFC020906403309065030B
:1449D4003982288226E830E002E010E00E945F0F2090660351
:1449E80030906703232C33243982288227E830E002E010E095
:1449FC000E945F0F809166039091670390709983888328E85B
:144A100030E002E010E00E945F0F2090680330906903232C0A
:144A240033243982288229E830E002E010E00E945F0F8091AE
:144A38006803909169039070998388832AE830E002E010E057
:144A4C000E945F0F20906A0330906B03232C332439822882F0
:144A60002BE830E002E010E00E945F0F80916A0390916B0330
:144A74009070998388832CE830E002E010E00E945F0F209051
:144A88006E0330906F03398228822DE830E002E010E00E9479
:144A9C005F0F2090700330907103232C3324398228822EE820
:144AB00030E002E010E00E945F0F80917003909171039070E7
:144AC400998388832FE830E002E010E00E945F0F20917C037E
:144AD80030917D0300917A0310917B030E94B9381801232C61
:144AEC00332427FC30943982288220E930E002E010E00E9486
:144B00005F0F20917C0330917D0300917A0310917B030E94F3
:144B1400B938C80190709983888321E930E002E010E00E941E
:144B28005F0F20909E0330909F033982288225E830E003E0F3
:144B3C0010E00E945F0F80919E0390919F038130E0E09E07DA
:144B500029F08330E0E09E0709F0AFC02090A8043090A904EF
:144B64003982288226E830E003E010E00E945F0F2090AA0479
:144B78003090AB04232C33243982288227E830E003E010E0BD
:144B8C000E945F0F8091AA049091AB0490709983888328E83F
:144BA00030E003E010E00E945F0F2090AC043090AD04232CEE
:144BB40033243982288229E830E003E010E00E945F0F80911C
:144BC800AC049091AD049070998388832AE830E003E010E03B
:144BDC000E945F0F2090AE043090AF04232C332439822882D5
:144BF0002BE830E003E010E00E945F0F8091AE049091AF0414
:144C04009070998388832CE830E003E010E00E945F0F2090BE
:144C1800B2043090B304398228822DE830E003E010E00E945C
:144C2C005F0F2090B4043090B504232C3324398228822EE804
:144C400030E003E010E00E945F0F8091B4049091B5049070CA
:144C5400998388832FE830E003E010E00E945F0F2091C004A6
:144C68003091C1040091BE041091BF040E94B9381801232C00
:144C7C00332427FC30943982288220E930E003E010E00E94F3
:144C90005F0F2091C0043091C1040091BE041091BF040E944E
:144CA400B938C80190709983888321E930E003E010E00E948C
:144CB8005F0F2090E2043090E3043982288225E830E004E0D7
:144CCC0010E00E945F0F8091E2049091E3048130E0E09E07BF
:144CE00029F08330E0E09E0709F0AFC02090EC053090ED05D4
:144CF4003982288226E830E004E010E00E945F0F2090EE05A2
:144D08003090EF05232C33243982288227E830E004E010E0E5
:144D1C000E945F0F8091EE059091EF0590709983888328E823
:144D300030E004E010E00E945F0F2090F0053090F105232CD1
:144D440033243982288229E830E004E010E00E945F0F809189
:144D5800F0059091F1059070998388832AE830E004E010E01E
:144D6C000E945F0F2090F2053090F305232C332439822882B9
:144D80002BE830E004E010E00E945F0F8091F2059091F305F7
:144D94009070998388832CE830E004E010E00E945F0F20902C
:144DA800F6053090F705398228822DE830E004E010E00E9440
:144DBC005F0F2090F8053090F905232C3324398228822EE8E9
:144DD00030E004E010E00E945F0F8091F8059091F9059070AE
:144DE400998388832FE830E004E010E00E945F0F20910406CE
:144DF8003091050600910206109103060E94B9381801232C9D
:144E0C00332427FC30943982288220E930E004E010E00E9460
:144E20005F0F209104063091050600910206109103060E94A4
:144E3400B938C80190709983888321E930E004E010E00E94F9
:144E48005F0F80911601909117018130E0E09E0709F073C144
:144E5C00409120025091210220902A0230902B02222009F047
:144E700044C0332009F041C0809124029091250201969093A4
:144E840025028093240220902202309023028215930568F07A
:144E9800CA010196909321028093200281E090E090932B0208
:144EAC0080932A0248C140FF01C045C180912802909129021D
:144EC0000196909329028093280220902602309027022816BD
:144ED400390608F034C180912C0290912D02019690932D0226
:144EE80080932C0222243324309229022092280224C12224E4
:144EFC00332430922B0220922A02309225022092240240FF7E
:144F1000BDC09A0121503040369527950BE010E00E946C37ED
:144F2400A80188E191E0FA013296EE0FFF1FE80FF91F208168
:144F380031810AE010E00E946C37980188E191E0FA0133965D
:144F4C00EE0FFF1FE80FF91F20803180220D331D0CE310E078
:144F60000E946C37180188E191E0FA01EE0FFF1FE80FF91FE0
:144F7400208131810AE010E00E946C37980188E191E0FA0149
:144F88003196EE0FFF1FE80FF91F40805180240D351D00E12F
:144F9C001EE00E946C372801420C531C5092230240922202DB
:144FB000442049F4552039F484E090E0909317018093160171
:144FC400BEC088E191E0FA013996EE0FFF1FE80FF91F2081EC
:144FD80031810AE010E00E946C37180188E191E0FA01389638
:144FEC00EE0FFF1FE80FF91F2081318104E610E00E946C3715
:145000002801420C531C88E191E0FA013A96EE0FFF1FE80FFF
:14501400F91F20803180420C531C50922D0240922C020091C0
:145028002202109123020E94EB381801290100912C02109122
:14503C002D020E94EB388AE392E09A938A930E949E38810149
:1450500092010E9418390E94B9381093270200932602222466
:145064003324309229022092280200912C0210912D020E94E7
:14507800EB38109337020093360230933902209338025BC054
:14508C009A0121503040369527950BE010E00E946C37A80144
:1450A0004C5F5F4F88E191E0FA013296EE0FFF1FE80FF91FDC
:1450B400208131810AE010E00E946C37980188E191E0FA0108
:1450C8003396EE0FFF1FE80FF91F20803180220D331D0CE322
:1450DC0010E00E946C37180188E191E0FA01EE0FFF1FE80F8B
:1450F000F91F208131810AE010E00E946C37980188E191E0AF
:14510400FA013196EE0FFF1FE80FF91F40805180240D351D97
:1451180000E11EE00E946C372801420C531C509223024092A0
:14512C002202442041F4552031F484E090E0909317018093F6
:14514000160180915A0290915B028130E0E09E0709F073C116
:14515400409164035091650320906E0330906F03222009F038
:1451680044C0332009F041C08091680390916903019690931F
:14517C0069038093680320906603309067038215930568F06B
:14519000CA010196909365038093640381E090E090936F033E
:1451A40080936E0348C140FF01C045C180916C0390916D0353
:1451B800019690936D0380936C0320906A0330906B032816AE
:1451CC00390608F034C180917003909171030196909371035C
:1451E000809370032224332430926D0320926C0324C122241A
:1451F400332430926F0320926E03309269032092680340FF6F
:14520800BDC09A0121503040369527950BE010E00E946C37F2
:14521C00A8018CE592E0FA013296EE0FFF1FE80FF91F208164
:1452300031810AE010E00E946C3798018CE592E0FA01339659
:14524400EE0FFF1FE80FF91F20803180220D331D0CE310E07D
:145258000E946C3718018CE592E0FA01EE0FFF1FE80FF91FDC
:14526C00208131810AE010E00E946C3798018CE592E0FA0145
:145280003196EE0FFF1FE80FF91F40805180240D351D00E134
:145294001EE00E946C372801420C531C509267034092660356
:1452A800442049F4552039F484E090E090935B0280935A02EC
:1452BC00BEC08CE592E0FA013996EE0FFF1FE80FF91F2081E8
:1452D00031810AE010E00E946C3718018CE592E0FA01389634
:1452E400EE0FFF1FE80FF91F2081318104E610E00E946C371A
:1452F8002801420C531C8CE592E0FA013A96EE0FFF1FE80FFC
:14530C00F91F20803180420C531C509271034092700300913B
:145320006603109167030E94EB381801290100917003109158
:1453340071030E94EB388EE793E09A938A930E949E38810100
:1453480092010E9418390E94B93810936B0300936A032224E1
:14535C00332430926D0320926C0300917003109171030E94D8
:14537000EB3810937B0300937A0330937D0320937C035BC045
:145384009A0121503040369527950BE010E00E946C37A80149
:145398004C5F5F4F8CE592E0FA013296EE0FFF1FE80FF91FD8
:1453AC00208131810AE010E00E946C3798018CE592E0FA0104
:1453C0003396EE0FFF1FE80FF91F20803180220D331D0CE327
:1453D40010E00E946C3718018CE592E0FA01EE0FFF1FE80F87
:1453E800F91F208131810AE010E00E946C3798018CE592E0AB
:1453FC00FA013196EE0FFF1FE80FF91F40805180240D351D9D
:1454100000E11EE00E946C372801420C531C50926703409260
:145424006603442041F4552031F484E090E090935B02809371
:145438005A0280919E0390919F038130E0E09E0709F073C14C
:14544C004091A8045091A9042090B2043090B304222009F029
:1454600044C0332009F041C08091AC049091AD04019690939A
:14547400AD048093AC042090AA043090AB048215930568F05C
:14548800CA0101969093A9048093A80481E090E09093B30474
:14549C008093B20448C140FF01C045C18091B0049091B10489
:1454B00001969093B1048093B0042090AE043090AF0428169F
:1454C400390608F034C18091B4049091B50401969093B50492
:1454D8008093B404222433243092B1042092B00424C1222450
:1454EC0033243092B3042092B2043092AD042092AC0440FF60
:14550000BDC09A0121503040369527950BE010E00E946C37F7
:14551400A80180EA93E0FA013296EE0FFF1FE80FF91F20816F
:1455280031810AE010E00E946C37980180EA93E0FA01339664
:14553C00EE0FFF1FE80FF91F20803180220D331D0CE310E082
:145550000E946C37180180EA93E0FA01EE0FFF1FE80FF91FE7
:14556400208131810AE010E00E946C37980180EA93E0FA0150
:145578003196EE0FFF1FE80FF91F40805180240D351D00E139
:14558C001EE00E946C372801420C531C5092AB044092AA04D1
:1455A000442049F4552039F484E090E090939F0380939E0367
:1455B400BEC080EA93E0FA013996EE0FFF1FE80FF91F2081F3
:1455C80031810AE010E00E946C37180180EA93E0FA0138963F
:1455DC00EE0FFF1FE80FF91F2081318104E610E00E946C371F
:1455F0002801420C531C80EA93E0FA013A96EE0FFF1FE80F07
:14560400F91F20803180420C531C5092B5044092B4040091B6
:14561800AA041091AB040E94EB38180129010091B40410918E
:14562C00B5040E94EB3882EC94E09A938A930E949E388101C6
:1456400092010E9418390E94B9381093AF040093AE0422245C
:1456540033243092B1042092B0040091B4041091B5040E94C9
:14566800EB381093BF040093BE043093C1042093C0045BC036
:14567C009A0121503040369527950BE010E00E946C37A8014E
:145690004C5F5F4F80EA93E0FA013296EE0FFF1FE80FF91FE3
:1456A400208131810AE010E00E946C37980180EA93E0FA010F
:1456B8003396EE0FFF1FE80FF91F20803180220D331D0CE32C
:1456CC0010E00E946C37180180EA93E0FA01EE0FFF1FE80F92
:1456E000F91F208131810AE010E00E946C37980180EA93E0B6
:1456F400FA013196EE0FFF1FE80FF91F40805180240D351DA2
:1457080000E11EE00E946C372801420C531C5092AB04409220
:14571C00AA04442041F4552031F484E090E090939F038093EC
:145730009E038091E2049091E3048130E0E09E0709F073C182
:145744004091EC055091ED052090F6053090F705222009F01A
:1457580044C0332009F041C08091F0059091F1050196909315
:14576C00F1058093F0052090EE053090EF058215930568F04D
:14578000CA0101969093ED058093EC0581E090E09093F705AA
:145794008093F60548C140FF01C045C18091F4059091F505BF
:1457A80001969093F5058093F4052090F2053090F305281690
:1457BC00390608F034C18091F8059091F90501969093F905C8
:1457D0008093F805222433243092F5052092F40524C1222486
:1457E40033243092F7052092F6053092F1052092F00540FF51
:1457F800BDC09A0121503040369527950BE010E00E946C37FD
:14580C00A80184EE94E0FA013296EE0FFF1FE80FF91F20816B
:1458200031810AE010E00E946C37980184EE94E0FA01339660
:14583400EE0FFF1FE80FF91F20803180220D331D0CE310E087
:145848000E946C37180184EE94E0FA01EE0FFF1FE80FF91FE3
:14585C00208131810AE010E00E946C37980184EE94E0FA014C
:145870003196EE0FFF1FE80FF91F40805180240D351D00E13E
:145884001EE00E946C372801420C531C5092EF054092EE054C
:14589800442049F4552039F484E090E09093E3048093E204E2
:1458AC00BEC084EE94E0FA013996EE0FFF1FE80FF91F2081EF
:1458C00031810AE010E00E946C37180184EE94E0FA0138963B
:1458D400EE0FFF1FE80FF91F2081318104E610E00E946C3724
:1458E8002801420C531C84EE94E0FA013A96EE0FFF1FE80F03
:1458FC00F91F20803180420C531C5092F9054092F805009132
:14591000EE051091EF050E94EB38180129010091F8051091C4
:14592400F9050E94EB3886E096E09A938A930E949E3881018C
:1459380092010E9418390E94B9381093F3050093F2052224D7
:14594C0033243092F5052092F4050091F8051091F9050E94BA
:14596000EB38109303060093020630930506209304065BC023
:145974009A0121503040369527950BE010E00E946C37A80153
:145988004C5F5F4F84EE94E0FA013296EE0FFF1FE80FF91FDF
:14599C00208131810AE010E00E946C37980184EE94E0FA010B
:1459B0003396EE0FFF1FE80FF91F20803180220D331D0CE331
:1459C40010E00E946C37180184EE94E0FA01EE0FFF1FE80F8E
:1459D800F91F208131810AE010E00E946C37980184EE94E0B2
:1459EC00FA013196EE0FFF1FE80FF91F40805180240D351DA7
:145A000000E11EE00E946C372801420C531C5092EF054092E0
:145A1400EE05442041F4552031F484E090E09093E304809367
:145A2800E20487B7806487BF89B7846089BF22960E94A3377C
:145A3C0009900FBEF991E991B991A9919991899139912991A0
:145A5000199109919990899079906990599049903990299076
:145A64001990099018950E94B2372297222433243092150186
:145A78002092140182E190E09093130180931201442755273C
:145A8C005AC1209014013090150122FE0FC004E411E09A01ED
:145AA0000E946C3786E191E0F801E80FF91F82E090E09183E7
:145AB400808343C104E411E09A010E946C378AE392E0F80146
:145AC800E80FF91F8091140190911501807F90709695879518
:145ADC00969587959695879596958795009112011091130188
:145AF0000F731070000F111F000F111F000F111F000F111FA4
:145B0400082B192B0E94EB38008311832283338304E411E006
:145B18009A010E946C3786E191E0F801E80FF91F80819181A6
:145B2C008130E0E09E0709F0A0C0662777273FC004E411E0F3
:145B40009A010E946C3718018AE392E0280E391E3101F101C8
:145B540020803180428053808091140190911501807F9070FB
:145B6800969587959695879596958795969587950091120169
:145B7C00109113010F731070000F111F000F111F000F111FA1
:145B9000000F111F082B192B0E94EB383A932A931A930A93B2
:145BA400810192010E947E38F30100831183228333836F5F4C
:145BB8007F4F6930E0E07E0708F4BCCF04E411E09A010E9490
:145BCC006C3718018AE392E0280E391E3101F1012080318028
:145BE0004280538008E910E00E9458373A932A931A930A9336
:145BF400810192010E941839F301008311832283338304E447
:145C080011E09A010E946C3780E292E0F801E80FF91F20803B
:145C1C00318020FE01C08DC004E411E09A010E946C37580185
:145C300086E392E0F501E80FF91F00811181228133818AE3A9
:145C440092E01501280E391E3A922A920E9489381801290109
:145C580008E910E00E9458373A932A931A930A93810192013D
:145C6C000E94BB3A0CF065C064C004E411E09A010E946C378F
:145C800086E191E0F801E80FF91F808191818530E0E09E0703
:145C940009F035C004E411E09A010E946C3786E191E0F80184
:145CA800E80FF91F81E090E09183808304E411E09A010E94DB
:145CBC006C3780E292E0F801E80FF91F81E090E0918380836D
:145CD00004E411E09A010E946C378AE292E0F801E80FF91F21
:145CE40081E090E09183808385E09983888325E830E08A0190
:145CF8000F5F1F4F0E945F0F1EC004E411E09A010E946C3715
:145D0C0086E191E0F801E80FF91F808191818230E0E09E0779
:145D200071F404E411E09A010E946C3786E191E0F801E80F89
:145D3400F91F22243324318220824F5F5F4F4430E0E05E075C
:145D480008F4A1CE22960C94B9370E94A8374427552768C103
:145D5C0004E411E09A010E946C3786E191E0F801E80FF91F9A
:145D700022243324318220826627772715C004E411E09A01B9
:145D84000E946C37180188E191E0280E391EFB01EE0FFF1F2F
:145D9800E20DF31D22243324318220826F5F7F4F6438E0E00E
:145DAC007E0738F304E411E09A010E946C3780E292E0F801AD
:145DC000E80FF91F222433243182208204E411E09A010E94B8
:145DD4006C3782E292E0F801E80FF91F222433243182208248
:145DE80004E411E09A010E946C3784E292E0F801E80FF91F0E
:145DFC00222433243182208204E411E09A010E946C3786E280
:145E100092E0F801E80FF91F222433243182208204E411E039
:145E24009A010E946C3788E292E0F801E80FF91F2224332409
:145E38003182208204E411E09A010E946C378AE292E0F80171
:145E4C00E80FF91F81E090E09183808304E411E09A010E9435
:145E60006C378CE292E0F801E80FF91F2224332431822082B1
:145E740004E411E09A010E946C378EE292E0F801E80FF91F77
:145E8800222433243182208204E411E09A010E946C3780E3F8
:145E9C0092E0F801E80FF91F222433243182208204E411E0AD
:145EB0009A010E946C3782E392E0F801E80FF91F2224332482
:145EC4003182208204E411E09A010E946C3784E392E0F801EA
:145ED800E80FF91F222433243182208204E411E09A010E949F
:145EEC006C3786E392E0F801E80FF91F04E910E00E9458370E
:145F0000008311832283338304E411E09A010E946C378AE3F5
:145F140092E0F801E80FF91F04E910E00E94583700831183DA
:145F28002283338304E411E09A010E946C378EE392E0F80175
:145F3C00E80FF91F04E910E00E9458370083118322833383C2
:145F500004E411E09A010E946C3782E492E0F801E80FF91FA4
:145F640004E910E00E945837008311832283338304E411E0D0
:145F78009A010E946C3786E492E0F801E80FF91F04E910E074
:145F8C000E945837008311832283338304E411E09A010E9448
:145FA0006C378AE492E0F801E80FF91F04E910E00E94583754
:145FB400008311832283338304E411E09A010E946C378EE43C
:145FC80092E0F801E80FF91F04E910E00E9458370083118326
:145FDC002283338304E411E09A010E946C3782E592E0F801CB
:145FF000E80FF91F04E910E00E94583700831183228333830E
:1460040004E411E09A010E946C3786E592E0F801E80FF91FEA
:1460180000E910E00E94583700831183228333834F5F5F4F9C
:14602C004430E0E05E0708F493CE0C94AD370E94CE374427D4
:1460400055272CC1222733278A010F5F1F4F0E94760FB801F9
:146054000130E0E01E0709F01DC125E830E08A010F5F1F4FC7
:146068000E94760F180104E411E09A010E946C3786E191E053
:14607C00F801E80FF91F3182208204E411E09A010E946C37FA
:1460900086E191E0F801E80FF91F608171816130E0E07E0773
:1460A40029F06330E0E07E0709F0D1C026E830E08A010F5F56
:1460B8001F4F0E94760F580104E411E09A010E946C3780E2CB
:1460CC0092E0F801E80FF91FB182A08227E830E08A010F5FD9
:1460E0001F4F0E94760F680128E830E08A010F5F1F4F0E9485
:1460F400760F580104E411E09A010E946C3782E292E0F80132
:14610800E80FF91F1601322C22242A283B283182208229E89E
:14611C0030E08A010F5F1F4F0E94760F68012AE830E08A01BB
:146130000F5F1F4F0E94760F580104E411E09A010E946C3746
:1461440084E292E0F801E80FF91F1601322C22242A283B28F7
:14615800318220822BE830E08A010F5F1F4F0E94760F6801C4
:14616C002CE830E08A010F5F1F4F0E94760F580104E411E03B
:146180009A010E946C3786E292E0F801E80FF91F1601322CD4
:1461940022242A283B28318220822DE830E08A010F5F1F4F1B
:1461A8000E94760F580104E411E09A010E946C378AE292E0CC
:1461BC00F801E80FF91FB182A0822EE830E08A010F5F1F4FE5
:1461D0000E94760F68012FE830E08A010F5F1F4F0E94760F76
:1461E400580104E411E09A010E946C378CE292E0F801E80FC5
:1461F800F91F1601322C22242A283B283182208220E930E09D
:14620C008A010F5F1F4F0E94760F680121E930E08A010F5F74
:146220001F4F0E94760F580104E411E09A010E946C3786E35A
:1462340092E0F801E80FF91F8601102F00270A291B290E94D6
:14624800EB380083118322833383662777271CC09B012F5F7C
:14625C003F4F8A010F5F1F4F0E94760F580104E411E09A0145
:146270000E946C37180188E191E0280E391EFB01EE0FFF1F3E
:14628400E20DF31DB182A0826F5F7F4F6438E0E07E0700F342
:146298004F5F5F4F4430E0E05E0708F4CFCE0C94D7370E9414
:1462AC00B2375901B801229704E411E09B010E946C3786E108
:1462C00091E0F801E80FF91F86E090E09183808381E09983E7
:1462D4008883222733278B010F5F1F4F0E945F0F86E090E0BA
:1462E8009983888325E830E08B010F5F1F4F0E945F0F44277B
:1462FC00552735C01A01220C331C210104E411E09B010E944C
:146310006C37180188E191E0280E391EF201E20DF31DD20191
:14632400AA0DBB1D2D903C903182208204E411E09B010E94E1
:146338006C37180188E191E0280E391EFA01EE0FFF1FE20D29
:14634C00F31D20803180398228829A012F5F3F4F8B010F5FC6
:146360001F4F0E945F0F4F5F5F4F4438E0E05E0708F4C6CF1D
:1463740022960C94B9370E94A837A801229704E411E09A0176
:146388000E946C3786E191E0F801E80FF91F2224332431828C
:14639C00208204E411E09A010E946C3780E292E0F801E80FCE
:1463B000F91F222433243182208204E411E09A010E946C3716
:1463C4008AE292E0F801E80FF91F81E090E09183808304E40F
:1463D80011E09A010E946C378CE292E0F801E80FF91F2224B2
:1463EC0033243182208204E411E09A010E946C378EE292E056
:14640000F801E80FF91F222433243182208204E411E09A011A
:146414000E946C3784E392E0F801E80FF91F222433243182FE
:14642800208204E411E09A010E946C3782E492E0F801E80F3D
:14643C00F91F04E910E00E945837008311832283338304E4CC
:1464500011E09A010E946C3786E492E0F801E80FF91F04E996
:1464640010E00E945837008311832283338322243324398239
:146478002882222733278A010F5F1F4F0E945F0F22243324AF
:14648C003982288225E830E08A010F5F1F4F0E945F0F662776
:1464A00077271FC004E411E09A010E946C37180188E191E0BF
:1464B400280E391EFB01EE0FFF1FE20DF31D222433243182E1
:1464C8002082398228829B012F5F3F4F8A010F5F1F4F0E94F8
:1464DC005F0F6F5F7F4F6438E0E07E07E8F22224332439828F
:1464F000288226E830E08A010F5F1F4F0E945F0F22243324BC
:146504003982288227E830E08A010F5F1F4F0E945F0F222442
:1465180033243982288228E830E08A010F5F1F4F0E945F0F1C
