:040000000C94200438
:040028000C94880CA0
:040038000C94370CE1
:040040000C94E90B28
:040074000C94D90C03
:14008C003230006EB7B4B0D7B2E2CAD4B5DAD2BBB4CE0000CE
:1400A000000000000000000000002F0F00000000000000000E
:1400B40000000000000000000000000000001E31C800000021
:1400C800000000000000000000000000000000000003C00061
:1400DC003C00000000000000000000000000000000000000D4
:1400F000000780000E00000000000000000000000000000067
:1401040000000000000E0000030000000000000000000000D6
:1401180000000000000000000018000001800000000000003A
:14012C0000000000000000000000000000100000008000002F
:1401400000000000000000000000000000000000002000008B
:14015400004000000000000000000000000000000000000057
:140168000040FC01FC2000000000000000000000000000002A
:14017C00000000000042030603000000000000000000000021
:1401900000000000000000000084008C0090000000000000BB
:1401A40000000000000000000000000000898441FC480000B5
:1401B8000000000000000000000000000000000000120233EC
:1401CC000628000000000000000000000000000000000000F1
:1401E000012685040320000000000000000000000000000038
:1401F400000000000166018C019C0000000000000000000066
:14020800000000000000000003C8008A0094000000000000F9
:14021C00000000000000000000000000024D004C0010000023
:140230000000000000000000000000000000000002CD008962
:14024400009600000000000000000000000000000000000010
:14025800024F008A0092000000000000000000000000000025
:14026C00000000000260000800940000000000000000000080
:1402800000000000000000000324008401240000000000009A
:140294000000000000000000000000000012013202240000EB
:1402A800000000000000000000000000000000000119865151
:1402BC008C440000000000000000000000000000000000005E
:1402D000010C70887084000000000000000000000000000021
:1402E4000000000001020306030400000000000000000000F3
:1402F800000000000000000001003000780400000000000045
:14030C000000000000000000000000000100000000040000D8
:140320000000000000000000000000000000000001000000C8
:140334000004000000000000000000000000000000000000B1
:1403480001000000000400000000000000000000000000009C
:14035C00000000000100000020040000000000000000000068
:14037000000000000000000001000000A004000000000000D4
:1403840000000000000000000000000000000089A004000038
:1403980000000000000000000000000000000000020000F15E
:1403AC00C00400000000000000000000000000000000000079
:1403C0000300007F800800000000000000000000000000001F
:1403D4000000000000C0000000100000000000000000000045
:1403E80000000000000000000020000000620000000000007F
:1403FC0000000000000000000000000002180000018600004C
:140410000000000000000000000000000000000004877FFFCF
:14042400C309000000000000000000000000000000000000F8
:140438000861000002108000000000000000000000000000B5
:14044C0000000000103C0000026040000000000000000000AE
:140460000000000000000000100E000003C020000000000087
:140474000000000000000000000000000202000001822000CD
:14048800000000000000000000000000000000002200043109
:14049C008003000000000000000000000000000000000000C9
:1404B000260000788081200000000000000000000000000079
:1404C40000000000200000FC808020000000000000000000E8
:1404D8000000000000000000190001CC8082C0000000000068
:1404EC000000000000000000000000000E0005B48083000032
:1405000000000000000000000000000000000000020004CC15
:140514008082000000000000000000000000000000000000D1
:140528000188067900C60000000000000000000000000000F1
:14053C000000000003F8020200FE00000000000000000000AE
:1405500000000000000000000200008C0040000000000000C9
:14056400000000000000000000000000020800000000000079
:14057800000000000000000000000000000000000018000057
:14058C0000400000000000000000000000000000000000001B
:1405A0000130000000220000000000000000000000000000F4
:1405B4000000000000200000001400000000000000000000FF
:1405C80000000000000000000080000000000000000000009F
:1405DC000000000000000000000000000040000000100000BB
:1405F0000000000000000000000000000000000000300000C7
:140604000020000000000000000000000000000000000000C2
:140618000008000000C0000000000000000000000000000006
:14062C00000000000000EFFFDE0000000000000000000000EE
:14064000000000000000000000002030100000000000000046
:14065400000000000000000000000000000030303000000002
:14066800000000000000000000000000000000000000403806
:14067C00180000000000000000000000000000000000000052
:1406900000000000080000000000000000000000000000004E
:1406A400000000000000000100020003000400060007000922
:1406B800000A00020003000500060008000900CAFDBEDDD6CB
:1406CC00D8D6C3D6D0A1A3A1A3A1A300CFB5CDB3D6D8D6C3EC
:1406E000D6D0A1A3A1A3A1A3003A20002D2000C8B7C8CF00D7
:1406F400CAC7B7F1D6D8D6C300CEC2B6C8B1A3B4E6CAA7B055
:14070800DCA3A100CEC2B6C8B1A3B4E6B3C9B9A6A3A100CAD8
:14071C00B1BCE4B1A3B4E6B3C9B9A6A3A100D6D8D6C3CFB5A0
:14073000CDB300C9E8D6C3CAB1BCE400B6CFB5E7D7D4B6AF9F
:14074400D6D8D6C30030313A203135202030313A20313220BB
:140758003135300030313A203332202030313A20303020312B
:14076C00300030313A203030202030313A2030302031303022
:1407800000B1A3B4E600CEC2B6C800BAE3CEC200C9FDCEC2E6
:1407940000200020313A313000BDD7B6CE310031303000D695
:1407A800D8D6C300D4CBD0D000B1E0BCAD00D7B4CCAC3A0056
:1407BC00CEC2B6C83A005400C8A1CFFB00BBD6B8B400CAC7CC
:1407D000B7F1BBD6B8B4C9CFB4CEB9A4D7F700BCD3D4D800F0
:1407E400B5C8B4FD00BDE1CAF800D4DDCDA300B9CAD5CF002B
:1407F80031353000CDA3D6B900C9E8D6C300CDA3D6B92020CF
:14080C00202000BFAACABC20202020002054343AB9CAD5CF20
:14082000002054333ACDA3D6B9002054323A383030002054F8
:14083400313A31303000CAB1BCE43A00CFEFD0E1CDBFDEBFC7
:14084800CE51D0400AEA08830024E4EBF8E01DE0EF37F10708
:14085C0011F00192FBCF0083ECE8F0E0A0E0B1E018E000E01A
:140870000BBFE034F10721F0C89531960D92F9CF0E94640BF1
:14088400FFCF000F111F0150104081E090E080179107C8F3F7
:1408980008954A935A93A8014150504005E714E0EEDF81E00D
:1408AC0090E084179507B0F35991499108954A935A93A8011A
:1408C0004150504008EE13E0E8DF81E090E084179507B0F3A8
:1408D400599149910895AA924A9392989098929A48E00AC026
:1408E8009098A02E00FF02C0919A01C091980695909A4A958C
:1408FC0080E0841798F348E00AC09098A22E20FF02C0919A6C
:1409100001C091982695909A4A9580E0841798F3929849919B
:14092400A99008950E94071EC02EAA2492989098929A48E0C0
:140938000AC0EC2CC0FE02C0919A01C091989098C694909A88
:14094C004A9580E0841798F381B38D7F81BB44270EC0909A53
:14096000909801E010E00E944D0400B302700695142F0E94F2
:14097400591EA02A4395483080F381B3876081BB92980A2DB3
:140988000C94F11D81B3876081BB222422BA22270EE89FDF77
:14099C00222700E89CDF20E502E899DF21E904E896DF20E8C1
:1409B0000EE893CFAA924A93219705E8B5DF07FF48C005E88E
:1409C400B1DF802F82958F708170B9F005E8AADFA02E8A2D35
:1409D80082958F7081708063888321E000270E94260805E831
:1409EC009DDF402F242F2F70206301E00E94F4070FC080E2E8
:140A0000888321E000270E94260805E88DDF402F242F2F7025
:140A1400206301E00E94F40705E884DFA02E05FF0BC080E57B
:140A2800888321E005E00E9426082DE401E00E94F40721C089
:140A3C0081E4888321E005E00E9426082DE401E00E94F407F1
:140A500016C005E869DFA02E8A2D82958F708370806388830B
:140A640021E000270E94260805E85CDF402F242F2F7020637A
:140A780001E00E94F4078AE3888321E001E00E94260803E8D7
:140A8C004DDFA02E2A2D22952F70206301E00E94F40703E8C3
:140AA00043DF402F242F2F70206301E00E94F4072AE301E0D0
:140AB4000E94F40701E836DFA02E2A2D22952F70206301E0B4
:140AC8000E94F40701E82CDF402F242F2F70206301E00E9422
:140ADC00F40721964991A990089501E010E0089501E010E065
:140AF000089501E010E0089501E010E0089501E010E008950B
:140B040001E010E0089501E010E0089508950E94321E580119
:140B180020E031E00A2D0E9496080DE801DF202F22952F70C7
:140B2C002F7020630A2D0E94F4070DE8F7DE202F2F70206384
:140B40000A2D0E94F4072DE20A2D0E94F40709E8EBDEC02E42
:140B54002C2D22952F70217020630A2D0E94F40709E8E0DE47
:140B6800402F242F2F7020630A2D0E94F4072DE20A2D0E94D9
:140B7C00F40707E8D3DEC02E2C2D22952F70237020630A2DE0
:140B90000E94F40707E8C8DE402F242F2F7020630A2D0E9462
:140BA400F40720E20A2D0E94F40705E8BBDEC02E2C2D2295E8
:140BB8002F70237020630A2D0E94F40705E8B0DE402F242F63
:140BCC002F7020630A2D0E94F4072AE30A2D0E94F40703E853
:140BE000A3DEC02E2C2D22952F7020630A2D0E94F40703E8A1
:140BF40099DE402F242F2F7020630A2D0E94F4072AE30A2D7A
:140C08000E94F40701E88CDEC02E2C2D22952F7020630A2D91
:140C1C000E94F40701E882DE402F242F2F7020630A2D0E9421
:140C3000F4070C94391E08954A935A9380EE84BB8091640035
:140C44008061809364008FED85BB80916500806180936500B9
:140C580001E010E00E94430443B355274F3CE0E05E07E9F0D3
:140C6C004F3CE0E05E07DCF0473DE0E05E0799F04B3DE0E07E
:140C80005E0769F04D3DE0E05E0739F04E3DE0E05E0709F021
:140C94000AC005E699C001E697C004E695C005E793C00CE690
:140CA80091C08FEB85BB8091650080618093650001E010E08D
:140CBC000E94430443B355274F3AE0E05E07E9F04F3AE0E0F9
:140CD0005E07DCF0473BE0E05E0799F04B3BE0E05E0769F0AB
:140CE4004D3BE0E05E0739F04E3BE0E05E0709F00AC003E7CB
:140CF80069C002E767C004E765C003E663C00BE261C08FE70F
:140D0C0085BB8091650080618093650001E010E00E9443040A
:140D200043B355274F36E0E05E07E9F04F36E0E05E07DCF054
:140D34004737E0E05E0799F04B37E0E05E0769F04D37E0E03B
:140D48005E0739F04E37E0E05E0709F00AC000E339C003E3DA
:140D5C0037C002E335C001E333C006E331C08FEF85BB809132
:140D700065008F708093650001E010E00E94430443B3552767
:140D84004F3EE0E05E07E9F04F3EE0E05E07DCF0473FE0E00C
:140D98005E0799F04B3FE0E05E0769F04D3FE0E05E0739F077
:140DAC004E3FE0E05E0709F00AC007E309C008E307C009E36D
:140DC00005C004E303C005E301C00EE6599149910895AA9276
:140DD4004A9330DF402F02E010E00E944D042ADFA02E4017BD
:140DE80061F44E3651F020900301241611F40EE608C040935B
:140DFC000301042F04C08EE6809303010EE64991A9900895B9
:140E10004A935A9322242ABA809165008D7F809365008091CF
:140E240065008160809365008091650088608093650001E045
:140E380010E00E94430449B35527407850708FEF8ABB809109
:140E4C006500877F809365008A01599149910895AA92A02EB9
:140E6000D7DF00300107E1F7809165008D7F809365008091AD
:140E740065008E7F8093650080916500877F80936500ABBA27
:140E88008091650088608093650001E010E00E9443048091B5
:140E9C006500877F80936500A9900895AA92A02EB1DF0030BF
:140EB0000107E1F780916500826080936500809165008E7FFB
:140EC4008093650080916500877F80936500ABBA80916500D3
:140ED80088608093650001E010E00E94430480916500877F70
:140EEC0080936500A990089501E0B2DF01E010E00C944D0470
:140F00004A935A9322242ABA809165008D7F809365008091DE
:140F140065008160809365008091620081608093620001E061
:140F280010E00E94430449B35527407850708FEF8ABB809118
:140F3C0062008E7F809362008A01599149910895AA92A02EC7
:140F5000D7DF00300107E1F7809165008D7F809365008091BC
:140F640065008E7F80936500809162008E7F80936200ABBA35
:140F78008091620081608093620001E010E00E9443048091D1
:140F8C0062008E7F80936200A9900895AA92A02EB1DF0030CD
:140FA0000107E1F780916500826080936500809165008E7F0A
:140FB40080936500809162008E7F80936200ABBA80916200E4
:140FC80081608093620001E010E00E944304809162008E7F85
:140FDC0080936200A990089501E0B2CFAA924A93A22E402FFC
:140FF000442311F0413019F40A2D56DF06C0423011F04330EF
:1410040011F40A2DC7DF4991A99008954A936A93622F402F6C
:14101800662321F4042F00581DDF11C0613021F4042F00579E
:14102C0017DF0BC0623021F4042F005889DF05C0633019F4F0
:14104000042F005783DF6991499108950E94241E622F402F5B
:14105400AE80662331F4042F0058FEDE0A2D22DF17C06130A5
:1410680031F4042F0057F6DE0A2D1ADF0FC0623031F4042F08
:14107C00005866DF0A2D8ADF07C0633029F4042F00575EDFE5
:141090000A2D82DF0C942B1E0E94241EA22E602F4E815F81D9
:1410A400AA2071F4062F0058D7DE05C0FA010081F9DE4F5F01
:1410B8005F4FFA0120802220B9F732C08A2D813071F4062FF5
:1410CC000057C6DE05C0FA010081E8DE4F5F5F4FFA01208017
:1410E0002220B9F721C08A2D823071F4062F00582DDF05C0FD
:1410F400FA0100814FDF4F5F5F4FFA0120802220B9F710C085
:141108008A2D833069F4062F00571CDF05C0FA0100813EDF27
:14111C004F5F5F4FFA0120802220B9F70C942B1E0E941A1E13
:14113000A901602F662311F0613059F405C0FA010081B2DE39
:141144004F5F5F4FFA0120802220B9F70EC0623011F06330BA
:1411580051F405C0FA0100811BDF4F5F5F4FFA0120802220CA
:14116C00B9F70C941F1E4A935A9322242ABA809165008D7F6C
:141180008093650080916500816080936500809165008860B6
:141194008093650001E010E00E944D0449B355274F778FEF4F
:1411A8008ABB80916500877F80936500042F59914991089566
:1411BC004A935A9322242ABA809165008D7F80936500809120
:1411D00065008160809365008091620081608093620001E0A3
:1411E40010E00E944D0449B355274F778FEF8ABB80916200A0
:1411F8008E7F80936200042F59914991089576DEEDCEAA9282
:14120C00BA9222242ABA809165008260809365008091650012
:141220008160809365008091650088608093650001E010E0BA
:141234000E944D04A9B2BB248FEF8ABB80916500877F809327
:1412480065000A2DB990A9900895AA92BA9222242ABA809114
:14125C006500826080936500809165008160809365008091DF
:14127000620081608093620001E010E00E944D04A9B2BB24B4
:141284008FEF8ABB809162008E7F809362000A2DB990A990E5
:1412980008950E94241E622F402F662349F4042F0058D8DDBB
:1412AC000AE010E00E944304AADF24C0613049F4042F0057A6
:1412C000CDDD0AE010E00E9443049FDF19C0623051F4042F4C
:1412D40000583ADE0AE010E00E944304B8DFA02E0DC063300E
:1412E80051F4042F00572EDE0AE010E00E944304ACDFA02EFB
:1412FC0001C000270C942B1EAA92A02E0A2DA8DD7EDFA990B1
:141310000895AA92A02E0A2DA1DD9BDFA99008958AB38F6FE2
:141324008ABB8FEF8BBB809164008F6080936400809165005B
:141338008F6080936500809161008160809361008091620000
:14134C0081608093620000E383DD08E081DD01E07FDD06E08B
:141360007DDD0CE07BDD00E3F1DD08E0EFDD01E0EDDD06E0E5
:14137400EBDD0CE0E9CD4A935A93A8014030450719F40CE0D3
:1413880069DD30C04130E0E05E0719F40EE062DD29C04230F0
:14139C00E0E05E0719F40DE05BDD22C04330E0E05E0719F45F
:1413B0000FE054DD1BC04430E0E05E0719F40CE0C5DD14C026
:1413C4004530E0E05E0719F40EE0BEDD0DC04630E0E05E077D
:1413D80019F40DE0B7DD06C04730E0E05E0711F40FE0B0DD90
:1413EC0059914991089506E333DD06E3A9CD00E32FDD00E362
:14140000A5CD0E94B91D0E94051E622F2197AF848A2D0B8467
:1414140080198F5FC82ECC0CEADF662349F48B858058815027
:14142800888340E880E8A82EE82E22C0613051F48B85805889
:14143C008150888340E980E8A82E80E9E82E16C0623049F435
:141450008B8580588150888340E880E8A82EE82E0BC06330EA
:1414640049F48B8580588150888340E980E8A82E80E9E82E8D
:14147800662311F06130A1F4AA240EC0242E4F5F022DE8DC21
:14148C000881E6DCEE2403C0002708DDE394EC14D8F3A394A7
:1414A0008A2D803178F317C0623011F0633099F4AA240EC03F
:1414B400242E4F5F022D48DD088146DDEE2403C0002768DDE3
:1414C800E394EC14D8F3A3948A2D803178F391DF21960E94FB
:1414DC00FA1D249608950E94B91D0E94051E622F2197AF84D5
:1414F0008A2D0B8480198F5FC82ECC0C7ADF662349F48B851E
:1415040080588150888340E880E8A82EE82E22C0613051F4EB
:141518008B8580588150888340E980E8A82E80E9E82E16C03F
:14152C00623049F48B8580588150888340E880E8A82EE82E9C
:141540000BC0633049F48B8580588150888340E980E8A82ED1
:1415540080E9E82E662311F06130A1F4AA240EC0242E4F5FB8
:14156800022D78DC088176DCEE2403C00FEF98DCE394EC1453
:14157C00D8F3A3948A2D803178F317C0623011F0633099F4FC
:14159000AA240EC0242E4F5F022DD8DC0881D6DCEE2403C0B8
:1415A4000FEFF8DCE394EC14D8F3A3948A2D803178F321DF15
:1415B80021960E94FA1D249608953A932A930E94051EC02E1B
:1415CC0004E346DC04E3BCDC6C2D4A8560684068AA2413C00A
:1415E000242E4F5F022D3ADC062F38DCEE2407C0EC85FD859D
:1415F4000191FD87EC8756DCE3948E2D8831B0F3A3948A2DAC
:14160800803250F36C2D4A8560684068EE2413C0242E4F5F1C
:14161C00022D96DC062F94DCEE2407C0EC85FD850191FD8792
:14163000EC87B2DCE3948E2D8831B0F3A3948A2D803450F332
:1416440006E30ADC06E380DC01E010E00E94430400E302DC03
:1416580000E378DC0E94FA1D22960895229784E091E099838F
:14166C00888323E0002712DD84E091E09983888322270027DA
:141680000BDD87E0888321E001E02BDF08EB1BE00E944D042F
:1416940087E0888321E001E0B2DE82E0888321E002E01DDF12
:1416A8000CE211E00E944D0487E0888322E002E0A4DE85E01F
:1416BC00888321E003E00FDF229608952297222433243092D0
:1416D00018072092170781E090E090931A078093190782E06D
:1416E40090931C0780931B0785E090931E0780931D078FEF15
:1416F80082B978940E9490090E94030983E191E099838883B2
:14170C00222700270E94E10A08EE13E00E944D0482E090E01E
:141720009093750D8093740D8CE08883222701E00E94010A2E
:141734008CE0888321E001E00E94010A8CE0888322E001E041
:141748000E94010A8CE0888323E001E00E94010A02C00E9474
:14175C005A1DFDCF2296089500937C0D20937B0D22242EBC5A
:141770000DBD2CBD2FBC85E08EBD87B7846087BF089500937F
:141784007A0D2093790D222420928A000093890020938800B8
:1417980020928B0085E080938A0080917D00846080937D00FC
:1417AC0008950093780D02BF87B7816087BF87E083BF089508
:1417C0000093770D04BD87B7806487BF85E085BD08950A92F5
:1417D4001A922A923A924A925A926A927A928A929A920A9318
:1417E8001A932A933A938A939A93AA93BA93EA93FA930FB613
:1417FC000A922197222423BE2092760D11C08091760D805DE7
:14181000888323E001E00E94260804E610E00E944D04809127
:14182400760D8F5F8093760D8091760D853058F32090780DE0
:1418380022BE87E083BF219609900FBEF991E991B991A9916E
:14184C00999189913991299119910991999089907990699038
:1418600059904990399029901990099018950A921A922A923D
:141874003A924A925A926A927A928A929A920A931A932A9375
:141888003A938A939A93AA93BA93EA93FA930FB60A92219788
:14189C0022242EBC2092760D11C08091760D805D888323E083
:1418B00003E00E94260804E610E00E944D048091760D8F5F22
:1418C4008093760D8091760D853058F320907C0D2DBC209014
:1418D8007B0D2CBC85E08EBD219609900FBEF991E991B99171
:1418EC00A99199918991399129911991099199908990799057
:14190000699059904990399029901990099018950A921A925F
:141914002A923A924A925A926A927A928A929A920A931A93D5
:141928002A933A938A939A93AA93BA93EA93FA930FB60A92E2
:14193C00219723B0209423B8222425BC2092760D11C080913F
:14195000760D805D888323E000270E94260804E610E00E94A2
:141964004D048091760D8F5F8093760D8091760D853058F372
:141978002090770D24BC85E085BD219609900FBEF991E9917F
:14198C00B991A9919991899139912991199109919990899075
:1419A0007990699059904990399029901990099018950A9262
:1419B4001A922A923A924A925A926A927A928A929A920A9336
:1419C8001A932A933A938A939A93AA93BA93EA93FA930FB631
:1419DC000A92219722242EBC2092760D11C08091760D805DFC
:1419F000888323E002E00E94260804E610E00E944D04809145
:141A0400760D8F5F8093760D8091760D853058F320907A0DFC
:141A1800209289002090790D2092880085E08EBD219609900F
:141A2C000FBEF991E991B991A99199918991399129911991DF
:141A40000991999089907990699059904990399029901990C7
:141A5400099018954A935A9382B18B7F82B91B981C9801E0AE
:141A680010E00E9443044427552720C01B9A0AE010E00E9499
:141A7C00430481B19927847090702090130730901407282A32
:141A9000392A3092140720921307220C331C3092140720922A
:141AA40013071B9801E010E00E9443044F5F5F4F4830E0E013
:141AB8005E07E0F24427552722C01B9A0AE010E00E944304A2
:141ACC0081B19927847090702090150730901607282A392AC2
:141AE0003092160720921507910181010E94521E109316075F
:141AF400009315071B9801E010E00E9443044F5F5F4F4830EE
:141B0800E0E05E07D0F201E010E00E944304599149910895C7
:141B1C004A935A9382B18F7D82B91E981F9801E010E00E9491
:141B300043044427552720C01E9A0AE010E00E94430481B1E6
:141B44009927807290702090130730901407282A392A3092BF
:141B5800140720921307220C331C30921407209213071E98B6
:141B6C0001E010E00E9443044F5F5F4F4830E0E05E07E0F2E0
:141B80004427552722C01E9A0AE010E00E94430481B199271B
:141B9400807290702090150730901607282A392A309216070E
:141BA80020921507910181010E94521E1093160700931507C6
:141BBC001E9801E010E00E9443044F5F5F4F4830E0E05E07AC
:141BD000D0F201E010E00E9443045991499108954A935A935A
:141BE400809161008E7F80936100809162008E7F8093620005
:141BF800809162008B7F8093620001E010E00E9443044427C2
:141C0C00552728C0809162008160809362000AE010E00E941B
:141C2000430480B19927817090702090130730901407282A90
:141C3400392A3092140720921307220C331C30921407209284
:141C48001307809162008E7F8093620001E010E00E944304BF
:141C5C004F5F5F4F4830E0E05E07A0F2442755272AC0809107
:141C700062008160809362000AE010E00E94430480B19927F4
:141C8400817090702090150730901607282A392A309216071E
:141C980020921507910181010E94521E1093160700931507D5
:141CAC00809162008E7F8093620001E010E00E9443044F5FC7
:141CC0005F4F4830E0E05E0790F201E010E00E94430459919F
:141CD400499108954A935A9380916100877F809361008091BE
:141CE80062008F7E80936200809162008F7D8093620001E02F
:141CFC0010E00E9443044427552728C08091620080618093C5
:141D100062000AE010E00E94430480B1992780789070209001
:141D2400130730901407282A392A3092140720921307220C2A
:141D3800331C3092140720921307809162008F7E80936200AA
:141D4C0001E010E00E9443044F5F5F4F4830E0E05E07A0F23E
:141D6000442755272AC0809162008061809362000AE010E0FB
:141D74000E94430480B19927807890702090150730901607E0
:141D8800282A392A3092160720921507910181010E94521EBF
:141D9C001093160700931507809162008F7E8093620001E0EE
:141DB00010E00E9443044F5F5F4F4830E0E05E0790F201E0EA
:141DC40010E00E94430459914991089581B3877081BB00B3B7
:141DD800087F08958FEF84BB05BB08950E94101E5901A801E6
:141DEC008FEF84BB4030450771F401E010E095010E94521E8C
:141E000018012094309445B255244220532045BA0EC04130BA
:141E1400E0E05E0751F401E010E095010E94521E25B23324A9
:141E2800202A312A25BA0C94151EAA92BA92580101E010E09D
:141E3C0095010E94521E23B23324202231228101B990A99025
:141E500008958EE08093950083E089B92224209290002BB8BB
:141E640088E18AB908955D9BFECF0CB9089500271127222455
:141E780020927E0D0BC00030EDE71E0729F481E080937E0D09
:141E8C0001E005C00F5F1F4F5F9BF3CF0CB10895AA924A9391
:141EA0003EC0E7DF0093100B023009F038C041E00FC0DFDFEB
:141EB40080E19BE0E42FFF27E80FF91F008380917E0D813026
:141EC80011F401E029C04395453078F32090140B3324309297
:141EDC00B7082092B60845E010C0C5DFA02E80E19BE0E42F6D
:141EF000FF27E80FF91FA08280917E0D813011F401E00EC086
:141F040043958091B6089091B7080696242E33242816390680
:141F180030F3002701C0C1CF4991A99008950E94091E690137
:141F2C007801AA2407C0EA2DFF27EE0DFF1D008196DFA39412
:141F40002A2C33242C143D04A0F30C94EA1D0E94401EC884D9
:141F54004FEF5FEFAA241BC0EA2DFF27E00FF11F2080332411
:141F68004225532566270EC040FF09C088E094E81A0136945A
:141F7C00279428263926A10102C0569547956395683080F3BB
:141F9000A394AC1418F31A01232C3324F901208241830C947A
:141FA400491E0E94101E422F58012397842F825088839E013F
:141FB8002F5F3F4F8501C7DFE42FFF273297EA0DFB1D20801C
:141FCC003980321449F4E42FFF273197EA0DFB1D20803A805B
:141FE000321411F001E001C0002723960C94151E0E94321E5F
:141FF400C22EA02E23974985C092BD084093BC08A092BB08F0
:1420080022242092B90881E08093BA0882E08093B808842FED
:14201C008B5F88839E012F5F3F4F08EB18E091DF8DEB98E0B5
:14203000E42FFF27E80FF91F298020828EEB98E0E42FFF27DF
:14204400E80FF91F2A80208202DF242F3327295F3F4F08EB96
:1420580018E065DF23960C94391E0E94091E79016801AE80AE
:14206C00BF808FB78F778FBFE199FECFEEBACFBAADBAE29A2C
:14208000E19A01E010E00E94430478940C94EA1DAA92CA92CC
:14209400690158018FB78F778FBFE199FECFCEBAAFBAE09A29
:1420A80001E010E00E944304ADB278940A2DC990A990089599
:1420BC00AA92BA92580122978EEA98E0998388832A2D0027E1
:1420D0000E944C0885010E9489052296B990A9900895AA923D
:1420E400BA92580185010E948905B990A99008950E94401E6E
:1420F800229781E090E09093690D8093680D86EA98E0998325
:14210C00888321E001E00E944C0881EA888321E005E00E94DE
:14212000260826EE01E00E94F4078EE998E09983888321E0D4
:1421340006E00E944C0881EA888321E00AE00E94260826EE76
:1421480001E00E94F40785E998E09983888322E001E00E9473
:14215C004C088CE898E09983888322E006E00E944C0883E8BF
:1421700098E09983888323E001E00E944C082AE738E003E0D6
:142184000E94960825E738E003E00E9496084427552783E076
:14219800888321E002E00E94710A15C30027112789DFAA24BB
:1421AC00BB2481C0AA2049F4BB2039F461E070E021E003E07B
:1421C0000E94080823C0C5018130E0E09E0739F461E070E0DC
:1421D40021E008E00E94080817C0C5018230E0E09E0739F47B
:1421E80062E070E022E003E00E9408080BC0C5018330E0E0B6
:1421FC009E0731F462E070E022E008E00E94080887E197E0F8
:14221000F501EE0FFF1FE80FF91FC080D180CC2011F4DD201B
:14222400D1F0C6018130E0E09E07D9F08230E0E09E07E9F04F
:142238008330E0E09E07F9F08430E0E09E0709F18530E0E009
:14224C009E0719F18630E0E09E0729F129C020E738E0062F5D
:142260000E94960823C02CE638E0062F0E9496081DC027E6BE
:1422740038E0062F0E94960817C022E638E0062F0E9496085D
:1422880011C02DE538E0062F0E9496080BC028E538E0062FAD
:14229C000E94960805C023E538E0062F0E949608C501019637
:1422B0005C01C5018430E0E09E0708F479CF0E94E906A02E3B
:1422C400013609F048C088E090E09093750D8093740D40304D
:1422D8004507A9F04130E0E05E07C1F04230E0E05E07D9F066
:1422EC004330E0E05E07F1F04530E0E05E0709F14630E0E09B
:142300005E0721F165C283E0888321E002E00E94010A5EC20D
:1423140088E0888321E007E00E94010A57C283E0888322E024
:1423280002E00E94010A50C288E0888322E007E00E94010AF7
:14233C0049C287E0888323E006E00E94010A42C28BE0888300
:1423500023E00AE00E94010A3BC28A2D843609F04CC04030FC
:14236400450769F04130E0E05E07C1F04230E0E05E0719F1D8
:142378004330E0E05E0771F126C283E0888321E002E00E947C
:14238C00010A83E0888322E002E00E94710A42E050E017C298
:1423A00088E0888321E007E00E94010A88E0888322E007E0C5
:1423B4000E94710A43E050E008C283E0888322E002E00E94E7
:1423C800010A83E0888323E002E00E94710A44E050E0F9C178
:1423DC0088E0888322E007E00E94010A87E0888323E006E089
:1423F0000E94710A45E050E0EAC18A2D853709F061C04230BD
:14240400E0E05E0791F04330E0E05E07E9F04430E0E05E0714
:1424180041F14530E0E05E0799F14630E0E05E0709F43DC0C5
:14242C00D0C183E0888322E002E00E94010A83E0888321E09D
:1424400002E00E94710A44275527C1C188E0888322E007E0C4
:142454000E94010A88E0888321E007E00E94710A41E050E0FE
:14246800B2C185E0888323E002E00E94010A83E0888322E07B
:14247C0002E00E94710A42E050E0A3C187E0888323E006E03C
:142490000E94010A88E0888322E007E00E94710A43E050E0BF
:1424A40094C18BE0888323E00AE00E94010A88E0888322E04A
:1424B80007E00E94710A43E050E085C18A2D8C3609F04DC0F4
:1424CC004130E0E05E0769F04330E0E05E07C1F04530E0E08F
:1424E0005E0719F14630E0E05E0771F170C188E0888321E0D7
:1424F40007E00E94010A83E0888321E002E00E94710A442767
:14250800552761C188E0888322E007E00E94010A83E08883AA
:14251C0022E002E00E94710A42E050E052C187E0888323E0D0
:1425300006E00E94010A83E0888323E002E00E94710A44E070
:1425440050E043C18BE0888323E00AE00E94010A87E08883CD
:1425580023E006E00E94710A45E050E034C18A2D823709F0B6
:14256C004CC04030450769F04230E0E05E07C1F04430E0E0BE
:142580005E0719F14530E0E05E0771F120C183E0888321E08C
:1425940002E00E94010A88E0888321E007E00E94710A41E00B
:1425A80050E011C183E0888322E002E00E94010A88E08883AB
:1425BC0022E007E00E94710A43E050E002C183E0888323E07E
:1425D00002E00E94010A87E0888323E006E00E94710A45E0CB
:1425E40050E0F3C087E0888323E006E00E94010A8BE0888382
:1425F80023E00AE00E94710A46E050E0E4C08A2D833709F061
:14260C0048C085E090E09093750D8093740D40304507A9F04F
:142620004130E0E05E07C1F04230E0E05E07D9F04330E0E0CC
:142634005E07F1F04530E0E05E0709F14630E0E05E0721F10B
:14264800C3C083E0888321E002E00E94010ABCC088E088830E
:14265C0021E007E00E94010AB5C083E0888322E002E00E946C
:14267000010AAEC088E0888322E007E00E94010AA7C087E006
:14268400888323E006E00E94010AA0C08BE0888323E00AE0DE
:142698000E94010A99C08A2D843709F094C040304507F1F0CC
:1426AC004130E0E05E0791F14230E0E05E0709F443C04330F8
:1426C000E0E05E0709F455C04430E0E05E0709F47EC0453086
:1426D400E0E05E0709F479C04630E0E05E0709F45CC073C0B0
:1426E80083E0888321E002E00E94010A81E090E09093690D76
:1426FC008093680D2224332430926B0D20926A0D83E09093BC
:14271000750D8093740D5CC088E0888321E007E00E94010A7B
:1427240081E090E09093690D8093680D90936B0D80936A0D8A
:1427380083E09093750D8093740D46C083E0888322E002E099
:14274C000E94010A81E090E09093690D8093680D82E0909355
:142760006B0D80936A0D83E09093750D8093740D2FC088E070
:14277400888322E007E00E94010A81E090E09093690D809333
:14278800680D83E090936B0D80936A0D9093750D8093740D07
:14279C0019C08BE0888323E00AE00E94010A222433243092E1
:1427B0006F0D20926E0D81E090E09093690D8093680D85E015
:1427C4009093750D8093740D01C0EACC22960C94491E0E94F0
:1427D800241E22974427552782E498E099838883222702E0DB
:1427EC000E944C088DE398E09983888322E002E00E944C08FA
:1428000088E398E09983888322E008E00E944C0884E088836B
:1428140022E003E00E94710A4FC00E94E906A02E6A2D77270B
:142828006C36E0E07E0771F06C36E0E07E070CF441C06237D3
:14283C00E0E07E07C1F06437E0E07E0731F138C04130E0E067
:142850005E07A1F58AE0888322E009E00E94010A84E08883FD
:1428640022E003E00E94710A4427552725C04030450711F5D0
:1428780084E0888322E003E00E94010A8AE0888322E009E0EB
:14288C000E94710A41E050E013C08AE0888322E009E00E94F5
:1428A000010A84E0888322E003E00E94010A81E090E0909324
:1428B400750D8093740D01C0B0CF22960C942B1E0E941A1E3F
:1428C80022974427552786E398E099838883222700270E9442
:1428DC004C0820916A0D30916B0D2F5F3F4F206300270E94CB
:1428F000F4072AE300270E94F40780E398E09983888321E005
:1429040001E00E944C088AE298E09983888322E001E00E9458
:142918004C0885E298E09983888323E000270E944C0880E2CF
:14292C0098E09983888323E003E00E944C0882E698E0998320
:14294000888323E007E00E944C088BE198E09983888323E08A
:142954000AE00E944C0882E0888323E001E00E94710A04C15C
:14296800222702E00E94080800271127B6DB87E198E0998392
:14297C00888321E004E00E944C0881EA888321E006E00E9462
:14299000260826EE01E00E94F40781E198E09983888322E070
:1429A40004E00E944C088BE098E09983888322E008E00E94AF
:1429B8004C080E94E906602F0536F9F482E0888323E001E01E
:1429CC000E94010A85E0888323E004E00E94010A89E08883D2
:1429E00023E008E00E94010A8CE0888323E00BE00E94010A39
:1429F40081E090E09093750D8093740DB8C06C36D1F5413074
:142A0800E0E05E0749F04230E0E05E07A1F04330E0E05E079C
:142A1C00F9F0A8C085E0888323E004E00E94010A82E08883E4
:142A300023E001E00E94710A4427552799C089E0888323E0DA
:142A440008E00E94010A85E0888323E004E00E94710A41E054
:142A580050E08AC08CE0888323E00BE00E94010A89E088836A
:142A6C0023E008E00E94710A42E050E07BC06237C9F54030FA
:142A8000450749F04130E0E05E07A1F04230E0E05E07F9F016
:142A94006DC085E0888323E004E00E94710A82E0888323E01D
:142AA80001E00E94010A41E050E05EC089E0888323E008E0BE
:142ABC000E94710A85E0888323E004E00E94010A42E050E093
:142AD0004FC08CE0888323E00BE00E94710A89E0888323E0EA
:142AE40008E00E94010A43E050E040C06437E9F440304507C2
:142AF80069F04130E0E05E07B9F14230E0E05E0799F143309D
:142B0C00E0E05E0779F12EC082E0888323E001E00E94010A3A
:142B200084E090E09093750D8093740D22C06337F9F482E0C9
:142B3400888323E001E00E94010A85E0888323E004E00E94F8
:142B4800010A89E0888323E008E00E94010A8CE0888323E0E8
:142B5C000BE00E94010A84E090E09093750D8093740D01C0FF
:142B7000FBCE22960C941F1E0E94B91D0E94241E5901219785
:142B840062EA70E044EC50E0AA2011F4BB2039F1C5018330F4
:142B9800E0E09E0710F5688321E002E00E9426089A012F5FF8
:142BAC003F4F01E00E94F407688322E002E00E9426089A01CF
:142BC0002E5F3F4F02E00E94F407688323E002E00E942608C7
:142BD4009A012D5F3F4F03E00E94F40780C0C5018330E0E03F
:142BE8009E0730F18630E0E09E0710F5688321E002E00E9483
:142BFC0026089A012C5F3F4F01E00E94F407688322E002E096
:142C10000E9426089A012B5F3F4F02E00E94F407688323E0C0
:142C240002E00E9426089A012A5F3F4F03E00E94F40755C0A3
:142C3800C5018630E0E09E0730F18930E0E09E0710F5688378
:142C4C0021E002E00E9426089A01295F3F4F01E00E94F40792
:142C6000688322E002E00E9426089A01285F3F4F02E00E948D
:142C7400F407688323E002E00E9426089A01275F3F4F03E01F
:142C88000E94F4072AC0C5018930E0E09E0728F18C30E0E038
:142C9C009E0708F5688321E002E00E9426089A01265F3F4F36
:142CB00001E00E94F407688322E002E00E9426089A01255FD4
:142CC4003F4F02E00E94F407688323E002E00E9426089A01B4
:142CD800245F3F4F03E00E94F40721960E942B1E249608955E
:142CEC000E94B91D0E94051E79012BE030E00A851B850E9431
:142D0000C01D68012BE030E00A851B850E94BE1DB80123E0F6
:142D140030E086010E94BE1D58010030010751F0C5010130CE
:142D2800E0E01E0741F00230E0E01E0739F008C041E050E028
:142D3C0005C042E050E002C043E050E02BE030E087010E9412
:142D5000C01D23E030E00E94C01D78010030010771F0C70126
:142D64000130E0E01E07A1F00230E0E01E0709F10330E0E0B0
:142D78001E0779F137C080E290E00A841B848015910580F522
:142D8C0096018001F3DE2CC081E490E00A841B848015910531
:142DA00028F0C0018132E0E09E0700F596010A851B85E2DEB3
:142DB4001BC08A859B858234E0E09E0738F082E690E00A8458
:142DC8001B848015910570F496010A851B85D0DE09C08A857D
:142DDC009B858336E0E09E0718F496018C01C6DE4130E0E0A0
:142DF0005E0749F403E010E00E94BD0904E010E00E94BD09B6
:142E040010C04230E0E05E0721F04330E0E05E0741F400274E
:142E180011270E94BD0907E010E00E94BD096030670729F4AC
:142E2C00242F03E00E94080831C06230E0E07E0729F4242F72
:142E400005E00E94080828C06430E0E07E0729F4242F07E0CF
:142E54000E9408081FC06630E0E07E0729F4242F09E00E9403
:142E6800080816C06830E0E07E0751F4242F0AE00E9408085F
:142E7C0029E038E0042F0E94960808C06930E0E07E0721F4F3
:142E9000242F0BE00E9408080E94FA1D249608950E94401E2E
:142EA400229782EA90E06C0164EC70E0AA24BB2486E398E0EA
:142EB80099838883222700270E944C0820916A0D30916B0D18
:142ECC002F5F3F4F206300270E94F4072AE300270E94F407BE
:142EE00084E098E099838883222704E00E944C088FEF97E0C3
:142EF40099838883222707E00E944C088AEF97E09983888366
:142F080022270AE00E944C0885EF97E09983888321E0002752
:142F1C000E944C0888E398E09983888322E000270E944C0882
:142F30008BE198E09983888323E000270E944C08C88221E017
:142F440002E00E9426089B012F5F3F4F01E00E94F40782EE21
:142F580097E09983888321E003E00E944C08C88222E002E0BF
:142F6C000E9426089B012E5F3F4F02E00E94F40780ED97E067
:142F80009983888322E003E00E944C08C88223E002E00E946A
:142F940026089B012D5F3F4F03E00E94F4078DEB97E09983BA
:142FA800888323E003E00E944C084427552721E003E00E94C1
:142FBC00080803E010E00E94BD096CC10E94E906602F05362E
:142FD00009F582E0888321E001E00E94010A82E0888322E084
:142FE40001E00E94010A82E0888323E001E00E94010A002726
:142FF80011270E94BD0904E010E00E94BD0983E090E09093F3
:14300C00750D8093740D47C1653709F042C04538E0E05E0759
:1430200079F482E0888321E001E00E94710A82E0888322E054
:1430340001E00E94010A44E850E030C14638E0E05E0779F49D
:1430480082E0888322E001E00E94710A82E0888323E001E0B6
:14305C000E94010A45E850E01DC18AE090E08417950708F06F
:1430700017C183E88417950708F412C15A012BE030E08A0102
:143084000E94C01D9801215030400BE010E00E94DA1DA80122
:14309800950128DE01C1643609F03CC04438E0E05E0779F429
:1430AC0082E0888321E001E00E94010A82E0888322E001E0C4
:1430C0000E94710A45E850E0EBC04538E0E05E0779F482E066
:1430D400888322E001E00E94010A82E0888323E001E00E945A
:1430E800710A46E850E0D8C04937E0E05E0708F0D3C05A01D8
:1430FC002BE030E08A010E94C01D98012F5F3F4F0BE010E00B
:143110000E94DA1DA8019501E9DDC2C06C3621F55A012BE06D
:1431240030E08A010E94BE1D0030010789F482E0888321E05C
:1431380001E00E94710A002711270E94BD0904E010E00E9448
:14314C00BD0944E850E0A6C04030450709F4A2C041505040AB
:1431600095018A01C3DD9CC0623721F583E890E0841795077D
:14317400A0F482E0888321E001E00E94010A82E0888322E048
:1431880001E00E94010A82E0888323E001E00E94010AA50101
:14319C0007C04338E0E05E0718F45A014F5F5F4F95018A01D4
:1431B0009DDD76C0643709F05FC082E0888321E001E00E94B7
:1431C400010A82E0888322E001E00E94010A82E0888323E07F
:1431D80001E00E94010A4438E0E05E07C9F4002711270E94F6
:1431EC00BD0904E010E00E94BD0981E090E090936D0D80934C
:143200006C0D84E09093690D8093680D86E09093750D80939E
:14321400740D45C04538E0E05E0779F4002711270E94BD094A
:1432280004E010E00E94BD0983E090E09093750D8093740D4A
:14323C0032C04638E0E05E0769F5002711270E94BD0904E0E0
:1432500010E00E94BD0981E090E090936F0D80936E0D84E0B0
:143264009093690D8093680D87E09093750D8093740D15C0C0
:14327800603391F0613381F0623371F0633361F0643351F074
:14328C00653341F0663331F0673321F0683311F0693301F4D3
:1432A00093CE22960C94491E0E941A1E229780EB97E0998369
:1432B4008883222704E00E944C0887EA97E09983888321E0C8
:1432C80004E00E944C088EE997E09983888322E004E00E947B
:1432DC004C0881EA8883222703E00E94260821EC00270E9442
:1432F000F407442755278AE08883222705E00E94710AA4C0C4
:143304000E94E906602F053739F54130E0E05E0729F042300A
:14331800E0E05E0781F096C088E0888321E005E00E94010AAF
:14332C008AE08883222705E00E94710A4427552787C088E037
:14334000888322E005E00E94010A88E0888321E005E00E94DF
:14335400710A41E050E078C0643631F54030450729F041305B
:14336800E0E05E0781F06EC08AE08883222705E00E94010A3D
:14337C0088E0888321E005E00E94710A41E050E05FC088E0EF
:14339000888321E005E00E94010A88E0888322E005E00E948F
:1433A400710A42E050E050C0653639F54030450749F0413009
:1433B800E0E05E0761F04230E0E05E0779F014C08AE0888342
:1433CC00222705E00E94010A0DC088E0888321E005E00E944A
:1433E000010A06C088E0888322E005E00E94010A81E090E030
:1433F4009093750D8093740D28C0643729F54030450711F12D
:143408004130E0E05E0729F04230E0E05E0769F019C088E0D0
:14341C0090E09093750D8093740D888321E005E00E94010A55
:143430000EC087E090E09093750D8093740D88E0888322E035
:1434440005E00E94010A01C05BCF22960C941F1E22972090F9
:143458006C0D30906D0D222059F4332049F48FE897E0998384
:14346C00888321E004E00E944C0821C080916C0D90916D0D60
:143480008130E0E09E0749F480E897E09983888321E004E0FA
:143494000E944C0810C080916C0D90916D0D8230E0E09E0722
:1434A80041F481E797E09983888321E004E00E944C0804EF07
:1434BC0011E00E944D042090680D3090690D3092750D2092C7
:1434D000740D229608950E94241E229741E050E088E697E03F
:1434E40099838883222702E00E944C0883E697E09983888385
:1434F80022E002E00E944C0888E398E09983888322E008E0F2
:14350C000E944C088AE0888322E009E00E94710A74C00E9462
:14352000E906A02E6A2D77276C36E0E07E07A1F08CE690E04B
:143534008617970734F06536E0E07E0709F44EC060C0623780
:14354800E0E07E07C9F06437E0E07E0741F157C04130E0E017
:14355C005E0709F052C08AE0888322E009E00E94010A84E07A
:14357000888322E003E00E94710A4427552743C04030450794
:1435840009F03FC084E0888322E003E00E94010A8AE08883C5
:1435980022E009E00E94710A41E050E030C04030450769F4BD
:1435AC0084E0888322E003E00E94010A89E090E09093750D8C
:1435C0008093740D21C08AE0888322E009E00E94010A85E010
:1435D40090E09093750D8093740D14C084E0888322E003E012
:1435E8000E94010A8AE0888322E009E00E94010A85E090E040
:1435FC009093750D8093740D01C08BCF22960C942B1E0E9424
:143610001A1EAD97442755278FE197E0FE0171960CE110E079
:14362400FA93EA939A938A930E945F1E82E08A8322242B82BD
:1436380081E08C8385E08D8381E08E8382E08F83888785E03F
:14364C00898781E08A8782E08B8783E08C872D8685E08E87D1
:143660002F86222701E00E940808662777271DC0CE01029656
:14367400FB01E80FF91F2081206300270E94F40720E2002726
:143688000E94F4076330E0E07E0721F06530E0E07E0729F4B1
:14369C0020E637E000270E9496086F5F7F4F6830E0E07E071D
:1436B000F8F221E002E00E94080868E070E01DC0CE010296AB
:1436C400FB01E80FF91F2081206301E00E94F40720E200271C
:1436D8000E94F4076930E0E07E0721F06B30E0E07E0729F455
:1436EC002DE537E000270E9496086F5F7F4F6E30E0E07E07BB
:14370000F8F285EF97E09983888322E003E00E944C0888E373
:1437140098E09983888322E008E00E944C08442755272227F2
:1437280001E00E94080803E010E00E94BD098AC103E010E0A1
:14373C000E945E100E94E906602F053771F58DE090E084172F
:143750009507B8F485E0888322E004E00E94010A8AE08883A5
:1437640022E009E00E94010A21E002E00E94080803E010E051
:143778000E94BD0948E050E065C187E090E08417950708F051
:14378C005FC14E30E0E05E0708F05AC1222701E00E94080877
:1437A0004427552753C1643619F587E090E08417950788F4E8
:1437B4004E30E0E05E0768F4002711270E94BD0985E08883CB
:1437C80022E004E00E94710A4EE050E03BC187E090E084171E
:1437DC00950708F435C121E002E00E94080848E050E02EC16F
:1437F0006C3609F043C088E090E08417950790F040304507DC
:1438040079F0415050402227CE014196FA01EE0FFF1FE80F2A
:14381800F91F008111810E94080814C188E090E084179507DB
:14382C0098F44E30E0E05E0778F44150504021E0CE01419625
:14384000FA01EE0FFF1FE80FF91F008111810E940808FCC0CE
:143854004F30E0E05E0709F0F7C08AE0888322E009E00E940A
:14386800010A85E0888322E004E00E94710A4EE050E0E8C0C8
:14387C00623709F03AC04730E0E05E0778F44F5F5F4F2227FF
:14389000CE014196FA01EE0FFF1FE80FF91F008111810E94A4
:1438A4000808D2C04D30E0E05E0778F44F5F5F4F21E0CE0134
:1438B8004196FA01EE0FFF1FE80FF91F008111810E9408083B
:1438CC00BFC04E30E0E05E0709F0BAC085E0888322E004E0FD
:1438E0000E94010A8AE0888322E009E00E94710A4FE050E04B
:1438F400ABC06536B9F4002711270E94BD0985E0888322E0D4
:1439080004E00E94010A8AE0888322E009E00E94010A81E0AC
:14391C0090E09093750D8093740D93C0643791F54E30E0E03C
:143930005E0791F42224332430926D0D20926C0D88E090E0BD
:143944009093690D8093680D86E09093750D8093740D7BC074
:143958004F30E0E05E0709F075C0002711270E94BD0985E05D
:14396C00888322E004E00E94010A8AE0888322E009E00E94A7
:14398000010A81E090E09093750D8093740D5FC0603399F0E3
:14399400613389F0623379F0633369F0643359F0653349F074
:1439A800663339F0673329F0683319F0693309F049C04E30D6
:1439BC00E0E05E0708F044C0262F206300270E94F40720E238
:1439D00000270E94F407CE010296FA01E80FF91F6083433058
:1439E400E0E05E0721F04530E0E05E0731F420E637E0002796
:1439F8000E9496080DC04930E0E05E0721F04B30E0E05E075F
:143A0C0029F42DE537E000270E9496084F5F5F4F4830E0E065
:143A20005E0731F421E009A11AA10E9408080EC04E30E0E0E4
:143A34005E0751F4002711270E94BD0985E0888322E004E0B7
:143A48000E94710A75CEAD960C941F1E229720906E0D309046
:143A5C006F0D222059F4332049F48CE497E09983888321E0AC
:143A700004E00E944C0810C080916E0D90916F0D8130E0E0FE
:143A84009E0741F48BE397E09983888321E004E00E944C086D
:143A980004EF11E00E944D042090680D3090690D3092750DA4
:143AAC002092740D229608950E9403098091740D9091750D9B
:143AC0008130E0E09E0719F40E947A1051C08091740D9091DF
:143AD400750D8230E0E09E0719F40E94EB1346C08091740D00
:143AE8009091750D8330E0E09E0719F40E9462143BC08091DE
:143AFC00740D9091750D8430E0E09E0711F4CAD931C08091CF
:143B1000740D9091750D8530E0E09E0711F4C4DB27C08091C7
:143B2400740D9091750D8630E0E09E0711F490DC1DC08091EF
:143B3800740D9091750D8730E0E09E0711F4C7DC13C08091AD
:143B4C00740D9091750D8830E0E09E0711F459DD09C080910F
:143B6000740D9091750D8930E0E09E0709F472DF08953A9357
:143B74002A931A930A930895689401C0E894EA92FA928A933B
:143B8800EE24FF2480E1000F111FEE1CFF1CE216F30618F036
:143B9C00E21AF30A03958A95A1F716F40E2D1F2D8991F99099
:143BB000E99008950A921A928A939A93029FC001129F900DA9
:143BC400039F900D8C0199918991199009900895A990B9907C
:143BD800C990D990E990F9900895A990B990C990D990E990BB
:143BEC00F990499159910895A990B990C990D990E990F99095
:143C0000499159916991799108957A936A935A934A93FA92EB
:143C1400EA92DA92CA92BA92AA9208955A934A93BA92AA92E1
:143C28000895A990B9904991599108957A936A935A934A9334
:143C3C000895499159916991799108957A936A935A934A939E
:143C5000BA92AA920895A990B9904991599169917991089554
:143C64005A934A93DA92CA92BA92AA920895A990B990C990BA
:143C7800D9904991599108957A936A935A934A93DA92CA92D2
:143C8C00BA92AA920895A990B990C990D990499159916991FD
:143CA00079910895222321F0000F111F2A95FACF089511237B
:143CB40019F0000F1A95FBCF0895AA93BA93EA93FA930A929E
:143CC800AF81B885ED81FE810030010729F001900D920150BC
:123CDC001040F8CF0990F991E991B991A9912496089547
:00000001FF
