:040000000C949203C7
:040028000C94DA0B4F
:040038000C94890B90
:040040000C943B0BD6
:040074000C942B0CB1
:14008C003230006EB7B4B0D7B2E2CAD4B5DAD2BBB4CE0000CE
:1400A00000000000000000000000000000000000000000004C
:1400B400000000000000000000000000000000000000000038
:1400C800000000000000000000000000000000000000000024
:1400DC00000000000000000000000000000000000000000010
:1405C800000000000000000000010002000300040006000708
:1405DC000009000A00020003000500060008000900CAFDBE52
:1405F000DDD6D8D6C3D6D0A1A3A1A3A1A300CFB5CDB3D6D8AF
:14060400D6C3D6D0A1A3A1A3A1A3002D2000C8B7C8CF00CAAA
:14061800C7B7F1D6D8D6C300CEC2B6C8B1A3B4E6CAA7B0DC1F
:14062C00A3A100CEC2B6C8B1A3B4E6B3C9B9A6A3A100CAB1E0
:14064000BCE4B1A3B4E6B3C9B9A6A3A100D6D8D6C3CFB5CD61
:14065400B300C9E8D6C3CAB1BCE400B6CFB5E7D7D4B6AFD673
:14066800D8D6C300B1A3B4E6D6D02E202E202E00B1A3B4E6C1
:14067C0000CEC2B6C800BAE3CEC200C9FDCEC20020003A205F
:1406900000D6D8D6C300D4CBD0D000B1E0BCAD00D7B4CCACD3
:1406A4003A00CEC2B6C83A005400BBD6B8B4D6D02E202E202D
:1406B8002E00C8A1CFFB00BBD6B8B400CAC7B7F1BBD6B8B49A
:1406CC00C9CFB4CEB9A4D7F700B5C8B4FD00BDE1CAF800D473
:1406E000DDCDA300B9CAD5CF0031353000CDA3D6B900C9E84C
:1406F400D6C300CDA3D6B92020202000BFAACABC202020206B
:14070800002054343A002054333A002054323A002054313A5B
:07071C0000CAB1BCE43A0081
:14072400CFEFD0E1CDBFDEBFCE51D0400AEA08830024E7E987
:14073800F7E01CE0E236F10711F00192FBCF0083ECE8F0E045
:14074C00A0E0B1E017E000E00BBFE332F10721F0C8953196A5
:140760000D92F9CF0E94D60AFFCF000F111F0150104081E08D
:1407740090E080179107C8F308954A935A93A80141505040E6
:1407880005E714E0EEDF81E090E084179507B0F35991499141
:14079C0008954A935A93A8014150504008EE13E0E8DF81E007
:1407B00090E084179507B0F3599149910895AA924A93929847
:1407C4009098929A48E00AC09098A02E00FF02C0919A01C038
:1407D80091980695909A4A9580E0841798F348E00AC09098A0
:1407EC00A22E20FF02C0919A01C091982695909A4A9580E00F
:14080000841798F392984991A99008950E94BB21C02EAA24AA
:1408140092989098929A48E00AC0EC2CC0FE02C0919A01C0DC
:1408280091989098C694909A4A9580E0841798F381B38D7F42
:14083C0081BB44270EC0909A909801E010E00E94BF0300B3F9
:1408500002700695142F0E940D22A02A4395483080F381B3B2
:14086400876081BB92980A2D0C94A52181B3876081BB2224F9
:1408780022BA22270EE89FDF222700E89CDF20E502E899DFC0
:14088C0021E904E896DF20E80EE893CFAA924A93219705E8CF
:1408A000B5DF07FF48C005E8B1DF802F82958F708170B9F0C6
:1408B40005E8AADFA02E8A2D82958F7081708063888321E03F
:1408C80000270E94980705E89DDF402F242F2F70206301E086
:1408DC000E9466070FC080E2888321E000270E94980705E867
:1408F0008DDF402F242F2F70206301E00E94660705E884DF64
:14090400A02E05FF0BC080E5888321E005E00E9498072DE49A
:1409180001E00E94660721C081E4888321E005E00E94980763
:14092C002DE401E00E94660716C005E869DFA02E8A2D82950F
:140940008F7083708063888321E000270E94980705E85CDF32
:14095400402F242F2F70206301E00E9466078AE3888321E042
:1409680001E00E94980703E84DDFA02E2A2D22952F70206344
:14097C0001E00E94660703E843DF402F242F2F70206301E0A5
:140990000E9466072AE301E00E94660701E836DFA02E2A2D24
:1409A40022952F70206301E00E94660701E82CDF402F242FC0
:1409B8002F70206301E00E94660721964991A990089501E0D1
:1409CC0010E0089501E010E0089501E010E0089501E010E0DD
:1409E000089501E010E0089501E010E0089501E010E008951C
:1409F40008950E94E621580120E031E00A2D0E9408080DE861
:140A080001DF202F22952F702F7020630A2D0E9466070DE8F8
:140A1C00F7DE202F2F7020630A2D0E9466072DE20A2D0E9452
:140A3000660709E8EBDEC02E2C2D22952F70217020630A2DA3
:140A44000E94660709E8E0DE402F242F2F7020630A2D0E9423
:140A580066072DE20A2D0E94660707E8D3DEC02E2C2D22952A
:140A6C002F70237020630A2D0E94660707E8C8DE402F242F24
:140A80002F7020630A2D0E94660720E20A2D0E94660705E8C5
:140A9400BBDEC02E2C2D22952F70237020630A2D0E946607BC
:140AA80005E8B0DE402F242F2F7020630A2D0E9466072AE388
:140ABC000A2D0E94660703E8A3DEC02E2C2D22952F70206354
:140AD0000A2D0E94660703E899DE402F242F2F7020630A2D4F
:140AE4000E9466072AE30A2D0E94660701E88CDEC02E2C2D02
:140AF80022952F7020630A2D0E94660701E882DE402F242FC0
:140B0C002F7020630A2D0E9466070C94ED2108954A935A9358
:140B200080EE84BB809164008061809364008FED85BB80917A
:140B3400650080618093650001E010E00E94B50343B3552752
:140B48004F3CE0E05E07E9F04F3CE0E05E07DCF0473DE0E050
:140B5C005E0799F04B3DE0E05E0769F04D3DE0E05E0739F0B9
:140B70004E3DE0E05E0709F00AC005E699C001E697C004E692
:140B840095C005E793C00CE691C08FEB85BB80916500806175
:140B98008093650001E010E00E94B50343B355274F3AE0E0EB
:140BAC005E07E9F04F3AE0E05E07DCF0473BE0E05E0799F04D
:140BC0004B3BE0E05E0769F04D3BE0E05E0739F04E3BE0E0FE
:140BD4005E0709F00AC003E769C002E767C004E765C003E6C9
:140BE80063C00BE261C08FE785BB8091650080618093650043
:140BFC0001E010E00E94B50343B355274F36E0E05E07E9F0C5
:140C10004F36E0E05E07DCF04737E0E05E0799F04B37E0E0EC
:140C24005E0769F04D37E0E05E0739F04E37E0E05E0709F089
:140C38000AC000E339C003E337C002E335C001E333C006E38B
:140C4C0031C08FEF85BB809165008F708093650001E010E027
:140C60000E94B50343B355274F3EE0E05E07E9F04F3EE0E0DC
:140C74005E07DCF0473FE0E05E0799F04B3FE0E05E0769F0FF
:140C88004D3FE0E05E0739F04E3FE0E05E0709F00AC007E31F
:140C9C0009C008E307C009E305C004E303C005E301C00EE6D1
:140CB000599149910895AA924A9330DF402F02E010E00E94C4
:140CC400BF032ADFA02E401761F44E3651F020900301241624
:140CD80011F40EE608C040930301042F04C08EE680930301EE
:140CEC000EE64991A99008954A935A9322242ABA80916500E6
:140D00008D7F80936500809165008160809365008091650016
:140D140088608093650001E010E00E94B50349B35527407810
:140D280050708FEF8ABB80916500877F809365008A015991CB
:140D3C0049910895AA92A02ED7DF00300107E1F780916500E6
:140D50008D7F80936500809165008E7F80936500809165009A
:140D6400877F80936500ABBA8091650088608093650001E0E1
:140D780010E00E94B50380916500877F80936500A990089553
:140D8C00AA92A02EB1DF00300107E1F780916500826080933E
:140DA0006500809165008E7F8093650080916500877F809350
:140DB4006500ABBA8091650088608093650001E010E00E9418
:140DC800B50380916500877F80936500A990089501E0B2DF23
:140DDC0001E010E00C94BF034A935A9322242ABA8091650066
:140DF0008D7F80936500809165008160809365008091620029
:140E040081608093620001E010E00E94B50349B35527407829
:140E180050708FEF8ABB809162008E7F809362008A015991D9
:140E2C0049910895AA92A02ED7DF00300107E1F780916500F5
:140E40008D7F80936500809165008E7F8093650080916200AC
:140E54008E7F80936200ABBA8091620081608093620001E0F9
:140E680010E00E94B503809162008E7F80936200A990089561
:140E7C00AA92A02EB1DF00300107E1F780916500826080934D
:140E90006500809165008E7F80936500809162008E7F80935B
:140EA4006200ABBA8091620081608093620001E010E00E9437
:140EB800B503809162008E7F80936200A990089501E0B2CF41
:140ECC00AA924A93A22E402F442311F0413019F40A2D56DF68
:140EE00006C0423011F0433011F40A2DC7DF4991A9900895C0
:140EF4004A936A93622F402F662321F4042F00581DDF11C01A
:140F0800613021F4042F005717DF0BC0623021F4042F0058B2
:140F1C0089DF05C0633019F4042F005783DF69914991089597
:140F30000E94D821622F402FAE80662331F4042F0058FEDECF
:140F44000A2D22DF17C0613031F4042F0057F6DE0A2D1ADF46
:140F58000FC0623031F4042F005866DF0A2D8ADF07C0633035
:140F6C0029F4042F00575EDF0A2D82DF0C94DF210E94D821BA
:140F8000A22E602F4E815F81AA2071F4062F0058D7DE05C019
:140F9400FA010081F9DE4F5F5F4FFA0120802220B9F732C01B
:140FA8008A2D813071F4062F0057C6DE05C0FA010081E8DE31
:140FBC004F5F5F4FFA0120802220B9F721C08A2D823071F489
:140FD000062F00582DDF05C0FA0100814FDF4F5F5F4FFA01AE
:140FE40020802220B9F710C08A2D833069F4062F00571CDF49
:140FF80005C0FA0100813EDF4F5F5F4FFA0120802220B9F79E
:14100C000C94DF210E94CE21A901602F662311F0613059F4FE
:1410200005C0FA010081B2DE4F5F5F4FFA0120802220B9F702
:141034000EC0623011F0633051F405C0FA0100811BDF4F5F86
:141048005F4FFA0120802220B9F70C94D3214A935A932224B5
:14105C002ABA809165008D7F80936500809165008160809338
:1410700065008091650088608093650001E010E00E94BF03FC
:1410840049B355274F778FEF8ABB80916500877F8093650063
:14109800042F5991499108954A935A9322242ABA8091650046
:1410AC008D7F8093650080916500816080936500809162006A
:1410C00081608093620001E010E00E94BF0349B355274F7753
:1410D4008FEF8ABB809162008E7F80936200042F5991499159
:1410E800089576DEEDCEAA92BA9222242ABA8091650082603E
:1410FC0080936500809165008160809365008091650088603B
:141110008093650001E010E00E94BF03A9B2BB248FEF8ABB21
:1411240080916500877F809365000A2DB990A9900895AA9231
:14113800BA9222242ABA8091650082608093650080916500E7
:14114C008160809365008091620081608093620001E010E09C
:141160000E94BF03A9B2BB248FEF8ABB809162008E7F809387
:1411740062000A2DB990A99008950E94D821622F402F66238B
:1411880049F4042F0058D8DD0AE010E00E94B503AADF24C035
:14119C00613049F4042F0057CDDD0AE010E00E94B5039FDF8B
:1411B00019C0623051F4042F00583ADE0AE010E00E94B503A4
:1411C400B8DFA02E0DC0633051F4042F00572EDE0AE010E09D
:1411D8000E94B503ACDFA02E01C000270C94DF21AA92A02EBE
:1411EC000A2DA8DD7EDFA9900895AA92A02E0A2DA1DD9BDFC7
:14120000A99008958AB38F6F8ABB8FEF8BBB809164008F605C
:1412140080936400809165008F60809365008091610081601F
:14122800809361008091620081608093620000E383DD08E04A
:14123C0081DD01E07FDD06E07DDD0CE07BDD00E3F1DD08E0E6
:14125000EFDD01E0EDDD06E0EBDD0CE0E9CD4A935A93A80150
:141264004030450719F40CE069DD30C04130E0E05E0719F4E8
:141278000EE062DD29C04230E0E05E0719F40DE05BDD22C0A1
:14128C004330E0E05E0719F40FE054DD1BC04430E0E05E0715
:1412A00019F40CE0C5DD14C04530E0E05E0719F40EE0BEDD9B
:1412B4000DC04630E0E05E0719F40DE0B7DD06C04730E0E033
:1412C8005E0711F40FE0B0DD59914991089506E333DD06E3E9
:1412DC00A9CD00E32FDD00E3A5CD0E9468210E94B921622F0C
:1412F0002197AF848A2D0B8480198F5FC82ECC0CEADF662312
:1413040049F48B8580588150888340E880E8A82EE82E22C076
:14131800613051F48B8580588150888340E980E8A82E80E957
:14132C00E82E16C0623049F48B8580588150888340E880E89E
:14134000A82EE82E0BC0633049F48B8580588150888340E925
:1413540080E8A82E80E9E82E662311F06130A1F4AA240EC07C
:14136800242E4F5F022DE8DC0881E6DCEE2403C0002708DD52
:14137C00E394EC14D8F3A3948A2D803178F317C0623011F0A7
:14139000633099F4AA240EC0242E4F5F022D48DD088146DD8D
:1413A400EE2403C0002768DDE394EC14D8F3A3948A2D803113
:1413B80078F391DF21960E94AE21249608950E9468210E94FA
:1413CC00B921622F2197AF848A2D0B8480198F5FC82ECC0C1C
:1413E0007ADF662349F48B8580588150888340E880E8A82EB0
:1413F400E82E22C0613051F48B8580588150888340E980E8C2
:14140800A82E80E9E82E16C0623049F48B8580588150888312
:14141C0040E880E8A82EE82E0BC0633049F48B8580588150EC
:14143000888340E980E8A82E80E9E82E662311F06130A1F407
:14144400AA240EC0242E4F5F022D78DC088176DCEE2403C0C5
:141458000FEF98DCE394EC14D8F3A3948A2D803178F317C0EB
:14146C00623011F0633099F4AA240EC0242E4F5F022DD8DC3A
:141480000881D6DCEE2403C00FEFF8DCE394EC14D8F3A394FD
:141494008A2D803178F321DF21960E94AE21249608953A9325
:1414A8002A930E94B921C02E04E346DC04E3BCDC6C2D4A8519
:1414BC0060684068AA2413C0242E4F5F022D3ADC062F38DC7D
:1414D000EE2407C0EC85FD850191FD87EC8756DCE3948E2D4F
:1414E4008831B0F3A3948A2D803250F36C2D4A8560684068DD
:1414F800EE2413C0242E4F5F022D96DC062F94DCEE2407C0DC
:14150C00EC85FD850191FD87EC87B2DCE3948E2D8831B0F333
:14152000A3948A2D803450F306E30ADC06E380DC01E010E0ED
:141534000E94B50300E302DC00E378DC0E94AE21229608958B
:14154800229784E091E09983888323E0002712DD84E091E0EC
:14155C0099838883222700270BDD87E0888321E001E02BDF9E
:1415700008EB1BE00E94BF0387E0888321E001E0B2DE82E0CF
:14158400888321E002E01DDF0CE211E00E94BF0387E08883B4
:1415980022E002E0A4DE85E0888321E003E00FDF2296089542
:1415AC0021978FEF82B978940E9402090E9475080E94531FCE
:1415C00082E090E09093580C8093570C8CE08883222701E0A7
:1415D4000E9473098CE0888321E001E00E9473098CE08883F7
:1415E80022E001E00E9473098CE0888323E001E00E94730975
:1415FC0002C00E94F41EFDCF2196089500935F0C20935E0C2A
:1416100022242EBC0DBD2CBD2FBC85E08EBD87B7846087BFE0
:14162400089500935D0C20935C0C222420928A000093890060
:141638002093880020928B0085E080938A0080917D008460B2
:14164C0080937D00089500935B0C02BF87B7816087BF87E0D6
:1416600083BF089500935A0C04BD87B7806487BF85E085BDCE
:1416740008950A921A922A923A924A925A926A927A928A9209
:141688009A920A931A932A933A938A939A93AA93BA93EA93FD
:14169C00FA930FB60A922197222423BE2092590C11C0809174
:1416B000590C805D888323E001E00E94980704E610E00E9438
:1416C400BF038091590C8F5F8093590C8091590C853058F3FE
:1416D80020905B0C22BE87E083BF219609900FBEF991E9913D
:1416EC00B991A9919991899139912991199109919990899018
:141700007990699059904990399029901990099018950A9204
:141714001A922A923A924A925A926A927A928A929A920A93D8
:141728001A932A933A938A939A93AA93BA93EA93FA930FB6D3
:14173C000A92219722242EBC2092590C11C08091590C805DDA
:14175000888323E003E00E94980704E610E00E94BF03809104
:14176400590C8F5F8093590C8091590C853058F320905F0C15
:141778002DBC20905E0C2CBC85E08EBD219609900FBEF9911B
:14178C00E991B991A991999189913991299119910991999016
:1417A0008990799069905990499039902990199009901895E7
:1417B4000A921A922A923A924A925A926A927A928A929A9239
:1417C8000A931A932A933A938A939A93AA93BA93EA93FA935B
:1417DC000FB60A92219723B0209423B8222425BC2092590C40
:1417F00011C08091590C805D888323E000270E94980704E661
:1418040010E00E94BF038091590C8F5F8093590C8091590C2A
:14181800853058F320905A0C24BC85E085BD219609900FBE02
:14182C00F991E991B991A99199918991399129911991099114
:141840009990899079906990599049903990299019900990CA
:1418540018950A921A922A923A924A925A926A927A928A9217
:141868009A920A931A932A933A938A939A93AA93BA93EA931B
:14187C00FA930FB60A92219722242EBC2092590C11C0809189
:14189000590C805D888323E002E00E94980704E610E00E9455
:1418A400BF038091590C8F5F8093590C8091590C853058F31C
:1418B80020905D0C2092890020905C0C2092880085E08EBDC6
:1418CC00219609900FBEF991E991B991A99199918991399155
:1418E000299119910991999089907990699059904990399027
:1418F40029901990099018954A935A9382B18B7F82B91B9843
:141908001C9801E010E00E94B5034427552720C01B9A0AE086
:14191C0010E00E94B50381B199278470907020901301309003
:141930001401282A392A3092140120921301220C331C3092FD
:141944001401209213011B9801E010E00E94B5034F5F5F4F7A
:141958004830E0E05E07E0F24427552722C01B9A0AE010E0B4
:14196C000E94B50381B199278470907020901501309016018A
:14198000282A392A3092160120921501910181010E9406221F
:1419940010931601009315011B9801E010E00E94B5034F5F50
:1419A8005F4F4830E0E05E07D0F201E010E00E94B503599109
:1419BC00499108954A935A9382B18F7D82B91E981F9801E00E
:1419D00010E00E94B5034427552720C01E9A0AE010E00E94BE
:1419E400B50381B19927807290702090130130901401282A68
:1419F800392A3092140120921301220C331C309214012092D5
:141A0C0013011E9801E010E00E94B5034F5F5F4F4830E0E03D
:141A20005E07E0F24427552722C01E9A0AE010E00E94B503C6
:141A340081B19927807290702090150130901601282A392A68
:141A48003092160120921501910181010E9406221093160151
:141A5C00009315011E9801E010E00E94B5034F5F5F4F483018
:141A7000E0E05E07D0F201E010E00E94B503599149910895EF
:141A84004A935A93809161008E7F80936100809162008E7F11
:141A980080936200809162008B7F8093620001E010E00E9460
:141AAC00B5034427552728C0809162008160809362000AE0EC
:141AC00010E00E94B50380B199278170907020901301309062
:141AD4001401282A392A3092140120921301220C331C309258
:141AE800140120921301809162008E7F8093620001E010E049
:141AFC000E94B5034F5F5F4F4830E0E05E07A0F2442755270A
:141B10002AC0809162008160809362000AE010E00E94B503DA
:141B240080B19927817090702090150130901601282A392A79
:141B38003092160120921501910181010E9406221093160160
:141B4C0000931501809162008E7F8093620001E010E00E9474
:141B6000B5034F5F5F4F4830E0E05E0790F201E010E00E94CB
:141B7400B5035991499108954A935A9380916100877F8093EF
:141B88006100809162008F7E80936200809162008F7D809361
:141B9C00620001E010E00E94B5034427552728C08091620066
:141BB0008061809362000AE010E00E94B50380B199278078AE
:141BC40090702090130130901401282A392A30921401209236
:141BD8001301220C331C3092140120921301809162008F7E4B
:141BEC008093620001E010E00E94B5034F5F5F4F4830E0E0B1
:141C00005E07A0F2442755272AC0809162008061809362003F
:141C14000AE010E00E94B50380B199278078907020901501D9
:141C280030901601282A392A30921601209215019101810167
:141C3C000E9406221093160100931501809162008F7E8093D4
:141C5000620001E010E00E94B5034F5F5F4F4830E0E05E07FA
:141C640090F201E010E00E94B50359914991089581B3877033
:141C780081BB00B3087F08958FEF84BB05BB08950E94C421A4
:141C8C005901A8018FEF84BB4030450771F401E010E09501FC
:141CA0000E94062218012094309445B255244220532045BA91
:141CB4000EC04130E0E05E0751F401E010E095010E94062242
:141CC80025B23324202A312A25BA0C94C921AA92BA925801EB
:141CDC0001E010E095010E94062223B2332420223122810180
:141CF000B990A99008958EE08093950083E089B9222420920E
:141D040090002BB888E18AB908955D9BFECF0CB908950027C1
:141D1800112722242092610C0BC00030EDE71E0729F481E0A8
:141D2C008093610C01E005C00F5F1F4F5F9BF3CF0CB108958B
:141D4000AA924A933EC0E7DF0093F309023009F038C041E0DF
:141D54000FC0DFDF83EF99E0E42FFF27E80FF91F0083809127
:141D6800610C813011F401E029C04395453078F32090F70912
:141D7C00332430929A072092990745E010C0C5DFA02E83EF6E
:141D900099E0E42FFF27E80FF91FA0828091610C813011F428
:141DA40001E00EC043958091990790919A070696242E3324EC
:141DB8002816390630F3002701C0C1CF4991A99008950E94AD
:141DCC00BD2169017801AA2407C0EA2DFF27EE0DFF1D0081D8
:141DE00096DFA3942A2C33242C143D04A0F30C949E210E9481
:141DF400F421C8844FEF5FEFAA241BC0EA2DFF27E00FF11F09
:141E0800208033244225532566270EC040FF09C088E094E8A9
:141E1C001A013694279428263926A10102C056954795639542
:141E3000683080F3A394AC1418F31A01232C3324F901208234
:141E440041830C94FD210E94C421422F58012397842F825078
:141E580088839E012F5F3F4F8501C7DFE42FFF273297EA0D8B
:141E6C00FB1D20803980321449F4E42FFF273197EA0DFB1D5E
:141E800020803A80321411F001E001C0002723960C94C921A1
:141E94000E94E621C22EA02E23974985C092A00740939F07D9
:141EA800A0929E07222420929C0781E080939D0782E0809327
:141EBC009B07842F8B5F88839E012F5F3F4F0BE917E091DFB2
:141ED00080EA97E0E42FFF27E80FF91F2980208281EA97E0A8
:141EE400E42FFF27E80FF91F2A80208202DF242F3327295F40
:141EF8003F4F0BE917E065DF23960C94ED210E94BD217901B8
:141F0C006801AE80BF808FB78F778FBFE199FECFEEBACFBAD9
:141F2000ADBAE29AE19A01E010E00E94B50378940C949E21B9
:141F34000E94BF21690158018FB78F778FBFE199FECFCEBAEB
:141F4800AFBAE09A01E010E00E94B503ADB2BB2478948501A7
:141F5C000C949921AA92BA925801229781E997E09983888375
:141F70002A2D00270E94BE0785010E94FB042296B990A99017
:141F84000895AA92BA92580185010E94FB04B990A990089585
:141F98000E94F421229781E090E090934C0C80934B0C8CE89B
:141FAC0097E09983888321E001E00E94BE0787E897E0998338
:141FC000888321E006E00E94BE0782E897E09983888322E0AA
:141FD40001E00E94BE078DE797E09983888322E006E00E9415
:141FE800BE0784E797E09983888323E001E00E94BE072BE6BB
:141FFC0037E003E00E94080826E637E003E00E94080884E702
:1420100097E09983888323E001E00E94BE072BE637E003E0C8
:142024000E94080826E637E003E00E9408084427552783E0F4
:14203800888321E002E00E94E30920C3002711278BDFAA249E
:14204C00BB248CC0AA2049F4BB2039F461E070E021E003E0D1
:142060000E947A0723C0C5018130E0E09E0739F461E070E0CC
:1420740021E008E00E947A0717C0C5018230E0E09E0739F46B
:1420880062E070E022E003E00E947A070BC0C5018330E0E0A6
:14209C009E0731F462E070E022E008E00E947A070AE011E0EC
:1420B00095010E94892187E191E0F801E80FF91FC080D180C8
:1420C400CC2011F4DD20D1F0C6018130E0E09E07D9F0823001
:1420D800E0E09E0729F18330E0E09E0739F18430E0E09E071A
:1420EC0049F18530E0E09E0759F18630E0E09E0769F131C0DC
:1421000021E637E0062F0E9408082BC02DE537E0062F0E94DB
:14211400080821EA062F0E94660726EE062F0E9466071DC023
:1421280028E537E0062F0E94080817C023E537E0062F0E94CB
:14213C00080811C02EE437E0062F0E9408080BC029E437E0AF
:14215000062F0E94080805C023E537E0062F0E940808C50103
:1421640001965C01C5018430E0E09E0708F46ECF0E945B0658
:14217800A02E013609F048C088E090E09093580C8093570C78
:14218C0040304507A9F04130E0E05E07C1F04230E0E05E070C
:1421A000D9F04330E0E05E07F1F04530E0E05E0709F14630DF
:1421B400E0E05E0721F165C283E0888321E002E00E9473094A
:1421C8005EC288E0888321E007E00E94730957C283E08883E3
:1421DC0022E002E00E94730950C288E0888322E007E00E94DD
:1421F000730949C287E0888323E006E00E94730942C28BE06C
:14220400888323E00AE00E9473093BC28A2D843609F04CC03D
:142218004030450769F04130E0E05E07C1F04230E0E05E07BF
:14222C0019F14330E0E05E0771F126C283E0888321E002E061
:142240000E94730983E0888322E002E00E94E30942E050E03A
:1422540017C288E0888321E007E00E94730988E0888322E0AF
:1422680007E00E94E30943E050E008C283E0888322E002E07E
:14227C000E94730983E0888323E002E00E94E30944E050E0FB
:14229000F9C188E0888322E007E00E94730987E0888323E091
:1422A40006E00E94E30945E050E0EAC18A2D853709F061C025
:1422B8004230E0E05E0791F04330E0E05E07E9F04430E0E055
:1422CC005E0741F14530E0E05E0799F14630E0E05E0709F4AB
:1422E0003DC0D0C183E0888322E002E00E94730983E088837E
:1422F40021E002E00E94E30944275527C1C188E0888322E087
:1423080007E00E94730988E0888321E007E00E94E30941E0B2
:14231C0050E0B2C185E0888323E002E00E94730983E0888329
:1423300022E002E00E94E30942E050E0A3C187E0888323E0FC
:1423440006E00E94730988E0888322E007E00E94E30943E074
:1423580050E094C18BE0888323E00AE00E94730988E08883F8
:14236C0022E007E00E94E30943E050E085C18A2D8C3609F0DB
:142380004DC04130E0E05E0769F04330E0E05E07C1F045308F
:14239400E0E05E0719F14630E0E05E0771F170C188E0888365
:1423A80021E007E00E94730983E0888321E002E00E94E3093C
:1423BC004427552761C188E0888322E007E00E94730983E027
:1423D000888322E002E00E94E30942E050E052C187E08883A5
:1423E40023E006E00E94730983E0888323E002E00E94E309FD
:1423F80044E050E043C18BE0888323E00AE00E94730987E091
:14240C00888323E006E00E94E30945E050E034C18A2D823780
:1424200009F04CC04030450769F04230E0E05E07C1F04430D2
:14243400E0E05E0719F14530E0E05E0771F120C183E088831A
:1424480021E002E00E94730988E0888321E007E00E94E30996
:14245C0041E050E011C183E0888322E002E00E94730988E071
:14247000888322E007E00E94E30943E050E002C183E0888352
:1424840023E002E00E94730987E0888323E006E00E94E30958
:1424980045E050E0F3C087E0888323E006E00E9473098BE044
:1424AC00888323E00AE00E94E30946E050E0E4C08A2D83372B
:1424C00009F048C085E090E09093580C8093570C4030450779
:1424D400A9F04130E0E05E07C1F04230E0E05E07D9F0433041
:1424E800E0E05E07F1F04530E0E05E0709F14630E0E05E07AB
:1424FC0021F1C3C083E0888321E002E00E947309BCC088E0E4
:14251000888321E007E00E947309B5C083E0888322E002E0DF
:142524000E947309AEC088E0888322E007E00E947309A7C036
:1425380087E0888323E006E00E947309A0C08BE0888323E03D
:14254C000AE00E94730999C08A2D843709F094C0403045079F
:14256000F1F04130E0E05E0791F14230E0E05E0709F443C0D7
:142574004330E0E05E0709F455C04430E0E05E0709F466C0ED
:142588004530E0E05E0709F464C04630E0E05E0709F462C0CA
:14259C0073C083E0888321E002E00E94730981E090E0909395
:1425B0004C0C80934B0C2224332430924E0C20924D0C83E02E
:1425C4009093580C8093570C5CC088E0888321E007E00E94ED
:1425D800730981E090E090934C0C80934B0C90934E0C80932D
:1425EC004D0C83E09093580C8093570C46C083E0888322E0AC
:1426000002E00E94730981E090E090934C0C80934B0C82E0AE
:1426140090934E0C80934D0C83E09093580C8093570C2FC07A
:1426280088E0888322E007E00E94730981E090E090934C0CD8
:14263C0080934B0C83E090934E0C80934D0C9093580C80933A
:14265000570C19C00E94882015C00E94C42012C08BE088834D
:1426640023E00AE00E94730981E090E090934C0C80934B0CA1
:1426780085E09093580C8093570C01C0DFCC22960C94FD210A
:14268C000E94D82122974427552788E397E0998388832227AD
:1426A00002E00E94BE0783E397E09983888322E002E00E9453
:1426B400BE078EE297E09983888322E008E00E94BE0784E08A
:1426C800888322E003E00E94E30963C00E945B06A02E6A2DF5
:1426DC0077276C36E0E07E0771F06C36E0E07E070CF455C008
:1426F0006237E0E07E07C9F06437E0E07E0739F14CC04130B8
:14270400E0E05E0709F047C08AE0888322E009E00E9473091E
:1427180084E0888322E003E00E94E3094427552738C040307C
:14272C004507A9F584E0888322E003E00E9473098AE08883C8
:1427400022E009E00E94E30941E050E026C08AE0888322E05E
:1427540009E00E94730984E0888322E003E00E947309403088
:14276800450781F40E94750882E297E09983888322E005E094
:14277C000E94BE070E948A1F08EC10E00E94BF0381E090E07E
:142790009093580C8093570C01C09CCF22960C94DF210E9412
:1427A400CE2122974427552780E297E0998388832227002722
:1427B8000E94BE0720914D0C30914E0C2F5F3F4F20630027BB
:1427CC000E9466072AE300270E9466078AE197E0998388839E
:1427E00021E001E00E94BE0784E197E09983888322E001E0B6
:1427F4000E94BE078FE097E09983888323E000270E94BE07CC
:142808008AE097E09983888323E003E00E94BE0783E597E088
:14281C009983888323E007E00E94BE0785E097E0998388832D
:1428300023E00AE00E94BE0782E0888323E001E00E94E30961
:142844006CC1222702E00E947A070027112799DB22E004E04C
:142858000E947A0720914D0C30914E0C0AE011E00E948921FD
:14286C0087E191E0F801E80FF91F6081718160306707C9F0ED
:142880006130E0E07E07D9F06230E0E07E0749F16330E0E041
:142894007E0759F16430E0E07E0769F16530E0E07E0779F1EA
:1428A8006630E0E07E0789F135C021E637E002E00E94080820
:1428BC002FC021E004E00E947A072DE537E001E00E94080855
:1428D00021EA01E00E94660726EE01E00E9466071DC028E50B
:1428E40037E002E00E94080817C023E537E002E00E940808AB
:1428F80011C02EE437E002E00E9408080BC029E437E002E06D
:14290C000E94080805C023E537E002E00E9408080E945B068A
:14292000602F0536F9F482E0888323E001E00E94730985E018
:14293400888323E004E00E94730989E0888323E008E00E947E
:1429480073098CE0888323E00BE00E94730981E090E0909388
:14295C00580C8093570CDEC06C36D1F54130E0E05E0749F0B8
:142970004230E0E05E07A1F04330E0E05E07F9F0CEC085E0B7
:14298400888323E004E00E94730982E0888323E001E00E943C
:14299800E30944275527BFC089E0888323E008E00E9473095C
:1429AC0085E0888323E004E00E94E30941E050E0B0C08CE005
:1429C000888323E00BE00E94730989E0888323E008E00E94EB
:1429D400E30942E050E0A1C06237C9F54030450749F0413093
:1429E800E0E05E07A1F04230E0E05E07F9F093C085E08883E2
:1429FC0023E004E00E94E30982E0888323E001E00E947309E3
:142A100041E050E084C089E0888323E008E00E94E30985E0CB
:142A2400888323E004E00E94730942E050E075C08CE0888390
:142A380023E00BE00E94E30989E0888323E008E00E94730991
:142A4C0043E050E066C0643709F042C04030450769F04130E1
:142A6000E0E05E07B1F04230E0E05E07C9F04330E0E05E07B4
:142A7400E1F053C082E0888323E001E00E94730984E090E027
:142A88009093580C8093570C47C000914D0C10914E0C0E94AF
:142A9C0000213FC000914D0C10914E0C0E94342138C08CE0C6
:142AB000888323E00BE00E94730981E090E09093520C809396
:142AC400510C83E090934C0C80934B0C87E09093580C809358
:142AD800570C22C06337F9F482E0888323E001E00E947309AF
:142AEC0085E0888323E004E00E94730989E0888323E008E002
:142B00000E9473098CE0888323E00BE00E94730984E090E04C
:142B14009093580C8093570C01C093CE22960C94D3210E94A0
:142B280068210E94B9215901229782EA90E06C0184EC7C014B
:142B3C0066277727442755278C859D858330E0E09E0730F503
:142B5000C88221E002E00E94980797012F5F3F4F01E00E94CC
:142B64006607C88222E002E00E94980797012E5F3F4F02E0EC
:142B78000E946607C88223E002E00E94980797012D5F3F4F18
:142B8C0003E00E946607002411241D860C868FC08C859D8533
:142BA0008330E0E09E0750F18630E0E09E0730F5C88221E03D
:142BB40002E00E94980797012C5F3F4F01E00E946607C882FF
:142BC80022E002E00E94980797012B5F3F4F02E00E94660733
:142BDC00C88223E002E00E94980797012A5F3F4F03E00E9441
:142BF000660781E090E09D878C875FC08C859D858630E0E094
:142C04009E0750F18930E0E09E0730F5C88221E002E00E94C4
:142C180098079701295F3F4F01E00E946607C88222E002E03D
:142C2C000E9498079701285F3F4F02E00E946607C88223E068
:142C400002E00E9498079701275F3F4F03E00E94660782E05D
:142C540090E09D878C872FC08C859D858930E0E09E0748F14C
:142C68008C30E0E09E0728F5C88221E002E00E949807970114
:142C7C00265F3F4F01E00E946607C88222E002E00E949807D2
:142C90009701255F3F4F02E00E946607C88223E002E00E94C4
:142CA40098079701245F3F4F03E00E94660783E090E09D87EB
:142CB8008C8701E210E02C853D850E948921A80161E070E029
:142CCC00C5C06130E0E07E0771F4FA01EE0FFF1FEA0DFB1D0F
:142CE0008081918180638883262F03E00E94980710C0CA01CB
:142CF4000196AC01FC01EE0FFF1FEA0DFB1D8081918180636B
:142D08008883262F03E00E949807CA010196AC01FC01EE0F2A
:142D1C00FF1FEA0DFB1D208131812063062F0E94660722E05A
:142D300037E0062F0E940808CA010196AC01FC01EE0FFF1F6A
:142D4400EA0DFB1D208131812063062F0E946607CA010196F0
:142D5800AC01FC01EE0FFF1FEA0DFB1D208131812063062F88
:142D6C000E946607CA010196AC01FC01EE0FFF1FEA0DFB1D0E
:142D80008081918180638883262F07E00E949807CA0101965F
:142D9400AC01FC01EE0FFF1FEA0DFB1D208131812063062F4C
:142DA8000E94660722E037E0062F0E940808CA010196AC01F9
:142DBC00FC01EE0FFF1FEA0DFB1D208131812063062F0E942F
:142DD0006607CA010196AC01FC01EE0FFF1FEA0DFB1D2081AB
:142DE40031812063062F0E94660780E097E099838883262F0F
:142DF8000AE00E94BE07CA010196AC01FC01EE0FFF1FEA0D58
:142E0C00FB1D208131812063062F0E946607CA010196AC0171
:142E2000FC01EE0FFF1FEA0DFB1D208131812063062F0E94CA
:142E34006607CA0101966C01AC01FC01EE0FFF1FEA0DFB1D7A
:142E4800208131812063062F0E9466076F5F7F4F83E090E0ED
:142E5C008617970708F035CF22960E94AE21249608950E9409
:142E700068210E94B921CE84DF842BE030E00A851B850E94A8
:142E84006F2158012BE030E00A851B850E946D21B80123E01B
:142E980030E085010E946D2178010030010751F0C701013075
:142EAC00E0E01E0741F00230E0E01E0739F008C041E050E0A3
:142EC00005C042E050E002C043E050E02BE030E00C851D8584
:142ED4000E946F2123E030E00E946F2178010030010771F061
:142EE800C7010130E0E01E07A1F00230E0E01E0701F103302B
:142EFC00E0E01E0769F135C080E290E00A841B848015910564
:142F100070F59601850107DE2AC081E490E00A841B848015C5
:142F2400910528F0C0018132E0E09E07F0F496018501F7DD3D
:142F38001AC08A859B858234E0E09E0738F082E690E00A84D3
:142F4C001B848015910568F496018501E6DD09C08A859B8573
:142F60008336E0E09E0718F496018501DCDD4130E0E05E07C7
:142F740049F403E010E00E942F0904E010E00E942F0910C0E1
:142F88004230E0E05E0721F04330E0E05E0741F40027112761
:142F9C000E942F0907E010E00E942F096030670729F4242F28
:142FB00003E00E947A0731C06230E0E07E0729F4242F05E0EA
:142FC4000E947A0728C06430E0E07E0729F4242F07E00E941C
:142FD8007A071FC06630E0E07E0729F4242F09E00E947A072E
:142FEC0016C06830E0E07E0751F4242F0AE00E947A0720E079
:1430000037E0042F0E94080808C06930E0E07E0721F4242FB2
:143014000BE00E947A070E94AE21249608950E94F421EF9795
:14302800EF97EF97EF972C9744275527662777278FE395E046
:14303C00FE01329606E011E0FA93EA939A938A930E941322B7
:1430500080E297E099838883222700270E94BE0720914D0C8B
:1430640030914E0C2F5F3F4F206300270E9466072AE3002734
:143078000E9466078BEF96E099838883222704E00E94BE078A
:14308C0086EF96E099838883222707E00E94BE0781EF96E0A1
:1430A0009983888322270AE00E94BE078CEE96E09983888344
:1430B40021E000270E94BE078EE297E09983888322E0002742
:1430C8000E94BE0785E097E09983888323E000270E94BE07F9
:1430DC00AA24BB2420C01501220C331C210120914D0C3091D3
:1430F0004E0C0AE011E00E94892189E191E01801280E391ECA
:14310400F201E20DF31D20803180CE010296F201E80FF91F0B
:1431180031822082C50101965C01C5018438E0E09E07D8F2E3
:14312C009E012E5F3F4F00271127F7DC4427552721E003E0D8
:143140000E947A0703E010E00E942F092AC20E945B06A02EEE
:14315400053609F582E0888321E001E00E94730982E0888354
:1431680022E001E00E94730982E0888323E001E00E947309E3
:14317C00002711270E942F0904E010E00E942F0983E090E085
:143190009093580C8093570C05C28A2D853709F046C0453878
:1431A400E0E05E0779F482E0888321E001E00E94E30982E046
:1431B800888322E001E00E94730944E850E0EDC14638E0E0AF
:1431CC005E0779F482E0888322E001E00E94E30982E08883D2
:1431E00023E001E00E94730945E850E0DAC18AE090E084176C
:1431F400950708F0D4C183E88417950708F4CFC1BA012BE0AA
:1432080030E08A010E946F219801215030400BE010E00E94EE
:14321C008921A801CE010296998388839B0121DEBAC18A2DF0
:14323000843609F040C04438E0E05E0779F482E0888321E05B
:1432440001E00E94730982E0888322E001E00E94E30945E86C
:1432580050E0A3C14538E0E05E0779F482E0888322E001E06F
:14326C000E94730982E0888323E001E00E94E30946E850E0F3
:1432800090C14937E0E05E0708F08BC1BA012BE030E08A019F
:143294000E946F2198012F5F3F4F0BE010E00E948921A8016F
:1432A800CE010296998388839B01DDDD76C18A2D8C3609F085
:1432BC0049C0BA012BE030E08A010E946D210030010789F4AF
:1432D00082E0888321E001E00E94E309002711270E942F09D4
:1432E40004E010E00E942F0944E850E058C12BE030E08A010D
:1432F8000E946D216801C6010230E0E01E0761F00430E0E006
:14330C001E0741F00630E0E01E0721F00830E0E01E0751F4C9
:1433200042505040CE010296998388839B018A019EDD37C14F
:143334004030450709F433C141505040CE0102969983888329
:143348009B018A0190DD29C18A2D823741F583E890E08417D7
:14335C009507A0F482E0888321E001E00E94730982E0888353
:1433700022E001E00E94730982E0888323E001E00E947309D9
:14338400AB0107C04338E0E05E0718F4BA014F5F5F4FCE0130
:143398000296998388839B018A0165DDFEC08A2D843709F0D0
:1433AC0098C04438E0E05E0709F03EC082E0888321E001E0CE
:1433C0000E94730982E0888322E001E00E94730982E0888300
:1433D40023E001E00E947309002711270E942F0904E010E0D6
:1433E8000E942F090E94750880EE96E09983888322E005E0E6
:1433FC000E94BE0781E090E09093500C80934F0C84E0909311
:143410004C0C80934B0C86E09093580C8093570C9E012E5F57
:143424003F4F00914D0C10914E0C0E94DC1FB8C04538E0E0CF
:143438005E0709F582E0888321E001E00E94730982E0888343
:14344C0022E001E00E94730982E0888323E001E00E947309FC
:14346000002711270E942F0904E010E00E942F0983E090E09E
:143474009093580C8093570C93C04638E0E05E0709F08DC00B
:1434880082E0888321E001E00E94730982E0888322E001E073
:14349C000E94730982E0888323E001E00E9473090027112730
:1434B0000E942F0904E010E00E942F0981E090E09093520C2E
:1434C4008093510C84E090934C0C80934B0C87E09093580C4D
:1434D8008093570C63C08A2D803399F0813389F0823379F009
:1434EC00833369F0843359F0853349F0863339F0873329F017
:14350000883319F0893309F04CC04438E0E05E0708F047C092
:143514002BE030E08A010E946F2123E030E00E946D21003058
:14352800010731F42A2D206301E00E94660705C02A2D2063F9
:14353C0002E00E946607CE010296FA01EE0FFF1FE80FF91FFE
:143550002A2C332431822082BA016338E0E07E0750F44F5FD8
:143564005F4FCE010296998388839B018A017DDC16C0433846
:14357800E0E05E0791F482E0888321E001E00E94E309002791
:14358C0011270E942F0904E010E00E942F0944E850E063E6C6
:1435A00070E0D5CDEF96EF96EF96EF962C960C94FD210E94EF
:1435B400CE21229783ED96E099838883222704E00E94BE07BA
:1435C8008AEC96E09983888321E004E00E94BE0781EC96E0AD
:1435DC009983888322E004E00E94BE0781EA8883222703E0C5
:1435F0000E94980721EC00270E946607442755278AE08883E7
:14360400222705E00E94E309AFC00E945B06602F053739F58B
:143618004130E0E05E0729F04230E0E05E0781F0A1C088E01E
:14362C00888321E005E00E9473098AE08883222705E00E9436
:14364000E3094427552792C088E0888322E005E00E947309D9
:1436540088E0888321E005E00E94E30941E050E083C064364D
:1436680031F54030450729F04130E0E05E0781F079C08AE0A9
:14367C008883222705E00E94730988E0888321E005E00E94E8
:14369000E30941E050E06AC088E0888321E005E00E94730948
:1436A40088E0888322E005E00E94E30942E050E05BC0653622
:1436B80039F54030450749F04130E0E05E0761F04230E0E0C2
:1436CC005E0779F014C08AE08883222705E00E9473090DC0BA
:1436E00088E0888321E005E00E94730906C088E0888322E024
:1436F40005E00E94730981E090E09093580C8093570C33C0FE
:14370800643781F54030450769F14130E0E05E0729F0423065
:14371C00E0E05E0769F024C088E090E09093580C8093570C62
:14373000888321E005E00E94730919C085E090E090934C0C4D
:1437440080934B0C87E09093580C8093570C22243324309244
:14375800520C2092510C88E0888322E005E00E94730901C0B7
:14376C0050CF22960C94D321229720904F0C3090500C2220BC
:1437800059F4332049F482EB96E09983888321E004E00E94C7
:14379400BE0721C080914F0C9091500C8130E0E09E0749F43F
:1437A80083EA96E09983888321E004E00E94BE0710C08091D6
:1437BC004F0C9091500C8230E0E09E0741F484E996E09983D6
:1437D000888321E004E00E94BE0704EF11E00E94BF03209096
:1437E4004B0C30904C0C3092580C2092570C229608950E9430
:1437F800D821229741E050E08BE896E099838883222702E07F
:14380C000E94BE0786E896E09983888322E002E00E94BE07EB
:143820008EE297E09983888322E008E00E94BE078AE08883C0
:1438340022E009E00E94E30978C00E945B06A02E6A2D7727C9
:143848006C36E0E07E07A1F08CE690E08617970734F0653618
:14385C00E0E07E0709F450C064C06237E0E07E07C9F06437B0
:14387000E0E07E0741F15BC04130E0E05E0709F056C08AE0A3
:14388400888322E009E00E94730984E0888322E003E00E9426
:14389800E3094427552747C04030450709F043C084E088831B
:1438AC0022E003E00E9473098AE0888322E009E00E94E30917
:1438C00041E050E034C04030450769F484E0888322E003E042
:1438D4000E94730989E090E09093580C8093570C25C08AE09D
:1438E800888322E009E00E94730920904B0C30904C0C3092D7
:1438FC00580C2092570C16C084E0888322E003E00E947309F7
:143910008AE0888322E009E00E94730920904B0C30904C0C06
:143924003092580C2092570C01C087CF22960C94DF210E9443
:14393800CE21AD974427552785E496E0FE0171960CE110E09F
:14394C00FA93EA939A938A930E94132282E08A8322242B82DA
:1439600081E08C8385E08D8381E08E8382E08F83888785E014
:14397400898781E08A8782E08B8783E08C872D8685E08E87A6
:143988002F86222701E00E947A07662777271DC0CE010296BA
:14399C00FB01E80FF91F2081206300270E94660720E2002789
:1439B0000E9466076330E0E07E0721F06530E0E07E0729F414
:1439C40023E836E000270E9408086F5F7F4F6830E0E07E077C
:1439D800F8F221E002E00E947A0768E070E01DC0CE0102960F
:1439EC00FB01E80FF91F2081206301E00E94660720E200277F
:143A00000E9466076930E0E07E0721F06B30E0E07E0729F4B7
:143A140022E037E000270E9408086F5F7F4F6E30E0E07E072D
:143A2800F8F28CEE96E09983888322E003E00E94BE078EE2CD
:143A3C0097E09983888322E008E00E94BE0744275527222757
:143A500001E00E947A0703E010E00E942F098AC103E010E093
:143A64000E94B00F0E945B06602F053771F58DE090E0841741
:143A78009507B8F485E0888322E004E00E9473098AE0888309
:143A8C0022E009E00E94730921E002E00E947A0703E010E044
:143AA0000E942F0948E050E065C187E090E08417950708F0B4
:143AB4005FC14E30E0E05E0708F05AC1222701E00E947A07DB
:143AC8004427552753C1643619F587E090E08417950788F4BD
:143ADC004E30E0E05E0768F4002711270E942F0985E088832E
:143AF00022E004E00E94E3094EE050E03BC187E090E0841782
:143B0400950708F435C121E002E00E947A0748E050E02EC1D2
:143B18006C3609F043C088E090E08417950790F040304507B0
:143B2C0079F0415050402227CE014196FA01EE0FFF1FE80FFF
:143B4000F91F008111810E947A0714C188E090E0841795073F
:143B540098F44E30E0E05E0778F44150504021E0CE014196FA
:143B6800FA01EE0FFF1FE80FF91F008111810E947A07FCC032
:143B7C004F30E0E05E0709F0F7C08AE0888322E009E00E94DF
:143B9000730985E0888322E004E00E94E3094EE050E0E8C0BB
:143BA400623709F03AC04730E0E05E0778F44F5F5F4F2227D4
:143BB800CE014196FA01EE0FFF1FE80FF91F008111810E9479
:143BCC007A07D2C04D30E0E05E0778F44F5F5F4F21E0CE0198
:143BE0004196FA01EE0FFF1FE80FF91F008111810E947A079F
:143BF400BFC04E30E0E05E0709F0BAC085E0888322E004E0D2
:143C08000E9473098AE0888322E009E00E94E3094FE050E03D
:143C1C00ABC06536B9F4002711270E942F0985E0888322E036
:143C300004E00E9473098AE0888322E009E00E94730981E09F
:143C440090E09093580C8093570C93C0643791F54E30E0E04D
:143C58005E0791F4222433243092500C20924F0C88E090E0CE
:143C6C0090934C0C80934B0C86E09093580C8093570C7BC0C1
:143C80004F30E0E05E0709F075C0002711270E942F0985E0C0
:143C9400888322E004E00E9473098AE0888322E009E00E940B
:143CA800730981E090E09093580C8093570C5FC0603399F083
:143CBC00613389F0623379F0633369F0643359F0653349F049
:143CD000663339F0673329F0683319F0693309F049C04E30AB
:143CE400E0E05E0708F044C0262F206300270E94660720E29B
:143CF80000270E946607CE010296FA01E80FF91F60834330BB
:143D0C00E0E05E0721F04530E0E05E0731F423E836E0002766
:143D20000E9408080DC04930E0E05E0721F04B30E0E05E07C1
:143D340029F422E037E000270E9408084F5F5F4F4830E0E0D8
:143D48005E0731F421E009A11AA10E947A070EC04E30E0E048
:143D5C005E0751F4002711270E942F0985E0888322E004E01A
:143D70000E94E30975CEAD960C94D32122972090510C309011
:143D8400520C222059F4332049F482E796E09983888321E0A7
:143D980004E00E94BE0716C08091510C9091520C8130E0E098
:143DAC009E0771F481E696E09983888321E004E00E94BE07A9
:143DC00000914D0C10914E0C0E94392004EF11E00E94BF03C7
:143DD40020904B0C30904C0C3092580C2092570C229608952C
:143DE8000E9475088091570C9091580C8130E0E09E0719F48C
:143DFC000E94CC0F51C08091570C9091580C8230E0E09E0715
:143E100019F40E94461346C08091570C9091580C8330E0E024
:143E24009E0719F40E94D1133BC08091570C9091580C8430AA
:143E3800E0E09E0711F4F1D831C08091570C9091580C8530A4
:143E4C00E0E09E0711F4AFDB27C08091570C9091580C8630D8
:143E6000E0E09E0711F486DC1DC08091570C9091580C8730F5
:143E7400E0E09E0711F4BDDC13C08091570C9091580C8830B3
:143E8800E0E09E0711F453DD09C08091570C9091580C893011
:143E9C00E0E09E0709F46CDF08950E94CE21442755272CC064
:143EB0000AE011E09A010E94892187E191E0F801E80FF91F5B
:143EC40022243324318220826627772715C00AE011E09A0182
:143ED8000E948921180189E191E0280E391EFB01EE0FFF1FF2
:143EEC00E20DF31D22243324318220826F5F7F4F6438E0E0D9
:143F00007E0738F34F5F5F4F4430E0E05E0780F20C94D32102
:143F14000E94D8214427552746C0222733278A010F5F1F4F07
:143F28000E949A0FB8010130E0E01E0709F037C025E830E05E
:143F3C008A010F5F1F4F0E949A0F18010AE011E09A010E948E
:143F5000892187E191E0F801E80FF91F318220826627772752
:143F64001CC09B012F5F3F4F8A010F5F1F4F0E949A0F5801AA
:143F78000AE011E09A010E948921180189E191E0280E391EF2
:143F8C00FB01EE0FFF1FE20DF31DB182A0826F5F7F4F64387E
:143FA000E0E07E0700F34F5F5F4F4430E0E05E0708F4B5CF60
:143FB4000C94DF210E94D8215901B80122970AE011E09B017B
:143FC8000E94892187E191E0F801E80FF91F86E090E09183CE
:143FDC00808381E099838883222733278B010F5F1F4F0E9499
:143FF000830F4427552735C01A01220C331C21010AE011E0BA
:144004009B010E948921180189E191E0280E391EF201E20D5D
:14401800F31DD201AA0DBB1D2D903C90318220820AE011E069
:14402C009B010E948921180189E191E0280E391EFA01EE0F1F
:14404000FF1FE20DF31D20803180398228829A012F5F3F4FE2
:144054008B010F5F1F4F0E94830F4F5F5F4F4438E0E05E07BF
:1440680008F4C6CF22960C94DF210E94CE21B80122970AE06E
:14407C0011E09B010E94892187E191E0F801E80FF91F222430
:1440900033243182208239822882222733278B010F5F1F4F00
:1440A4000E94830F222433243982288225E830E08B010F5FBB
:1440B8001F4F0E94830F442755271FC00AE011E09B010E9473
:1440CC008921180189E191E0280E391EFA01EE0FFF1FE20DB0
:1440E000F31D2224332431822082398228829A012F5F3F4FAE
:1440F4008B010F5F1F4F0E94830F4F5F5F4F4438E0E05E071F
:14410800E8F222960C94D3214A935A932297442755272EC025
:14411C000AE011E09A010E94892187E191E0F801E80FF91FEC
:1441300020803180C1018330E0E09E0721F08630E0E09E0724
:14414400B9F40AE011E09A010E94892187E191E0F801E80F2F
:14415800F91F85E090E0918380839983888325E830E08A0180
:14416C000F5F1F4F0E94830F4F5F5F4F4430E0E05E0770F2D8
:1441800022965991499108954A935A932297442755272EC0BA
:144194000AE011E09A010E94892187E191E0F801E80FF91F74
:1441A80020803180C1018130E0E09E0721F08530E0E09E07AF
:1441BC00B9F40AE011E09A010E94892187E191E0F801E80FB7
:1441D000F91F83E090E0918380839983888325E830E08A010A
:1441E4000F5F1F4F0E94830F4F5F5F4F4430E0E05E0770F260
:1441F80022965991499108954A935A93A80122970AE011E093
:14420C009A010E94892187E191E0F801E80FF91F2080318085
:14422000C1018330E0E09E0721F08630E0E09E07B9F40AE0ED
:1442340011E09A010E94892187E191E0F801E80FF91F85E058
:1442480090E0918380839983888325E830E08A010F5F1F4F30
:14425C000E94830F22965991499108954A935A93A8012297D5
:144270000AE011E09A010E94892187E191E0F801E80FF91F97
:1442840020803180C1018130E0E09E0721F08530E0E09E07D2
:14429800B9F40AE011E09A010E94892187E191E0F801E80FDA
:1442AC00F91F83E090E0918380839983888325E830E08A012D
:1442C0000F5F1F4F0E94830F22965991499108953A932A9337
:1442D4001A930A930895689401C0E894EA92FA928A93EE247F
:1442E800FF2480E1000F111FEE1CFF1CE216F30618F0E21AE5
:1442FC00F30A03958A95A1F716F40E2D1F2D8991F990E990B5
:1443100008950A921A928A939A93029FC001129F900D039F18
:14432400900D8C0199918991199009900895A990B990C9905D
:14433800D9900895A990B990C990D990E990F9900895A9904F
:14434C00B990C990D990E990F990499159910895A990B9906D
:14436000C990D990E990F990499159916991799108957A9313
:144374006A935A934A93FA92EA92DA92CA92BA92AA92089579
:144388005A934A93BA92AA920895A990B9904991599108954F
:14439C007A936A935A934A9308954991599169917991089537
:1443B0007A936A935A934A93BA92AA920895A990B9904991A4
:1443C40059916991799108955A934A93DA92CA92BA92AA9240
:1443D8000895A990B990C990D9904991599108957A936A9385
:1443EC005A934A93DA92CA92BA92AA920895A990B990C9902B
:14440000D99049915991699179910895222321F0000F111F45
:144414002A95FACF0895112319F0000F1A95FBCF0895AA93D0
:14442800BA93EA93FA930A92AF81B885ED81FE8100300107FB
:14443C0029F001900D9201501040F8CF0990F991E991B991D4
:06445000A99124960895D5
:00000001FF
