:040000000C94010457
:04000C000C948128A7
:040028000C94A50A85
:040038000C946C0AAE
:040040000C94130AFF
:040074000C94F30AEB
:14008C0000000000000000400000C8410000000000002041B6
:1400A000000010416EB7B4B0D7B2E2CAD4B5DAD2BBB4CE00CB
:1400B400E8030000000000000000000000000000000000004D
:1400C800000000000000000000000000000000000000000024
:1400DC00000000000000000000000000000000000000000010
:1400F0000000000000000000000000000000000000000000FC
:140104000000000000000000000000000000000000000000E7
:1405A000000001000000000000000000000000000000000046
:1405B400000000000000000000000000000000000000000033
:1405C80000000000000000000000000000000000000000001F
:1405DC0000000000000000000000000000000000000000000B
:1405F0000000000000000000000000000000000000000000F7
:140604000000000000000000000000000000000000000000E2
:140618000000000000000000000000000000000000000000CE
:14062C000000000000000000000000000000000000000000BA
:140640000000000000000000000000000000000000000000A6
:14065400000000000000000000000000000000000000000092
:1406680000000000000000000000000000000000000000007E
:14067C0000000000000000000000000000000000000000006A
:14069000000000000000000000000000000000000000000056
:1406A400000000000000010002000300040006000700090022
:1406B8000A00020003000500060008000900CAFDBEDDD6D8F3
:1406CC00D6C3D6D0A1A3A1A3A1A300CFB5CDB3D6D8D6C3D6EE
:1406E000D0A1A3A1A3A1A3002D2000C8B7C8CF00CAC7B7F1CE
:1406F400D6D8D6C300CEC2B6C8B1A3B4E6CAA7B0DCA3A1006E
:14070800CEC2B6C8B1A3B4E6B3C9B9A6A3A100CAB1BCE4B1F6
:14071C00A3B4E6B3C9B9A6A3A100D6D8D6C3CFB5CDB300C959
:14073000E8D6C3CAB1BCE400B6CFB5E7D7D4B6AFBBD6B8B4EB
:1407440000B1A3B4E6D6D02E202E202E00B1A3B4E600CEC2C5
:14075800B6C800BAE3CEC200C9FDCEC20020003A2000D0B48E
:14076C00D7B4CCAC00D6D8D6C300D4CBD0D000B1E0BCAD00F6
:14078000D7B4CCAC3A00CEC2B6C83A005400BBD6B8B4D6D0E9
:140794002E202E202E00C8A1CFFB00BBD6B8B400CAC7B7F11E
:1407A800BBD6B8B4C9CFB4CEB9A4D7F700B5C8B4FD00BDE12F
:1407BC00CAF800D4DDCDA300B9CAD5CF00CDA3D6B900C9E86F
:1407D000D6C300CDA3D6B92020202000BFAACABC202020208E
:1407E400002054343A002054333A002054323A002054313A7F
:1407F80000CAB1BCE43A00323000CFEFD0E1CDBFDEBFCE517F
:14080C00D0400AEA08830024EEE5F8E01DE0EA32F10711F068
:140820000192FBCF0083E4EAF0E0A0E0B1E018E000E00BBF93
:14083400E230F10721F0C89531960D92F9CF0E949709FFCFFA
:14084800000F111F0150104081E090E080179107C8F3089564
:14085C004A935A93A8014150504005E714E0EEDF81E090E076
:1408700084179507B0F35991499108954A935A93A801415035
:14088400504008EE13E0E8DF81E090E084179507B0F359918B
:140898004991089508954A935A9380EE84BB8091640080616B
:1408AC00809364008FED85BB8091650080618093650001E055
:1408C00010E00E94240443B355274F3CE0E05E07E9F04F3CE4
:1408D400E0E05E07DCF0473DE0E05E0799F04B3DE0E05E0740
:1408E80069F04D3DE0E05E0739F04E3DE0E05E0709F00AC058
:1408FC0005E699C001E697C004E695C005E793C00CE691C0A5
:140910008FEB85BB8091650080618093650001E010E00E94D7
:14092400240443B355274F3AE0E05E07E9F04F3AE0E05E07F0
:14093800DCF0473BE0E05E0799F04B3BE0E05E0769F04D3B23
:14094C00E0E05E0739F04E3BE0E05E0709F00AC003E769C0C5
:1409600002E767C004E765C003E663C00BE261C08FE785BB93
:140974008091650080618093650001E010E00E94240443B30F
:1409880055274F36E0E05E07E9F04F36E0E05E07DCF0473768
:14099C00E0E05E0799F04B37E0E05E0769F04D37E0E05E07F0
:1409B00039F04E37E0E05E0709F00AC000E339C003E337C0E4
:1409C40002E335C001E333C006E331C08FEF85BB8091650060
:1409D8008F708093650001E010E00E94240443B355274F3EFA
:1409EC00E0E05E07E9F04F3EE0E05E07DCF0473FE0E05E07D0
:140A000099F04B3FE0E05E0769F04D3FE0E05E0739F04E3FEA
:140A1400E0E05E0709F00AC007E309C008E307C009E305C0D0
:140A280004E303C005E301C00EE6599149910895AA924A93F9
:140A3C0030DF402F02E010E00E942E042ADFA02E401761F4FF
:140A50004E3651F020900001241611F40EE608C0409300014D
:140A6400042F04C08EE6809300010EE64991A99008954A937E
:140A78005A9322242ABA809165008D7F8093650080916500E3
:140A8C008160809365008091650088608093650001E010E056
:140AA0000E94240449B35527407850708FEF8ABB809165004F
:140AB400877F809365008A01599149910895AA92A02ED7DF04
:140AC80000300107E1F7809165008D7F80936500809165009A
:140ADC008E7F8093650080916500877F80936500ABBA809117
:140AF000650088608093650001E010E00E942404809165001C
:140B0400877F80936500A9900895AA92A02EB1DF00300107B7
:140B1800E1F780916500826080936500809165008E7F80938B
:140B2C00650080916500877F80936500ABBA80916500886099
:140B40008093650001E010E00E94240480916500877F8093FF
:140B54006500A990089501E0B2DF01E010E00C942E044A9360
:140B68005A9322242ABA809165008D7F8093650080916500F2
:140B7C008160809365008091620081608093620001E010E072
:140B90000E94240449B35527407850708FEF8ABB8091620061
:140BA4008E7F809362008A01599149910895AA92A02ED7DF0F
:140BB80000300107E1F7809165008D7F8093650080916500A9
:140BCC008E7F80936500809162008E7F80936200ABBA809125
:140BE000620081608093620001E010E00E942404809162003B
:140BF4008E7F80936200A9900895AA92A02EB1DF00300107C3
:140C0800E1F780916500826080936500809165008E7F80939A
:140C1C006500809162008E7F80936200ABBA809162008160B1
:140C30008093620001E010E00E942404809162008E7F80930D
:140C44006200A990089501E0B2CFAA924A93A22E402F442343
:140C580011F0413019F40A2D56DF06C0423011F0433011F4EC
:140C6C000A2DC7DF4991A99008954A936A93622F402F662384
:140C800021F4042F00581DDF11C0613021F4042F005717DFCD
:140C94000BC0623021F4042F005889DF05C0633019F4042F4F
:140CA800005783DF6991499108950E943329622F402FAE80E2
:140CBC00662331F4042F0058FEDE0A2D22DF17C0613031F44A
:140CD000042F0057F6DE0A2D1ADF0FC0623031F4042F005871
:140CE40066DF0A2D8ADF07C0633029F4042F00575EDF0A2DA2
:140CF80082DF0C943A290E943329A22E602F4E815F81AA20AE
:140D0C0071F4062F0058D7DE05C0FA010081F9DE4F5F5F4FB8
:140D2000FA0120802220B9F732C08A2D813071F4062F0057E7
:140D3400C6DE05C0FA010081E8DE4F5F5F4FFA0120802220C7
:140D4800B9F721C08A2D823071F4062F00582DDF05C0FA01DF
:140D5C0000814FDF4F5F5F4FFA0120802220B9F710C08A2D64
:140D7000833069F4062F00571CDF05C0FA0100813EDF4F5FCC
:140D84005F4FFA0120802220B9F70C943A290E942929A9017F
:140D9800602F662311F0613059F405C0FA010081B2DE4F5FD1
:140DAC005F4FFA0120802220B9F70EC0623011F0633051F4BF
:140DC00005C0FA0100811BDF4F5F5F4FFA0120802220B9F7FB
:140DD4000C942E294A935A9322242ABA809165008D7F80938B
:140DE800650080916500816080936500809165008860809352
:140DFC00650001E010E00E942E0449B355274F778FEF8ABBD8
:140E100080916500877F80936500042F5991499108954A9369
:140E24005A9322242ABA809165008D7F809365008091650033
:140E38008160809365008091620081608093620001E010E0B3
:140E4C000E942E0449B355274F778FEF8ABB809162008E7F3D
:140E600080936200042F59914991089576DEEDCEAA92BA92DE
:140E740022242ABA8091650082608093650080916500816019
:140E8800809365008091650088608093650001E010E00E9495
:140E9C002E04A9B2BB248FEF8ABB80916500877F809365001F
:140EB0000A2DB990A9900895AA92BA9222242ABA80916500B0
:140EC40082608093650080916500816080936500809162007E
:140ED80081608093620001E010E00E942E04A9B2BB248FEF53
:140EEC008ABB809162008E7F809362000A2DB990A990089562
:140F00000E943329622F402F662349F4042F0058D8DD0AE0EF
:140F140010E00E942404AADF24C0613049F4042F0057CDDDA0
:140F28000AE010E00E9424049FDF19C0623051F4042F005858
:140F3C003ADE0AE010E00E942404B8DFA02E0DC0633051F4DB
:140F5000042F00572EDE0AE010E00E942404ACDFA02E01C039
:140F640000270C943A29AA92A02E0A2DA8DD7EDFA990089556
:140F7800AA92A02E0A2DA1DD9BDFA99008958AB38F6F8ABBD6
:140F8C008FEF8BBB809164008F6080936400809165008F604D
:140FA0008093650080916100816080936100809162008160AA
:140FB4008093620000E383DD08E081DD01E07FDD06E07DDDAE
:140FC8000CE07BDD00E3F1DD08E0EFDD01E0EDDD06E0EBDD13
:140FDC000CE0E9CD4A935A93A8014030450719F40CE069DDF1
:140FF00030C04130E0E05E0719F40EE062DD29C04230E0E012
:141004005E0719F40DE05BDD22C04330E0E05E0719F40FE0CB
:1410180054DD1BC04430E0E05E0719F40CE0C5DD14C045303B
:14102C00E0E05E0719F40EE0BEDD0DC04630E0E05E0719F480
:141040000DE0B7DD06C04730E0E05E0711F40FE0B0DD59914E
:141054004991089506E333DD06E3A9CD00E32FDD00E3A5CD75
:141068000E9493280E941429622F2197AF848A2D0B848019DD
:14107C008F5FC82ECC0CEADF662349F48B8580588150888351
:1410900040E880E8A82EE82E22C0613051F48B85805881505F
:1410A400888340E980E8A82E80E9E82E16C0623049F48B8592
:1410B80080588150888340E880E8A82EE82E0BC0633049F459
:1410CC008B8580588150888340E980E8A82E80E9E82E6623DD
:1410E00011F06130A1F4AA240EC0242E4F5F022DE8DC0881BD
:1410F400E6DCEE2403C0002708DDE394EC14D8F3A3948A2D15
:14110800803178F317C0623011F0633099F4AA240EC0242E3F
:14111C004F5F022D48DD088146DDEE2403C0002768DDE39459
:14113000EC14D8F3A3948A2D803178F391DF21960E940929DB
:14114400249608950E9493280E941429622F2197AF848A2DD1
:141158000B8480198F5FC82ECC0C7ADF662349F48B85805898
:14116C008150888340E880E8A82EE82E22C0613051F48B854F
:1411800080588150888340E980E8A82E80E9E82E16C0623059
:1411940049F48B8580588150888340E880E8A82EE82E0BC0FF
:1411A800633049F48B8580588150888340E980E8A82E80E9CF
:1411BC00E82E662311F06130A1F4AA240EC0242E4F5F022D8E
:1411D00078DC088176DCEE2403C00FEF98DCE394EC14D8F353
:1411E400A3948A2D803178F317C0623011F0633099F4AA2495
:1411F8000EC0242E4F5F022DD8DC0881D6DCEE2403C00FEF24
:14120C00F8DCE394EC14D8F3A3948A2D803178F321DF2196F7
:141220000E940929249608953A932A930E941429C02E04E351
:1412340046DC04E3BCDC6C2D4A8560684068AA2413C0242E3A
:141248004F5F022D3ADC062F38DCEE2407C0EC85FD850191F8
:14125C00FD87EC8756DCE3948E2D8831B0F3A3948A2D803227
:1412700050F36C2D4A8560684068EE2413C0242E4F5F022D3B
:1412840096DC062F94DCEE2407C0EC85FD850191FD87EC87EA
:14129800B2DCE3948E2D8831B0F3A3948A2D803450F306E358
:1412AC000ADC06E380DC01E010E00E94240400E302DC00E3C4
:1412C00078DC0E94092922960895229781E091E099838883EB
:1412D40023E0002712DD81E091E099838883222700270BDD9C
:1412E80087E0888321E001E02BDF08EB1BE00E942E0487E06B
:1412FC00888321E001E0B2DE82E0888321E002E01DDF0CE227
:1413100011E00E942E0487E0888322E002E0A4DE85E08883BC
:1413240021E003E00FDF2296089521978FEF82B985E583B977
:1413380078940E94C3070E94360782E090E090931F0D809316
:14134C001E0D8CE08883222701E00E9434088CE0888321E06B
:1413600001E00E9434088CE0888322E001E00E9434088CE016
:14137400888323E001E00E94340880E590E090931501809377
:14138800140182E190931301809312010E9490230E94EA2774
:14139C00222700EF0E94EB0928EB0EEF0E94DC0902C00E9474
:1413B000EB21FDCF219608950093260D2093250D22242EBC22
:1413C4000DBD2CBD2FBC85E08EBD87B7846087BF089500932F
:1413D800240D2093230D222420928A00009389002093880014
:1413EC0020928B0085E080938A0080917D00846080937D00AC
:1414000008950093220D02BF87B7816087BF87E083BF08950D
:141414000093210D04BD87B7806487BF85E085BD08950A92FA
:141428001A922A923A924A925A926A927A928A929A920A93C7
:14143C001A932A933A938A939A93AA93BA93EA93FA930FB6C2
:141450000A922197222423BE809110019091110101979093FD
:1414640011018093100124E630E08C010E94BF28C801C096EF
:14147800888322270AE00E94590683E7888322270BE00E94D6
:14148C00590681E090E020901001309011018215930520F446
:1414A000222422BE87E083BF219609900FBEF991E991B991FE
:1414B400A99199918991399129911991099199908990799093
:1414C800699059904990399029901990099018950A921A929C
:1414DC002A923A924A925A926A927A928A929A920A931A9312
:1414F0002A933A938A939A93AA93BA93EA93FA930FB60A921F
:1415040022242EBC0E947C0D2090260D2DBC2090250D2CBCE2
:1415180085E08EBD09900FBEF991E991B991A99199918991DD
:14152C003991299119910991999089907990699059904990DD
:14154000399029901990099018950A921A922A923A924A927A
:141554005A926A927A928A929A920A931A932A933A938A9356
:141568009A93AA93BA93EA93FA930FB60A922197222425BC6E
:14157C002092200D11C08091200D805D888323E000270E94B9
:14159000590604E610E00E942E048091200D8F5F8093200DCE
:1415A4008091200D853058F32090210D24BC85E085BD2196D9
:1415B80009900FBEF991E991B991A991999189913991299169
:1415CC0019910991999089907990699059904990399029903F
:1415E0001990099018950A921A922A923A924A925A926A9274
:1415F4007A928A929A920A931A932A933A938A939A93AA9334
:14160800BA93EA93FA930FB60A92222420928A000E944B2285
:14161C002090240D209289002090230D2092880085E080930C
:141630008A0009900FBEF991E991B991A99199918991399120
:141644002991199109919990899079906990599049903990C5
:1416580029901990099018954A935A931B9A1C9A01E010E0D0
:14166C000E9424041C9801E010E00E9424041B9801E010E0CD
:141680000E9424041B9A4427552724C01B9801E010E00E94E6
:1416940024042090120130901301220C331C3092130120927E
:1416A800120181B19927847090709595879595958795282A57
:1416BC00392A30921301209212011B9A01E010E00E942404CC
:1416D0004F5F5F4F4830E0E05E07C0F24427552724C01B98DD
:1416E40001E010E00E9424042090140130901501220C331C3F
:1416F800309215012092140181B19927847090709595879513
:14170C0095958795282A392A30921501209214011B9A01E099
:1417200010E00E9424044F5F5F4F4830E0E05E07C0F21C9A9A
:141734000AE010E00E9424045991499108954A935A931E9A1A
:141748001F9A01E010E00E9424041F9801E010E00E942404E7
:14175C001E9801E010E00E9424041E9A4427552728C01E98EB
:1417700001E010E00E9424042090120130901301220C331CB6
:14178400309213012092120125E030E001B1112700721070C5
:141798000E9498282090120130901301202A312A30921301C9
:1417AC00209212011E9A01E010E00E9424044F5F5F4F48303D
:1417C000E0E05E07A0F24427552728C01E9801E010E00E9466
:1417D40024042090140130901501220C331C30921501209237
:1417E800140125E030E001B11127007210700E9498282090D5
:1417FC00140130901501202A312A30921501209214011E9AF2
:1418100001E010E00E9424044F5F5F4F4830E0E05E07A0F29E
:141824001F9A0AE010E00E9424045991499108954A935A9328
:14183800809162008260809362008091620084608093620006
:14184C0001E010E00E942404809162008B7F8093620001E01A
:1418600010E00E942404809162008D7F8093620001E010E0F5
:141874000E942404809162008260809362004427552728C0FD
:14188800809162008D7F8093620001E010E00E94240420900D
:14189C00120130901301220C331C309213012092120180B108
:1418B000992781709070282A392A3092130120921201809112
:1418C400620082608093620001E010E00E9424044F5F5F4F60
:1418D8004830E0E05E07A0F24427552728C0809162008D7F7F
:1418EC008093620001E010E00E94240420901401309015013D
:14190000220C331C309215012092140180B1992781709070D5
:14191400282A392A3092150120921401809162008260809303
:14192800620001E010E00E9424044F5F5F4F4830E0E05E07B5
:14193C00A0F2809162008460809362000AE010E00E94240495
:141950005991499108954A935A93809162008061809362008F
:141964008091620080628093620001E010E00E9424048091F9
:1419780062008F7D8093620001E010E00E942404809162006A
:14198C008F7E8093620001E010E00E942404809162008061D6
:1419A000809362004427552733C0809162008F7E80936200EF
:1419B40001E010E00E9424042090120130901301220C331C70
:1419C800309213012092120181B19927887090701C013594A0
:1419DC002794359427943594279440901201509013014228F3
:1419F0005328509213014092120180916200806180936200C4
:141A040001E010E00E9424044F5F5F4F4830E0E05E0748F200
:141A18004427552733C0809162008F7E8093620001E010E01A
:141A2C000E9424042090140130901501220C331C30921501EC
:141A40002092140181B19927887090701C0135942794359477
:141A540027943594279440901401509015014228532850929D
:141A68001501409214018091620080618093620001E010E0D3
:141A7C000E9424044F5F5F4F4830E0E05E0748F280916200E6
:141A90008062809362000AE010E00E942404599149910895E6
:141AA4004A935A93A8018AED82B986EF8093610083B18C6FF1
:141AB80083B9809162008F6F809362004030450769F0413072
:141ACC00E0E05E0759F04230E0E05E0749F04330E0E05E0730
:141AE00039F007C0BDDD05C02CDE03C0A3DE01C032DF599199
:141AF40049910895AA92BA928091FE059091FF058333E0E030
:141B08009E0731F4222433243092FF052092FE0580911601BF
:141B1C00909117018130E0E09E07E1F440904E0250904F0240
:141B300020904C0230904D020091FE051091FF050E94652A2A
:141B44003A932A931A930A93810192010E94352C14F0189AEB
:141B580003C083B18E7F83B980915002909151028130E0E0F1
:141B6C009E07E1F440904E0250904F0220904C0230904D028D
:141B80000091FE051091FF050E94652A3A932A931A930A9313
:141B9400810192010E94352C14F0A99A03C085B38D7F85BB97
:141BA80080918A0390918B038130E0E09E07E1F440904E02D1
:141BBC0050904F0220904C0230904D020091FE051091FF059E
:141BD0000E94652A3A932A931A930A93810192010E94352CE4
:141BE40014F0AA9A03C085B38B7F85BB8091C4049091C5049D
:141BF8008130E0E09E07E1F440904E0250904F0220904C029F
:141C0C0030904D020091FE051091FF050E94652A3A932A93C1
:141C20001A930A93810192010E94352C14F0AB9A03C085B30A
:141C3400877F85BB8091FE059091FF0501969093FF0580934C
:141C4800FE05B990A99008958EE08093950083E089B9222465
:141C5C00209290002BB888E18AB908955D9BFECF0CB90895DF
:141C70000027112722242092280D0BC00030EDE71E0729F4C3
:141C840081E08093280D01E005C00F5F1F4F5F9BF3CF0CB1A8
:141C98000895AA924A933EC0E7DF0093BA0A023009F038C044
:141CAC0041E00FC0DFDF8AEB9AE0E42FFF27E80FF91F0083BC
:141CC0008091280D813011F401E029C04395453078F32090E2
:141CD400BE0A3324309261082092600845E010C0C5DFA02E31
:141CE8008AEB9AE0E42FFF27E80FF91FA0828091280D813098
:141CFC0011F401E00EC0439580916008909161080696242E57
:141D100033242816390630F3002701C0C1CF4991A9900895A0
:141D24000E94182969017801AA2407C0EA2DFF27EE0DFF1DFC
:141D3800008196DFA3942A2C33242C143D04A0F30C940229DE
:141D4C000E944F29C8844FEF5FEFAA241BC0EA2DFF27E00FBC
:141D6000F11F208033244225532566270EC040FF09C088E0BE
:141D740094E81A013694279428263926A10102C05695479567
:141D88006395683080F3A394AC1418F31A01232C3324F90187
:141D9C00208241830C9458290E941F29422F58012397842F8B
:141DB000825088839E012F5F3F4F8501C7DFE42FFF27329759
:141DC400EA0DFB1D20803980321449F4E42FFF273197EA0D28
:141DD800FB1D20803A80321411F001E001C0002723960C941C
:141DEC0024290E944129C22EA02E23974985C09267084093B0
:141E00006608A092650822242092630881E08093640882E01C
:141E140080936208842F8B5F88839E012F5F3F4F02E618E0FA
:141E280091DF87E698E0E42FFF27E80FF91F2980208288E650
:141E3C0098E0E42FFF27E80FF91F2A80208202DF242F3327F8
:141E5000295F3F4F02E618E065DF23960C9448290E94182997
:141E640079016801AE80BF808FB78F778FBFE199FECFEEBA91
:141E7800CFBAADBAE29AE19A01E010E00E94240478940C9428
:141E8C0002290E941A29690158018FB78F778FBFE199FECF8E
:141EA000CEBAAFBAE09A01E010E00E942404ADB2BB247894DE
:141EB40085010C94FD28AA92BA925801229785E598E0998337
:141EC80088832A2D00270E947F0685010E94FB272296B9900B
:141EDC00A9900895AA92BA92580185010E94FB27B990A9906F
:141EF00008950E944F29229781E090E09093130D8093120D28
:141F040080E598E09983888321E001E00E947F068BE498E0D5
:141F18009983888321E006E00E947F0686E498E09983888377
:141F2C0022E001E00E947F0681E498E09983888322E006E0AB
:141F40000E947F0688E398E09983888323E001E00E947F0651
:141F54002FE238E003E00E94C9062AE238E003E00E94C90684
:141F680088E398E09983888323E001E00E947F062FE238E027
:141F7C0003E00E94C9062AE238E003E00E94C906442755279E
:141F900083E0888321E002E00E94A4087EC3002711278BDF94
:141FA400AA24BB24DFC0AA2049F4BB2039F461E070E021E03C
:141FB80003E00E943B0623C0C5018130E0E09E0739F461E022
:141FCC0070E021E008E00E943B0617C0C5018230E0E09E0731
:141FE00039F462E070E022E003E00E943B060BC0C501833022
:141FF400E0E09E0731F462E070E022E008E00E943B060AE303
:1420080011E095010E94ED2886E191E0F801E80FF91FC08066
:14201C00D180CC2011F4DD20F9F0C6018130E0E09E0701F1B9
:142030008230E0E09E0709F477C08330E0E09E0709F478C004
:142044008430E0E09E0709F479C08530E0E09E0709F47AC0E8
:142058008630E0E09E0709F47BC07FC025E238E0062F0E94EC
:14206C00C90679C00AE311E095010E94ED2880E392E0F8015F
:14208000E80FF91F00811181228133810E94332A24E630E0BA
:142094000E94A32898012063062F0E9427060AE311E0950137
:1420A8000E94ED2880E392E0F801E80FF91F008111812281DA
:1420BC0033810E94332A2AE030E00E94A3282AE030E00E941A
:1420D0009F2898012063062F0E9427060AE311E095010E94FF
:1420E400ED2880E392E0F801E80FF91F00811181228133818C
:1420F8000E94332A2AE030E00E949F2898012063062F0E945F
:14210C00270620E2062F0E94270621EA062F0E94270626EE69
:14212000062F0E9427061DC020E238E0062F0E94C90617C033
:142134002BE138E0062F0E94C90611C026E138E0062F0E9406
:14214800C9060BC021E138E0062F0E94C90605C02BE138E040
:14215C00062F0E94C906C50101965C01C5018430E0E09E0730
:1421700008F41BCF0E941C05A02E013609F048C088E090E0D4
:1421840090931F0D80931E0D40304507A9F04130E0E05E07CF
:14219800C1F04230E0E05E07D9F04330E0E05E07F1F0453034
:1421AC00E0E05E0709F14630E0E05E0721F170C283E08883B3
:1421C00021E002E00E94340869C288E0888321E007E00E9422
:1421D400340862C283E0888322E002E00E9434085BC288E0E2
:1421E800888322E007E00E94340854C287E0888323E006E0A0
:1421FC000E9434084DC28BE0888323E00AE00E94340846C299
:142210008A2D843609F04CC04030450769F04130E0E05E0799
:14222400C1F04230E0E05E0719F14330E0E05E0771F131C267
:1422380083E0888321E002E00E94340883E0888322E002E011
:14224C000E94A40842E050E022C288E0888321E007E00E94FD
:14226000340888E0888322E007E00E94A40843E050E013C25C
:1422740083E0888322E002E00E94340883E0888323E002E0D3
:142288000E94A40844E050E004C288E0888322E007E00E94DC
:14229C00340887E0888323E006E00E94A40845E050E0F5C13E
:1422B0008A2D853709F061C04230E0E05E0791F04330E0E042
:1422C4005E07E9F04430E0E05E0741F14530E0E05E0799F1D9
:1422D8004630E0E05E0709F43DC0DBC183E0888322E002E06F
:1422EC000E94340883E0888321E002E00E94A408442755277A
:14230000CCC188E0888322E007E00E94340888E0888321E08E
:1423140007E00E94A40841E050E0BDC185E0888323E002E05C
:142328000E94340883E0888322E002E00E94A40842E050E0D1
:14233C00AEC187E0888323E006E00E94340888E0888322E070
:1423500007E00E94A40843E050E09FC18BE0888323E00AE02E
:142364000E94340888E0888322E007E00E94A40843E050E08A
:1423780090C18A2D8C3609F04DC04130E0E05E0769F043301F
:14238C00E0E05E07C1F04530E0E05E0719F14630E0E05E0728
:1423A00071F17BC188E0888321E007E00E94340883E08883E4
:1423B40021E002E00E94A408442755276CC188E0888322E05B
:1423C80007E00E94340883E0888322E002E00E94A40842E07A
:1423DC0050E05DC187E0888323E006E00E94340883E08883F8
:1423F00023E002E00E94A40844E050E04EC18BE0888323E0CA
:142404000AE00E94340887E0888323E006E00E94A40845E02E
:1424180050E03FC18A2D823709F04CC04030450769F0423084
:14242C00E0E05E07C1F04430E0E05E0719F14530E0E05E0789
:1424400071F12BC183E0888321E002E00E94340888E0888398
:1424540021E007E00E94A40841E050E01CC183E0888322E0A0
:1424680002E00E94340888E0888322E007E00E94A40843E0D3
:14247C0050E00DC183E0888323E002E00E94340887E08883AB
:1424900023E006E00E94A40845E050E0FEC087E0888323E079
:1424A40006E00E9434088BE0888323E00AE00E94A40846E089
:1424B80050E0EFC08A2D833709F053C085E090E090931F0D90
:1424CC0080931E0D40304507C9F04130E0E05E07E1F0423070
:1424E000E0E05E07F9F04330E0E05E0711F14430E0E05E07A7
:1424F40029F14530E0E05E0741F14630E0E05E0759F1CAC07F
:1425080083E0888321E002E00E943408C3C088E0888321E099
:14251C0007E00E943408BCC083E0888322E002E00E9434083A
:14253000B5C088E0888322E007E00E943408AEC083E088830C
:1425440023E002E00E943408A7C087E0888323E006E00E945C
:142558003408A0C08BE0888323E00AE00E94340899C08A2D82
:14256C00843709F094C040304507F1F04130E0E05E0791F19E
:142580004230E0E05E0709F443C04330E0E05E0709F455C006
:142594004430E0E05E0709F466C04530E0E05E0709F464C0BC
:1425A8004630E0E05E0709F462C073C083E0888321E002E0E1
:1425BC000E94340881E090E09093130D8093120D222433244A
:1425D0003092150D2092140D83E090931F0D80931E0D5CC034
:1425E40088E0888321E007E00E94340881E090E09093130D96
:1425F8008093120D9093150D8093140D83E090931F0D80935F
:14260C001E0D46C083E0888322E002E00E94340881E090E088
:142620009093130D8093120D82E09093150D8093140D83E0F3
:1426340090931F0D80931E0D2FC088E0888322E007E00E9418
:14264800340881E090E09093130D8093120D83E09093150D54
:14265C008093140D90931F0D80931E0D19C00E94852515C0AF
:142670000E94B62512C08BE0888323E00AE00E94340881E065
:1426840090E09093130D8093120D85E090931F0D80931E0D6B
:1426980001C081CC22960C9458290E941429229744275527C8
:1426AC002227332701E010E00E94470F78012227332702E0B0
:1426C00010E00E94470F68012227332703E010E00E94470F47
:1426D40058012227332704E010E00E94470FB801EE2071F4FE
:1426E800FF2061F4CC2051F4DD2041F4AA2031F4BB2021F428
:1426FC000030010709F4EAC080E098E099838883222702E0C1
:142710000E947F068BEF97E09983888322E002E00E947F066B
:1427240086EF97E09983888322E008E00E947F0622273327DA
:14273800002711270E94470F5801B5010130E0E01E0749F4D4
:14274C004427552784E0888322E003E00E94A40808C041E007
:1427600050E08AE0888322E009E00E94A40800270E94010AB3
:14277400B0C080911001909111018130E0E09E0731F58AE0E6
:14278800888322E009E00E94340884E0888322E003E00E9473
:14279C0034084030450781F40E9436078AEE97E099838883C7
:1427B00022E005E00E947F060E94A22408EC10E00E942E04E7
:1427C40081E090E090931F0D80931E0D89C00E941C05A02EC9
:1427D8006A2D77276C36E0E07E0779F06C36E0E07E070CF481
:1427EC0074C06237E0E07E0741F16437E0E07E0709F443C0B5
:142800006AC0222423BE80E2888322270AE00E94590680E270
:14281400888322270BE00E9459064130E0E05E0709F057C0CA
:142828008AE0888322E009E00E94340884E0888322E003E00A
:14283C000E94A4084427552748C0222423BE80E2888322276E
:142850000AE00E94590680E2888322270BE00E945906403077
:142864004507B9F584E0888322E003E00E9434088AE08883BF
:1428780022E009E00E94A40841E050E028C0222423BE8AE049
:14288C00888322E009E00E94340884E0888322E003E00E946E
:1428A00034084030450781F40E9436078AEE97E099838883C2
:1428B40022E005E00E947F060E94A22408EC10E00E942E04E2
:1428C80081E090E090931F0D80931E0D07C04FCF81E090E0E8
:1428DC0090931F0D80931E0D22960C9409290E942929229724
:1428F0004427552788EE97E099838883222700270E947F0642
:142904002091140D3091150D2F5F3F4F206300270E94270675
:142918002AE300270E94270682EE97E09983888321E001E0B8
:14292C000E947F068CED97E09983888322E001E00E947F064F
:1429400087ED97E09983888323E000270E947F0682ED97E03A
:142954009983888323E003E00E947F068BE198E09983888330
:1429680023E007E00E947F068DEC97E09983888323E00AE046
:14297C000E947F0682E0888323E001E00E94A408FFC1222778
:1429900002E00E943B0600271127A2DA2091140D3091150DDE
:1429A4000AE311E00E94ED2886E191E0F801E80FF91F8081A9
:1429B80091818230E0E09E0709F48BC021E004E00E943B06D2
:1429CC002091140D3091150D0AE311E00E94ED2880E392E0D8
:1429E000F801E80FF91F20803180428053800CE810E00E946F
:1429F400D9283A932A931A930A93810192010E94352C19F4D5
:142A080085EF83B902C08FE583B92091140D3091150D0AE3F6
:142A1C0011E00E94ED2880E392E0F801E80FF91F008111810E
:142A3000228133810E94332A24E630E00E94A3289801206399
:142A440001E00E9427062091140D3091150D0AE311E00E9499
:142A5800ED2880E392E0F801E80FF91F00811181228133810E
:142A6C000E94332A2AE030E00E94A3282AE030E00E949F284D
:142A80009801206301E00E9427062091140D3091150D0AE3D4
:142A940011E00E94ED2880E392E0F801E80FF91F0081118196
:142AA800228133810E94332A2AE030E00E949F289801206325
:142ABC0001E00E94270620E201E00E94270621EA01E00E9416
:142AD000270626EE01E00E94270622E004E00E943B06209187
:142AE400140D3091150D0AE311E00E94ED2886E191E0F80174
:142AF800E80FF91F6081718160306707C9F06130E0E07E075B
:142B0C00D9F06230E0E07E07E9F06330E0E07E07F9F06430E7
:142B2000E0E07E0709F16530E0E07E0719F16630E0E07E07A3
:142B340029F129C025E238E002E00E94C90623C026EC37E00C
:142B480002E00E94C9061DC020E238E002E00E94C90617C005
:142B5C002BE138E002E00E94C90611C026E138E002E00E947A
:142B7000C9060BC021E138E002E00E94C90605C02BE138E061
:142B840002E00E94C9060E941C05602F0536F9F482E0888303
:142B980023E001E00E94340885E0888323E004E00E94340832
:142BAC0089E0888323E008E00E9434088CE0888323E00BE073
:142BC0000E94340881E090E090931F0D80931E0DDEC06C3685
:142BD400D1F54130E0E05E0749F04230E0E05E07A1F04330BD
:142BE800E0E05E07F9F0CEC085E0888323E004E00E94340808
:142BFC0082E0888323E001E00E94A40844275527BFC089E057
:142C1000888323E008E00E94340885E0888323E004E00E94E3
:142C2400A40841E050E0B0C08CE0888323E00BE00E943408EC
:142C380089E0888323E008E00E94A40842E050E0A1C062378F
:142C4C00C9F54030450749F04130E0E05E07A1F04230E0E068
:142C60005E07F9F093C085E0888323E004E00E94A40882E0B8
:142C7400888323E001E00E94340841E050E084C089E0888376
:142C880023E008E00E94A40885E0888323E004E00E943408CA
:142C9C0042E050E075C08CE0888323E00BE00E94A40889E081
:142CB000888323E008E00E94340843E050E066C0643709F02F
:142CC40042C04030450769F04130E0E05E07B1F04230E0E07C
:142CD8005E07C9F04330E0E05E07E1F053C082E0888323E0DE
:142CEC0001E00E94340884E090E090931F0D80931E0D47C0AD
:142D00000091140D1091150D0E94E7253FC00091140D10914A
:142D1400150D0E94102638C08CE0888323E00BE00E94340876
:142D280081E090E09093190D8093180D83E09093130D80938C
:142D3C00120D87E090931F0D80931E0D22C06337F9F482E0A5
:142D5000888323E001E00E94340885E0888323E004E00E94A9
:142D6400340889E0888323E008E00E9434088CE0888323E068
:142D78000BE00E94340884E090E090931F0D80931E0D01C05C
:142D8C0000CE22960C942E290E9493280E9414295901229767
:142DA00082EA90E06C0184EC7C0166277727442755278C85C6
:142DB4009D858330E0E09E0730F5C88221E002E00E9459067E
:142DC80097012F5F3F4F01E00E942706C88222E002E00E94C3
:142DDC00590697012E5F3F4F02E00E942706C88223E002E0F1
:142DF0000E94590697012D5F3F4F03E00E9427060024112411
:142E04001D860C868FC08C859D858330E0E09E0750F18630F4
:142E1800E0E09E0730F5C88221E002E00E94590697012C5FCB
:142E2C003F4F01E00E942706C88222E002E00E94590697018D
:142E40002B5F3F4F02E00E942706C88223E002E00E94590685
:142E540097012A5F3F4F03E00E94270681E090E09D878C8701
:142E68005FC08C859D858630E0E09E0750F18930E0E09E078A
:142E7C0030F5C88221E002E00E9459069701295F3F4F01E060
:142E90000E942706C88222E002E00E9459069701285F3F4F83
:142EA40002E00E942706C88223E002E00E9459069701275F1B
:142EB8003F4F03E00E94270682E090E09D878C872FC08C85BD
:142ECC009D858930E0E09E0748F18C30E0E09E0728F5C882F1
:142EE00021E002E00E9459069701265F3F4F01E00E9427069F
:142EF400C88222E002E00E9459069701255F3F4F02E00E946D
:142F08002706C88223E002E00E9459069701245F3F4F03E0CC
:142F1C000E94270683E090E09D878C8701E210E02C853D8582
:142F30000E94ED28A80161E070E0C5C06130E0E07E0771F4DC
:142F4400FA01EE0FFF1FEA0DFB1D8081918180638883262FFE
:142F580003E00E94590610C0CA010196AC01FC01EE0FFF1F8A
:142F6C00EA0DFB1D8081918180638883262F03E00E94590608
:142F8000CA010196AC01FC01EE0FFF1FEA0DFB1D20813181B4
:142F94002063062F0E94270623EC37E0062F0E94C906CA010B
:142FA8000196AC01FC01EE0FFF1FEA0DFB1D208131812063D4
:142FBC00062F0E942706CA010196AC01FC01EE0FFF1FEA0DDF
:142FD000FB1D208131812063062F0E942706CA010196AC01EC
:142FE400FC01EE0FFF1FEA0DFB1D8081918180638883262F5C
:142FF80007E00E945906CA010196AC01FC01EE0FFF1FEA0DBF
:14300C00FB1D208131812063062F0E94270623EC37E0062F63
:143020000E94C906CA010196AC01FC01EE0FFF1FEA0DFB1DF5
:14303400208131812063062F0E942706CA010196AC01FC01A2
:14304800EE0FFF1FEA0DFB1D208131812063062F0E94270670
:14305C0081EC97E099838883262F0AE00E947F06CA0101968D
:14307000AC01FC01EE0FFF1FEA0DFB1D208131812063062F6D
:143084000E942706CA010196AC01FC01EE0FFF1FEA0DFB1D33
:14309800208131812063062F0E942706CA0101966C01AC01CE
:1430AC00FC01EE0FFF1FEA0DFB1D208131812063062F0E943C
:1430C00027066F5F7F4F83E090E08617970708F035CF229671
:1430D4000E940929249608950E9493280E941429CE84DF84CC
:1430E8002BE030E00A851B850E94BF2858012BE030E00A85FE
:1430FC001B850E94BD28B80123E030E085010E94BD28780147
:143110000030010751F0C7010130E0E01E0741F00230E0E031
:143124001E0739F008C041E050E005C042E050E002C043E034
:1431380050E02BE030E00C851D850E94BF2823E030E00E94C7
:14314C00BF2878010030010771F0C7010130E0E01E07A1F007
:143160000230E0E01E0701F10330E0E01E0769F135C080E289
:1431740090E00A841B848015910570F59601850107DE2AC02E
:1431880081E490E00A841B848015910528F0C0018132E0E0BA
:14319C009E07F0F496018501F7DD1AC08A859B858234E0E026
:1431B0009E0738F082E690E00A841B848015910568F496011B
:1431C4008501E6DD09C08A859B858336E0E09E0718F49601F5
:1431D8008501DCDD4130E0E05E0749F403E010E00E94F00765
:1431EC0004E010E00E94F00710C04230E0E05E0721F0433077
:14320000E0E05E0741F4002711270E94F00707E010E00E94EF
:14321400F0076030670729F4242F03E00E943B0631C06230F8
:14322800E0E07E0729F4242F05E00E943B0628C06430E0E0D9
:14323C007E0729F4242F07E00E943B061FC06630E0E07E0705
:1432500029F4242F09E00E943B0616C06830E0E07E0751F436
:14326400242F0AE00E943B0621EC37E0042F0E94C90608C0A6
:143278006930E0E07E0721F4242F0BE00E943B060E9409295A
:14328C00249608950E944F29EF97EF97EF97EF972C97442777
:1432A00055276627772780E096E0FE01329606E011E0FA9372
:1432B400EA939A938A930E94772988EE97E0998388832227A0
:1432C80000270E947F062091140D3091150D2F5F3F4F206350
:1432DC0000270E9427062AE300270E9427068CEB97E09983DB
:1432F0008883222704E00E947F0687EB97E099838883222712
:1433040007E00E947F0682EB97E09983888322270AE00E94C7
:143318007F068DEA97E09983888321E000270E947F0686EF43
:14332C0097E09983888322E000270E947F068DEC97E0998393
:14334000888323E000270E947F06AA24BB2420C01501220C4C
:14335400331C21012091140D3091150D0AE311E00E94ED28AA
:1433680088E191E01801280E391EF201E20DF31D208031808E
:14337C00CE010296F201E80FF91F31822082C50101965C01C5
:14339000C5018438E0E09E07D8F29E012E5F3F4F002711275F
:1433A400F7DC4427552721E003E00E943B0603E010E00E941F
:1433B800F0072AC20E941C05A02E053609F582E0888321E0E6
:1433CC0001E00E94340882E0888322E001E00E94340882E09E
:1433E000888323E001E00E943408002711270E94F00704E030
:1433F40010E00E94F00783E090E090931F0D80931E0D05C215
:143408008A2D853709F046C04538E0E05E0779F482E08883C2
:14341C0021E001E00E94A40882E0888322E001E00E9434083E
:1434300044E850E0EDC14638E0E05E0779F482E0888322E0FF
:1434440001E00E94A40882E0888323E001E00E94340845E8E9
:1434580050E0DAC18AE090E08417950708F0D4C183E88417F1
:14346C00950708F4CFC1BA012BE030E08A010E94BF289801A1
:14348000215030400BE010E00E94ED28A801CE010296998399
:1434940088839B0121DEBAC18A2D843609F040C04438E0E05D
:1434A8005E0779F482E0888321E001E00E94340882E08883A4
:1434BC0022E001E00E94A40845E850E0A3C14538E0E05E0768
:1434D00079F482E0888322E001E00E94340882E0888323E0DD
:1434E40001E00E94A40846E850E090C14937E0E05E0708F059
:1434F8008BC1BA012BE030E08A010E94BF2898012F5F3F4FD5
:14350C000BE010E00E94ED28A801CE010296998388839B0146
:14352000DDDD76C18A2D8C3609F049C0BA012BE030E08A01CA
:143534000E94BD280030010789F482E0888321E001E00E9456
:14354800A408002711270E94F00704E010E00E94F00744E832
:14355C0050E058C12BE030E08A010E94BD286801C601023083
:14357000E0E01E0761F00430E0E01E0741F00630E0E01E07AC
:1435840021F00830E0E01E0751F442505040CE01029699831B
:1435980088839B018A019EDD37C14030450709F433C141503C
:1435AC005040CE010296998388839B018A0190DD29C18A2DB8
:1435C000823741F583E890E084179507A0F482E0888321E0F4
:1435D40001E00E94340882E0888322E001E00E94340882E094
:1435E800888323E001E00E943408AB0107C04338E0E05E07EF
:1435FC0018F4BA014F5F5F4FCE010296998388839B018A01E3
:1436100065DDFEC08A2D843709F098C04438E0E05E0709F049
:143624003EC082E0888321E001E00E94340882E0888322E0F8
:1436380001E00E94340882E0888323E001E00E943408002769
:14364C0011270E94F00704E010E00E94F0070E94360781EAE2
:1436600097E09983888322E005E00E947F0681E090E09093B6
:14367400170D8093160D84E09093130D8093120D86E0909386
:143688001F0D80931E0D9E012E5F3F4F0091140D1091150D95
:14369C000E94F424B8C04538E0E05E0709F582E0888321E0DA
:1436B00001E00E94340882E0888322E001E00E94340882E0B7
:1436C400888323E001E00E943408002711270E94F00704E049
:1436D80010E00E94F00783E090E090931F0D80931E0D93C0A2
:1436EC004638E0E05E0709F08DC082E0888321E001E00E94F0
:14370000340882E0888322E001E00E94340882E0888323E0DB
:1437140001E00E943408002711270E94F00704E010E00E9474
:14372800F00781E090E09093190D8093180D84E09093130D9D
:14373C008093120D87E090931F0D80931E0D63C08A2D8033C6
:1437500099F0813389F0823379F0833369F0843359F08533CA
:1437640049F0863339F0873329F0883319F0893309F04CC0DE
:143778004438E0E05E0708F047C02BE030E08A010E94BF286E
:14378C0023E030E00E94BD280030010731F42A2D206301E077
:1437A0000E94270605C02A2D206302E00E942706CE0102968F
:1437B400FA01EE0FFF1FE80FF91F2A2C332431822082BA011F
:1437C8006338E0E07E0750F44F5F5F4FCE01029699838883DF
:1437DC009B018A017DDC16C04338E0E05E0791F482E08883F1
:1437F00021E001E00E94A408002711270E94F00704E010E0C9
:143804000E94F00744E850E063E670E0D5CDEF96EF96EF96F1
:14381800EF962C960C9458290E94332922974427552784E929
:14382C0097E099838883222704E00E947F068BE897E0998390
:14384000888321E004E00E947F0682E897E09983888322E053
:1438540004E00E947F0622273327002711270E94470FB801A2
:143868000030010759F481EA8883222703E00E94590621EC17
:14387C0000270E9427060AC081EA8883222703E00E945906D5
:143890002CEC00270E942706442755278AE08883222705E08C
:1438A4000E94A408DCC00E941C05A02E053739F54130E0E0FA
:1438B8005E0729F04230E0E05E0781F0CEC088E0888321E074
:1438CC0005E00E9434088AE08883222705E00E94A4084427C9
:1438E0005527BFC088E0888322E005E00E94340888E088832E
:1438F40021E005E00E94A40841E050E0B0C08A2D843631F534
:143908004030450729F04130E0E05E0781F0A5C08AE08883F5
:14391C00222705E00E94340888E0888321E005E00E94A408E4
:1439300041E050E096C088E0888321E005E00E94340888E03D
:14394400888322E005E00E94A40842E050E087C08A2D853624
:1439580039F54030450749F04130E0E05E0761F04230E0E01F
:14396C005E0779F014C08AE08883222705E00E9434080DC057
:1439800088E0888321E005E00E94340806C088E0888322E0C1
:1439940005E00E94340881E090E090931F0D80931E0D5EC0E0
:1439A8008A2D843709F059C04030450749F04130E0E05E07FC
:1439BC0071F14230E0E05E07B1F14DC06030670719F461E003
:1439D00070E002C066277727798368832227332700271127BD
:1439E4000E94300F6030670759F481EA8883222703E00E945F
:1439F800590621EC00270E9427062FC081EA8883222703E0C8
:143A0C000E9459062CEC00270E94270624C088E090E09093B8
:143A20001F0D80931E0D888321E005E00E94340819C085E01B
:143A340090E09093130D8093120D87E090931F0D80931E0DA5
:143A4800222433243092190D2092180D88E0888322E005E0B4
:143A5C000E94340801C023CF22960C943A2922972090160D7E
:143A70003090170D222059F4332049F483E797E09983888337
:143A840021E004E00E947F0621C08091160D9091170D813017
:143A9800E0E09E0749F484E697E09983888321E004E00E94E9
:143AAC007F0610C08091160D9091170D8230E0E09E0741F4EC
:143AC00085E597E09983888321E004E00E947F0604EF11E0FA
:143AD4000E942E042090120D3090130D30921F0D20921E0D90
:143AE800229608950E943329229741E050E08CE497E099836A
:143AFC008883222702E00E947F0687E497E09983888322E04E
:143B100002E00E947F0686EF97E09983888322E008E00E94F9
:143B24007F068AE0888322E009E00E94A40878C00E941C055F
:143B3800A02E6A2D77276C36E0E07E07A1F08CE690E086177F
:143B4C00970734F06536E0E07E0709F450C064C06237E0E039
:143B60007E07C9F06437E0E07E0741F15BC04130E0E05E0750
:143B740009F056C08AE0888322E009E00E94340884E0888381
:143B880022E003E00E94A4084427552747C04030450709F053
:143B9C0043C084E0888322E003E00E9434088AE0888322E069
:143BB00009E00E94A40841E050E034C04030450769F484E008
:143BC400888322E003E00E94340889E090E090931F0D8093E4
:143BD8001E0D25C08AE0888322E009E00E9434082090120DBC
:143BEC003090130D30921F0D20921E0D16C084E0888322E0D3
:143C000003E00E9434088AE0888322E009E00E943408209001
:143C1400120D3090130D30921F0D20921E0D01C087CF229603
:143C28000C943A290E943329EF9723974427552786E097E083
:143C3C00FE01B6960CE110E0FA93EA939A938A930E947729B6
:143C500006E00E94B227B80182E090E09987888722243324A8
:143C64003B862A861B01369427943694279436942794369466
:143C780027943D862C86CB018F7090709F878E8705E00E947B
:143C8C00B227B801CB019695879596958795969587959695C6
:143CA000879581709070998B888BCB018F7090709B8B8A8BC6
:143CB40004E00E94B2275801B501CB01969587959695879534
:143CC8009695879596958795837090709D8B8C8BCB018F705D
:143CDC0090709F8B8E8B02E00E94B2275801B501CB0196952E
:143CF000879596958795969587959695879583709070998FB4
:143D0400888FCB018F7090709B8F8A8F01E00E94B2275801D1
:143D1800B501CB0196958795969587959695879596958795F9
:143D2C00877090709D8F8C8FCB018F7090709F8F8E8F002708
:143D40000E94B2275801B501CB019695879596958795969560
:143D54008795969587958770907099A388A3CB018F709070CF
:143D68009BA38AA3222701E00E943B066627772720C0CE01F5
:143D7C000896FB01EE0FFF1FE80FF91F208131812063002772
:143D90000E94270620E200270E9427066330E0E07E0721F06F
:143DA4006530E0E07E0729F424E437E000270E94C9066F5F8F
:143DB8007F4F6830E0E07E07E0F221E002E00E943B0668E06C
:143DCC0070E020C0CE010896FB01EE0FFF1FE80FF91F20817F
:143DE0003181206301E00E94270620E200270E942706693059
:143DF400E0E07E0721F06B30E0E07E0729F423EC37E000271B
:143E08000E94C9066F5F7F4F6E30E0E07E07E0F28DEA97E0F6
:143E1C009983888322E003E00E947F0686EF97E0998388834C
:143E300022E008E00E947F0644275527222701E00E943B0679
:143E440003E010E00E94F00784C203E010E00E945D0F0E9435
:143E58001C05A02E6A2D053771F58DE090E084179507B8F46E
:143E6C0085E0888322E004E00E9434088AE0888322E009E0AE
:143E80000E94340821E002E00E943B0603E010E00E94F0071E
:143E940048E050E05EC287E090E08417950708F058C24E3004
:143EA800E0E05E0708F053C2222701E00E943B0644275527E0
:143EBC004CC2643619F587E090E08417950788F44E30E0E074
:143ED0005E0768F4002711270E94F00785E0888322E004E0CF
:143EE4000E94A4084EE050E034C287E090E08417950708F41E
:143EF8002EC221E002E00E943B0648E050E027C26C3609F024
:143F0C0043C088E090E08417950790F04030450779F0415059
:143F200050402227CE018696FA01EE0FFF1FE80FF91F008123
:143F340011810E943B060DC288E090E08417950798F44E301C
:143F4800E0E05E0778F44150504021E0CE018696FA01EE0FCF
:143F5C00FF1FE80FF91F008111810E943B06F5C14F30E0E039
:143F70005E0709F0F0C18AE0888322E009E00E94340885E08B
:143F8400888322E004E00E94A4084EE050E0E1C1623709F058
:143F98003AC04730E0E05E0778F44F5F5F4F2227CE01869683
:143FAC00FA01EE0FFF1FE80FF91F008111810E943B06CBC15A
:143FC0004D30E0E05E0778F44F5F5F4F21E0CE018696FA019C
:143FD400EE0FFF1FE80FF91F008111810E943B06B8C14E30C2
:143FE800E0E05E0709F0B3C185E0888322E004E00E943408FF
:143FFC008AE0888322E009E00E94A4084FE050E0A4C16536A4
:14401000B9F4002711270E94F00785E0888322E004E00E94FF
:1440240034088AE0888322E009E00E94340881E090E090931A
:144038001F0D80931E0D8CC1643709F085C04E30E0E05E0741
:14404C0009F064C028A139A100E110E00E94ED2818014AA015
:144060005BA0240C351C3F822E822C8D3D8D00E110E00E9469
:14407400ED2818014E8C5F8C240C351C3D822C82288D398DDC
:1440880000E110E00E94ED2818014A8C5B8C240C351C3B8288
:14409C002A822C893D8900E110E00E94ED2818014E885F888B
:1440B000240C351C398228822889398900E110E00E94ED281B
:1440C40098012A883B88220D331D2C843D8400E110E02F9357
:1440D8003F9391010E94ED2818013F912F914E845F84240C2B
:1440EC00351C81010E94C627222433243092170D2092160D06
:1441000088E090E09093130D8093120D86E090931F0D809396
:144114001E0D20C14F30E0E05E0709F01AC1002711270E9412
:14412800F00785E0888322E004E00E9434088AE0888322E0E1
:14413C0009E00E94340881E090E090931F0D80931E0D04C185
:14415000603399F0613389F0623379F0633369F0643359F065
:14416400653349F0663339F0673329F0683319F0693309F0C8
:14417800EEC04E30E0E05E0708F0E9C0262F206300270E94A0
:14418C00270620E200270E94270677276033E0E07E0709F487
:1441A0002EC06133E0E07E0709F435C06233E0E07E0709F47B
:1441B4003CC06333E0E07E0709F443C06433E0E07E0709F447
:1441C8004AC06533E0E07E0709F451C06633E0E07E0709F413
:1441DC0058C06733E0E07E0709F45FC06833E0E07E0709F4DF
:1441F00066C06933E0E07E0709F46DC077C0CE010896FA01EB
:14420400EE0FFF1FE80FF91F22243324318220826BC0CE0190
:144218000896FA01EE0FFF1FE80FF91F81E090E091838083E7
:14422C005FC0CE010896FA01EE0FFF1FE80FF91F82E090E0FB
:144240009183808353C0CE010896FA01EE0FFF1FE80FF91FAE
:1442540083E090E09183808347C0CE010896FA01EE0FFF1FE2
:14426800E80FF91F84E090E0918380833BC0CE010896FA01E5
:14427C00EE0FFF1FE80FF91F85E090E0918380832FC0CE015A
:144290000896FA01EE0FFF1FE80FF91F86E090E0918380836A
:1442A40023C0CE010896FA01EE0FFF1FE80FF91F87E090E0BA
:1442B8009183808317C0CE010896FA01EE0FFF1FE80FF91F72
:1442CC0088E090E0918380830BC0CE010896FA01EE0FFF1FA1
:1442E000E80FF91F89E090E0918380834330E0E05E0721F022
:1442F4004530E0E05E0731F424E437E000270E94C9060DC073
:144308004930E0E05E0721F04B30E0E05E0729F423EC37E00F
:14431C0000270E94C9064F5F5F4F4830E0E05E0731F421E0D6
:144330000EA91FA90E943B060EC04E30E0E05E0751F400273A
:1443440011270E94F00785E0888322E004E00E94A4087BCDA8
:14435800EF9623960C943A2922972090180D3090190D22205A
:14436C0081F4332071F483E397E09983888321E004E00E9485
:144380007F0681B5886181BD8EE081BDFFCF8091180D909176
:14439400190D8130E0E09E0771F482E297E09983888321E071
:1443A80004E00E947F060091140D1091150D0E94402504EF87
:1443BC0011E00E942E042090120D3090130D30921F0D2092D9
:1443D0001E0D229608950E94360780911E0D90911F0D813040
:1443E400E0E09E0719F40E94790F52C080911E0D90911F0D8E
:1443F8008230E0E09E0719F40E94511347C080911E0D909123
:14440C001F0D8330E0E09E0719F40E9475143CC080911E0DE8
:1444200090911F0D8430E0E09E0719F40E94481931C0809110
:144434001E0D90911F0D8530E0E09E0711F4EED927C080911E
:144448001E0D90911F0D8630E0E09E0711F409DB1DC08091F6
:14445C001E0D90911F0D8730E0E09E0711F440DB13C08091B4
:144470001E0D90911F0D8830E0E09E0711F4D6DB09C0809113
:144484001E0D90911F0D8930E0E09E0709F466DF08950E940D
:14449800332922243324309215012092140182E190E0909382
:1444AC00130180931201442755272DC1209014013090150152
:1444C00022FE0FC00AE311E09A010E94ED2886E191E0F801F8
:1444D400E80FF91F82E090E09183808316C10AE311E09A018C
:1444E8000E94ED2880E392E0F801E80FF91F809114019091E5
:1444FC001501807F9070969587959695879596958795969597
:14451000879500911201109113010F731070000F111F000FD2
:14452400111F000F111F000F111F082B192B0E94652A0083AA
:144538001183228333830AE311E09A010E94ED2886E191E078
:14454C00F801E80FF91F808191818130E0E09E0709F09AC0D7
:144560006627772739C00AE311E09A010E94ED28180180E377
:1445740092E0280E391E4101F1012080318042805380209169
:14458800140130911501207F30702C5F3F4F00911201109196
:14459C0013010F7310700E946A291695079516950795169587
:1445B0000795169507950E94652A3A932A931A930A9381018D
:1445C40092010E94062AF40100831183228333836F5F7F4F7B
:1445D8006930E0E07E0708F4C2CF0AE311E09A010E94ED2834
:1445EC00180180E392E0280E391E3101F10120803180428009
:14460000538000EA10E00E94D9283A932A931A930A93810100
:1446140092010E94922AF30100831183228333830AE311E05D
:144628009A010E94ED2880E292E0F801E80FF91F20803180FF
:14463C0020FC01C066C00AE311E09A010E94ED2858018CE270
:1446500092E0F501E80FF91F008111812281338180E392E0A0
:144664001501280E391E3A922A920E94112A180129010CE902
:1446780010E00E94D9283A932A931A930A93810192010E9410
:14468C00352C0CF03EC03DC00AE311E09A010E94ED2886E12B
:1446A00091E0F801E80FF91F808191818530E0E09E0779F4F3
:1446B4000AE311E09A010E94ED2886E191E0F801E80FF91FE2
:1446C80081E090E0918380831EC00AE311E09A010E94ED28E8
:1446DC0086E191E0F801E80FF91F808191818230E0E09E07C0
:1446F00071F40AE311E09A010E94ED2886E191E0F801E80F59
:14470400F91F22243324318220824F5F5F4F4430E0E05E07A2
:1447180008F4CECE0C943A290E9429294427552706C10AE363
:14472C0011E09A010E94ED2886E191E0F801E80FF91F222410
:144740003324318220826627772715C00AE311E09A010E949E
:14475400ED28180188E191E0280E391EFB01EE0FFF1FE20DB6
:14476800F31D22243324318220826F5F7F4F6438E0E07E07BE
:14477C0038F30AE311E09A010E94ED2880E292E0F801E80F0A
:14479000F91F22243324318220820AE311E09A010E94ED28DB
:1447A40082E292E0F801E80FF91F22243324318220820AE344
:1447B80011E09A010E94ED2884E292E0F801E80FF91F222484
:1447CC003324318220820AE311E09A010E94ED2886E292E023
:1447E000F801E80FF91F22243324318220820AE311E09A0152
:1447F4000E94ED288CE292E0F801E80FF91F08E910E00E948F
:14480800D92800831183228333830AE311E09A010E94ED28F9
:14481C0080E392E0F801E80FF91F08E910E00E94D9280083A4
:144830001183228333830AE311E09A010E94ED2884E392E07C
:14484400F801E80FF91F08E910E00E94D92800831183228318
:1448580033830AE311E09A010E94ED2888E392E0F801E80F99
:14486C00F91F08E910E00E94D92800831183228333830AE33D
:1448800011E09A010E94ED288CE392E0F801E80FF91F08E907
:1448940010E00E94D92800831183228333830AE311E09A0192
:1448A8000E94ED2880E492E0F801E80FF91F08E910E00E94E4
:1448BC00D92800831183228333830AE311E09A010E94ED2845
:1448D00084E492E0F801E80FF91F08E910E00E94D9280083EB
:1448E4001183228333830AE311E09A010E94ED2888E492E0C3
:1448F800F801E80FF91F08E910E00E94D92800831183228364
:14490C0033830AE311E09A010E94ED288CE492E0F801E80FDF
:14492000F91F04E910E00E94D92800831183228333834F5FCB
:144934005F4F4430E0E05E0708F4F5CE0C942E290E94332974
:144948004427552746C0222733278A010F5F1F4F0E94470F6C
:14495C00B8010130E0E01E0709F037C025E830E08A010F5F72
:144970001F4F0E94470F18010AE311E09A010E94ED2886E11D
:1449840091E0F801E80FF91F31822082662777271CC09B01AE
:144998002F5F3F4F8A010F5F1F4F0E94470F58010AE311E059
:1449AC009A010E94ED28180188E191E0280E391EFB01EE0F2C
:1449C000FF1FE20DF31DB182A0826F5F7F4F6438E0E07E07F4
:1449D40000F34F5F5F4F4430E0E05E0708F4B5CF0C943A2964
:1449E8000E9433295901B80122970AE311E09B010E94ED28C0
:1449FC0086E191E0F801E80FF91F86E090E09183808381E079
:144A100099838883222733278B010F5F1F4F0E94300F86E019
:144A240090E09983888325E830E08B010F5F1F4F0E94300F81
:144A3800442755271AC01A01220C331C21010AE311E09B0175
:144A4C000E94ED28180188E191E0280E391EF201E20DF31D2D
:144A6000D201AA0DBB1D2D903C90318220824F5F5F4F44382A
:144A7400E0E05E0710F322960C943A290E942929B8012297E5
:144A88000AE311E09B010E94ED2886E191E0F801E80FF91F09
:144A9C00222433243182208239822882222733278B010F5F12
:144AB0001F4F0E94300F222433243982288225E830E08B01F8
:144AC4000F5F1F4F0E94300F4427552715C00AE311E09B01EB
:144AD8000E94ED28180188E191E0280E391EFA01EE0FFF1F7D
:144AEC00E20DF31D22243324318220824F5F5F4F4438E0E02D
:144B00005E0738F322960C942E294A935A934427552725C0CC
:144B14000AE311E09A010E94ED2886E191E0F801E80FF91F7D
:144B280020803180C1018330E0E09E0721F08630E0E09E0722
:144B3C0071F40AE311E09A010E94ED2886E191E0F801E80F08
:144B5000F91F85E090E0918380834F5F5F4F4430E0E05E0758
:144B6400B8F25991499108954A935A934427552725C00AE3AF
:144B780011E09A010E94ED2886E191E0F801E80FF91F208066
:144B8C003180C1018130E0E09E0721F08530E0E09E0771F4FC
:144BA0000AE311E09A010E94ED2886E191E0F801E80FF91FF1
:144BB40083E090E0918380834F5F5F4F4430E0E05E07B8F264
:144BC800599149910895AA92BA9258010AE311E095010E9481
:144BDC00ED2886E191E0F801E80FF91F20803180C10183300A
:144BF000E0E09E0721F08630E0E09E0771F40AE311E0950147
:144C04000E94ED2886E191E0F801E80FF91F85E090E091831C
:144C18008083B990A9900895AA92BA9258010AE311E0950111
:144C2C000E94ED2886E191E0F801E80FF91F20803180C101CA
:144C40008130E0E09E0721F08530E0E09E0771F40AE311E0DC
:144C540095010E94ED2886E191E0F801E80FF91F83E090E04C
:144C680091838083B990A99008950E944F2958010AE311E0B1
:144C7C0095010E94ED2828018CE292E0F201E80FF91F00814B
:144C900011812281338180E392E01201280E391E3A922A922A
:144CA4000E94112A84E392E0F201E80FF91F00831183228388
:144CB80033830AE311E095010E94ED28D80180E492E0FD015A
:144CCC00E80FF91F208031804280538084E392E0FD01E80F11
:144CE000F91F00811181228133818CE392E03D01680E791E12
:144CF4007A926A920E94262A810192010E94022C180129018A
:144D080084E492E0FD01E80FF91F008111812281338184E3DF
:144D1C0092E03D01680E791E7A926A920E940D2C81019201CE
:144D30000E94062A1801290188E492E0FD01E80FF91F60808F
:144D440071808280938084E392E0FD01E80FF91F40815181DC
:144D58006281738100E910E00E94D9288CE392E0FD01E80F1E
:144D6C00F91FFA93EA930E940D2C8A019B010E941B2A88E3BD
:144D800092E0FD01E80FF91FFA93EA930E94F92983019401B9
:144D94000E941A2C810192010E94062A8CE492E0FD01E80F65
:144DA800F91F00831183228333830AE311E095010E94ED2842
:144DBC0068018CE392E0F601E80FF91F2080318042805380AD
:144DD00088E392E0F601E80FF91F20823182428253820AE311
:144DE40011E095010E94ED28680184E392E0F601E80FF91F35
:144DF80020803180428053808CE392E0F601E80FF91F208238
:144E0C003182428253820AE311E095010E94ED2858018CE452
:144E200092E0F501E80FF91F208031804280538000E910E048
:144E34000E94D9283A932A931A930A93810192010E94922A80
:144E48008CE492E0F501E80FF91F00831183228333830C945D
:144E5C005829919A909A08E010E00E942404919808E010E0C9
:144E70000E942404909808959198909A08E010E00E942404AA
:144E8400919A08E010E00E942404909808959198909A08E04D
:144E980010E00E94240490980895919A909A08E010E00E94B8
:144EAC00240490980895AA924A93A02E442716C090980A2D7E
:144EC000142F0E947129802F807811F0919A01C0919804E0BE
:144ED40010E00E942404909A04E010E00E9424049098439548
:144EE800483040F304E010E00E942404899804E010E00E94D6
:144EFC002404819B00C0909A04E010E00E9424049098899A8B
:144F10004991A9900895AA924A938998AA2444270BC0AA0CE9
:144F2400909A04E010E00E942404819B01C0A394909843959D
:144F3800483098F3899A0A2D4991A9900895AA92CA92A22EF0
:144F4C00C02E87DF00EDAFDF0C2DADDF0A2DABDF8DDFC99037
:144F6000A9900895AA92BA92A02E79DF00EDA1DF0A2D9FDF97
:144F740074DF01ED9CDFCDDFA02EBB2490DF7ADF8501B9907D
:144F8800A99008950E9493280E9414296901EE84FF844889D3
:144F9C0059896A897B89AC88BD882A2D0027CDDF262F01E04F
:144FB000CADF242F02E0C7DF2E2D04E0C4DF2C2D05E0C1DFA9
:144FC4002A853B8506E0BDDF0E9409292496089581B38760A2
:144FD80081BB222422BA20E107E0B1DF89B7846089BF809172
:144FEC006A00806380936A0008950E944129580106E0B2DF6E
:14500000402F2BE538E00A2D0E94C906242F22952F702F7015
:1450140020630A2D0E942706242F2F7020630A2D0E94270684
:145028002DE20A2D0E94270605E098DF402F242F22952F70EB
:14503C00217020630A2D0E942706242F2F7020630A2D0E94F8
:1450500027062DE20A2D0E94270604E083DF68014C2D242F8F
:1450640022952F70237020630A2D0E942706242F2F70206351
:145078000A2D0E94270620E20A2D0E94270602E06DDF68017F
:14508C004C2D242F22952F70237020630A2D0E942706242F7F
:1450A0002F7020630A2D0E9427062AE30A2D0E94270601E0E0
:1450B40057DF68014C2D242F22952F7020630A2D0E9427069E
:1450C800242F2F7020630A2D0E9427062AE30A2D0E94270646
:1450DC00002742DF68014C2D242F22952F7020630A2D0E9491
:1450F0002706242F2F7020630A2D0E9427060C9448292A9237
:145104008A932FB62A9223B0209423B889B78B7F89BF89B7A5
:14511800846089BF29902FBE8991299018953A932A931A93FA
:14512C000A930895222321F0159507952A95FACF0895689478
:14514000DA92D12E04C0E894DA92D12ED32617FF04C01095CD
:1451540000950F5F1F4F37FF04C0309520952F5F3F4F0E94A4
:14516800C028D7FE04C0109500950F5F1F4FD990089568949A
:14517C0001C0E894EA92FA928A93EE24FF2480E1000F111FE8
:14519000EE1CFF1CE216F30618F0E21AF30A03958A95A1F7A5
:1451A40016F40E2D1F2D8991F990E9900895EA93FA930A9207
:1451B800E02FF12FD895002D3196D895102D3196D895202D28
:1451CC003196D895302D0990F991E99108950A921A928A939F
:1451E0009A93029FC001129F900D039F900D8C0199918991CE
:1451F400199009900895A990B990C990D9900895A990B99065
:14520800C990D990E990F9900895A990B990C990D990E99074
:14521C00F990499159916991799108957A936A935A934A93BC
:14523000FA92EA92DA92CA92BA92AA9208955A934A93BA925F
:14524400AA920895A990B9904991599108957A936A935A93A3
:145258004A930895499159916991799108957A936A935A936C
:14526C004A93BA92AA920895A990B9904991599169917991E2
:1452800008955A934A93DA92CA92BA92AA920895A990B99044
:14529400C990D9904991599108957A936A935A934A93DA92A3
:1452A800CA92BA92AA920895A990B990C990D9904991599169
:1452BC0069917991089500951095209530950F5F1F4F2F4F2F
:1452D0003F4F0895222321F0000F111F2A95FACF08951123B1
:1452E40019F0000F1A95FBCF0895AA93BA93EA93FA930A9258
:1452F800AF81B885ED81FE810030010729F001900D92015076
:14530C001040F8CF0990F991E991B991A99124960895689402
:1453200001C0E8940E94912B0E94232B09F448C0E62CD52CD6
:14533400C42CB32EA22E912E802E00811181228133810E944B
:14534800232B09F444C0842D952D8C199D09B9F072F4909510
:14535C00809501964C2C5D2C8831B8F535952795179507955C
:145370000197D1F708C0883118F5B594A794979487940197D9
:14538400D1F766242EF0080D191D2A1D3B1D09C0801A910ABD
:14539800A20AB30A082D192D2A2D3B2D332322F40E946129C6
:1453AC0080E8682E0E944C2B02C00E94812B0E94A02B0895BC
:1453C0000081118122813381C6F70E942B2BA9F380E8382757
:1453D400F2CF082D192D2A2D3B2D4C2C5D2C6E2C33233AF7A8
:1453E8000E94612980E8682EE2CFFA93EA93EA81FB810E9443
:1453FC009129E991F991398328831A930A930895FA93EA9387
:14541000EC2FFD2F32960E949129E991F99124960895FA9335
:14542400EA93EA81FB810E948F29E991F99122960895FA93D0
:14543800EA93EC2FFD2F32960E948F29E991F991249608951F
:14544C00FA93EA93EA81FB810E948F29E991F9913983288396
:145460001A930A9308954A925A926A928A930E94332B11F16E
:145474005520E2F08FE14816C0F487E14816D1F058F44194B3
:1454880089EE481A05C035952795179507954A94D1F70EC030
:14549C0087E1481A000F111F221F331F4A94D1F705C03FE7CF
:1454B000232F132F032F04C0662011F00E9461298991699098
:1454C400599049900895689401C0E8942227332746F017FD4F
:1454D800209517FD309503C0689401C0E8944A925A926A9272
:1454EC008A9387E1482E5524662436F0332322F40E946129F0
:1455000080E8682E0E944C2B89916990599049900895FA9381
:14551400EA93EA81FB8127D0E991F99122960895FA93EA93C5
:14552800EC2FFD2F32961DD0E991F99124960895FA93EA930E
:14553C00EA81FB8114D0E991F991398328831A930A9308953E
:14555000FA93EA93EC2FFD2F329607D0E991F9913B832A83E8
:145564001983088308950A921A922A923A920E94912B3A9374
:145578002A931A930A9300811181228133810E94332B09F4B1
:14558C0057C0E62CD52CC42CB32EA22E912E802E099119918F
:1455A000299139910E94332BA1F16E244C185D0880E84816C0
:1455B40053060CF033C081E848168FEF58060CF436C080E2A0
:1455C8003324232E122E012E302F222711270027269417944C
:1455DC00079437952795000F111F221F331F001C111C221C3F
:1455F000331C28F0081819082A083B0804C0080C191C2A1C37
:145604003B1C0AF001608A9551F70E944C2B0E94A02B39902A
:1456180029901990099008950FEF102F2FE73FE7662099F35B
:14562C000E946129F0CF0027102F202F302FEBCF099119916D
:1456400029913991EDCF0FD029F0662011F00E94612998943F
:145654000895002329F4112319F4222309F433230895F7DF19
:1456680099F08A93632E80E86822220F331F432E8FE7481A39
:14567C0055248827580A269530E8232B332789919894089532
:145690004424552466240895DEDF09F40895AA93BA93D2014A
:1456A4009A938A938EE790E0332349F0369527951795079565
:1456B800A817B907CCF41196F5CF8095909501962223BAF074
:1456CC00000F111F221FA817B90714F01197F6CF00271127FB
:1456E00022273327899199912D01B991A991089533270FEF28
:1456F400102F2FE7322F899199912D0102C0AA93BA93A7DFA8
:1457080049F0D201A158BF4F2D01342D220F369527953629D4
:14571C00B991A99108954A925A926A927A928A929A92AA9204
:14573000BA92CA92DA92EA92FA928A939A930895999189911E
:14574400F990E990D990C990B990A9909990899079906990C7
:145758005990499008950E94912BAA93BA930E94332BE1F124
:14576C00E62CD52CC42CB32EA22E912E802E00811181228152
:1457800033810E94332B71F16E244C0C5D1C80E8481653067D
:1457940064F581E848168FEF58066CF1A29EB12DA02D919E8E
:1457A800912D802DA09E800D911DA31FB31F829E800D911D1A
:1457BC00A31FB31F929E900DA11DB31FA19E900DA11DB31F7C
:1457D0002B2F1A2F092F880F001F111F221F331F0E944C2B58
:1457E400B991A9910E94A02B08950FEF102F2FE78FE7482EE4
:1457F800F5CF0027102F202F302FF0CFFA93EA93EC2FFD2FB5
:14580C0032960E94AF2BE991F99124960895FA93EA93EA8174
:14582000FB810E94AF2BE991F991398328831A930A9308952A
:14583400FA93EA93EC2FFD2F32960E94AF2BE991F9913B8309
:145848002A831983088308950E948F2933233AF00E942B2B09
:14585C0011F001E00895002708950FEF0895FA93EA93EC2F35
:12587000FD2F32960E94282CE991F991249600230895BE
:00000001FF
