:040000000C949203C7
:040028000C94300AFA
:040038000C94DF093C
:040040000C94910982
:040074000C947E0A60
:14008C006EB7B4B0D7B2E2CAD4B5DAD2BBB4CE000000000030
:1400A00000000000000000000000000000000000000000004C
:1400B400000000000000000000000000000000000000000038
:1400C800000000000000000000000000000000000000000024
:1400DC00000000000000000000000000000000000000000010
:1405C8000000000000000100020003000400060007000900FF
:1405DC000A00020003000500060008000900CAFDBEDDD6D8D0
:1405F000D6C3D6D0A1A3A1A3A1A300CFB5CDB3D6D8D6C3D6CB
:14060400D0A1A3A1A3A1A3002D2000C8B7C8CF00CAC7B7F1AA
:14061800D6D8D6C300CEC2B6C8B1A3B4E6CAA7B0DCA3A1004A
:14062C00CEC2B6C8B1A3B4E6B3C9B9A6A3A100CAB1BCE4B1D3
:14064000A3B4E6B3C9B9A6A3A100D6D8D6C3CFB5CDB300C936
:14065400E8D6C3CAB1BCE400B6CFB5E7D7D4B6AFBBD6B8B4C8
:1406680000B1A3B4E6D6D02E202E202E00B1A3B4E600CEC2A2
:14067C00B6C800BAE3CEC200C9FDCEC20020003A2000D6D841
:14069000D6C300D4CBD0D000B1E0BCAD00D7B4CCAC3A00CE79
:1406A400C2B6C83A005400BBD6B8B4D6D02E202E202E00C83F
:1406B800A1CFFB00BBD6B8B400CAC7B7F1BBD6B8B4C9CFB444
:1406CC00CEB9A4D7F700B5C8B4FD00BDE1CAF800D4DDCDA372
:1406E00000B9CAD5CF0031353000CDA3D6B900C9E8D6C30000
:1406F400CDA3D6B92020202000BFAACABC2020202000205490
:14070800343A002054333A002054323A002054313A00CAB154
:07071C00BCE43A003230009A
:14072400CFEFD0E1CDBFDEBFCE51D0400AEA08830024E7E987
:14073800F7E01CE0E336F10711F00192FBCF0083ECE8F0E044
:14074C00A0E0B1E017E000E00BBFE332F10721F0C8953196A5
:140760000D92F9CF0E942809FFCF000F111F0150104081E03C
:1407740090E080179107C8F308954A935A93A80141505040E6
:1407880005E714E0EEDF81E090E084179507B0F35991499141
:14079C0008954A935A93A8014150504008EE13E0E8DF81E007
:1407B00090E084179507B0F359914991089508954A935A9323
:1407C40080EE84BB809164008061809364008FED85BB8091DA
:1407D800650080618093650001E010E00E94B50343B35527B2
:1407EC004F3CE0E05E07E9F04F3CE0E05E07DCF0473DE0E0B0
:140800005E0799F04B3DE0E05E0769F04D3DE0E05E0739F018
:140814004E3DE0E05E0709F00AC005E699C001E697C004E6F1
:1408280095C005E793C00CE691C08FEB85BB809165008061D4
:14083C008093650001E010E00E94B50343B355274F3AE0E04A
:140850005E07E9F04F3AE0E05E07DCF0473BE0E05E0799F0AC
:140864004B3BE0E05E0769F04D3BE0E05E0739F04E3BE0E05D
:140878005E0709F00AC003E769C002E767C004E765C003E628
:14088C0063C00BE261C08FE785BB80916500806180936500A2
:1408A00001E010E00E94B50343B355274F36E0E05E07E9F024
:1408B4004F36E0E05E07DCF04737E0E05E0799F04B37E0E04C
:1408C8005E0769F04D37E0E05E0739F04E37E0E05E0709F0E9
:1408DC000AC000E339C003E337C002E335C001E333C006E3EB
:1408F00031C08FEF85BB809165008F708093650001E010E087
:140904000E94B50343B355274F3EE0E05E07E9F04F3EE0E03B
:140918005E07DCF0473FE0E05E0799F04B3FE0E05E0769F05E
:14092C004D3FE0E05E0739F04E3FE0E05E0709F00AC007E37E
:1409400009C008E307C009E305C004E303C005E301C00EE630
:14095400599149910895AA924A9330DF402F02E010E00E9423
:14096800BF032ADFA02E401761F44E3651F020900001241686
:14097C0011F40EE608C040930001042F04C08EE68093000153
:140990000EE64991A99008954A935A9322242ABA8091650045
:1409A4008D7F80936500809165008160809365008091650076
:1409B80088608093650001E010E00E94B50349B35527407870
:1409CC0050708FEF8ABB80916500877F809365008A0159912B
:1409E00049910895AA92A02ED7DF00300107E1F78091650046
:1409F4008D7F80936500809165008E7F8093650080916500FA
:140A0800877F80936500ABBA8091650088608093650001E040
:140A1C0010E00E94B50380916500877F80936500A9900895B2
:140A3000AA92A02EB1DF00300107E1F780916500826080939D
:140A44006500809165008E7F8093650080916500877F8093AF
:140A58006500ABBA8091650088608093650001E010E00E9477
:140A6C00B50380916500877F80936500A990089501E0B2DF82
:140A800001E010E00C94BF034A935A9322242ABA80916500C5
:140A94008D7F80936500809165008160809365008091620088
:140AA80081608093620001E010E00E94B50349B35527407889
:140ABC0050708FEF8ABB809162008E7F809362008A01599139
:140AD00049910895AA92A02ED7DF00300107E1F78091650055
:140AE4008D7F80936500809165008E7F80936500809162000C
:140AF8008E7F80936200ABBA8091620081608093620001E059
:140B0C0010E00E94B503809162008E7F80936200A9900895C0
:140B2000AA92A02EB1DF00300107E1F78091650082608093AC
:140B34006500809165008E7F80936500809162008E7F8093BA
:140B48006200ABBA8091620081608093620001E010E00E9496
:140B5C00B503809162008E7F80936200A990089501E0B2CFA0
:140B7000AA924A93A22E402F442311F0413019F40A2D56DFC7
:140B840006C0423011F0433011F40A2DC7DF4991A99008951F
:140B98004A936A93622F402F662321F4042F00581DDF11C079
:140BAC00613021F4042F005717DF0BC0623021F4042F005812
:140BC00089DF05C0633019F4042F005783DF699149910895F7
:140BD4000E94F021622F402FAE80662331F4042F0058FEDE17
:140BE8000A2D22DF17C0613031F4042F0057F6DE0A2D1ADFA6
:140BFC000FC0623031F4042F005866DF0A2D8ADF07C0633095
:140C100029F4042F00575EDF0A2D82DF0C94F7210E94F021E9
:140C2400A22E602F4E815F81AA2071F4062F0058D7DE05C078
:140C3800FA010081F9DE4F5F5F4FFA0120802220B9F732C07A
:140C4C008A2D813071F4062F0057C6DE05C0FA010081E8DE90
:140C60004F5F5F4FFA0120802220B9F721C08A2D823071F4E8
:140C7400062F00582DDF05C0FA0100814FDF4F5F5F4FFA010D
:140C880020802220B9F710C08A2D833069F4062F00571CDFA8
:140C9C0005C0FA0100813EDF4F5F5F4FFA0120802220B9F7FD
:140CB0000C94F7210E94E621A901602F662311F0613059F42E
:140CC40005C0FA010081B2DE4F5F5F4FFA0120802220B9F762
:140CD8000EC0623011F0633051F405C0FA0100811BDF4F5FE6
:140CEC005F4FFA0120802220B9F70C94EB214A935A932224FD
:140D00002ABA809165008D7F80936500809165008160809397
:140D140065008091650088608093650001E010E00E94BF035B
:140D280049B355274F778FEF8ABB80916500877F80936500C2
:140D3C00042F5991499108954A935A9322242ABA80916500A5
:140D50008D7F809365008091650081608093650080916200C9
:140D640081608093620001E010E00E94BF0349B355274F77B2
:140D78008FEF8ABB809162008E7F80936200042F59914991B8
:140D8C00089576DEEDCEAA92BA9222242ABA8091650082609D
:140DA00080936500809165008160809365008091650088609A
:140DB4008093650001E010E00E94BF03A9B2BB248FEF8ABB81
:140DC80080916500877F809365000A2DB990A9900895AA9291
:140DDC00BA9222242ABA809165008260809365008091650047
:140DF0008160809365008091620081608093620001E010E0FC
:140E04000E94BF03A9B2BB248FEF8ABB809162008E7F8093E6
:140E180062000A2DB990A99008950E94F021622F402F6623D2
:140E2C0049F4042F0058D8DD0AE010E00E94B503AADF24C094
:140E4000613049F4042F0057CDDD0AE010E00E94B5039FDFEA
:140E540019C0623051F4042F00583ADE0AE010E00E94B50303
:140E6800B8DFA02E0DC0633051F4042F00572EDE0AE010E0FC
:140E7C000E94B503ACDFA02E01C000270C94F721AA92A02E05
:140E90000A2DA8DD7EDFA9900895AA92A02E0A2DA1DD9BDF26
:140EA400A99008958AB38F6F8ABB8FEF8BBB809164008F60BC
:140EB80080936400809165008F60809365008091610081607F
:140ECC00809361008091620081608093620000E383DD08E0AA
:140EE00081DD01E07FDD06E07DDD0CE07BDD00E3F1DD08E046
:140EF400EFDD01E0EDDD06E0EBDD0CE0E9CD4A935A93A801B0
:140F08004030450719F40CE069DD30C04130E0E05E0719F447
:140F1C000EE062DD29C04230E0E05E0719F40DE05BDD22C000
:140F30004330E0E05E0719F40FE054DD1BC04430E0E05E0774
:140F440019F40CE0C5DD14C04530E0E05E0719F40EE0BEDDFA
:140F58000DC04630E0E05E0719F40DE0B7DD06C04730E0E092
:140F6C005E0711F40FE0B0DD59914991089506E333DD06E348
:140F8000A9CD00E32FDD00E3A5CD0E9489210E94D121622F32
:140F94002197AF848A2D0B8480198F5FC82ECC0CEADF662371
:140FA80049F48B8580588150888340E880E8A82EE82E22C0D6
:140FBC00613051F48B8580588150888340E980E8A82E80E9B7
:140FD000E82E16C0623049F48B8580588150888340E880E8FE
:140FE400A82EE82E0BC0633049F48B8580588150888340E985
:140FF80080E8A82E80E9E82E662311F06130A1F4AA240EC0DC
:14100C00242E4F5F022DE8DC0881E6DCEE2403C0002708DDB1
:14102000E394EC14D8F3A3948A2D803178F317C0623011F006
:14103400633099F4AA240EC0242E4F5F022D48DD088146DDEC
:14104800EE2403C0002768DDE394EC14D8F3A3948A2D803172
:14105C0078F391DF21960E94C621249608950E9489210E9420
:14107000D121622F2197AF848A2D0B8480198F5FC82ECC0C63
:141084007ADF662349F48B8580588150888340E880E8A82E0F
:14109800E82E22C0613051F48B8580588150888340E980E821
:1410AC00A82E80E9E82E16C0623049F48B8580588150888372
:1410C00040E880E8A82EE82E0BC0633049F48B85805881504C
:1410D400888340E980E8A82E80E9E82E662311F06130A1F467
:1410E800AA240EC0242E4F5F022D78DC088176DCEE2403C025
:1410FC000FEF98DCE394EC14D8F3A3948A2D803178F317C04B
:14111000623011F0633099F4AA240EC0242E4F5F022DD8DC99
:141124000881D6DCEE2403C00FEFF8DCE394EC14D8F3A3945C
:141138008A2D803178F321DF21960E94C621249608953A936C
:14114C002A930E94D121C02E04E346DC04E3BCDC6C2D4A8560
:1411600060684068AA2413C0242E4F5F022D3ADC062F38DCDC
:14117400EE2407C0EC85FD850191FD87EC8756DCE3948E2DAE
:141188008831B0F3A3948A2D803250F36C2D4A85606840683C
:14119C00EE2413C0242E4F5F022D96DC062F94DCEE2407C03B
:1411B000EC85FD850191FD87EC87B2DCE3948E2D8831B0F393
:1411C400A3948A2D803450F306E30ADC06E380DC01E010E04D
:1411D8000E94B50300E302DC00E378DC0E94C62122960895D3
:1411EC00229781E091E09983888323E0002712DD81E091E052
:1412000099838883222700270BDD87E0888321E001E02BDFFD
:1412140008EB1BE00E94BF0387E0888321E001E0B2DE82E02E
:14122800888321E002E01DDF0CE211E00E94BF0387E0888313
:14123C0022E002E0A4DE85E0888321E003E00FDF22960895A1
:1412500021978FEF82B985E583B978940E9454070E94C706FB
:1412640082E090E09093580C8093570C8CE08883222701E006
:141278000E94C5078CE0888321E001E00E94C5078CE08883B6
:14128C0022E001E00E94C5078CE0888323E001E00E94C50734
:1412A0000E94331E0E94FD2002C00E94D41DFDCF2196089513
:1412B40000935F0C20935E0C22242EBC0DBD2CBD2FBC85E0D8
:1412C8008EBD87B7846087BF089500935D0C20935C0C222465
:1412DC0020928A00009389002093880020928B0085E08093B6
:1412F0008A0080917D00846080937D00089500935B0C02BF06
:1413040087B7816087BF87E083BF089500935A0C04BD87B732
:14131800806487BF85E085BD08950A921A922A923A924A92A7
:14132C005A926A927A928A929A920A931A932A933A938A9380
:141340009A93AA93BA93EA93FA930FB60A922197222423BE98
:141354002092590C11C08091590C805D888323E001E00E94B9
:14136800EA0504E610E00E94BF038091590C8F5F8093590C68
:14137C008091590C853058F320905B0C22BE87E083BF219690
:1413900009900FBEF991E991B991A991999189913991299193
:1413A400199109919990899079906990599049903990299069
:1413B8001990099018950A921A922A923A924A925A926A929E
:1413CC007A928A929A920A931A932A933A938A939A93AA935E
:1413E000BA93EA93FA930FB60A92219722242EBC2092590C42
:1413F40011C08091590C805D888323E003E00E94EA0504E655
:1414080010E00E94BF038091590C8F5F8093590C8091590C2A
:14141C00853058F320905F0C2DBC20905E0C2CBC85E08EBD06
:14143000219609900FBEF991E991B991A991999189913991F5
:141444002991199109919990899079906990599049903990C7
:1414580029901990099018950A921A922A923A924A925A9240
:14146C006A927A928A929A920A931A932A933A938A939A93FE
:14148000AA93BA93EA93FA930FB60A922197222425BC2092D2
:14149400590C11C08091590C805D888323E000270E94EA05F5
:1414A80004E610E00E94BF038091590C8F5F8093590C809105
:1414BC00590C853058F320905A0C24BC85E085BD21960990CA
:1414D0000FBEF991E991B991A9919991899139912991199141
:1414E400099199908990799069905990499039902990199029
:1414F800099018950A921A922A923A924A925A926A927A92FA
:14150C008A929A920A931A932A933A938A939A93AA93BA93DB
:14152000EA93FA930FB60A92219722242EBC2092590C11C07C
:141534008091590C805D888323E002E00E94EA0504E610E0F5
:141548000E94BF038091590C8F5F8093590C8091590C853024
:14155C0058F320905D0C2092890020905C0C2092880085E025
:141570008EBD219609900FBEF991E991B991A9919991899133
:14158400399129911991099199908990799069905990499085
:14159800399029901990099018954A935A9382B18B7F82B98C
:1415AC001B981C9801E010E00E94B5034427552720C01B9A1D
:1415C0000AE010E00E94B50381B1992784709070209010013C
:1415D40030901101282A392A3092110120921001220C331C68
:1415E80030921101209210011B9801E010E00E94B5034F5FCC
:1415FC005F4F4830E0E05E07E0F24427552722C01B9A0AE056
:1416100010E00E94B50381B199278470907020901201309013
:141624001301282A392A3092130120921201910181010E9498
:141638001E2210931301009312011B9801E010E00E94B50323
:14164C004F5F5F4F4830E0E05E07D0F201E010E00E94B503A4
:141660005991499108954A935A9382B18F7D82B91E981F9864
:1416740001E010E00E94B5034427552720C01E9A0AE010E0DE
:141688000E94B50381B199278072907020901001309011017D
:14169C00282A392A3092110120921001220C331C309211019D
:1416B000209210011E9801E010E00E94B5034F5F5F4F4830AE
:1416C400E0E05E07E0F24427552722C01E9A0AE010E00E941E
:1416D800B50381B19927807290702090120130901301282A79
:1416EC00392A3092130120921201910181010E941E22109353
:141700001301009312011E9801E010E00E94B5034F5F5F4FDE
:141714004830E0E05E07D0F201E010E00E94B5035991499173
:1417280008954A935A93809161008E7F8093610080916200E0
:14173C008E7F80936200809162008B7F8093620001E010E054
:141750000E94B5034427552728C08091620081608093620093
:141764000AE010E00E94B50380B1992781709070209010019A
:1417780030901101282A392A3092110120921001220C331CC2
:14178C003092110120921001809162008E7F8093620001E0DC
:1417A00010E00E94B5034F5F5F4F4830E0E05E07A0F24427F5
:1417B40055272AC0809162008160809362000AE010E00E9476
:1417C800B50380B19927817090702090120130901301282A8A
:1417DC00392A3092130120921201910181010E941E22109362
:1417F000130100931201809162008E7F8093620001E010E065
:141804000E94B5034F5F5F4F4830E0E05E0790F201E010E02A
:141818000E94B5035991499108954A935A9380916100877FBF
:14182C0080936100809162008F7E80936200809162008F7DC0
:141840008093620001E010E00E94B5034427552728C0809114
:1418540062008061809362000AE010E00E94B50380B19927A3
:14186800807890702090100130901101282A392A3092110158
:14187C0020921001220C331C3092110120921001809162000E
:141890008F7E8093620001E010E00E94B5034F5F5F4F4830C3
:1418A400E0E05E07A0F2442755272AC0809162008061809341
:1418B80062000AE010E00E94B50380B19927807890702090ED
:1418CC00120130901301282A392A309213012092120191013F
:1418E00081010E941E221093130100931201809162008F7EB3
:1418F4008093620001E010E00E94B5034F5F5F4F4830E0E0AC
:141908005E0790F201E010E00E94B50359914991089581B324
:14191C00877081BB00B3087F08958FEF84BB05BB08950E94F1
:14193000DC215901A8018FEF84BB4030450771F401E010E0F4
:1419440095010E941E2218012094309445B255244220532041
:1419580045BA0EC04130E0E05E0751F401E010E095010E94CA
:14196C001E2225B23324202A312A25BA0C94E121AA92BA924B
:14198000580101E010E095010E941E2223B2332420223122F0
:141994008101B990A99008958EE08093950083E089B922249D
:1419A800209290002BB888E18AB908955D9BFECF0CB9089596
:1419BC000027112722242092610C0BC00030EDE71E0729F442
:1419D00081E08093610C01E005C00F5F1F4F5F9BF3CF0CB127
:1419E4000895AA924A933EC0E7DF0093F309023009F038C0C3
:1419F80041E00FC0DFDF83EF99E0E42FFF27E80FF91F008377
:141A0C008091610C813011F401E029C04395453078F3209060
:141A2000F709332430929A072092990745E010C0C5DFA02E3F
:141A340083EF99E0E42FFF27E80FF91FA0828091610C81301A
:141A480011F401E00EC043958091990790919A070696242E9D
:141A5C0033242816390630F3002701C0C1CF4991A990089557
:141A70000E94D52169017801AA2407C0EA2DFF27EE0DFF1DFE
:141A8400008196DFA3942A2C33242C143D04A0F30C94BF21E0
:141A98000E940C22C8844FEF5FEFAA241BC0EA2DFF27E00FBD
:141AAC00F11F208033244225532566270EC040FF09C088E075
:141AC00094E81A013694279428263926A10102C0569547951E
:141AD4006395683080F3A394AC1418F31A01232C3324F9013E
:141AE800208241830C9415220E94DC21422F58012397842FD7
:141AFC00825088839E012F5F3F4F8501C7DFE42FFF27329710
:141B1000EA0DFB1D20803980321449F4E42FFF273197EA0DDE
:141B2400FB1D20803A80321411F001E001C0002723960C94D2
:141B3800E1210E94FE21C22EA02E23974985C092A0074093C4
:141B4C009F07A0929E07222420929C0781E080939D0782E0F3
:141B600080939B07842F8B5F88839E012F5F3F4F0BE917E06E
:141B740091DF80EA97E0E42FFF27E80FF91F2980208281EA0E
:141B880097E0E42FFF27E80FF91F2A80208202DF242F3327B0
:141B9C00295F3F4F0BE917E065DF23960C9405220E94D521D8
:141BB00079016801AE80BF808FB78F778FBFE199FECFEEBA48
:141BC400CFBAADBAE29AE19A01E010E00E94B50378940C944F
:141BD800BF210E94D721690158018FB78F778FBFE199FECFDB
:141BEC00CEBAAFBAE09A01E010E00E94B503ADB2BB24789405
:141C000085010C94BA21AA92BA92580122978EE897E099832C
:141C140088832A2D00270E94100685010E9403212296B9902E
:141C2800A9900895AA92BA92580185010E940321B990A99023
:141C3C0008950E940C22229781E090E090934C0C80934B0CB8
:141C500089E897E09983888321E001E00E94100684E897E0F4
:141C64009983888321E006E00E9410068FE797E09983888392
:141C780022E001E00E9410068AE797E09983888322E006E0C6
:141C8C000E94100681E797E09983888323E001E00E941006EA
:141CA00028E637E003E00E945A0623E637E003E00E945A0621
:141CB40081E797E09983888323E001E00E94100628E637E055
:141CC80003E00E945A0623E637E003E00E945A064427552737
:141CDC0083E0888321E002E00E94350820C3002711278BDF18
:141CF000AA24BB248CC0AA2049F4BB2039F461E070E021E046
:141D040003E00E94CC0523C0C5018130E0E09E0739F461E048
:141D180070E021E008E00E94CC0517C0C5018230E0E09E0757
:141D2C0039F462E070E022E003E00E94CC050BC0C501833048
:141D4000E0E09E0731F462E070E022E008E00E94CC050AE02C
:141D540011E095010E94AA2184E191E0F801E80FF91FC08069
:141D6800D180CC2011F4DD20D1F0C6018130E0E09E07D9F0C1
:141D7C008230E0E09E0729F18330E0E09E0739F18430E0E06C
:141D90009E0749F18530E0E09E0759F18630E0E09E0769F187
:141DA40031C02EE537E0062F0E945A062BC02AE537E0062F93
:141DB8000E945A0621EA062F0E94B80526EE062F0E94B805CE
:141DCC001DC025E537E0062F0E945A0617C020E537E0062FA6
:141DE0000E945A0611C02BE437E0062F0E945A060BC026E4EA
:141DF40037E0062F0E945A0605C020E537E0062F0E945A0675
:141E0800C50101965C01C5018430E0E09E0708F46ECF0E9452
:141E1C00AD04A02E013609F048C088E090E09093580C809389
:141E3000570C40304507A9F04130E0E05E07C1F04230E0E06D
:141E44005E07D9F04330E0E05E07F1F04530E0E05E0709F14F
:141E58004630E0E05E0721F165C283E0888321E002E00E94AF
:141E6C00C5075EC288E0888321E007E00E94C50757C283E031
:141E8000888322E002E00E94C50750C288E0888322E007E083
:141E94000E94C50749C287E0888323E006E00E94C50742C2F4
:141EA8008BE0888323E00AE00E94C5073BC28A2D843609F0EE
:141EBC004CC04030450769F04130E0E05E07C1F04230E0E078
:141ED0005E0719F14330E0E05E0771F126C283E0888321E03E
:141EE40002E00E94C50783E0888322E002E00E94350842E047
:141EF80050E017C288E0888321E007E00E94C50788E0888391
:141F0C0022E007E00E94350843E050E008C283E0888322E06C
:141F200002E00E94C50783E0888323E002E00E94350844E007
:141F340050E0F9C188E0888322E007E00E94C50787E0888373
:141F480023E006E00E94350845E050E0EAC18A2D853709F051
:141F5C0061C04230E0E05E0791F04330E0E05E07E9F0443053
:141F7000E0E05E0741F14530E0E05E0799F14630E0E05E0747
:141F840009F43DC0D0C183E0888322E002E00E94C50783E09B
:141F9800888321E002E00E94350844275527C1C188E088838C
:141FAC0022E007E00E94C50788E0888321E007E00E94350890
:141FC00041E050E0B2C185E0888323E002E00E94C50783E023
:141FD400888322E002E00E94350842E050E0A3C187E0888303
:141FE80023E006E00E94C50788E0888322E007E00E94350853
:141FFC0043E050E094C18BE0888323E00AE00E94C50788E0F0
:14201000888322E007E00E94350843E050E085C18A2D8C36D7
:1420240009F04DC04130E0E05E0769F04330E0E05E07C1F06A
:142038004530E0E05E0719F14630E0E05E0771F170C188E05A
:14204C00888321E007E00E94C50783E0888321E002E00E942C
:1420600035084427552761C188E0888322E007E00E94C5075C
:1420740083E0888322E002E00E94350842E050E052C187E05B
:14208800888323E006E00E94C50783E0888323E002E00E94ED
:14209C00350844E050E043C18BE0888323E00AE00E94C507CA
:1420B00087E0888323E006E00E94350845E050E034C18A2DE1
:1420C400823709F04CC04030450769F04230E0E05E07C1F0ED
:1420D8004430E0E05E0719F14530E0E05E0771F120C183E011
:1420EC00888321E002E00E94C50788E0888321E007E00E9487
:14210000350841E050E011C183E0888322E002E00E94C507AB
:1421140088E0888322E007E00E94350843E050E002C183E003
:14212800888323E002E00E94C50787E0888323E006E00E9448
:14213C00350845E050E0F3C087E0888323E006E00E94C50781
:142150008BE0888323E00AE00E94350846E050E0E4C08A2D88
:14216400833709F048C085E090E09093580C8093570C40306A
:142178004507A9F04130E0E05E07C1F04230E0E05E07D9F0C7
:14218C004330E0E05E07F1F04530E0E05E0709F14630E0E0FC
:1421A0005E0721F1C3C083E0888321E002E00E94C507BCC0F6
:1421B40088E0888321E007E00E94C507B5C083E0888322E069
:1421C80002E00E94C507AEC088E0888322E007E00E94C5077B
:1421DC00A7C087E0888323E006E00E94C507A0C08BE08883E9
:1421F00023E00AE00E94C50799C08A2D843709F094C04030F8
:142204004507F1F04130E0E05E0791F14230E0E05E0709F4ED
:1422180043C04330E0E05E0709F455C04430E0E05E0709F46F
:14222C0066C04530E0E05E0709F464C04630E0E05E0709F425
:1422400062C073C083E0888321E002E00E94C50781E090E0A5
:1422540090934C0C80934B0C2224332430924E0C20924D0CCD
:1422680083E09093580C8093570C5CC088E0888321E007E08B
:14227C000E94C50781E090E090934C0C80934B0C90934E0CAD
:1422900080934D0C83E09093580C8093570C46C083E08883FA
:1422A40022E002E00E94C50781E090E090934C0C80934B0C1E
:1422B80082E090934E0C80934D0C83E09093580C8093570C67
:1422CC002FC088E0888322E007E00E94C50781E090E0909351
:1422E0004C0C80934B0C83E090934E0C80934D0C9093580C55
:1422F4008093570C19C00E94731F15C00E94AF1F12C08BE0D1
:14230800888323E00AE00E94C50781E090E090934C0C8093FC
:14231C004B0C85E09093580C8093570C01C0DFCC22960C9430
:1423300015220E94D1212297442755272227332701E010E0BA
:142344000E94ED0D78012227332702E010E00E94ED0D6801F6
:142358002227332703E010E00E94ED0D58012227332704E07F
:14236C0010E00E94ED0DB801EE2071F4FF2061F4CC2051F400
:14238000DD2041F4AA2031F4BB2021F40030010709F49AC0A9
:1423940085E397E099838883222702E00E94100680E397E072
:1423A8009983888322E002E00E9410068BE297E09983888353
:1423BC0022E008E00E94100622273327002711270E94ED0DCD
:1423D0005801B5010130E0E01E0749F44427552784E0888341
:1423E40022E003E00E9435086CC041E050E08AE0888322E02D
:1423F80009E00E94350863C00E94AD04A02E6A2D77276C36EE
:14240C00E0E07E0771F06C36E0E07E070CF455C06237E0E0C1
:142420007E07C9F06437E0E07E0739F14CC04130E0E05E07BE
:1424340009F047C08AE0888322E009E00E94C50784E0888357
:1424480022E003E00E9435084427552738C040304507A9F583
:14245C0084E0888322E003E00E94C5078AE0888322E009E04A
:142470000E94350841E050E026C08AE0888322E009E00E9440
:14248400C50784E0888322E003E00E94C5074030450781F485
:142498000E94C7068FE197E09983888322E005E00E94100614
:1424AC000E946A1E08EC10E00E94BF0381E090E09093580C52
:1424C0008093570C07C09CCF81E090E09093580C8093570C92
:1424D40022960C94C6210E94E6212297442755278DE197E087
:1424E80099838883222700270E94100620914D0C30914E0C6C
:1424FC002F5F3F4F206300270E94B8052AE300270E94B80514
:1425100087E197E09983888321E001E00E94100681E197E03E
:142524009983888322E001E00E9410068CE097E099838883D7
:1425380023E000270E94100687E097E09983888323E003E0C2
:14254C000E94100680E597E09983888323E007E00E9410061E
:1425600082E097E09983888323E00AE00E94100682E0888355
:1425740023E001E00E9435086CC1222702E00E94CC0500279E
:14258800112750DB22E004E00E94CC0520914D0C30914E0C5E
:14259C000AE011E00E94AA2184E191E0F801E80FF91F608124
:1425B000718160306707C9F06130E0E07E07D9F06230E0E07D
:1425C4007E0749F16330E0E07E0759F16430E0E07E0769F1EF
:1425D8006530E0E07E0779F16630E0E07E0789F135C02EE54E
:1425EC0037E002E00E945A062FC021E004E00E94CC052AE58A
:1426000037E001E00E945A0621EA01E00E94B80526EE01E08C
:142614000E94B8051DC025E537E002E00E945A0617C020E595
:1426280037E002E00E945A0611C02BE437E002E00E945A06C8
:14263C000BC026E437E002E00E945A0605C020E537E002E0F7
:142650000E945A060E94AD04602F0536F9F482E0888323E0FA
:1426640001E00E94C50785E0888323E004E00E94C50789E0E5
:14267800888323E008E00E94C5078CE0888323E00BE00E94E3
:14268C00C50781E090E09093580C8093570CDEC06C36D1F59A
:1426A0004130E0E05E0749F04230E0E05E07A1F04330E0E0FC
:1426B4005E07F9F0CEC085E0888323E004E00E94C50782E00F
:1426C800888323E001E00E94350844275527BFC089E0888356
:1426DC0023E008E00E94C50785E0888323E004E00E9435085B
:1426F00041E050E0B0C08CE0888323E00BE00E94C50789E0D9
:14270400888323E008E00E94350842E050E0A1C06237C9F5E2
:142718004030450749F04130E0E05E07A1F04230E0E05E07FA
:14272C00F9F093C085E0888323E004E00E94350882E08883BA
:1427400023E001E00E94C50741E050E084C089E0888323E027
:1427540008E00E94350885E0888323E004E00E94C50742E0C3
:1427680050E075C08CE0888323E00BE00E94350889E0888340
:14277C0023E008E00E94C50743E050E066C0643709F042C0E1
:142790004030450769F04130E0E05E07B1F04230E0E05E0752
:1427A400C9F04330E0E05E07E1F053C082E0888323E001E09B
:1427B8000E94C50784E090E09093580C8093570C47C0009136
:1427CC004D0C10914E0C0E94EB1F3FC000914D0C10914E0C15
:1427E0000E941F2038C08CE0888323E00BE00E94C50781E0D8
:1427F40090E09093520C8093510C83E090934C0C80934B0C28
:1428080087E09093580C8093570C22C06337F9F482E0888382
:14281C0023E001E00E94C50785E0888323E004E00E94C50791
:1428300089E0888323E008E00E94C5078CE0888323E00BE062
:142844000E94C50784E090E09093580C8093570C01C093CE1F
:1428580022960C94EB210E9489210E94D1215901229782EAA9
:14286C0090E06C0184EC7C0166277727442755278C859D8549
:142880008330E0E09E0730F5C88221E002E00E94EA059701B1
:142894002F5F3F4F01E00E94B805C88222E002E00E94EA0515
:1428A80097012E5F3F4F02E00E94B805C88223E002E00E9457
:1428BC00EA0597012D5F3F4F03E00E94B805002411241D8629
:1428D0000C868FC08C859D858330E0E09E0750F18630E0E011
:1428E4009E0730F5C88221E002E00E94EA0597012C5F3F4FA7
:1428F80001E00E94B805C88222E002E00E94EA0597012B5FAB
:14290C003F4F02E00E94B805C88223E002E00E94EA05970190
:142920002A5F3F4F03E00E94B80581E090E09D878C875FC023
:142934008C859D858630E0E09E0750F18930E0E09E0730F5BD
:14294800C88221E002E00E94EA059701295F3F4F01E00E948C
:14295C00B805C88222E002E00E94EA059701285F3F4F02E05C
:142970000E94B805C88223E002E00E94EA059701275F3F4F88
:1429840003E00E94B80582E090E09D878C872FC08C859D85D2
:142998008930E0E09E0748F18C30E0E09E0728F5C88221E04B
:1429AC0002E00E94EA059701265F3F4F01E00E94B805C8826F
:1429C00022E002E00E94EA059701255F3F4F02E00E94B805A3
:1429D400C88223E002E00E94EA059701245F3F4F03E00E9401
:1429E800B80583E090E09D878C8701E210E02C853D850E942C
:1429FC00AA21A80161E070E0C5C06130E0E07E0771F4FA0107
:142A1000EE0FFF1FEA0DFB1D8081918180638883262F03E04F
:142A24000E94EA0510C0CA010196AC01FC01EE0FFF1FEA0D1F
:142A3800FB1D8081918180638883262F03E00E94EA05CA01DD
:142A4C000196AC01FC01EE0FFF1FEA0DFB1D20813181206335
:142A6000062F0E94B8052FEF36E0062F0E945A06CA01019601
:142A7400AC01FC01EE0FFF1FEA0DFB1D208131812063062F6F
:142A88000E94B805CA010196AC01FC01EE0FFF1FEA0DFB1DA5
:142A9C00208131812063062F0E94B805CA010196AC01FC01B0
:142AB000EE0FFF1FEA0DFB1D8081918180638883262F07E0AB
:142AC4000E94EA05CA010196AC01FC01EE0FFF1FEA0DFB1D37
:142AD800208131812063062F0E94B8052FEF36E0062F0E9475
:142AEC005A06CA010196AC01FC01EE0FFF1FEA0DFB1D20819F
:142B000031812063062F0E94B805CA010196AC01FC01EE0FEF
:142B1400FF1FEA0DFB1D208131812063062F0E94B8058DEF9A
:142B280096E099838883262F0AE00E941006CA010196AC01F6
:142B3C00FC01EE0FFF1FEA0DFB1D208131812063062F0E94B1
:142B5000B805CA010196AC01FC01EE0FFF1FEA0DFB1D2081DD
:142B640031812063062F0E94B805CA0101966C01AC01FC011B
:142B7800EE0FFF1FEA0DFB1D208131812063062F0E94B805B5
:142B8C006F5F7F4F83E090E08617970708F035CF22960E9435
:142BA000C621249608950E9489210E94D121CE84DF842BE043
:142BB40030E00A851B850E94902158012BE030E00A851B85D8
:142BC8000E948E21B80123E030E085010E948E21780100305C
:142BDC00010751F0C7010130E0E01E0741F00230E0E01E0776
:142BF00039F008C041E050E005C042E050E002C043E050E063
:142C04002BE030E00C851D850E94902123E030E00E949021B5
:142C180078010030010771F0C7010130E0E01E07A1F00230F5
:142C2C00E0E01E0701F10330E0E01E0769F135C080E290E084
:142C40000A841B848015910570F59601850107DE2AC081E472
:142C540090E00A841B848015910528F0C0018132E0E09E07B3
:142C6800F0F496018501F7DD1AC08A859B858234E0E09E075F
:142C7C0038F082E690E00A841B848015910568F49601850173
:142C9000E6DD09C08A859B858336E0E09E0718F4960185012E
:142CA400DCDD4130E0E05E0749F403E010E00E94810704E0AF
:142CB80010E00E94810710C04230E0E05E0721F04330E0E043
:142CCC005E0741F4002711270E94810707E010E00E948107D0
:142CE0006030670729F4242F03E00E94CC0531C06230E0E0D9
:142CF4007E0729F4242F05E00E94CC0528C06430E0E07E07BE
:142D080029F4242F07E00E94CC051FC06630E0E07E0729F416
:142D1C00242F09E00E94CC0516C06830E0E07E0751F4242FA9
:142D30000AE00E94CC052DEF36E0042F0E945A0608C069306A
:142D4400E0E07E0721F4242F0BE00E94CC050E94C62124962D
:142D580008950E940C22EF97EF97EF97EF972C974427552738
:142D6C00662777278CE395E0FE01329606E011E0FA93EA939C
:142D80009A938A930E942B228DE197E099838883222700278A
:142D94000E94100620914D0C30914E0C2F5F3F4F2063002788
:142DA8000E94B8052AE300270E94B80588EF96E09983888311
:142DBC00222704E00E94100683EF96E099838883222707E0DF
:142DD0000E9410068EEE96E09983888322270AE00E94100633
:142DE40089EE96E09983888321E000270E9410068BE297E003
:142DF8009983888322E000270E94100682E097E099838883BF
:142E0C0023E000270E941006AA24BB2420C01501220C331CB0
:142E2000210120914D0C30914E0C0AE011E00E94AA2186E1A8
:142E340091E01801280E391EF201E20DF31D20803180CE0161
:142E48000296F201E80FF91F31822082C50101965C01C50107
:142E5C008438E0E09E07D8F29E012E5F3F4F00271127F7DC8B
:142E70004427552721E003E00E94CC0503E010E00E94810713
:142E84002AC20E94AD04A02E053609F582E0888321E001E0A5
:142E98000E94C50782E0888322E001E00E94C50782E088838D
:142EAC0023E001E00E94C507002711270E94810704E010E063
:142EC0000E94810783E090E09093580C8093570C05C28A2D86
:142ED400853709F046C04538E0E05E0779F482E0888321E0B2
:142EE80001E00E94350882E0888322E001E00E94C50744E82C
:142EFC0050E0EDC14638E0E05E0779F482E0888322E001E084
:142F10000E94350882E0888323E001E00E94C50745E850E0B2
:142F2400DAC18AE090E08417950708F0D4C183E884179507BE
:142F380008F4CFC1BA012BE030E08A010E949021980121503B
:142F4C0030400BE010E00E94AA21A801CE0102969983888382
:142F60009B0121DEBAC18A2D843609F040C04438E0E05E073C
:142F740079F482E0888321E001E00E94C50782E0888322E0B0
:142F880001E00E94350845E850E0A3C14538E0E05E0779F4A5
:142F9C0082E0888322E001E00E94C50782E0888323E001E012
:142FB0000E94350846E850E090C14937E0E05E0708F08BC196
:142FC400BA012BE030E08A010E94902198012F5F3F4F0BE0A5
:142FD80010E00E94AA21A801CE010296998388839B01DDDDFB
:142FEC0076C18A2D8C3609F049C0BA012BE030E08A010E941C
:143000008E210030010789F482E0888321E001E00E9435082A
:14301400002711270E94810704E010E00E94810744E850E0C5
:1430280058C12BE030E08A010E948E216801C6010230E0E062
:14303C001E0761F00430E0E01E0741F00630E0E01E0721F094
:143050000830E0E01E0751F442505040CE010296998388835A
:143064009B018A019EDD37C14030450709F433C141505040F0
:14307800CE010296998388839B018A0190DD29C18A2D8237C8
:14308C0041F583E890E084179507A0F482E0888321E001E005
:1430A0000E94C50782E0888322E001E00E94C50782E0888383
:1430B40023E001E00E94C507AB0107C04338E0E05E0718F497
:1430C800BA014F5F5F4FCE010296998388839B018A0165DDE6
:1430DC00FEC08A2D843709F098C04438E0E05E0709F03EC0C7
:1430F00082E0888321E001E00E94C50782E0888322E001E0BF
:143104000E94C50782E0888323E001E00E94C507002711272B
:143118000E94810704E010E00E9481070E94C7068DED96E01C
:14312C009983888322E005E00E94100681E090E09093500C79
:1431400080934F0C84E090934C0C80934B0C86E09093580CD7
:143154008093570C9E012E5F3F4F00914D0C10914E0C0E94B0
:14316800BC1EB8C04538E0E05E0709F582E0888321E001E012
:14317C000E94C50782E0888322E001E00E94C50782E08883A6
:1431900023E001E00E94C507002711270E94810704E010E07C
:1431A4000E94810783E090E09093580C8093570C93C046384C
:1431B800E0E05E0709F08DC082E0888321E001E00E94C507DB
:1431CC0082E0888322E001E00E94C50782E0888323E001E0E0
:1431E0000E94C507002711270E94810704E010E00E948107E6
:1431F40081E090E09093520C8093510C84E090934C0C809313
:143208004B0C87E09093580C8093570C63C08A2D803399F0E1
:14321C00813389F0823379F0833369F0843359F0853349F053
:14323000863339F0873329F0883319F0893309F04CC04438D4
:14324400E0E05E0708F047C02BE030E08A010E94902123E056
:1432580030E00E948E210030010731F42A2D206301E00E9447
:14326C00B80505C02A2D206302E00E94B805CE010296FA014F
:14328000EE0FFF1FE80FF91F2A2C332431822082BA016338B8
:14329400E0E07E0750F44F5F5F4FCE010296998388839B0117
:1432A8008A017DDC16C04338E0E05E0791F482E0888321E0C5
:1432BC0001E00E943508002711270E94810704E010E00E943F
:1432D000810744E850E063E670E0D5CDEF96EF96EF96EF96B7
:1432E4002C960C9415220E94F02122974427552780ED96E007
:1432F80099838883222704E00E94100687EC96E099838883A6
:14330C0021E004E00E9410068EEB96E09983888322E004E014
:143320000E94100622273327002711270E94ED0DB80100305A
:14333400010759F481EA8883222703E00E94EA0521EC0027C9
:143348000E94B8050AC081EA8883222703E00E94EA052CECFD
:14335C0000270E94B805442755278AE08883222705E00E94AB
:143370003508DCC00E94AD04A02E053739F54130E0E05E074F
:1433840029F04230E0E05E0781F0CEC088E0888321E005E02D
:143398000E94C5078AE08883222705E00E943508442755274A
:1433AC00BFC088E0888322E005E00E94C50788E0888321E052
:1433C00005E00E94350841E050E0B0C08A2D843631F540306D
:1433D400450729F04130E0E05E0781F0A5C08AE08883222756
:1433E80005E00E94C50788E0888321E005E00E94350841E025
:1433FC0050E096C088E0888321E005E00E94C50788E08883FD
:1434100022E005E00E94350842E050E087C08A2D853639F5A9
:143424004030450749F04130E0E05E0761F04230E0E05E0721
:1434380079F014C08AE08883222705E00E94C5070DC088E0FD
:14344C00888321E005E00E94C50706C088E0888322E005E0ED
:143460000E94C50781E090E09093580C8093570C5EC08A2D47
:14347400843709F059C04030450749F04130E0E05E0771F18A
:143488004230E0E05E07B1F14DC06030670719F461E070E04E
:14349C0002C0662777277983688322273327002711270E94A4
:1434B000D60D6030670759F481EA8883222703E00E94EA05A7
:1434C40021EC00270E94B8052FC081EA8883222703E00E942E
:1434D800EA052CEC00270E94B80524C088E090E09093580C10
:1434EC008093570C888321E005E00E94C50719C085E090E049
:1435000090934C0C80934B0C87E09093580C8093570C222428
:1435140033243092520C2092510C88E0888322E005E00E9421
:14352800C50701C023CF22960C94F721229720904F0C30901C
:14353C00500C222059F4332049F48FEA96E09983888321E0E9
:1435500004E00E94100621C080914F0C9091500C8130E0E090
:143564009E0749F480EA96E09983888321E004E00E941006CD
:1435780010C080914F0C9091500C8230E0E09E0741F481E9D0
:14358C0096E09983888321E004E00E94100604EF11E00E946B
:1435A000BF0320904B0C30904C0C3092580C2092570C229643
:1435B40008950E94F021229741E050E088E896E0998388839C
:1435C800222702E00E94100683E896E09983888322E002E020
:1435DC000E9410068BE297E09983888322E008E00E94100676
:1435F0008AE0888322E009E00E94350878C00E94AD04A02E2F
:143604006A2D77276C36E0E07E07A1F08CE690E086179707E8
:1436180034F06536E0E07E0709F450C064C06237E0E07E078B
:14362C00C9F06437E0E07E0741F15BC04130E0E05E0709F015
:1436400056C08AE0888322E009E00E94C50784E0888322E021
:1436540003E00E9435084427552747C04030450709F043C0FA
:1436680084E0888322E003E00E94C5078AE0888322E009E02C
:14367C000E94350841E050E034C04030450769F484E088838E
:1436900022E003E00E94C50789E090E09093580C8093570CFD
:1436A40025C08AE0888322E009E00E94C50720904B0C309098
:1436B8004C0C3092580C2092570C16C084E0888322E003E041
:1436CC000E94C5078AE0888322E009E00E94C50720904B0CA7
:1436E00030904C0C3092580C2092570C01C087CF22960C9414
:1436F400F7210E94E621AD974427552782E496E0FE017196F4
:143708000CE110E0FA93EA939A938A930E942B2282E08A831E
:14371C0022242B8281E08C8385E08D8381E08E8382E08F83DB
:14373000888785E0898781E08A8782E08B8783E08C872D86F2
:1437440085E08E872F86222701E00E94CC05662777271DC09D
:14375800CE010296FB01E80FF91F2081206300270E94B80541
:14376C0020E200270E94B8056330E0E07E0721F06530E0E083
:143780007E0729F420E836E000270E945A066F5F7F4F683018
:14379400E0E07E07F8F221E002E00E94CC0568E070E01DC027
:1437A800CE010296FB01E80FF91F2081206301E00E94B80537
:1437BC0020E200270E94B8056930E0E07E0721F06B30E0E027
:1437D0007E0729F42FEF36E000270E945A066F5F7F4F6E30AC
:1437E400E0E07E07F8F289EE96E09983888322E003E00E9407
:1437F80010068BE297E09983888322E008E00E94100644278F
:14380C005527222701E00E94CC0503E010E00E9481078AC147
:1438200003E010E00E94030E0E94AD04602F053771F58DE01D
:1438340090E084179507B8F485E0888322E004E00E94C50769
:143848008AE0888322E009E00E94C50721E002E00E94CC0548
:14385C0003E010E00E94810748E050E065C187E090E084176B
:14387000950708F05FC14E30E0E05E0708F05AC1222701E0B0
:143884000E94CC054427552753C1643619F587E090E08417A8
:14389800950788F44E30E0E05E0768F4002711270E9481077C
:1438AC0085E0888322E004E00E9435084EE050E03BC187E012
:1438C00090E08417950708F435C121E002E00E94CC0548E0DD
:1438D40050E02EC16C3609F043C088E090E08417950790F094
:1438E8004030450779F0415050402227CE014196FA01EE0F9F
:1438FC00FF1FE80FF91F008111810E94CC0514C188E090E058
:143910008417950798F44E30E0E05E0778F44150504021E0AF
:14392400CE014196FA01EE0FFF1FE80FF91F008111810E940F
:14393800CC05FCC04F30E0E05E0709F0F7C08AE0888322E023
:14394C0009E00E94C50785E0888322E004E00E9435084EE0AD
:1439600050E0E8C0623709F03AC04730E0E05E0778F44F5F39
:143974005F4F2227CE014196FA01EE0FFF1FE80FF91F0081FC
:1439880011810E94CC05D2C04D30E0E05E0778F44F5F5F4F2A
:14399C0021E0CE014196FA01EE0FFF1FE80FF91F0081118138
:1439B0000E94CC05BFC04E30E0E05E0709F0BAC085E088838B
:1439C40022E004E00E94C5078AE0888322E009E00E9435085C
:1439D8004FE050E0ABC06536B9F4002711270E94810785E0DB
:1439EC00888322E004E00E94C5078AE0888322E009E00E9466
:143A0000C50781E090E09093580C8093570C93C0643791F5A4
:143A14004E30E0E05E0791F4222433243092500C20924F0CAE
:143A280088E090E090934C0C80934B0C86E09093580C8093CD
:143A3C00570C7BC04F30E0E05E0709F075C0002711270E9405
:143A5000810785E0888322E004E00E94C5078AE0888322E09F
:143A640009E00E94C50781E090E09093580C8093570C5FC00A
:143A7800603399F0613389F0623379F0633369F0643359F044
:143A8C00653349F0663339F0673329F0683319F0693309F0A7
:143AA00049C04E30E0E05E0708F044C0262F206300270E94C9
:143AB400B80520E200270E94B805CE010296FA01E80FF91F48
:143AC80060834330E0E05E0721F04530E0E05E0731F420E897
:143ADC0036E000270E945A060DC04930E0E05E0721F04B30A0
:143AF000E0E05E0729F42FEF36E000270E945A064F5F5F4FC7
:143B04004830E0E05E0731F421E009A11AA10E94CC050EC044
:143B18004E30E0E05E0751F4002711270E94810785E08883B8
:143B2C0022E004E00E94350875CEAD960C94EB212297209025
:143B4000510C3090520C222059F4332049F48FE696E09983D0
:143B5400888321E004E00E94100616C08091510C9091520CF2
:143B68008130E0E09E0771F48EE596E09983888321E004E0D9
:143B7C000E94100600914D0C10914E0C0E94241F04EF11E0CF
:143B90000E94BF0320904B0C30904C0C3092580C2092570C63
:143BA400229608950E94C7068091570C9091580C8130E0E0DF
:143BB8009E0719F40E941F0E51C08091570C9091580C8230BC
:143BCC00E0E09E0719F40E94991146C08091570C9091580C28
:143BE0008330E0E09E0719F40E946D123BC08091570C9091FB
:143BF400580C8430E0E09E0711F4ADD831C08091570C909130
:143C0800580C8530E0E09E0711F46BDB27C08091570C909163
:143C1C00580C8630E0E09E0711F486DC1DC08091570C90913C
:143C3000580C8730E0E09E0711F4BDDC13C08091570C9091FA
:143C4400580C8830E0E09E0711F453DD09C08091570C909158
:143C5800580C8930E0E09E0709F46CDF08950E94E6214427DD
:143C6C0055272CC00AE011E09A010E94AA2184E191E0F8012A
:143C8000E80FF91F22243324318220826627772715C00AE045
:143C940011E09A010E94AA21180186E191E0280E391EFB01A9
:143CA800EE0FFF1FE20DF31D22243324318220826F5F7F4F60
:143CBC006438E0E07E0738F34F5F5F4F4430E0E05E0780F281
:143CD0000C94EB210E94F0214427552746C0222733278A0166
:143CE4000F5F1F4F0E94ED0DB8010130E0E01E0709F037C095
:143CF80025E830E08A010F5F1F4F0E94ED0D18010AE011E0A4
:143D0C009A010E94AA2184E191E0F801E80FF91F3182208268
:143D2000662777271CC09B012F5F3F4F8A010F5F1F4F0E94C7
:143D3400ED0D58010AE011E09A010E94AA21180186E191E054
:143D4800280E391EFB01EE0FFF1FE20DF31DB182A0826F5FA1
:143D5C007F4F6438E0E07E0700F34F5F5F4F4430E0E05E07BC
:143D700008F4B5CF0C94F7210E94F0215901B80122970AE09E
:143D840011E09B010E94AA2184E191E0F801E80FF91F86E0ED
:143D980090E09183808381E099838883222733278B010F5F6B
:143DAC001F4F0E94D60D86E090E09983888325E830E08B016A
:143DC0000F5F1F4F0E94D60D4427552735C01A01220C331C1A
:143DD40021010AE011E09B010E94AA21180186E191E0280EAE
:143DE800391EF201E20DF31DD201AA0DBB1D2D903C903182E0
:143DFC0020820AE011E09B010E94AA21180186E191E0280E06
:143E1000391EFA01EE0FFF1FE20DF31D20803180398228827C
:143E24009A012F5F3F4F8B010F5F1F4F0E94D60D4F5F5F4F8A
:143E38004438E0E05E0708F4C6CF22960C94F7210E94E6212B
:143E4C00B80122970AE011E09B010E94AA2184E191E0F8013D
:143E6000E80FF91F2224332431822082398228822227332745
:143E74008B010F5F1F4F0E94D60D222433243982288225E83E
:143E880030E08B010F5F1F4F0E94D60D442755271FC00AE079
:143E9C0011E09B010E94AA21180186E191E0280E391EFA019F
:143EB000EE0FFF1FE20DF31D2224332431822082398228828D
:143EC4009A012F5F3F4F8B010F5F1F4F0E94D60D4F5F5F4FEA
:143ED8004438E0E05E07E8F222960C94EB214A935A93229774
:143EEC00442755272EC00AE011E09A010E94AA2184E191E034
:143F0000F801E80FF91F20803180C1018330E0E09E0721F069
:143F14008630E0E09E07B9F40AE011E09A010E94AA2184E189
:143F280091E0F801E80FF91F85E090E09183808399838883F9
:143F3C0025E830E08A010F5F1F4F0E94D60D4F5F5F4F443098
:143F5000E0E05E0770F222965991499108954A935A9322973A
:143F6400442755272EC00AE011E09A010E94AA2184E191E0BB
:143F7800F801E80FF91F20803180C1018130E0E09E0721F0F3
:143F8C008530E0E09E07B9F40AE011E09A010E94AA2184E112
:143FA00091E0F801E80FF91F83E090E0918380839983888383
:143FB40025E830E08A010F5F1F4F0E94D60D4F5F5F4F443020
:143FC800E0E05E0770F222965991499108954A935A93A801D2
:143FDC0022970AE011E09A010E94AA2184E191E0F801E80F6F
:143FF000F91F20803180C1018330E0E09E0721F08630E0E0F3
:144004009E07B9F40AE011E09A010E94AA2184E191E0F801A4
:14401800E80FF91F85E090E0918380839983888325E830E055
:14402C008A010F5F1F4F0E94D60D22965991499108954A939E
:144040005A93A80122970AE011E09A010E94AA2184E191E064
:14405400F801E80FF91F20803180C1018130E0E09E0721F016
:144068008530E0E09E07B9F40AE011E09A010E94AA2184E135
:14407C0091E0F801E80FF91F83E090E09183808399838883A6
:1440900025E830E08A010F5F1F4F0E94D60D22965991499197
:1440A4000895919A909A08E010E00E94B503919808E010E0E3
:1440B8000E94B503909808959198909A08E010E00E94B50350
:1440CC00919A08E010E00E94B503909808959198909A08E083
:1440E00010E00E94B50390980895919A909A08E010E00E94EE
:1440F400B50390980895AA924A93A02E442716C090980A2DB4
:14410800142F0E942522802F807811F0919A01C0919804E0D6
:14411C0010E00E94B503909A04E010E00E94B50390984395ED
:14413000483040F304E010E00E94B503899804E010E00E940B
:14414400B503819B00C0909A04E010E00E94B5039098899A30
:144158004991A9900895AA924A938998AA2444270BC0AA0CAF
:14416C00909A04E010E00E94B503819B01C0A39490984395D3
:14418000483098F3899A0A2D4991A9900895AA92CA92A22EB6
:14419400C02E87DF00EDAFDF0C2DADDF0A2DABDF8DDFC990FD
:1441A800A9900895AA92A02E7ADF00EDA2DF0A2DA0DF75DF52
:1441BC0001ED9DDFCEDFA02E92DF7CDF0A2DA990089501E050
:1441D00010E0089501E010E0089501E010E0089501E010E0A1
:1441E400089501E010E0089501E010E0089501E010E00895E0
:1441F800089581B3876081BB222422BA08950E94FE215801E6
:14420C0006E0CEDF402F24E937E00A2D0E945A06242F229535
:144220002F702F7020630A2D0E94B805242F2F7020630A2D87
:144234000E94B8052DE20A2D0E94B80505E0B4DF402F242F38
:1442480022952F70217020630A2D0E94B805242F2F702063ED
:14425C000A2D0E94B8052DE20A2D0E94B80504E09FDFC02EC3
:144270004C2D242F22952F70237020630A2D0E94B805242F19
:144284002F7020630A2D0E94B80520E20A2D0E94B80502E0F4
:1442980089DFC02E4C2D242F22952F70237020630A2D0E94AB
:1442AC00B805242F2F7020630A2D0E94B8052AE30A2D0E9450
:1442C000B80501E073DFC02E4C2D242F22952F7020630A2D30
:1442D4000E94B805242F2F7020630A2D0E94B8052AE30A2D28
:1442E8000E94B80500275EDFC02E4C2D242F22952F7020636C
:1442FC000A2D0E94B805242F2F7020630A2D0E94B8050C946D
:1443100005223A932A931A930A930895689401C0E894EA924C
:14432400FA928A93EE24FF2480E1000F111FEE1CFF1CE216EA
:14433800F30618F0E21AF30A03958A95A1F716F40E2D1F2D97
:14434C008991F990E99008950A921A928A939A93029FC001B0
:14436000129F900D039F900D8C01999189911990099008950C
:14437400A990B990C990D9900895A990B990C990D990E99097
:14438800F9900895A990B990C990D990E990F99049915991F1
:14439C006991799108957A936A935A934A93FA92EA92DA9224
:1443B000CA92BA92AA9208955A934A93BA92AA920895A99050
:1443C400B9904991599108957A936A935A934A9308954991F0
:1443D80059916991799108957A936A935A934A93BA92AA92EA
:1443EC000895A990B990499159916991799108955A934A936F
:14440000DA92CA92BA92AA920895A990B990C990D99049919D
:14441400599108957A936A935A934A93DA92CA92BA92AA92E9
:144428000895A990B990C990D990499159916991799108953A
:14443C00222321F0000F111F2A95FACF0895112319F0000F66
:144450001A95FBCF0895AA93BA93EA93FA930A92AF81B885A5
:14446400ED81FE810030010729F001900D9201501040F8CF6E
:0E4478000990F991E991B991A99124960895BE
:00000001FF
