:040000000C94DA0082
:040028000C948E099D
:040038000C943D09DE
:040040000C94EF0825
:040074000C94DF0900
:14008C003230006EB7B4B0D7B2E2CAD4B5DAD2BBB4CE0000CE
:1400A00000000000000000000000000100020003000400063C
:1400B40000070009000A00020003000500060008000900D627
:1400C800D8D6C3D6D0A1A3A1A3A1A3A1A300B1A3B4E6003AD5
:1400DC0020002D2000C8B7C8CF00CAC7B7F1D6D8D6C300B15C
:1400F000A3B4E6B3C9B9A6A3A100D6D8D6C3CFB5CDB300C98C
:14010400E8D6C3CAB1BCE400B6CFB5E7D7D4B6AFD6D8D6C3D3
:1401180000B5A5B8F6CEC2BFD8C9E8D6C3BDE7C3E600B5A5B3
:14012C00B8F6CEC2BFD8BDE7C3E600C8A1CFFB00BBD6B8B46D
:1401400000CAC7B7F1BBD6B8B4C9CFB4CEB9A4D7F700BCD3A1
:14015400D4D800B5C8B4FD00BDE1CAF800D4DDCDA300B9CAB9
:14016800D5CF0031353000CDA3D6B900C9E8D6C300CDA3D6BA
:14017C00B92020202000BFAACABC20202020002054343AB92C
:14019000CAD5CF002054333ACDA3D6B9002054323A38303095
:0F01A400002054313A31303000CAB1BCE43A0087
:1401B400CFEFD0E1CDBFDEBFCE51D0400AEA08830024E7E204
:1401C800F2E016E0E23FF10711F00192FBCF0083ECE8F0E0BD
:1401DC00A0E0B1E011E000E00BBFE33BF10721F0C895319618
:1401F0000D92F9CF0E947608FFCF000F111F0150104081E065
:1402040090E080179107C8F308954A935A93A801415050405B
:1402180005E714E0EEDF81E090E084179507B0F359914991B6
:14022C0008954A935A93A8014150504008EE13E0E8DF81E07C
:1402400090E084179507B0F3599149910895AA924A939298BC
:140254009098929A48E00AC09098A02E00FF02C0919A01C0AD
:1402680091980695909A4A9580E0841798F348E00AC0909815
:14027C00A22E20FF02C0919A01C091982695909A4A9580E084
:14029000841798F392984991A99008950E94C515C02EAA2422
:1402A40092989098929A48E00AC0EC2CC0FE02C0919A01C052
:1402B80091989098C694909A4A9580E0841798F381B38D7FB8
:1402CC0081BB44270EC0909A909801E010E00E94070100B329
:1402E00002700695142F0E941716A02A4395483080F381B32A
:1402F400876081BB92980A2D0C94AF1581B3876081BB222471
:1403080022BA20E80EE89FCFAA924A93219705E8C1DF07FF35
:14031C0048C005E8BDDF802F82958F708170B9F005E8B6DF5B
:14033000A02E8A2D82958F7081708063888321E000270E9475
:14034400F00405E8A9DF402F242F2F70206301E00E94BE0413
:140358000FC080E2888321E000270E94F00405E899DF402FC3
:14036C00242F2F70206301E00E94BE0405E890DFA02E05FF95
:140380000BC080E5888321E005E00E94F0042DE401E00E941E
:14039400BE0421C081E4888321E005E00E94F0042DE401E0D4
:1403A8000E94BE0416C005E875DFA02E8A2D82958F70837038
:1403BC008063888321E000270E94F00405E868DF402F242F8B
:1403D0002F70206301E00E94BE048AE3888321E001E00E94B6
:1403E400F00403E859DFA02E2A2D22952F70206301E00E946D
:1403F800BE0403E84FDF402F242F2F70206301E00E94BE04ED
:14040C002AE301E00E94BE0401E842DFA02E2A2D22952F7005
:14042000206301E00E94BE0401E838DF402F242F2F7020631C
:1404340001E00E94BE0421964991A990089501E010E008959A
:1404480001E010E0089501E010E0089501E010E0089501E075
:14045C0010E0089501E010E0089501E010E0089508950E94E4
:14047000F015580120E031E00A2D0E9460050DE80DDF202F9B
:1404840022952F702F7020630A2D0E94BE040DE803DF202F2B
:140498002F7020630A2D0E94BE042DE20A2D0E94BE0409E8F8
:1404AC00F7DEC02E2C2D22952F70217020630A2D0E94BE041B
:1404C00009E8ECDE402F242F2F7020630A2D0E94BE042DE2DF
:1404D4000A2D0E94BE0407E8DFDEC02E2C2D22952F7023709D
:1404E80020630A2D0E94BE0407E8D4DE402F242F2F7020635D
:1404FC000A2D0E94BE0420E20A2D0E94BE0405E8C7DEC02E34
:140510002C2D22952F70237020630A2D0E94BE0405E8BCDEF0
:14052400402F242F2F7020630A2D0E94BE042AE30A2D0E945E
:14053800BE0403E8AFDEC02E2C2D22952F7020630A2D0E947C
:14054C00BE0403E8A5DE402F242F2F7020630A2D0E94BE04EC
:140560002AE30A2D0E94BE0401E898DEC02E2C2D22952F70E3
:1405740020630A2D0E94BE0401E88EDE402F242F2F7020631C
:140588000A2D0E94BE040C94F71508954A935A9380EE84BB04
:14059C00809164008061809364008FED85BB8091650080616B
:1405B0008093650001E010E00E94FD0043B355274F3CE0E092
:1405C4005E07E9F04F3CE0E05E07DCF0473DE0E05E0799F037
:1405D8004B3DE0E05E0769F04D3DE0E05E0739F04E3DE0E0E6
:1405EC005E0709F00AC005E699C001E697C004E695C005E726
:1406000093C00CE691C08FEB85BB80916500806180936500C7
:1406140001E010E00E94FD0043B355274F3AE0E05E07E9F069
:140628004F3AE0E05E07DCF0473BE0E05E0799F04B3BE0E0CE
:14063C005E0769F04D3BE0E05E0739F04E3BE0E05E0709F06F
:140650000AC003E769C002E767C004E765C003E663C00BE2A0
:1406640061C08FE785BB8091650080618093650001E010E00B
:140678000E94FD0043B355274F36E0E05E07E9F04F36E0E095
:14068C005E07DCF04737E0E05E0799F04B37E0E05E0769F0FD
:1406A0004D37E0E05E0739F04E37E0E05E0709F00AC000E324
:1406B40039C003E337C002E335C001E333C006E331C08FEF53
:1406C80085BB809165008F708093650001E010E00E94FD0081
:1406DC0043B355274F3EE0E05E07E9F04F3EE0E05E07DCF08F
:1406F000473FE0E05E0799F04B3FE0E05E0769F04D3FE0E06E
:140704005E0739F04E3FE0E05E0709F00AC007E309C008E340
:1407180007C009E305C004E303C005E301C00EE6599149914A
:14072C000895AA924A9330DF402F02E010E00E9407012ADF00
:14074000A02E401761F44E3651F020900301241611F40EE67F
:1407540008C040930301042F04C08EE6809303010EE64991A2
:14076800A99008954A935A9322242ABA809165008D7F80931E
:14077C006500809165008160809365008091650088608093C4
:14079000650001E010E00E94070149B35527407850708FEF07
:1407A4008ABB80916500877F809365008A015991499108951C
:1407B800AA92A02ED7DF00300107E1F7809165008D7F8093C8
:1407CC006500809165008E7F8093650080916500877F80932A
:1407E000650001E010E00E940701ABBA02E010E00E94070144
:1407F4008091650088608093650001E010E00E94070180918F
:140808006500877F80936500A9900895AA92A02EA9DF003061
:14081C000107E1F780916500826080936500809165008E7F95
:140830008093650080916500877F80936500ABBA02E010E011
:140844000E9407018091650088608093650002E010E00E94AC
:14085800070180916500877F80936500A990089501E0A6DF54
:14086C0001E010E00C9407014A935A9322242ABA8091650095
:140880008D7F8093650080916500816080936500809162009E
:1408940081608093620001E010E00E94070149B3552740784F
:1408A80050708FEF8ABB809162008E7F809362008A0159914F
:1408BC0049910895AA92A02ED7DF00300107E1F7809165006B
:1408D0008D7F80936500809165008E7F809365008091620022
:1408E4008E7F8093620001E010E00E940701ABBA02E010E0CC
:1408F8000E9407018091620081608093620001E010E00E9406
:14090C000701809162008E7F80936200A9900895AA92A02EFA
:14092000A9DF00300107E1F78091650082608093650080914A
:1409340065008E7F80936500809162008E7F80936200ABBA6B
:1409480002E010E00E9407018091620081608093620002E074
:14095C0010E00E940701809162008E7F80936200A990089522
:1409700001E0A6DF01E010E00C940701AA924A93A22E402F3C
:14098400442311F0413019F40A2D42DF06C0423011F0433075
:1409980011F40A2DBFDF4991A99008954A936A93622F402FE7
:1409AC00662321F4042F005801DF11C0613021F4042F00572D
:1409C000FBDE0BC0623021F4042F005879DF05C0633019F490
:1409D400042F005773DF6991499108950E94E215622F402F29
:1409E800AE80662331F4042F0058E2DE0A2D0EDF17C0613048
:1409FC0031F4042F0057DADE0A2D06DF0FC0623031F4042FAB
:140A1000005856DF0A2D82DF07C0633029F4042F00574EDF7F
:140A24000A2D7ADF0C94E9150E94E215A22E602F4E815F81E9
:140A3800AA2071F4062F0058BBDE05C0FA010081E5DE4F5FA3
:140A4C005F4FFA0120802220B9F732C08A2D813071F4062F67
:140A60000057AADE05C0FA010081D4DE4F5F5F4FFA012080B9
:140A74002220B9F721C08A2D823071F4062F00581DDF05C07F
:140A8800FA01008147DF4F5F5F4FFA0120802220B9F710C0FF
:140A9C008A2D833069F4062F00570CDF05C0FA01008136DFB2
:140AB0004F5F5F4FFA0120802220B9F70C94E9150E94D8151C
:140AC400A901602F662311F0613059F405C0FA0100819EDEC0
:140AD8004F5F5F4FFA0120802220B9F70EC0623011F063302D
:140AEC0051F405C0FA01008113DF4F5F5F4FFA012080222045
:140B0000B9F70C94DD154A935A9322242ABA809165008D7F29
:140B1400809365008091650081608093650080916500886028
:140B28008093650001E010E00E94070149B355274F778FEF0A
:140B3C008ABB80916500877F80936500042F599149910895D8
:140B50004A935A9322242ABA809165008D7F80936500809192
:140B640065008160809365008091620081608093620001E015
:140B780010E00E94070149B355274F778FEF8ABB809162005B
:140B8C008E7F80936200042F59914991089566DEE9CEAA9208
:140BA000BA9222242ABA809165008260809365008091650085
:140BB4008160809365008091650088608093650001E010E02D
:140BC8000E940701A9B2BB248FEF8ABB80916500877F8093E3
:140BDC0065000A2DB990A9900895AA92BA9222242ABA809187
:140BF000650082608093650080916500816080936500809152
:140C0400620081608093620001E010E00E940701A9B2BB246F
:140C18008FEF8ABB809162008E7F809362000A2DB990A99057
:140C2C0008950E94E215622F402F662349F4042F0058BCDD94
:140C40000AE010E00E94FD00AADF24C0613049F4042F005762
:140C5400B1DD0AE010E00E94FD009FDF19C0623051F4042F24
:140C680000582ADE0AE010E00E94FD00B8DFA02E0DC06330DA
:140C7C0051F4042F00571EDE0AE010E00E94FD00ACDFA02EC7
:140C900001C000270C94E915AA92A02E0A2D8CDD7EDFA9908A
:140CA4000895AA92A02E0A2D85DD9BDFA99008958AB38F6F71
:140CB8008ABB8FEF8BBB809164008F608093640080916500CE
:140CCC008F6080936500809161008160809361008091620073
:140CE00081608093620000E367DD01E010E00E94FD0008E02B
:140CF40061DD01E010E00E94FD0001E05BDD01E010E00E94B2
:140D0800FD0006E055DD01E010E00E94FD000CE04FDD01E059
:140D1C0010E00E94FD0000E3CDDD01E010E00E94FD0008E04F
:140D3000C7DD01E010E00E94FD0001E0C1DD01E010E00E94A9
:140D4400FD0006E0BBDD01E010E00E94FD000CE0B5CD4A9365
:140D58005A93A8014030450719F40CE029DD30C04130E0E015
:140D6C005E0719F40EE022DD29C04230E0E05E0719F40DE09A
:140D80001BDD22C04330E0E05E0719F40FE014DD1BC04430B1
:140D9400E0E05E0719F40CE091DD14C04530E0E05E0719F444
:140DA8000EE08ADD0DC04630E0E05E0719F40DE083DD06C05A
:140DBC004730E0E05E0711F40FE07CDD59914991089502E0F7
:140DD00010E00E94070106E3EFDC06E371DD02E010E00C9418
:140DE400070102E010E00E94070100E3E3DC00E365DD02E0CE
:140DF80010E00C9407010E94A3150E94C315622F2197AF84FF
:140E0C008A2D0B8480198F5FC82ECC0CDADF01E010E00E940B
:140E2000FD00662349F48B8580588150888340E880E8A82ED1
:140E3400E82E22C0613051F48B8580588150888340E980E887
:140E4800A82E80E9E82E16C0623049F48B85805881508883D8
:140E5C0040E880E8A82EE82E0BC0633049F48B8580588150B2
:140E7000888340E980E8A82E80E9E82E01E010E00E94FD000D
:140E8400662311F06130A1F4AA240EC0242E4F5F022D90DC73
:140E980008818EDCEE2403C00027B8DCE394EC14D8F3A3944A
:140EAC008A2D803178F317C0623011F0633099F4AA240EC039
:140EC000242E4F5F022DFCDC0881FADCEE2403C0002724DDBB
:140ED400E394EC14D8F3A3948A2D803178F381DF01E010E08D
:140EE8000E94FD0021960E94B815249608950E94A3150E94DE
:140EFC00C315622F2197AF848A2D0B8480198F5FC82ECC0CF3
:140F10005EDF01E010E00E94FD00662349F48B8580588150A1
:140F2400888340E880E8A82EE82E22C0613051F48B85805892
:140F38008150888340E980E8A82E80E9E82E16C0623049F43E
:140F4C008B8580588150888340E880E8A82EE82E0BC06330F3
:140F600049F48B8580588150888340E980E8A82E80E9E82E96
:140F7400662311F06130A1F4AA240EC0242E4F5F022D18DCFA
:140F8800088116DCEE2403C00FEF40DCE394EC14D8F3A39472
:140F9C008A2D803178F317C0623011F0633099F4AA240EC048
:140FB000242E4F5F022D84DC088182DCEE2403C00FEFACDC5C
:140FC400E394EC14D8F3A3948A2D803178F309DF01E010E014
:140FD8000E94FD0021960E94B815249608953A932A930E94BD
:140FEC00C315C02E04E3E2DB04E364DC6C2D4A856068406888
:14100000AA2413C0242E4F5F022DD6DB062FD4DBEE2407C09E
:14101400EC85FD850191FD87EC87FADBE3948E2D8831B0F3E9
:14102800A3948A2D803250F36C2D4A8560684068EE2413C014
:14103C00242E4F5F022D3EDC062F3CDCEE2407C0EC85FD853E
:141050000191FD87EC8762DCE3948E2D8831B0F3A3948A2D49
:14106400803450F306E3A6DB06E328DC01E010E00E940701AF
:1410780000E39EDB00E320DC0E94B81522960895229784E048
:14108C0091E09983888323E00027CADC84E091E099838883EC
:1410A00022270027C3DC87E0888321E001E023DF08EB1BE0E9
:1410B4000E94070187E0888321E001E09EDE82E0888321E040
:1410C80002E015DF0CE211E00E94070187E0888322E002E05F
:1410DC0090DE85E0888321E003E007DF229608952197222405
:1410F0003324309218012092170181E090E090931A018093CE
:14110400190182E090931C0180931B0185E090931E01809332
:141118001D018FEF82B978940E945A060E94CD0582E090E098
:14112C009093E8068093E7068CE08883222701E00E94FF0656
:141140008CE0888321E001E00E94FF068CE0888322E001E041
:141154000E94FF068CE0888323E001E00E94FF0602C00E947A
:141168004715FDCF219608950093EF062093EE0622242EBC98
:14117C000DBD2CBD2FBC85E08EBD87B7846087BF0895009379
:14119000ED062093EC06222420928A000093890020938800DA
:1411A40020928B0085E080938A0080917D00846080937D00F6
:1411B80008950093EB0602BF87B7816087BF87E083BF089596
:1411CC000093EA0604BD87B7806487BF85E085BD08950A9283
:1411E0001A922A923A924A925A926A927A928A929A920A9312
:1411F4001A932A933A938A939A93AA93BA93EA93FA930FB60D
:141208000A922197222423BE2092E90611C08091E906805D08
:14121C00888323E001E00E94F00404E610E00E9407018091A4
:14123000E9068F5F8093E9068091E906853058F32090EB062A
:1412440022BE87E083BF219609900FBEF991E991B991A99168
:14125800999189913991299119910991999089907990699032
:14126C0059904990399029901990099018950A921A922A9237
:141280003A924A925A926A927A928A929A920A931A932A936F
:141294003A938A939A93AA93BA93EA93FA930FB60A92219782
:1412A80022242EBC2092E90611C08091E906805D888323E0A5
:1412BC0003E00E94F00404E610E00E9407018091E9068F5F33
:1412D0008093E9068091E906853058F32090EF062DBC2090CA
:1412E400EE062CBC85E08EBD219609900FBEF991E991B991FF
:1412F800A99199918991399129911991099199908990799051
:14130C00699059904990399029901990099018950A921A9259
:141320002A923A924A925A926A927A928A929A920A931A93CF
:141334002A933A938A939A93AA93BA93EA93FA930FB60A92DC
:14134800219723B0209423B8222425BC2092E90611C08091CD
:14135C00E906805D888323E000270E94F00404E610E00E946A
:1413700007018091E9068F5F8093E9068091E906853058F371
:141384002090EA0624BC85E085BD219609900FBEF991E9910D
:14139800B991A991999189913991299119910991999089906F
:1413AC007990699059904990399029901990099018950A925C
:1413C0001A922A923A924A925A926A927A928A929A920A9330
:1413D4001A932A933A938A939A93AA93BA93EA93FA930FB62B
:1413E8000A92219722242EBC2092E90611C08091E906805D1E
:1413FC00888323E002E00E94F00404E610E00E9407018091C2
:14141000E9068F5F8093E9068091E906853058F32090ED0646
:14142400209289002090EC062092880085E08EBD219609909D
:141438000FBEF991E991B991A99199918991399129911991D9
:14144C000991999089907990699059904990399029901990C1
:14146000099018954A935A9382B18B7F82B91B981C9801E0A8
:1414740010E00E94FD004427552720C01B9A0AE010E00E94DD
:14148800FD0081B19927847090702090130130901401282A82
:14149C00392A3092140120921301220C331C30921401209236
:1414B00013011B9801E010E00E94FD004F5F5F4F4830E0E05D
:1414C4005E07E0F24427552722C01B9A0AE010E00E94FD00E6
:1414D80081B19927847090702090150130901601282A392AC8
:1414EC003092160120921501910181010E94101610931601B5
:14150000009315011B9801E010E00E94FD004F5F5F4F483037
:14151400E0E05E07D0F201E010E00E94FD005991499108950B
:141528004A935A9382B18F7D82B91E981F9801E010E00E948B
:14153C00FD004427552720C01E9A0AE010E00E94FD0081B174
:141550009927807290702090130130901401282A392A3092C5
:14156400140120921301220C331C30921401209213011E98C8
:1415780001E010E00E94FD004F5F5F4F4830E0E05E07E0F224
:14158C004427552722C01E9A0AE010E00E94FD0081B199275F
:1415A000807290702090150130901601282A392A309216011A
:1415B40020921501910181010E94101610931601009315011C
:1415C8001E9801E010E00E94FD004F5F5F4F4830E0E05E07F0
:1415DC00D0F201E010E00E94FD005991499108954A935A939E
:1415F000809161008E7F80936100809162008E7F80936200FF
:14160400809162008B7F8093620001E010E00E94FD00442705
:14161800552728C0809162008160809362000AE010E00E9415
:14162C00FD0080B19927817090702090130130901401282AE0
:14164000392A3092140120921301220C331C30921401209290
:141654001301809162008E7F8093620001E010E00E94FD0009
:141668004F5F5F4F4830E0E05E07A0F2442755272AC0809101
:14167C0062008160809362000AE010E00E94FD0080B1992738
:14169000817090702090150130901601282A392A309216012A
:1416A40020921501910181010E94101610931601009315012B
:1416B800809162008E7F8093620001E010E00E94FD004F5F0B
:1416CC005F4F4830E0E05E0790F201E010E00E94FD005991E3
:1416E000499108954A935A9380916100877F809361008091B8
:1416F40062008F7E80936200809162008F7D8093620001E029
:1417080010E00E94FD004427552728C0809162008061809308
:14171C0062000AE010E00E94FD0080B1992780789070209045
:14173000130130901401282A392A3092140120921301220C3C
:14174400331C3092140120921301809162008F7E80936200B0
:1417580001E010E00E94FD004F5F5F4F4830E0E05E07A0F282
:14176C00442755272AC0809162008061809362000AE010E0F5
:141780000E94FD0080B1992780789070209015013090160130
:14179400282A392A3092160120921501910181010E9410160F
:1417A8001093160100931501809162008F7E8093620001E0F4
:1417BC0010E00E94FD004F5F5F4F4830E0E05E0790F201E02E
:1417D00010E00E94FD0059914991089581B3877081BB00B3FB
:1417E400087F08958FEF84BB05BB08950E94CE155901A8012B
:1417F8008FEF84BB4030450771F401E010E095010E941016D0
:14180C0018012094309445B255244220532045BA0EC04130B4
:14182000E0E05E0751F401E010E095010E94101625B23324ED
:14183400202A312A25BA0C94D315AA92BA92580101E010E0E2
:1418480095010E94101623B23324202231228101B990A99069
:14185C0008958EE08093950083E089B92224209290002BB8B5
:1418700088E18AB908955D9BFECF0CB908950027112722244F
:141884002092F1060BC00030EDE71E0729F481E08093F1062B
:1418980001E005C00F5F1F4F5F9BF3CF0CB10895AA924A938B
:1418AC003EC0E7DF00938304023009F038C041E00FC0DFDF79
:1418C00083E894E0E42FFF27E80FF91F00838091F1068130B1
:1418D40011F401E029C04395453078F3209087043324309225
:1418E8002A022092290245E010C0C5DFA02E83E894E0E42F8A
:1418FC00FF27E80FF91FA0828091F106813011F401E00EC014
:1419100043958091290290912A020696242E332428163906A0
:1419240030F3002701C0C1CF4991A99008950E94C71569017C
:141938007801AA2407C0EA2DFF27EE0DFF1D008196DFA3940C
:14194C002A2C33242C143D04A0F30C94A8150E94FE15C88468
:141960004FEF5FEFAA241BC0EA2DFF27E00FF11F208033240B
:141974004225532566270EC040FF09C088E094E81A01369454
:14198800279428263926A10102C0569547956395683080F3B5
:14199C00A394AC1418F31A01232C3324F901208241830C9474
:1419B00007160E94CE15422F58012397842F825088839E01CE
:1419C4002F5F3F4F8501C7DFE42FFF273297EA0DFB1D208016
:1419D8003980321449F4E42FFF273197EA0DFB1D20803A8055
:1419EC00321411F001E001C0002723960C94D3150E94F015EF
:141A0000C22EA02E23974985C092300240932F02A0922E02A2
:141A1400222420922C0281E080932D0282E080932B02842FA0
:141A28008B5F88839E012F5F3F4F0BE212E091DF80E392E0D6
:141A3C00E42FFF27E80FF91F2980208281E392E0E42FFF27F4
:141A5000E80FF91F2A80208202DF242F3327295F3F4F0BE296
:141A640012E065DF23960C94F7150E94C71579016801AE8044
:141A7800BF808FB78F778FBFE199FECFEEBACFBAADBAE29A26
:141A8C00E19A01E010E00E94FD0078940C94A815AA92CA925A
:141AA000690158018FB78F778FBFE199FECFCEBAAFBAE09A23
:141AB40001E010E00E94FD00ADB278940A2DC990A9900895DD
:141AC800AA92BA925801229781E292E0998388832A2D0027F6
:141ADC000E94160585010E9437022296B990A99008950E945F
:141AF000FE15229781E090E09093DC068093DB0689E192E070
:141B04009983888321E001E00E94160581EA888321E005E0AB
:141B18000E94F00426EE01E00E94BE0481E192E099838883CF
:141B2C0021E006E00E94160581EA888321E00AE00E94F0040A
:141B400026EE01E00E94BE0488E092E09983888322E001E054
:141B54000E9416058FEF91E09983888322E006E00E94160505
:141B680086EF91E09983888323E001E00E9416052DEE31E08F
:141B7C0003E00E94600528EE31E003E00E9460054427552773
:141B900083E0888321E002E00E947B070FC30027112792DF2A
:141BA400AA24BB2481C0AA2049F4BB2039F461E070E021E09E
:141BB80003E00E94D20423C0C5018130E0E09E0739F461E091
:141BCC0070E021E008E00E94D20417C0C5018230E0E09E07A0
:141BE00039F462E070E022E003E00E94D2040BC0C501833091
:141BF400E0E09E0731F462E070E022E008E00E94D20487E1F7
:141C080091E0F501EE0FFF1FE80FF91FC080D180CC2011F4B5
:141C1C00DD20D1F0C6018130E0E09E07D9F08230E0E09E0739
:141C3000E9F08330E0E09E07F9F08430E0E09E0709F18530FE
:141C4400E0E09E0719F18630E0E09E0729F129C023EE31E0DD
:141C5800062F0E94600523C02FED31E0062F0E9460051DC013
:141C6C002AED31E0062F0E94600517C025ED31E0062F0E942F
:141C8000600511C020ED31E0062F0E9460050BC02BEC31E0CD
:141C9400062F0E94600505C026EC31E0062F0E946005C50116
:141CA80001965C01C5018430E0E09E0708F479CF0E949703D5
:141CBC00A02E013609F048C088E090E09093E8068093E70625
:141CD00040304507A9F04130E0E05E07C1F04230E0E05E07CD
:141CE400D9F04330E0E05E07F1F04530E0E05E0709F14630A0
:141CF800E0E05E0721F15FC283E0888321E002E00E94FF0688
:141D0C0058C288E0888321E007E00E94FF0651C283E0888326
:141D200022E002E00E94FF064AC288E0888322E007E00E941A
:141D3400FF0643C287E0888323E006E00E94FF063CC28BE026
:141D4800888323E00AE00E94FF0635C28A2D843609F04CC07B
:141D5C004030450769F04130E0E05E07C1F04230E0E05E0780
:141D700019F14330E0E05E0771F120C283E0888321E002E028
:141D84000E94FF0683E0888322E002E00E947B0742E050E0DC
:141D980011C288E0888321E007E00E94FF0688E0888322E0ED
:141DAC0007E00E947B0743E050E002C283E0888322E002E0AF
:141DC0000E94FF0683E0888323E002E00E947B0744E050E09D
:141DD400F3C188E0888322E007E00E94FF0687E0888323E0CF
:141DE80006E00E947B0745E050E0E4C18A2D853709F061C056
:141DFC004230E0E05E0791F04330E0E05E07E9F04430E0E016
:141E10005E0741F14530E0E05E0799F14630E0E05E0709F46B
:141E24003DC0CAC183E0888322E002E00E94FF0683E08883BB
:141E380021E002E00E947B0744275527BBC188E0888322E0B7
:141E4C0007E00E94FF0688E0888321E007E00E947B0741E054
:141E600050E0ACC185E0888323E002E00E94FF0683E0888367
:141E740022E002E00E947B0742E050E09DC187E0888323E02D
:141E880006E00E94FF0688E0888322E007E00E947B0743E016
:141E9C0050E08EC18BE0888323E00AE00E94FF0688E0888336
:141EB00022E007E00E947B0743E050E07FC18A2D8C3609F00C
:141EC4004DC04130E0E05E0769F04330E0E05E07C1F0453050
:141ED800E0E05E0719F14630E0E05E0771F16AC188E088832C
:141EEC0021E007E00E94FF0683E0888321E002E00E947B07DE
:141F0000442755275BC188E0888322E007E00E94FF0683E064
:141F1400888322E002E00E947B0742E050E04CC187E08883D5
:141F280023E006E00E94FF0683E0888323E002E00E947B079E
:141F3C0044E050E03DC18BE0888323E00AE00E94FF0687E0CE
:141F5000888323E006E00E947B0745E050E02EC18A2D8237B1
:141F640009F04CC04030450769F04230E0E05E07C1F0443093
:141F7800E0E05E0719F14530E0E05E0771F11AC183E08883E1
:141F8C0021E002E00E94FF0688E0888321E007E00E947B0738
:141FA00041E050E00BC183E0888322E002E00E94FF0688E0AF
:141FB400888322E007E00E947B0743E050E0FCC083E0888384
:141FC80023E002E00E94FF0687E0888323E006E00E947B07FA
:141FDC0045E050E0EDC087E0888323E006E00E94FF068BE082
:141FF000888323E00AE00E947B0746E050E0DEC08A2D83375C
:1420040009F048C085E090E09093E8068093E7064030450725
:14201800A9F04130E0E05E07C1F04230E0E05E07D9F0433001
:14202C00E0E05E07F1F04530E0E05E0709F14630E0E05E076B
:1420400021F1BDC083E0888321E002E00E94FF06B6C088E027
:14205400888321E007E00E94FF06AFC083E0888322E002E01D
:142068000E94FF06A8C088E0888322E007E00E94FF06A1C0F1
:14207C0087E0888323E006E00E94FF069AC08BE0888323E07B
:142090000AE00E94FF0693C08A2D843709F08EC040304507E3
:1420A400F1F04130E0E05E0791F14230E0E05E0709F443C098
:1420B8004330E0E05E0709F455C04430E0E05E0709F478C09C
:1420CC004530E0E05E0709F473C04630E0E05E0709F45CC082
:1420E0006DC083E0888321E002E00E94FF0681E090E09093D3
:1420F400DC068093DB06222433243092DE062092DD0683E0C7
:142108009093E8068093E70656C088E0888321E007E00E949F
:14211C00FF0681E090E09093DC068093DB069093DE068093C6
:14213000DD0683E09093E8068093E70640C083E0888322E0D4
:1421440002E00E94FF0681E090E09093DC068093DB0682E0D2
:142158009093DE068093DD0683E09093E8068093E70629C019
:14216C0088E0888322E007E00E94FF0681E090E09093DC0686
:142180008093DB0683E09093DE068093DD069093E8068093D3
:14219400E70613C08BE0888323E00AE00E94FF0681E090E09C
:1421A8009093DC068093DB0685E09093E8068093E70601C0F3
:1421BC00F0CC22960C9407160E94E21522974427552785EB35
:1421D00091E099838883222702E00E94160580EB91E0998383
:1421E400888322E002E00E9416058BEA91E09983888322E02C
:1421F80008E00E94160584E0888322E003E00E947B074FC0A7
:14220C000E949703A02E6A2D77276C36E0E07E0771F06C3695
:14222000E0E07E070CF441C06237E0E07E07C1F06437E0E07A
:142234007E0731F138C04130E0E05E07A1F58AE0888322E054
:1422480009E00E94FF0684E0888322E003E00E947B0741E059
:14225C0050E025C04030450711F584E0888322E003E00E94A1
:14227000FF068AE0888322E009E00E947B074427552713C017
:142284008AE0888322E009E00E94FF0684E0888322E003E0EB
:142298000E94FF0681E090E09093E8068093E70601C0B0CF69
:1422AC0022960C94E9150E94CE152297AA24BB248EE991E0F5
:1422C00099838883222702E00E9416050CC00E949703402F84
:1422D400053639F481E090E09093E8068093E70601C0F3CF29
:1422E80022960C94D3150E94CE152297AA24BB248DE891E0D1
:1422FC0099838883222702E00E9416050CC00E949703402F48
:14231000053639F483E090E09093E8068093E70601C0F3CFEA
:1423240022960C94D3150E94D815229780E891E0998388831D
:14233800222704E00E94160587E791E09983888321E004E0BC
:14234C000E9416058EE691E09983888322E004E00E94160511
:1423600081EA8883222703E00E94F00421EC00270E94BE0499
:14237400442755278AE08883222705E00E947B07A4C00E94A1
:142388009703602F053739F54130E0E05E0729F04230E0E0CD
:14239C005E0781F096C088E0888321E005E00E94FF068AE097
:1423B0008883222705E00E947B074427552787C088E088831B
:1423C40022E005E00E94FF0688E0888321E005E00E947B07FA
:1423D80041E050E078C0643631F54030450729F04130E0E0A2
:1423EC005E0781F06EC08AE08883222705E00E94FF0688E027
:14240000888321E005E00E947B0741E050E05FC088E08883D0
:1424140021E005E00E94FF0688E0888322E005E00E947B07A9
:1424280042E050E050C0653639F54030450749F04130E0E04F
:14243C005E0761F04230E0E05E0779F014C08AE08883222744
:1424500005E00E94FF060DC088E0888321E005E00E94FF061F
:1424640006C088E0888322E005E00E94FF0681E090E09093A9
:14247800E8068093E70628C0643729F54030450711F1413092
:14248C00E0E05E0729F04230E0E05E0769F019C088E090E05D
:1424A0009093E8068093E706888321E005E00E94FF060EC0B1
:1424B40087E090E09093E8068093E70688E0888322E005E0D2
:1424C8000E94FF0601C05BCF22960C94DD15229783E691E091
:1424DC009983888321E005E00E94160504EF11E00E94070194
:1424F0002090DB063090DC063092E8062092E7062296089501
:142504000E94E215229741E050E08AE591E0998388832227D0
:1425180002E00E94160585E591E09983888322E002E00E9488
:14252C0016058BEA91E09983888322E008E00E9416058AE062
:14254000888322E009E00E947B0774C00E949703A02E6A2D98
:1425540077276C36E0E07E07A1F08CE690E08617970734F01C
:142568006536E0E07E0709F44EC060C06237E0E07E07C9F0BD
:14257C006437E0E07E0741F157C04130E0E05E0709F052C081
:142590008AE0888322E009E00E94FF0684E0888322E003E0DC
:1425A4000E947B074427552743C04030450709F03FC084E0FD
:1425B800888322E003E00E94FF068AE0888322E009E00E9476
:1425CC007B0741E050E030C04030450769F484E0888322E0AE
:1425E00003E00E94FF0689E090E09093E8068093E70621C092
:1425F4008AE0888322E009E00E94FF0685E090E09093E806E6
:142608008093E70614C084E0888322E003E00E94FF068AE085
:14261C00888322E009E00E94FF0685E090E09093E806809314
:14263000E70601C08BCF22960C94E9150E94D815AD974427FA
:1426440055278FE191E0FE0171960CE110E0FA93EA939A930B
:142658008A930E941D1688E090E09093DC068093DB0682E049
:14266C008A8322242B8281E08C8385E08D8381E08E8382E0A1
:142680008F83888785E0898781E08A8782E08B8783E08C8754
:142694002D8685E08E872F86222701E00E94D2046627772783
:1426A8001DC0CE010296FB01E80FF91F2081206300270E94E2
:1426BC00BE0420E200270E94BE046330E0E07E0721F065303D
:1426D000E0E07E0729F422E531E000270E9460056F5F7F4FB2
:1426E4006830E0E07E07F8F221E002E00E94D20468E070E028
:1426F8001DC0CE010296FB01E80FF91F2081206301E00E94D8
:14270C00BE0420E200270E94BE046930E0E07E0721F06B30E0
:14272000E0E07E0729F42FE431E000270E9460056F5F7F4F55
:142734006E30E0E07E07F8F28AE491E09983888322E003E0D9
:142748000E9416058BEA91E09983888322E008E00E9416050C
:14275C0044275527222701E00E94D20403E010E00E94AB06BA
:142770007EC103E010E0A8D90E949703602F053771F58DE0E8
:1427840090E084179507B8F485E0888322E004E00E94FF06F1
:142798008AE0888322E009E00E94FF0621E002E00E94D204CB
:1427AC0003E010E00E94AB0648E050E05AC187E090E084170E
:1427C000950708F054C14E30E0E05E0708F04FC1222701E087
:1427D4000E94D2044427552748C1643619F587E090E084176F
:1427E800950788F44E30E0E05E0768F4002711270E94AB0614
:1427FC0085E0888322E004E00E947B074EE050E030C187E099
:1428100090E08417950708F42AC121E002E00E94D20448E0A3
:1428240050E023C16C3609F043C088E090E08417950790F05F
:142838004030450779F0415050402227CE014196FA01EE0F5F
:14284C00FF1FE80FF91F008111810E94D20409C188E090E01E
:142860008417950798F44E30E0E05E0778F44150504021E070
:14287400CE014196FA01EE0FFF1FE80FF91F008111810E94D0
:14288800D204F1C04F30E0E05E0709F0ECC08AE0888322E0F5
:14289C0009E00E94FF0685E0888322E004E00E947B074EE0F0
:1428B00050E0DDC0623709F03AC04730E0E05E0778F44F5F05
:1428C4005F4F2227CE014196FA01EE0FFF1FE80FF91F0081BD
:1428D80011810E94D204C7C04D30E0E05E0778F44F5F5F4FF1
:1428EC0021E0CE014196FA01EE0FFF1FE80FF91F00811181F9
:142900000E94D204B4C04E30E0E05E0709F0AFC085E088835C
:1429140022E004E00E94FF068AE0888322E009E00E947B079E
:142928004FE050E0A0C06536B9F4002711270E94AB0685E07D
:14293C00888322E004E00E94FF068AE0888322E009E00E94ED
:14295000FF0681E090E09093E8068093E70688C0643739F57B
:142964004E30E0E05E0739F486E090E09093E8068093E706A8
:142978007BC04F30E0E05E0709F075C0002711270E94AB068C
:14298C0085E0888322E004E00E94FF068AE0888322E009E0DA
:1429A0000E94FF0681E090E09093E8068093E7065FC06033E8
:1429B40099F0613389F0623379F0633369F0643359F0653314
:1429C80049F0663339F0673329F0683319F0693309F049C00B
:1429DC004E30E0E05E0708F044C0262F206300270E94BE04E5
:1429F00020E200270E94BE04CE010296FA01E80FF91F6083F2
:142A04004330E0E05E0721F04530E0E05E0731F422E531E03E
:142A180000270E9460050DC04930E0E05E0721F04B30E0E0C5
:142A2C005E0729F42FE431E000270E9460054F5F5F4F4830EE
:142A4000E0E05E0731F421E009A11AA10E94D2040EC04E300E
:142A5400E0E05E0751F4002711270E94AB0685E0888322E0E0
:142A680004E00E947B0781CEAD960C94DD1522978BE391E096
:142A7C009983888321E005E00E941605FFCF229608950E94B7
:142A9000CD058091E7069091E8068130E0E09E0711F425D83B
:142AA4004FC08091E7069091E8068230E0E09E0711F486DB85
:142AB80045C08091E7069091E8068330E0E09E0711F4F3DB0D
:142ACC003BC08091E7069091E8068430E0E09E0711F407DCED
:142AE00031C08091E7069091E8068530E0E09E0711F41BDCCE
:142AF40027C08091E7069091E8068630E0E09E0711F4E7DCF7
:142B08001DC08091E7069091E8068730E0E09E0711F4F4DCDE
:142B1C0013C08091E7069091E8068830E0E09E0711F486DD40
:142B300009C08091E7069091E8068930E0E09E0709F499DF28
:142B440008953A932A931A930A930895A990B990C990D9902B
:142B5800E990F9900895A990B990C990D990E990F9904991AA
:142B6C0059910895A990B990C990D990E990F99049915991C4
:142B80006991799108957A936A935A934A93FA92EA92DA9258
:142B9400CA92BA92AA9208955A934A93BA92AA920895A99084
:142BA800B9904991599108957A936A935A934A930895499124
:142BBC0059916991799108957A936A935A934A93BA92AA921E
:142BD0000895A990B990499159916991799108955A934A93A3
:142BE400DA92CA92BA92AA920895A990B990C990D9904991D2
:142BF800599108957A936A935A934A93DA92CA92BA92AA921E
:142C0C000895A990B990C990D990499159916991799108956E
:142C2000222321F0000F111F2A95FACF0895112319F0000F9A
:142C34001A95FBCF0895AA93BA93EA93FA930A92AF81B885D9
:142C4800ED81FE810030010729F001900D9201501040F8CFA2
:0E2C5C000990F991E991B991A99124960895F2
:00000001FF
