:040000000C941B043D
:04000C000C94942399
:040028000C94C20A68
:040038000C94890A91
:040040000C94300AE2
:040074000C940F0BCE
:14008C00000000400000C84100000000000020416EB7B4B02D
:1400A000D7B2E2CAD4B5DAD2BBB4CE00E803000000000000BA
:1400B400000000000000000000000000000000000000000038
:1400C800000000000000000000000000000000000000000024
:1400DC00000000000000000000000000000000000000000010
:1400F0000000000000000000000000000000000000000000FC
:1405B4000000000000000000000000000000400001000000F2
:1405C80000000000000000000000000000000000000000001F
:1405DC0000000000000000000000000000000000000000000B
:1405F0000000000000000000000000000000000000000000F7
:140604000000000000000000000000000000000000000000E2
:140618000000000000000000000000000000000000000000CE
:14062C000000000000000000000000000000000000000000BA
:140640000000000000000000000000000000000000000000A6
:14065400000000000000000000000000000000000000000092
:1406680000000000000000000000000000000000000000007E
:14067C0000000000000000000000000000000000000000006A
:14069000000000000000000000000000000000000000000056
:1406A400000000000000000000000000000000000000000042
:1406B80000000000000000000000000000000000000000002E
:1406CC0001000200030004000600070009000A0002000300EB
:1406E0000500060008000900CAFDBEDDD6D8D6C3D6D0A1A357
:1406F400A1A3A1A300CFB5CDB3D6D8D6C3D6D0A1A3A1A3A150
:14070800A3002D2000C8B7C8CF00CAC7B7F1D6D8D6C300CE89
:14071C00C2B6C8B1A3B4E6CAA7B0DCA3A100CEC2B6C8B1A3F8
:14073000B4E6B3C9B9A6A3A100CAB1BCE4B1A3B4E6B3C9B9BE
:14074400A6A3A100D6D8D6C3CFB5CDB300C9E8D6C3CAB1BCEB
:14075800E400B6CFB5E7D7D4B6AFBBD6B8B400B1A3B4E6D6B7
:14076C00D02E202E202E00B1A3B4E600CEC2B6C80020003A89
:1407800020002020202020202020202020202020202000BA8B
:14079400E3CEC200C9FDCEC20000D6D8D6C300D4CBD0D00002
:1407A800B1E0BCAD00D7B4CCAC3A00C4BFB1EA3A00CEC2B668
:1407BC00C83A005400BBD6B8B4D6D02E202E202E00C8A1CF2E
:1407D000FB00BBD6B8B400CAC7B7F1BBD6B8B4C9CFB4CEB914
:1407E400A4D7F700B5C8B4FD00BDE1CAF800D4DDCDA300B927
:1407F800CAD5CF00CDA3D6B900C9E8D6C300CDA3D6B92020F7
:14080C00202000BFAACABC20202020002054343A00205433A0
:140820003A002054323A002054313A00CAB1BCE43A00323014
:0108340000C3
:14083600CFEFD0E1CDBFDEBFCE51D0400AEA08830024E9E972
:14084A00F8E01DE0E536F10711F00192FBCF0083ECE9F0E02C
:14085E00A0E0B1E018E000E00BBFE533F10721F0C89531968E
:140872000D92F9CF0E94B109FFCF000F111F0150104081E0A0
:1408860090E080179107C8F308954A935A93A80141505040D3
:14089A0005E714E0EEDF81E090E084179507B0F3599149912E
:1408AE0008954A935A93A8014150504008EE13E0E8DF81E0F4
:1408C20090E084179507B0F359914991089508954A935A9310
:1408D60080EE84BB809164008061809364008FED85BB8091C7
:1408EA00650080618093650001E010E00E943E0443B3552715
:1408FE004F3CE0E05E07E9F04F3CE0E05E07DCF0473DE0E09D
:140912005E0799F04B3DE0E05E0769F04D3DE0E05E0739F005
:140926004E3DE0E05E0709F00AC005E699C001E697C004E6DE
:14093A0095C005E793C00CE691C08FEB85BB809165008061C1
:14094E008093650001E010E00E943E0443B355274F3AE0E0AD
:140962005E07E9F04F3AE0E05E07DCF0473BE0E05E0799F099
:140976004B3BE0E05E0769F04D3BE0E05E0739F04E3BE0E04A
:14098A005E0709F00AC003E769C002E767C004E765C003E615
:14099E0063C00BE261C08FE785BB809165008061809365008F
:1409B20001E010E00E943E0443B355274F36E0E05E07E9F087
:1409C6004F36E0E05E07DCF04737E0E05E0799F04B37E0E039
:1409DA005E0769F04D37E0E05E0739F04E37E0E05E0709F0D6
:1409EE000AC000E339C003E337C002E335C001E333C006E3D8
:140A020031C08FEF85BB809165008F708093650001E010E073
:140A16000E943E0443B355274F3EE0E05E07E9F04F3EE0E09E
:140A2A005E07DCF0473FE0E05E0799F04B3FE0E05E0769F04B
:140A3E004D3FE0E05E0739F04E3FE0E05E0709F00AC007E36B
:140A520009C008E307C009E305C004E303C005E301C00EE61D
:140A6600599149910895AA924A9330DF402F02E010E00E9410
:140A7A0048042ADFA02E401761F44E3651F0209000012416E9
:140A8E0011F40EE608C040930001042F04C08EE68093000140
:140AA2000EE64991A99008954A935A9322242ABA8091650032
:140AB6008D7F80936500809165008160809365008091650063
:140ACA0088608093650001E010E00E943E0449B355274078D3
:140ADE0050708FEF8ABB80916500877F809365008A01599118
:140AF20049910895AA92A02ED7DF00300107E1F78091650033
:140B06008D7F80936500809165008E7F8093650080916500E6
:140B1A00877F80936500ABBA8091650088608093650001E02D
:140B2E0010E00E943E0480916500877F80936500A990089515
:140B4200AA92A02EB1DF00300107E1F780916500826080938A
:140B56006500809165008E7F8093650080916500877F80939C
:140B6A006500ABBA8091650088608093650001E010E00E9464
:140B7E003E0480916500877F80936500A990089501E0B2DFE5
:140B920001E010E00C9448044A935A9322242ABA8091650028
:140BA6008D7F80936500809165008160809365008091620075
:140BBA0081608093620001E010E00E943E0449B355274078EC
:140BCE0050708FEF8ABB809162008E7F809362008A01599126
:140BE20049910895AA92A02ED7DF00300107E1F78091650042
:140BF6008D7F80936500809165008E7F8093650080916200F9
:140C0A008E7F80936200ABBA8091620081608093620001E045
:140C1E0010E00E943E04809162008E7F80936200A990089523
:140C3200AA92A02EB1DF00300107E1F7809165008260809399
:140C46006500809165008E7F80936500809162008E7F8093A7
:140C5A006200ABBA8091620081608093620001E010E00E9483
:140C6E003E04809162008E7F80936200A990089501E0B2CF03
:140C8200AA924A93A22E402F442311F0413019F40A2D56DFB4
:140C960006C0423011F0433011F40A2DC7DF4991A99008950C
:140CAA004A936A93622F402F662321F4042F00581DDF11C066
:140CBE00613021F4042F005717DF0BC0623021F4042F0058FF
:140CD20089DF05C0633019F4042F005783DF699149910895E4
:140CE6000E94192D622F402FAE80662331F4042F0058FEDECF
:140CFA000A2D22DF17C0613031F4042F0057F6DE0A2D1ADF93
:140D0E000FC0623031F4042F005866DF0A2D8ADF07C0633081
:140D220029F4042F00575EDF0A2D82DF0C94202D0E94192D6C
:140D3600A22E602F4E815F81AA2071F4062F0058D7DE05C065
:140D4A00FA010081F9DE4F5F5F4FFA0120802220B9F732C067
:140D5E008A2D813071F4062F0057C6DE05C0FA010081E8DE7D
:140D72004F5F5F4FFA0120802220B9F721C08A2D823071F4D5
:140D8600062F00582DDF05C0FA0100814FDF4F5F5F4FFA01FA
:140D9A0020802220B9F710C08A2D833069F4062F00571CDF95
:140DAE0005C0FA0100813EDF4F5F5F4FFA0120802220B9F7EA
:140DC2000C94202D0E940F2DA901602F662311F0613059F4B1
:140DD60005C0FA010081B2DE4F5F5F4FFA0120802220B9F74F
:140DEA000EC0623011F0633051F405C0FA0100811BDF4F5FD3
:140DFE005F4FFA0120802220B9F70C94142D4A935A932224B5
:140E12002ABA809165008D7F80936500809165008160809384
:140E260065008091650088608093650001E010E00E944804BE
:140E3A0049B355274F778FEF8ABB80916500877F80936500AF
:140E4E00042F5991499108954A935A9322242ABA8091650092
:140E62008D7F809365008091650081608093650080916200B6
:140E760081608093620001E010E00E94480449B355274F7715
:140E8A008FEF8ABB809162008E7F80936200042F59914991A5
:140E9E00089576DEEDCEAA92BA9222242ABA8091650082608A
:140EB200809365008091650081608093650080916500886087
:140EC6008093650001E010E00E944804A9B2BB248FEF8ABBE4
:140EDA0080916500877F809365000A2DB990A9900895AA927E
:140EEE00BA9222242ABA809165008260809365008091650034
:140F02008160809365008091620081608093620001E010E0E8
:140F16000E944804A9B2BB248FEF8ABB809162008E7F809349
:140F2A0062000A2DB990A99008950E94192D622F402F66238A
:140F3E0049F4042F0058D8DD0AE010E00E943E04AADF24C0F7
:140F5200613049F4042F0057CDDD0AE010E00E943E049FDF4D
:140F660019C0623051F4042F00583ADE0AE010E00E943E0466
:140F7A00B8DFA02E0DC0633051F4042F00572EDE0AE010E0E9
:140F8E000E943E04ACDFA02E01C000270C94202DAA92A02E33
:140FA2000A2DA8DD7EDFA9900895AA92A02E0A2DA1DD9BDF13
:140FB600A99008958AB38F6F8ABB8FEF8BBB809164008F60A9
:140FCA0080936400809165008F60809365008091610081606C
:140FDE00809361008091620081608093620000E383DD08E097
:140FF20081DD01E07FDD06E07DDD0CE07BDD00E3F1DD08E033
:14100600EFDD01E0EDDD06E0EBDD0CE0E9CD4A935A93A8019C
:14101A004030450719F40CE069DD30C04130E0E05E0719F434
:14102E000EE062DD29C04230E0E05E0719F40DE05BDD22C0ED
:141042004330E0E05E0719F40FE054DD1BC04430E0E05E0761
:1410560019F40CE0C5DD14C04530E0E05E0719F40EE0BEDDE7
:14106A000DC04630E0E05E0719F40DE0B7DD06C04730E0E07F
:14107E005E0711F40FE0B0DD59914991089506E333DD06E335
:14109200A9CD00E32FDD00E3A5CD0E94792C0E94FA2C622FF0
:1410A6002197AF848A2D0B8480198F5FC82ECC0CEADF66235E
:1410BA0049F48B8580588150888340E880E8A82EE82E22C0C3
:1410CE00613051F48B8580588150888340E980E8A82E80E9A4
:1410E200E82E16C0623049F48B8580588150888340E880E8EB
:1410F600A82EE82E0BC0633049F48B8580588150888340E972
:14110A0080E8A82E80E9E82E662311F06130A1F4AA240EC0C8
:14111E00242E4F5F022DE8DC0881E6DCEE2403C0002708DD9E
:14113200E394EC14D8F3A3948A2D803178F317C0623011F0F3
:14114600633099F4AA240EC0242E4F5F022D48DD088146DDD9
:14115A00EE2403C0002768DDE394EC14D8F3A3948A2D80315F
:14116E0078F391DF21960E94EF2C249608950E94792C0E94DE
:14118200FA2C622F2197AF848A2D0B8480198F5FC82ECC0C1C
:141196007ADF662349F48B8580588150888340E880E8A82EFC
:1411AA00E82E22C0613051F48B8580588150888340E980E80E
:1411BE00A82E80E9E82E16C0623049F48B858058815088835F
:1411D20040E880E8A82EE82E0BC0633049F48B858058815039
:1411E600888340E980E8A82E80E9E82E662311F06130A1F454
:1411FA00AA240EC0242E4F5F022D78DC088176DCEE2403C012
:14120E000FEF98DCE394EC14D8F3A3948A2D803178F317C037
:14122200623011F0633099F4AA240EC0242E4F5F022DD8DC86
:141236000881D6DCEE2403C00FEFF8DCE394EC14D8F3A39449
:14124A008A2D803178F321DF21960E94EF2C249608953A9325
:14125E002A930E94FA2CC02E04E346DC04E3BCDC6C2D4A8519
:1412720060684068AA2413C0242E4F5F022D3ADC062F38DCC9
:14128600EE2407C0EC85FD850191FD87EC8756DCE3948E2D9B
:14129A008831B0F3A3948A2D803250F36C2D4A856068406829
:1412AE00EE2413C0242E4F5F022D96DC062F94DCEE2407C028
:1412C200EC85FD850191FD87EC87B2DCE3948E2D8831B0F380
:1412D600A3948A2D803450F306E30ADC06E380DC01E010E03A
:1412EA000E943E0400E302DC00E378DC0E94EF2C2296089502
:1412FE00229781E091E09983888323E0002712DD81E091E03F
:1413120099838883222700270BDD87E0888321E001E02BDFEA
:1413260008EB1BE00E94480487E0888321E001E0B2DE82E091
:14133A00888321E002E01DDF0CE211E00E94480487E0888376
:14134E0022E002E0A4DE85E0888321E003E00FDF229608958E
:1413620021978FEF82B985E583B978940E94DD070E945007D5
:1413760082E090E090935A0D8093590D8CE08883222701E0ED
:14138A000E944E088CE0888321E001E00E944E088CE088838F
:14139E0022E001E00E944E088CE0888323E001E00E944E080D
:1413B20080E590E0909315018093140182E190931301809344
:1413C60012010E942B260E94E22B222700EE0E94080A28EB60
:1413DA000EEF0E94F90900270E94270A02C00E943423FDCFDD
:1413EE00219608950093610D2093600D22242EBC0DBD2CBD93
:141402002FBC85E08EBD87B7846087BF089500935F0D209384
:141416005E0D222420928A00009389002093880020928B0041
:14142A0085E080938A0080917D00846080937D00089500937A
:14143E005D0D02BF87B7816087BF87E083BF089500935C0DC8
:1414520004BD87B7806487BF85E085BD08950A921A922A9215
:141466003A924A925A926A927A928A929A920A931A932A9387
:14147A003A938A939A93AA93BA93EA93FA930FB60A9221979A
:14148E00222423BE80911001909111010197909311018093EE
:1414A200100124E630E08C010E94A52CC801C0968883222798
:1414B6000AE00E94730683E7888322270BE00E94730681E0F8
:1414CA0090E020901001309011018215930520F4222422BEA2
:1414DE0087E083BF219609900FBEF991E991B991A991999182
:1414F2008991399129911991099199908990799069905990D7
:141506004990399029901990099018950A921A922A923A92B7
:14151A004A925A926A927A928A929A920A931A932A933A93D1
:14152E008A939A93AA93BA93EA93FA930FB60A9222242EBC3A
:141542000E94980D2090610D2DBC2090600D2CBC85E08EBD92
:1415560009900FBEF991E991B991A9919991899139912991CB
:14156A001991099199908990799069905990499039902990A1
:14157E001990099018950A921A922A923A924A925A926A92D6
:141592007A928A929A920A931A932A933A938A939A93AA9396
:1415A600BA93EA93FA930FB60A92222425BC20905C0D24BC59
:1415BA0085E085BD2090260630902706222051F4332041F49E
:1415CE0080E490E090932706809326060E9494238091260610
:1415E200909127060197909327068093260609900FBEF99190
:1415F600E991B991A9919991899139912991199109919990AE
:14160A0089907990699059904990399029901990099018957E
:14161E000A921A922A923A924A925A926A927A928A929A92D0
:141632000A931A932A933A938A939A93AA93BA93EA93FA93F2
:141646000FB60A92222420928A000E94C42420905F0D209255
:14165A00890020905E0D2092880085E080938A0009900FBE36
:14166E00F991E991B991A991999189913991299119910991D4
:1416820099908990799069905990499039902990199009908A
:1416960018954A935A931B9A1C9A01E010E00E943E041C98F5
:1416AA0001E010E00E943E041B9801E010E00E943E041B9A5A
:1416BE004427552724C01B9801E010E00E943E042090120122
:1416D20030901301220C331C309213012092120181B1992726
:1416E600847090709595879595958795282A392A30921301E5
:1416FA00209212011B9A01E010E00E943E044F5F5F4F4830D9
:14170E00E0E05E07C0F24427552724C01B9801E010E00E94FF
:141722003E042090140130901501220C331C309215012092CF
:14173600140181B19927847090709595879595958795282AC6
:14174A00392A30921501209214011B9A01E010E00E943E041F
:14175E004F5F5F4F4830E0E05E07C0F21C9A0AE010E00E949A
:141772003E045991499108954A935A931E9A1F9A01E010E0B4
:141786000E943E041F9801E010E00E943E041E9801E010E078
:14179A000E943E041E9A4427552728C01E9801E010E00E94A7
:1417AE003E042090120130901301220C331C30921301209249
:1417C200120125E030E001B11127007210700E947E2C209013
:1417D600120130901301202A312A30921301209212011E9A20
:1417EA0001E010E00E943E044F5F5F4F4830E0E05E07A0F2AB
:1417FE004427552728C01E9801E010E00E943E0420901401D8
:1418120030901501220C331C309215012092140125E030E0BB
:1418260001B11127007210700E947E2C2090140130901501EB
:14183A00202A312A30921501209214011E9A01E010E00E942B
:14184E003E044F5F5F4F4830E0E05E07A0F21F9A0AE010E026
:141862000E943E045991499108954A935A938091620082600E
:14187600809362008091620084608093620001E010E00E94AA
:14188A003E04809162008B7F8093620001E010E00E943E0461
:14189E00809162008D7F8093620001E010E00E943E0480917C
:1418B20062008260809362004427552728C0809162008D7F1B
:1418C6008093620001E010E00E943E0420901201309013014D
:1418DA00220C331C309213012092120180B199278170907000
:1418EE00282A392A309213012092120180916200826080932E
:14190200620001E010E00E943E044F5F5F4F4830E0E05E07C1
:14191600A0F24427552728C0809162008D7F8093620001E087
:14192A0010E00E943E042090140130901501220C331C3092FB
:14193E0015012092140180B1992781709070282A392A30925F
:141952001501209214018091620082608093620001E010E009
:141966000E943E044F5F5F4F4830E0E05E07A0F2809162008B
:14197A008460809362000AE010E00E943E04599149910895E1
:14198E004A935A93809162008061809362008091620080625D
:1419A2008093620001E010E00E943E04809162008F7D809375
:1419B600620001E010E00E943E04809162008F7E8093620011
:1419CA0001E010E00E943E0480916200806180936200442720
:1419DE00552733C0809162008F7E8093620001E010E00E941E
:1419F2003E042090120130901301220C331C30921301209203
:141A0600120181B19927887090701C013594279435942794AA
:141A1A00359427944090120150901301422853285092130182
:141A2E00409212018091620080618093620001E010E00E9483
:141A42003E044F5F5F4F4830E0E05E0748F24427552733C041
:141A5600809162008F7E8093620001E010E00E943E04209022
:141A6A00140130901501220C331C309215012092140181B12F
:141A7E009927887090701C01359427943594279435942794F3
:141A92004090140150901501422853285092150140921401A1
:141AA6008091620080618093620001E010E00E943E044F5F00
:141ABA005F4F4830E0E05E0748F280916200806280936200C9
:141ACE000AE010E00E943E045991499108954A935A93A80172
:141AE2008AED82B986EF8093610083B18C6F83B98091620077
:141AF6008F6F809362004030450769F04130E0E05E0759F075
:141B0A004230E0E05E0749F04330E0E05E0739F007C0BDDDD5
:141B1E0005C02CDE03C0A3DE01C032DF59914991089580915C
:141B32002806909129068333E0E09E0731F422243324309282
:141B460029062092280680911601909117018130E0E09E0705
:141B5A00E1F44090580250905902209056023090570200918B
:141B6E002806109129060E94522E3A932A931A930A938101ED
:141B820092010E94223014F0189A03C083B18E7F83B98091C1
:141B96005A0290915B028130E0E09E07E1F44090580250906C
:141BAA005902209056023090570200912806109129060E947A
:141BBE00522E3A932A931A930A93810192010E94223014F0B2
:141BD200A99A03C085B38D7F85BB80919E0390919F0381304F
:141BE600E0E09E07E1F4409058025090590220905602309084
:141BFA00570200912806109129060E94522E3A932A931A9396
:141C0E000A93810192010E94223014F0AA9A03C085B38B7FCF
:141C220085BB8091E2049091E3048130E0E09E07E1F44090B4
:141C3600580250905902209056023090570200912806109184
:141C4A0029060E94522E3A932A931A930A93810192010E94AA
:141C5E00223014F0AB9A03C085B3877F85BB80912806909136
:141C720029060196909329068093280608958EE08093950052
:141C860083E089B92224209290002BB888E18AB908955D9BF9
:141C9A00FECF0CB908950027112722242092630D0BC0003045
:141CAE00EDE71E0729F481E08093630D01E005C00F5F1F4FA6
:141CC2005F9BF3CF0CB10895AA924A933EC0E7DF0093F50A89
:141CD600023009F038C041E00FC0DFDF85EF9AE0E42FFF2702
:141CEA00E80FF91F00838091630D813011F401E029C043957B
:141CFE00453078F32090F90A332430929C0820929B0845E008
:141D120010C0C5DFA02E85EF9AE0E42FFF27E80FF91FA08223
:141D26008091630D813011F401E00EC0439580919B08909116
:141D3A009C080696242E33242816390630F3002701C0C1CF94
:141D4E004991A99008950E94FE2C69017801AA2407C0EA2D76
:141D6200FF27EE0DFF1D008196DFA3942A2C33242C143D04D5
:141D7600A0F30C94E82C0E94352DC8844FEF5FEFAA241BC08D
:141D8A00EA2DFF27E00FF11F208033244225532566270EC0D8
:141D9E0040FF09C088E094E81A013694279428263926A10156
:141DB20002C0569547956395683080F3A394AC1418F31A0174
:141DC600232C3324F901208241830C943E2D0E94052D422FB3
:141DDA0058012397842F825088839E012F5F3F4F8501C7DF6B
:141DEE00E42FFF273297EA0DFB1D20803980321449F4E42FE1
:141E0200FF273197EA0DFB1D20803A80321411F001E001C08C
:141E1600002723960C940A2D0E94272DC22EA02E23974985C5
:141E2A00C092A2084093A108A092A008222420929E0881E053
:141E3E0080939F0882E080939D08842F8B5F88839E012F5FE7
:141E52003F4F0DE918E091DF82EA98E0E42FFF27E80FF91F64
:141E66002980208283EA98E0E42FFF27E80FF91F2A802082A4
:141E7A0002DF242F3327295F3F4F0DE918E065DF23960C9425
:141E8E002E2D0E94FE2C79016801AE80BF808FB78F778FBF2F
:141EA200E199FECFEEBACFBAADBAE29AE19A01E010E00E94E3
:141EB6003E0478940C94E82C0E94002D690158018FB78F7738
:141ECA008FBFE199FECFCEBAAFBAE09A01E010E00E943E044F
:141EDE00ADB2BB24789485010C94E32CAA92BA9258012297D7
:141EF20080E998E0998388832A2D00270E94990685010E94ED
:141F0600F32B2296B990A9900895AA92BA92580185010E94C9
:141F1A00F32BB990A99008950E94352D229781E090E09093C5
:141F2E004E0D80934D0D8BE898E09983888321E001E00E9441
:141F4200990686E898E09983888321E006E00E94990681E84E
:141F560098E09983888322E001E00E9499068CE798E09983AD
:141F6A00888322E006E00E94990683E798E09983888323E023
:141F7E0001E00E9499062AE638E003E00E94E30625E638E074
:141F920003E00E94E30683E798E09983888323E001E00E943E
:141FA60099062AE638E003E00E94E30625E638E003E00E944A
:141FBA00E3064427552783E0888321E002E00E94BE087EC349
:141FCE00002711278BDFAA24BB24DFC0AA2049F4BB2039F4DB
:141FE20061E070E021E003E00E94550623C0C5018130E0E05F
:141FF6009E0739F461E070E021E008E00E94550617C0C501F1
:14200A008230E0E09E0739F462E070E022E003E00E9455060A
:14201E000BC0C5018330E0E09E0731F462E070E022E008E064
:142032000E94550604E411E095010E94D32C86E191E0F801BC
:14204600E80FF91FC080D180CC2011F4DD20F9F0C601813097
:14205A00E0E09E0701F18230E0E09E0709F477C08330E0E05D
:14206E009E0709F478C08430E0E09E0709F479C08530E0E0C0
:142082009E0709F47AC08630E0E09E0709F47BC07FC020E6D6
:1420960038E0062F0E94E30679C004E411E095010E94D32C15
:1420AA008AE392E0F801E80FF91F00811181228133810E942F
:1420BE00202E24E630E00E94892C98012063062F0E94410615
:1420D20004E411E095010E94D32C8AE392E0F801E80FF91F03
:1420E60000811181228133810E94202E2AE030E00E94892C1B
:1420FA002AE030E00E94852C98012063062F0E94410604E443
:14210E0011E095010E94D32C8AE392E0F801E80FF91F00812D
:142122001181228133810E94202E2AE030E00E94852C9801CA
:142136002063062F0E94410620E2062F0E94410621EA062F94
:14214A000E94410626EE062F0E9441061DC02BE538E0062F2C
:14215E000E94E30617C026E538E0062F0E94E30611C021E551
:1421720038E0062F0E94E3060BC02CE438E0062F0E94E306CE
:1421860005C026E538E0062F0E94E306C50101965C01C5011D
:14219A008430E0E09E0708F41BCF0E943605A02E013609F057
:1421AE0048C088E090E090935A0D8093590D40304507A9F0E5
:1421C2004130E0E05E07C1F04230E0E05E07D9F04330E0E02F
:1421D6005E07F1F04530E0E05E0709F14630E0E05E0721F16E
:1421EA0070C283E0888321E002E00E944E0869C288E08883C8
:1421FE0021E007E00E944E0862C283E0888322E002E00E94D5
:142212004E085BC288E0888322E007E00E944E0854C287E074
:14222600888323E006E00E944E084DC28BE0888323E00AE046
:14223A000E944E0846C28A2D843609F04CC04030450769F005
:14224E004130E0E05E07C1F04230E0E05E0719F14330E0E061
:142262005E0771F131C283E0888321E002E00E944E0883E002
:14227600888322E002E00E94BE0842E050E022C288E0888354
:14228A0021E007E00E944E0888E0888322E007E00E94BE089C
:14229E0043E050E013C283E0888322E002E00E944E0883E057
:1422B200888323E002E00E94BE0844E050E004C288E0888333
:1422C60022E007E00E944E0887E0888323E006E00E94BE0860
:1422DA0045E050E0F5C18A2D853709F061C04230E0E05E07C1
:1422EE0091F04330E0E05E07E9F04430E0E05E0741F14530AA
:14230200E0E05E0799F14630E0E05E0709F43DC0DBC183E084
:14231600888322E002E00E944E0883E0888321E002E00E94D9
:14232A00BE0844275527CCC188E0888322E007E00E944E0811
:14233E0088E0888321E007E00E94BE0841E050E0BDC185E094
:14235200888323E002E00E944E0883E0888322E002E00E949B
:14236600BE0842E050E0AEC187E0888323E006E00E944E0889
:14237A0088E0888322E007E00E94BE0843E050E09FC18BE06D
:14238E00888323E00AE00E944E0888E0888322E007E00E944D
:1423A200BE0843E050E090C18A2D8C3609F04DC04130E0E00D
:1423B6005E0769F04330E0E05E07C1F04530E0E05E0719F168
:1423CA004630E0E05E0771F17BC188E0888321E007E00E94C9
:1423DE004E0883E0888321E002E00E94BE08442755276CC1C8
:1423F20088E0888322E007E00E944E0883E0888322E002E031
:142406000E94BE0842E050E05DC187E0888323E006E00E94ED
:14241A004E0883E0888323E002E00E94BE0844E050E04EC13A
:14242E008BE0888323E00AE00E944E0887E0888323E006E0E4
:142442000E94BE0845E050E03FC18A2D823709F04CC04030E4
:14245600450769F04230E0E05E07C1F04430E0E05E0719F1E2
:14246A004530E0E05E0771F12BC183E0888321E002E00E9483
:14247E004E0888E0888321E007E00E94BE0841E050E01CC103
:1424920083E0888322E002E00E944E0888E0888322E007E090
:1424A6000E94BE0843E050E00DC183E0888323E002E00E94A4
:1424BA004E0887E0888323E006E00E94BE0845E050E0FEC0E2
:1424CE0087E0888323E006E00E944E088BE0888323E00AE044
:1424E2000E94BE0846E050E0EFC08A2D833709F053C085E097
:1424F60090E090935A0D8093590D40304507C9F04130E0E0B9
:14250A005E07E1F04230E0E05E07F9F04330E0E05E0711F16D
:14251E004430E0E05E0729F14530E0E05E0741F14630E0E0F4
:142532005E0759F1CAC083E0888321E002E00E944E08C3C090
:1425460088E0888321E007E00E944E08BCC083E0888322E042
:14255A0002E00E944E08B5C088E0888322E007E00E944E08CA
:14256E00AEC083E0888323E002E00E944E08A7C087E08883C7
:1425820023E006E00E944E08A0C08BE0888323E00AE00E94FF
:142596004E0899C08A2D843709F094C040304507F1F04130B5
:1425AA00E0E05E0791F14230E0E05E0709F443C04330E0E0AC
:1425BE005E0709F455C04430E0E05E0709F466C04530E0E0A1
:1425D2005E0709F464C04630E0E05E0709F462C073C083E01F
:1425E600888321E002E00E944E0881E090E090934E0D809399
:1425FA004D0D222433243092500D20924F0D83E090935A0DBC
:14260E008093590D5CC088E0888321E007E00E944E0881E06F
:1426220090E090934E0D80934D0D9093500D80934F0D83E0F7
:1426360090935A0D8093590D46C083E0888322E002E00E9493
:14264A004E0881E090E090934E0D80934D0D82E09093500D88
:14265E0080934F0D83E090935A0D8093590D2FC088E0888331
:1426720022E007E00E944E0881E090E090934E0D80934D0DB7
:1426860083E09093500D80934F0D90935A0D8093590D19C012
:14269A000E94822815C00E94CE2812C08BE0888323E00AE03E
:1426AE000E944E0881E090E090934E0D80934D0D85E09093DC
:1426C2005A0D8093590D01C081CC22960C943E2D0E94FA2C8B
:1426D6002297442755272227332701E010E00E945F0F780153
:1426EA002227332702E010E00E945F0F68012227332703E068
:1426FE0010E00E945F0F58012227332704E010E00E945F0FE8
:14271200B801EE2071F4FF2061F4CC2051F4DD2041F4AA20E6
:1427260031F4BB2021F40030010709F4EAC08BE398E09983A9
:14273A008883222702E00E94990686E398E09983888322E00A
:14274E0002E00E94990681E398E09983888322E008E00E94C5
:14276200990622273327002711270E945F0F5801B501013072
:14277600E0E01E0749F44427552784E0888322E003E00E9450
:14278A00BE0808C041E050E08AE0888322E009E00E94BE0894
:14279E0000270E941E0AB0C080911001909111018130E0E000
:1427B2009E0731F58AE0888322E009E00E944E0884E0888381
:1427C60022E003E00E944E084030450781F40E94500785E291
:1427DA0098E09983888322E005E00E9499060E949F2708ECC8
:1427EE0010E00E94480481E090E090935A0D8093590D89C0DC
:142802000E943605A02E6A2D77276C36E0E07E0779F06C36F0
:14281600E0E07E070CF474C06237E0E07E0741F16437E0E0CA
:14282A007E0709F443C06AC0222423BE80E2888322270AE024
:14283E000E94730680E2888322270BE00E9473064130E0E07E
:142852005E0709F057C08AE0888322E009E00E944E0884E041
:14286600888322E003E00E94BE084427552748C0222423BEF0
:14287A0080E2888322270AE00E94730680E2888322270BE0EE
:14288E000E94730640304507B9F584E0888322E003E00E94BB
:1428A2004E088AE0888322E009E00E94BE0841E050E028C0CB
:1428B600222423BE8AE0888322E009E00E944E0884E0888320
:1428CA0022E003E00E944E084030450781F40E94500785E28C
:1428DE0098E09983888322E005E00E9499060E949F2708ECC3
:1428F20010E00E94480481E090E090935A0D8093590D07C059
:142906004FCF81E090E090935A0D8093590D22960C94EF2C58
:14291A000E940F2D22974427552783E298E0998388832227DE
:14292E0000270E94990620914F0D3091500D2F5F3F4F206363
:1429420000270E9441062AE300270E9441068DE198E0998352
:14295600888321E001E00E94990687E198E09983888321E037
:14296A0007E00E94990681E198E09983888322E001E00E94AB
:14297E0099068CE098E09983888323E000270E94990687E0C9
:1429920098E09983888323E003E00E94990686E598E099836C
:1429A600888323E007E00E94990682E098E09983888323E0E3
:1429BA000AE00E94990682E0888323E001E00E94BE0828C33A
:1429CE00222702E00E945506002711279ADA20914F0D30912C
:1429E200500D04E411E00E94D32C86E191E0F801E80FF91F2A
:1429F600808191818230E0E09E0709F468C021E004E00E94F7
:142A0A00550620914F0D3091500D04E411E00E94D32C8AE34B
:142A1E0092E0F801E80FF91F00811181228133810E94202ED0
:142A320024E630E00E94892C9801206301E00E944106209188
:142A46004F0D3091500D04E411E00E94D32C8AE392E0F801B0
:142A5A00E80FF91F00811181228133810E94202E2AE030E0E5
:142A6E000E94892C2AE030E00E94852C9801206301E00E94F1
:142A8200410620914F0D3091500D04E411E00E94D32C8AE3E7
:142A960092E0F801E80FF91F00811181228133810E94202E58
:142AAA002AE030E00E94852C9801206301E00E94410620E2C3
:142ABE0001E00E94410621EA01E00E94410626EE01E00E94CE
:142AD200410622E004E00E94550620914F0D3091500D04E4B3
:142AE60011E00E94D32C86E191E0F801E80FF91F6081718197
:142AFA0060306707F1F06130E0E07E0701F16230E0E07E074A
:142B0E0009F460C16330E0E07E0709F461C16430E0E07E07C5
:142B220009F462C16530E0E07E0709F463C16630E0E07E07A9
:142B360009F464C168C120E638E002E00E94E30662C181E031
:142B4A0098E09983888321E009E00E94990621EA01E00E941F
:142B5E00410626EE01E00E94410620914F0D3091500D04E42B
:142B720011E00E94D32C80E292E0F801E80FF91F608171810E
:142B860082E190E08617970708F52AE030E08B0101501040E9
:142B9A00169507950F5F1F4F0E94A52C9801206302E00E94F1
:142BAE0041062AE030E08B0101501040169507950F5F1F4F62
:142BC2000E94A32C9801206302E00E9441060FC09B012150CB
:142BD6003040369527952F5F3F4F206302E00E94410620E288
:142BEA0002E00E9441062AE302E00E94410620E202E00E94AE
:142BFE00410660FF15C02CEF37E002E00E94E30620914F0D9C
:142C12003091500D04E411E00E94D32C8CE292E0F801E80F46
:142C2600F91F6081718119C027EF37E002E00E94E30620918B
:142C3A004F0D3091500D04E411E00E94D32C86E392E0F801BE
:142C4E00E80FF91F00811181228133810E94202EB80124E646
:142C620030E08B010E94A52CC8018063888321E009E00E940C
:142C760073062AE030E08B010E94A52C2AE030E00E94A32C2D
:142C8A009801206301E00E9441062AE030E08B010E94A32C39
:142C9E009801206301E00E94410620E201E00E94410621EA65
:142CB20001E00E94410626EE01E00E94410622E008E00E94DA
:142CC600550620914F0D3091500D04E411E00E94D32C84E294
:142CDA0092E0F801E80FF91F6081718120E13EE08B010E944C
:142CEE00A52CB8012AE030E00E94A52C9801206302E00E941B
:142D020041062AE030E08B010E94A32C9801206302E00E94BF
:142D160041062AE302E00E94410620914F0D3091500D04E477
:142D2A0011E00E94D32C84E292E0F801E80FF91F6081718150
:142D3E002CE330E08B010E94A52C2CE330E00E94A32CB8011A
:142D52002AE030E00E94A52C9801206302E00E9441062AE0EF
:142D660030E08B010E94A32C9801206302E00E9441062AE358
:142D7A0002E00E94410620914F0D3091500D04E411E00E94D4
:142D8E00D32C84E292E0F801E80FF91F608171812CE330E060
:142DA2008B010E94A32CB8012AE030E00E94A52C98012063BE
:142DB60002E00E9441062AE030E08B010E94A32C980120630B
:142DCA0002E00E9441061DC02BE538E002E00E94E30617C0E1
:142DDE0026E538E002E00E94E30611C021E538E002E00E94DE
:142DF200E3060BC02CE438E002E00E94E30605C026E538E09C
:142E060002E00E94E3060E943605602F0536F9F482E088834A
:142E1A0023E001E00E944E0885E0888323E004E00E944E0879
:142E2E0089E0888323E008E00E944E088CE0888323E00BE0D4
:142E42000E944E0881E090E090935A0D8093590DE6C06C3668
:142E5600D1F54130E0E05E0749F04230E0E05E07A1F0433038
:142E6A00E0E05E07F9F0D6C085E0888323E004E00E944E0861
:142E7E0082E0888323E001E00E94BE0844275527C7C089E0B0
:142E9200888323E008E00E944E0885E0888323E004E00E9445
:142EA600BE0841E050E0B8C08CE0888323E00BE00E944E082C
:142EBA0089E0888323E008E00E94BE0842E050E0A9C06237E9
:142ECE00C9F54030450749F04130E0E05E07A1F04230E0E0E4
:142EE2005E07F9F09BC085E0888323E004E00E94BE0882E012
:142EF600888323E001E00E944E0841E050E08CC089E08883D0
:142F0A0023E008E00E94BE0885E0888323E004E00E944E0811
:142F1E0042E050E07DC08CE0888323E00BE00E94BE0889E0DA
:142F3200888323E008E00E944E0843E050E06EC0643709F088
:142F46004AC04030450769F04130E0E05E07B1F04230E0E0EF
:142F5A005E07C9F04330E0E05E0721F15BC082E0888323E010
:142F6E0001E00E944E0884E090E090935A0D8093590D4FC090
:142F820000914F0D1091500D0E94FF2847C086EE97E0998379
:142F9600888322E004E00E94990600914F0D1091500D0E9468
:142FAA00422938C08CE0888323E00BE00E944E0881E090E082
:142FBE009093540D8093530D83E090934E0D80934D0D87E053
:142FD20090935A0D8093590D22C06337F9F482E0888323E00F
:142FE60001E00E944E0885E0888323E004E00E944E0889E046
:142FFA00888323E008E00E944E088CE0888323E00BE00E94CE
:14300E004E0884E090E090935A0D8093590D01C0D7CC229665
:143022000C94142D0E94792C0E94FA2C5901229782EA90E0BB
:143036006C0184EC7C0166277727442755278C859D85833034
:14304A00E0E09E0730F5C88221E002E00E94730697012F5F7A
:14305E003F4F01E00E944106C88222E002E00E947306970125
:143072002E5F3F4F02E00E944106C88223E002E00E9473061A
:1430860097012D5F3F4F03E00E944106002411241D860C862A
:14309A008FC08C859D858330E0E09E0750F18630E0E09E072C
:1430AE0030F5C88221E002E00E94730697012C5F3F4F01E00F
:1430C2000E944106C88222E002E00E94730697012B5F3F4F18
:1430D60002E00E944106C88223E002E00E94730697012A5FB0
:1430EA003F4F03E00E94410681E090E09D878C875FC08C8540
:1430FE009D858630E0E09E0750F18930E0E09E0730F5C882B3
:1431120021E002E00E9473069701295F3F4F01E00E94410633
:14312600C88222E002E00E9473069701285F3F4F02E00E941B
:14313A004106C88223E002E00E9473069701275F3F4F03E061
:14314E000E94410682E090E09D878C872FC08C859D858930A0
:14316200E0E09E0748F18C30E0E09E0728F5C88221E002E050
:143176000E9473069701265F3F4F01E00E944106C88222E069
:14318A0002E00E9473069701255F3F4F02E00E944106C88275
:14319E0023E002E00E9473069701245F3F4F03E00E944106A8
:1431B20083E090E09D878C8701E210E02C853D850E94D32C18
:1431C600A80161E070E0C5C06130E0E07E0771F4FA01EE0F03
:1431DA00FF1FEA0DFB1D8081918180638883262F03E00E94D9
:1431EE00730610C0CA010196AC01FC01EE0FFF1FEA0DFB1D4E
:143202008081918180638883262F03E00E947306CA01019602
:14321600AC01FC01EE0FFF1FEA0DFB1D208131812063062FC5
:14322A000E94410623EE37E0062F0E94E306CA010196AC01B0
:14323E00FC01EE0FFF1FEA0DFB1D208131812063062F0E94A8
:143252004106CA010196AC01FC01EE0FFF1FEA0DFB1D20814A
:1432660031812063062F0E944106CA010196AC01FC01EE0FF8
:14327A00FF1FEA0DFB1D8081918180638883262F07E00E9434
:14328E007306CA010196AC01FC01EE0FFF1FEA0DFB1D2081DC
:1432A20031812063062F0E94410623EE37E0062F0E94E306DD
:1432B600CA010196AC01FC01EE0FFF1FEA0DFB1D208131817B
:1432CA002063062F0E944106CA010196AC01FC01EE0FFF1F28
:1432DE00EA0DFB1D208131812063062F0E94410681EE97E0F3
:1432F20099838883262F0AE00E949906CA010196AC01FC0115
:14330600EE0FFF1FEA0DFB1D208131812063062F0E94410695
:14331A00CA010196AC01FC01EE0FFF1FEA0DFB1D2081318116
:14332E002063062F0E944106CA0101966C01AC01FC01EE0F74
:14334200FF1FEA0DFB1D208131812063062F0E9441066F5F88
:143356007F4F83E090E08617970708F035CF22960E94EF2C16
:14336A00249608950E94792C0E94FA2CCE84DF842BE030E019
:14337E000A851B850E94A52C58012BE030E00A851B850E9454
:14339200A32CB80123E030E085010E94A32C780100300107E4
:1433A60051F0C7010130E0E01E0741F00230E0E01E0739F083
:1433BA0008C041E050E005C042E050E002C043E050E02BE0AF
:1433CE0030E00C851D850E94A52C23E030E00E94A52C780136
:1433E2000030010771F0C7010130E0E01E07A1F00230E0E0DD
:1433F6001E0701F10330E0E01E0769F135C080E290E00A84E5
:14340A001B848015910570F59601850107DE2AC081E490E0BE
:14341E000A841B848015910528F0C0018132E0E09E07F0F46D
:1434320096018501F7DD1AC08A859B858234E0E09E0738F049
:1434460082E690E00A841B848015910568F496018501E6DD06
:14345A0009C08A859B858336E0E09E0718F496018501DCDD66
:14346E004130E0E05E0749F403E010E00E940A0804E010E01C
:143482000E940A0810C04230E0E05E0721F04330E0E05E0772
:1434960041F4002711270E940A0807E010E00E940A086030BF
:1434AA00670729F4242F03E00E94550631C06230E0E07E0788
:1434BE0029F4242F05E00E94550628C06430E0E07E0729F4CA
:1434D200242F07E00E9455061FC06630E0E07E0729F4242F85
:1434E60009E00E94550616C06830E0E07E0751F4242F0AE0B7
:1434FA000E94550621EE37E0042F0E94E30608C06930E0E0BC
:14350E007E0721F4242F0BE00E9455060E94EF2C24960895C0
:143522000E94352DEF97EF97EF97EF972C9744275527662742
:1435360077278AE296E0FE01329606E011E0FA93EA939A932C
:14354A008A930E94562D83E298E099838883222700270E9415
:14355E00990620914F0D3091500D2F5F3F4F206300270E9427
:1435720041062AE300270E9441068CEF97E09983888322277F
:1435860004E00E94990687EF97E099838883222707E00E9426
:14359A0099068CED97E09983888322270AE00E94990687ED7F
:1435AE0097E09983888321E000270E94990681E398E099830A
:1435C200888322E000270E94990682E098E09983888323E07C
:1435D60000270E949906AA24BB2420C01501220C331C210137
:1435EA0020914F0D3091500D04E411E00E94D32C88E191E04E
:1435FE001801280E391EF201E20DF31D20803180CE01029669
:14361200F201E80FF91F31822082C50101965C01C501843811
:14362600E0E09E07D8F29E012E5F3F4F00271127F7DC44270A
:14363A00552721E003E00E94550603E010E00E940A082AC2AC
:14364E000E943605A02E053609F582E0888321E001E00E9493
:143662004E0882E0888322E001E00E944E0882E0888323E046
:1436760001E00E944E08002711270E940A0804E010E00E94DE
:14368A000A0883E090E090935A0D8093590D05C28A2D85370A
:14369E0009F046C04538E0E05E0779F482E0888321E001E0BB
:1436B2000E94BE0882E0888322E001E00E944E0844E850E0F8
:1436C600EDC14638E0E05E0779F482E0888322E001E00E9440
:1436DA00BE0882E0888323E001E00E944E0845E850E0DAC1D5
:1436EE008AE090E08417950708F0D4C183E88417950708F48C
:14370200CFC1BA012BE030E08A010E94A52C980121503040D5
:143716000BE010E00E94D32CA801CE010296998388839B0150
:14372A0021DEBAC18A2D843609F040C04438E0E05E0779F499
:14373E0082E0888321E001E00E944E0882E0888322E001E0E0
:143752000E94BE0845E850E0A3C14538E0E05E0779F482E0C9
:14376600888322E001E00E944E0882E0888323E001E00E9476
:14377A00BE0846E850E090C14937E0E05E0708F08BC1BA0122
:14378E002BE030E08A010E94A52C98012F5F3F4F0BE010E07E
:1437A2000E94D32CA801CE010296998388839B01DDDD76C1AE
:1437B6008A2D8C3609F049C0BA012BE030E08A010E94A32CB2
:1437CA000030010789F482E0888321E001E00E94BE08002758
:1437DE0011270E940A0804E010E00E940A0844E850E058C1EE
:1437F2002BE030E08A010E94A32C6801C6010230E0E01E0765
:1438060061F00430E0E01E0741F00630E0E01E0721F00830AF
:14381A00E0E01E0751F442505040CE010296998388839B0124
:14382E008A019EDD37C14030450709F433C141505040CE01EB
:143842000296998388839B018A0190DD29C18A2D823741F58F
:1438560083E890E084179507A0F482E0888321E001E00E94C7
:14386A004E0882E0888322E001E00E944E0882E0888323E03C
:14387E0001E00E944E08AB0107C04338E0E05E0718F4BA0183
:143892004F5F5F4FCE010296998388839B018A0165DDFEC011
:1438A6008A2D843709F098C04438E0E05E0709F03EC082E051
:1438BA00888321E001E00E944E0882E0888322E001E00E9423
:1438CE004E0882E0888323E001E00E944E08002711270E9446
:1438E2000A0804E010E00E940A080E9450078BEC97E0998335
:1438F600888322E005E00E94990681E090E09093520D809325
:14390A00510D84E090934E0D80934D0D86E090935A0D8093F9
:14391E00590D9E012E5F3F4F00914F0D1091500D0E94F127D0
:14393200B8C04538E0E05E0709F582E0888321E001E00E9478
:143946004E0882E0888322E001E00E944E0882E0888323E05F
:14395A0001E00E944E08002711270E940A0804E010E00E94F7
:14396E000A0883E090E090935A0D8093590D93C04638E0E0CC
:143982005E0709F08DC082E0888321E001E00E944E0882E0DD
:14399600888322E001E00E944E0882E0888323E001E00E9444
:1439AA004E08002711270E940A0804E010E00E940A0881E0B7
:1439BE0090E09093540D8093530D84E090934E0D80934D0D3F
:1439D20087E090935A0D8093590D63C08A2D803399F08133AD
:1439E60089F0823379F0833369F0843359F0853349F086337D
:1439FA0039F0873329F0883319F0893309F04CC04438E0E0FC
:143A0E005E0708F047C02BE030E08A010E94A52C23E030E014
:143A22000E94A32C0030010731F42A2D206301E00E9441061E
:143A360005C02A2D206302E00E944106CE010296FA01EE0FB3
:143A4A00FF1FE80FF91F2A2C332431822082BA016338E0E023
:143A5E007E0750F44F5F5F4FCE010296998388839B018A017A
:143A72007DDC16C04338E0E05E0791F482E0888321E001E09D
:143A86000E94BE08002711270E940A0804E010E00E940A0829
:143A9A0044E850E063E670E0D5CDEF96EF96EF96EF962C96AB
:143AAE000C943E2D0E94192D2297442755278EEB97E0998365
:143AC2008883222704E00E94990685EB97E09983888321E068
:143AD60004E00E9499068CEA97E09983888322E004E00E941B
:143AEA00990622273327002711270E945F0FB8010030010726
:143AFE0059F481EA8883222703E00E94730621EC00270E94D4
:143B120041060AC081EA8883222703E00E9473062CEC002792
:143B26000E944106442755278AE08883222705E00E94BE08B0
:143B3A00DCC00E943605A02E053739F54130E0E05E0729F017
:143B4E004230E0E05E0781F0CEC088E0888321E005E00E94D2
:143B62004E088AE08883222705E00E94BE0844275527BFC088
:143B760088E0888322E005E00E944E0888E0888321E005E090
:143B8A000E94BE0841E050E0B0C08A2D843631F540304507AB
:143B9E0029F04130E0E05E0781F0A5C08AE08883222705E0EB
:143BB2000E944E0888E0888321E005E00E94BE0841E050E0F5
:143BC60096C088E0888321E005E00E944E0888E0888322E0CF
:143BDA0005E00E94BE0842E050E087C08A2D853639F54030E1
:143BEE00450749F04130E0E05E0761F04230E0E05E0779F057
:143C020014C08AE08883222705E00E944E080DC088E08883FF
:143C160021E005E00E944E0806C088E0888322E005E00E94FA
:143C2A004E0881E090E090935A0D8093590D5EC08A2D8437CC
:143C3E0009F059C04030450749F04130E0E05E0771F1423001
:143C5200E0E05E07B1F14DC06030670719F461E070E002C02C
:143C6600662777277983688322273327002711270E94480F3D
:143C7A006030670759F481EA8883222703E00E94730621EC21
:143C8E0000270E9441062FC081EA8883222703E00E94730666
:143CA2002CEC00270E94410624C088E090E090935A0D80938D
:143CB600590D888321E005E00E944E0819C085E090E09093DA
:143CCA004E0D80934D0D87E090935A0D8093590D2224332417
:143CDE003092540D2092530D88E0888322E005E00E944E084B
:143CF20001C023CF22960C94202D22972090510D3090520D80
:143D0600222059F4332049F48DE997E09983888321E004E091
:143D1A000E94990621C08091510D9091520D8130E0E09E076E
:143D2E0049F48EE897E09983888321E004E00E94990610C03A
:143D42008091510D9091520D8230E0E09E0741F48FE797E045
:143D56009983888321E004E00E94990604EF11E00E9448043A
:143D6A0020904D0D30904E0D30925A0D2092590D229608958A
:143D7E000E94192D229741E050E086E797E0998388832227EB
:143D920002E00E94990681E797E09983888322E002E00E946E
:143DA600990681E398E09983888322E008E00E9499068AE0D2
:143DBA00888322E009E00E94BE0878C00E943605A02E6A2D1D
:143DCE0077276C36E0E07E07A1F08CE690E08617970734F08A
:143DE2006536E0E07E0709F450C064C06237E0E07E07C9F025
:143DF6006437E0E07E0741F15BC04130E0E05E0709F056C0E7
:143E0A008AE0888322E009E00E944E0884E0888322E003E0F8
:143E1E000E94BE084427552747C04030450709F043C084E01E
:143E3200888322E003E00E944E088AE0888322E009E00E9492
:143E4600BE0841E050E034C04030450769F484E0888322E0D3
:143E5A0003E00E944E0889E090E090935A0D8093590D25C0B8
:143E6E008AE0888322E009E00E944E0820904D0D30904E0DC3
:143E820030925A0D2092590D16C084E0888322E003E00E941F
:143E96004E088AE0888322E009E00E944E0820904D0D3090A0
:143EAA004E0D30925A0D2092590D01C087CF22960C94202DAC
:143EBE000E94192DEF9723974427552780E397E0FE01B696BC
:143ED2000CE110E0FA93EA939A938A930E94562D06E00E94FE
:143EE600AA2BB80182E090E099878887222433243B862A862B
:143EFA001B01369427943694279436942794369427943D86C1
:143F0E002C86CB018F7090709F878E8705E00E94AA2BB801D2
:143F2200CB01969587959695879596958795969587958170B2
:143F36009070998B888BCB018F7090709B8B8A8B04E00E94B4
:143F4A00AA2B5801B501CB01969587959695879596958795DE
:143F5E0096958795837090709D8B8C8BCB018F7090709F8BE1
:143F72008E8B02E00E94AA2B5801B501CB019695879596957C
:143F86008795969587959695879583709070998F888FCB017F
:143F9A008F7090709B8F8A8F01E00E94AA2B5801B501CB019E
:143FAE009695879596958795969587959695879587709070EC
:143FC2009D8F8C8FCB018F7090709F8F8E8F00270E94AA2BF0
:143FD6005801B501CB019695879596958795969587959695FC
:143FEA0087958770907099A388A3CB018F7090709BA38AA313
:143FFE00222701E00E9455066627772720C0CE010896FB0114
:14401200EE0FFF1FE80FF91F20813181206300270E9441068A
:1440260020E200270E9441066330E0E07E0721F06530E0E036
:14403A007E0729F42EE637E000270E94E3066F5F7F4F6830BF
:14404E00E0E07E07E0F221E002E00E94550668E070E020C0EF
:14406200CE010896FB01EE0FFF1FE80FF91F208131812063E1
:1440760001E00E94410620E200270E9441066930E0E07E077C
:14408A0021F06B30E0E07E0729F423EE37E000270E94E3063A
:14409E006F5F7F4F6E30E0E07E07E0F287ED97E099838883AB
:1440B20022E003E00E94990681E398E09983888322E008E0E7
:1440C6000E94990644275527222701E00E94550603E010E0C4
:1440DA000E940A0884C203E010E00E94750F0E943605A02E34
:1440EE006A2D053771F58DE090E084179507B8F485E0888355
:1441020022E004E00E944E088AE0888322E009E00E944E0873
:1441160021E002E00E94550603E010E00E940A0848E050E0D6
:14412A005EC287E090E08417950708F058C24E30E0E05E079E
:14413E0008F053C2222701E00E945506442755274CC26436AA
:1441520019F587E090E08417950788F44E30E0E05E0768F4C2
:14416600002711270E940A0885E0888322E004E00E94BE0874
:14417A004EE050E034C287E090E08417950708F42EC221E0E2
:14418E0002E00E94550648E050E027C26C3609F043C088E0F7
:1441A20090E08417950790F04030450779F041505040222753
:1441B600CE018696FA01EE0FFF1FE80FF91F008111810E9430
:1441CA0055060DC288E090E08417950798F44E30E0E05E0779
:1441DE0078F44150504021E0CE018696FA01EE0FFF1FE80F47
:1441F200F91F008111810E945506F5C14F30E0E05E0709F03E
:14420600F0C18AE0888322E009E00E944E0885E0888322E029
:14421A0004E00E94BE084EE050E0E1C1623709F03AC0473041
:14422E00E0E05E0778F44F5F5F4F2227CE018696FA01EE0F63
:14424200FF1FE80FF91F008111810E945506CBC14D30E0E062
:144256005E0778F44F5F5F4F21E0CE018696FA01EE0FFF1F25
:14426A00E80FF91F008111810E945506B8C14E30E0E05E0705
:14427E0009F0B3C185E0888322E004E00E944E088AE08883FC
:1442920022E009E00E94BE084FE050E0A4C16536B9F4002792
:1442A60011270E940A0885E0888322E004E00E944E088AE060
:1442BA00888322E009E00E944E0881E090E090935A0D809394
:1442CE00590D8CC1643709F085C04E30E0E05E0709F064C090
:1442E20028A139A100E110E00E94D32C18014AA05BA0240C85
:1442F600351C3F822E822C8D3D8D00E110E00E94D32C1801E4
:14430A004E8C5F8C240C351C3D822C82288D398D00E110E0A0
:14431E000E94D32C18014A8C5B8C240C351C3B822A822C8975
:144332003D8900E110E00E94D32C18014E885F88240C351CE8
:14434600398228822889398900E110E00E94D32C98012A88CE
:14435A003B88220D331D2C843D8400E110E02F933F939101A5
:14436E000E94D32C18013F912F914E845F84240C351C810139
:144382000E94BE2B222433243092520D2092510D88E090E0F6
:1443960090934E0D80934D0D86E090935A0D8093590D20C1DE
:1443AA004F30E0E05E0709F01AC1002711270E940A0885E00F
:1443BE00888322E004E00E944E088AE0888322E009E00E9400
:1443D2004E0881E090E090935A0D8093590D04C1603399F0CC
:1443E600613389F0623379F0633369F0643359F0653349F018
:1443FA00663339F0673329F0683319F0693309F0EEC04E30D5
:14440E00E0E05E0708F0E9C0262F206300270E94410620E2EA
:1444220000270E94410677276033E0E07E0709F42EC0613381
:14443600E0E07E0709F435C06233E0E07E0709F43CC06333D2
:14444A00E0E07E0709F443C06433E0E07E0709F44AC065339E
:14445E00E0E07E0709F451C06633E0E07E0709F458C067336A
:14447200E0E07E0709F45FC06833E0E07E0709F466C0693336
:14448600E0E07E0709F46DC077C0CE010896FA01EE0FFF1FF9
:14449A00E80FF91F22243324318220826BC0CE010896FA017A
:1444AE00EE0FFF1FE80FF91F81E090E0918380835FC0CE01FA
:1444C2000896FA01EE0FFF1FE80FF91F82E090E0918380833A
:1444D60053C0CE010896FA01EE0FFF1FE80FF91F83E090E05A
:1444EA009183808347C0CE010896FA01EE0FFF1FE80FF91F0E
:1444FE0084E090E0918380833BC0CE010896FA01EE0FFF1F41
:14451200E80FF91F85E090E0918380832FC0CE010896FA0143
:14452600EE0FFF1FE80FF91F86E090E09183808323C0CE01B8
:14453A000896FA01EE0FFF1FE80FF91F87E090E091838083BC
:14454E0017C0CE010896FA01EE0FFF1FE80FF91F88E090E018
:14456200918380830BC0CE010896FA01EE0FFF1FE80FF91FD1
:1445760089E090E0918380834330E0E05E0721F04530E0E063
:14458A005E0731F42EE637E000270E94E3060DC04930E0E0B0
:14459E005E0721F04B30E0E05E0729F423EE37E000270E94E5
:1445B200E3064F5F5F4F4830E0E05E0731F421E00EA91FA96E
:1445C6000E9455060EC04E30E0E05E0751F4002711270E942D
:1445DA000A0885E0888322E004E00E94BE087BCDEF96239677
:1445EE000C94202D22972090530D3090540D222081F43320D8
:1446020071F48DE597E09983888321E004E00E94990681B5D3
:14461600886181BD8EE081BDFFCF8091530D9091540D81304B
:14462A00E0E09E0771F48CE497E09983888321E004E00E941D
:14463E00990600914F0D1091500D0E943D2804EF11E00E9451
:14465200480420904D0D30904E0D30925A0D2092590D2296EA
:1446660008950E9450078091590D90915A0D8130E0E09E0795
:14467A0019F40E94910F52C08091590D90915A0D8230E0E05A
:14468E009E0719F40E94691347C08091590D90915A0D83308F
:1446A200E0E09E0719F40E948D143CC08091590D90915A0D54
:1446B6008430E0E09E0719F40E94911A31C08091590D9091F4
:1446CA005A0D8530E0E09E0711F4EED927C08091590D909110
:1446DE005A0D8630E0E09E0711F409DB1DC08091590D9091E8
:1446F2005A0D8730E0E09E0711F440DB13C08091590D9091A6
:144706005A0D8830E0E09E0711F4D6DB09C08091590D909104
:14471A005A0D8930E0E09E0709F466DF08951A922A923A92F3
:14472E004A925A920A931A932A933A938A939A93AA93EA93D7
:14474200FA931FB61A924A935A934427552789B78B7F89BF12
:1447560087B78F7B87BF80911601909117018130E0E09E074A
:14476A0009F0F4C0409120025091210220902A0230902B02CE
:14477E00222009F047C0332009F044C0809124029091250216
:144792000196909325028093240220902202309023028215A9
:1447A600930568F0CA010196909321028093200281E090E061
:1447BA0090932B0280932A02C9C023B0209423B840FF01C071
:1447CE00C3C0809128029091290201969093290280932802AB
:1447E20020902602309027022816390608F0B2C080912C02DC
:1447F60090912D02019690932D0280932C02222433243092D6
:14480A00290220922802A2C02224332430922B0220922A02C7
:14481E00309225022092240240FF7CC09A0121503040369503
:1448320027950BE010E00E94D32CA80183E090E09093230276
:14484600809322028030890731F484E09093170180931601F9
:14485A007DC088E191E0FA013996EE0FFF1FE80FF91F20819E
:14486E0031810AE010E00E94D32C180188E191E0FA0138964D
:14488200EE0FFF1FE80FF91F2081318104E610E00E94D32C2A
:144896002801420C531C88E191E0FA013A96EE0FFF1FE80F71
:1448AA00F91F20803180420C531C50922D0240922C02009132
:1448BE002202109123020E94522E1801290100912C02109137
:1448D2002D020E94522E8AE392E09A938A930E94052E810101
:1448E60092010E947F2E0E94202E109327020093260222241F
:1448FA003324309229022092280200912C0210912D020E9459
:14490E00522E109337020093360230933902209338021AC0A9
:144922009A0121503040369527950BE010E00E94D32CA80159
:144936004C5F5F4F83E090E090932302809322028030890782
:14494A0029F484E0909317018093160187B7806487BF89B7CB
:14495E00846089BF5991499119901FBEF991E991A991999167
:14497200899139912991199109915990499039902990199062
:1449860018950E94192D22243324309215012092140182E1E9
:14499A0090E09093130180931201442755274FC12090140180
:1449AE003090150122FE0FC004E411E09A010E94D32C86E1B4
:1449C20091E0F801E80FF91F82E090E09183808338C104E49E
:1449D60011E09A010E94D32C8AE392E0F801E80FF91F8091A8
:1449EA00140190911501807F907096958795969587959695B5
:1449FE0087959695879500911201109113010F731070000FD8
:144A1200111F000F111F000F111F000F111F082B192B0E948A
:144A2600522E008311832283338304E411E09A010E94D32C75
:144A3A0086E191E0F801E80FF91F808191818130E0E09E075F
:144A4E0009F0A0C0662777273FC004E411E09A010E94D32CBC
:144A620018018AE392E0280E391E3101F10120803180428084
:144A760053808091140190911501807F90709695879596958B
:144A8A008795969587959695879500911201109113010F7393
:144A9E001070000F111F000F111F000F111F000F111F082B55
:144AB200192B0E94522E3A932A931A930A93810192010E94FF
:144AC600E52DF30100831183228333836F5F7F4F6930E0E06F
:144ADA007E0708F4BCCF04E411E09A010E94D32C18018AE321
:144AEE0092E0280E391E3101F101208031804280538008E9BA
:144B020010E00E94BF2C3A932A931A930A93810192010E9497
:144B16007F2EF301008311832283338304E411E09A010E9462
:144B2A00D32C80E292E0F801E80FF91F2080318020FE01C06C
:144B3E0082C004E411E09A010E94D32C580186E392E0F501E2
:144B5200E80FF91F00811181228133818AE392E01501280EAB
:144B6600391E3A922A920E94F02D1801290108E910E00E94D7
:144B7A00BF2C3A932A931A930A93810192010E9422300CF063
:144B8E005AC059C004E411E09A010E94D32C86E191E0F801FA
:144BA200E80FF91F808191818530E0E09E0759F504E411E09C
:144BB6009A010E94D32C86E191E0F801E80FF91F81E090E0FE
:144BCA009183808304E411E09A010E94D32C80E292E0F801DE
:144BDE00E80FF91F81E090E09183808304E411E09A010E94B6
:144BF200D32C8AE292E0F801E80FF91F81E090E091838083E2
:144C06001EC004E411E09A010E94D32C86E191E0F801E80FDF
:144C1A00F91F808191818230E0E09E0771F404E411E09A016B
:144C2E000E94D32C86E191E0F801E80FF91F222433243182A1
:144C420020824F5F5F4F4430E0E05E0708F4ACCE0C94202D64
:144C56000E940F2D4427552768C104E411E09A010E94D32C47
:144C6A0086E191E0F801E80FF91F22243324318220826627D7
:144C7E00772715C004E411E09A010E94D32C180188E191E0A7
:144C9200280E391EFB01EE0FFF1FE20DF31D2224332431821B
:144CA60020826F5F7F4F6438E0E07E0738F304E411E09A013C
:144CBA000E94D32C80E292E0F801E80FF91F22243324318219
:144CCE00208204E411E09A010E94D32C82E292E0F801E80F55
:144CE200F91F222433243182208204E411E09A010E94D32C9F
:144CF60084E292E0F801E80FF91F222433243182208204E4F0
:144D0A0011E09A010E94D32C86E292E0F801E80FF91F222440
:144D1E0033243182208204E411E09A010E94D32C88E292E0E4
:144D3200F801E80FF91F222433243182208204E411E09A01FF
:144D46000E94D32C8AE292E0F801E80FF91F81E090E09183ED
:144D5A00808304E411E09A010E94D32C8CE292E0F801E80F5D
:144D6E00F91F222433243182208204E411E09A010E94D32C12
:144D82008EE292E0F801E80FF91F222433243182208204E459
:144D960011E09A010E94D32C80E392E0F801E80FF91F2224B9
:144DAA0033243182208204E411E09A010E94D32C82E392E05D
:144DBE00F801E80FF91F222433243182208204E411E09A0173
:144DD2000E94D32C84E392E0F801E80FF91F222433243182FB
:144DE600208204E411E09A010E94D32C86E392E0F801E80F37
:144DFA00F91F04E910E00E94BF2C008311832283338304E4C9
:144E0E0011E09A010E94D32C8AE392E0F801E80FF91F04E98F
:144E220010E00E94BF2C008311832283338304E411E09A0119
:144E36000E94D32C8EE392E0F801E80FF91F04E910E00E945D
:144E4A00BF2C008311832283338304E411E09A010E94D32CE2
:144E5E0082E492E0F801E80FF91F04E910E00E94BF2C008373
:144E720011832283338304E411E09A010E94D32C86E492E04C
:144E8600F801E80FF91F04E910E00E94BF2C008311832283EA
:144E9A00338304E411E09A010E94D32C8AE492E0F801E80F69
:144EAE00F91F04E910E00E94BF2C008311832283338304E414
:144EC20011E09A010E94D32C8EE492E0F801E80FF91F04E9D6
:144ED60010E00E94BF2C008311832283338304E411E09A0165
:144EEA000E94D32C82E592E0F801E80FF91F04E910E00E94B3
:144EFE00BF2C008311832283338304E411E09A010E94D32C2E
:144F120086E592E0F801E80FF91F00E910E00E94BF2C0083BD
:144F26001183228333834F5F5F4F4430E0E05E0708F493CE36
:144F3A000C94142D0E94192D4427552746C0222733278A017F
:144F4E000F5F1F4F0E945F0FB8010130E0E01E0709F037C0A4
:144F620025E830E08A010F5F1F4F0E945F0F180104E411E0B5
:144F76009A010E94D32C86E191E0F801E80FF91F31822082B6
:144F8A00662777271CC09B012F5F3F4F8A010F5F1F4F0E944B
:144F9E005F0F580104E411E09A010E94D32C180188E191E030
:144FB200280E391EFB01EE0FFF1FE20DF31DB182A0826F5F25
:144FC6007F4F6438E0E07E0700F34F5F5F4F4430E0E05E0740
:144FDA0008F4B5CF0C94202D0E94192D5901B801229704E4BA
:144FEE0011E09B010E94D32C86E191E0F801E80FF91F86E03B
:1450020090E09183808381E099838883222733278B010F5FEE
:145016001F4F0E94480F86E090E09983888325E830E08B0179
:14502A000F5F1F4F0E94480F442755271AC01A01220C331C44
:14503E00210104E411E09B010E94D32C180188E191E0280EFD
:14505200391EF201E20DF31DD201AA0DBB1D2D903C90318263
:1450660020824F5F5F4F4438E0E05E0710F322960C94202DEF
:14507A000E940F2DB801229704E411E09B010E94D32C86E155
:14508E0091E0F801E80FF91F2224332431822082398228823E
:1450A200222733278B010F5F1F4F0E94480F2224332439829E
:1450B600288225E830E08B010F5F1F4F0E94480F44275527D7
:1450CA0015C004E411E09B010E94D32C180188E191E0280EBE
:1450DE00391EFA01EE0FFF1FE20DF31D222433243182208260
:1450F2004F5F5F4F4438E0E05E0738F322960C94142D4A930C
:145106005A93442755273FC004E411E09A010E94D32C86E146
:14511A0091E0F801E80FF91F808191818330E0E09E0779F470
:14512E0004E411E09A010E94D32C86E191E0F801E80FF91F78
:1451420081E090E0918380831EC004E411E09A010E94D32C7E
:1451560086E191E0F801E80FF91F808191818630E0E09E0737
:14516A0071F404E411E09A010E94D32C86E191E0F801E80FEF
:14517E00F91F85E090E0918380834F5F5F4F4430E0E05E0724
:1451920008F4BCCF5991499108954A935A934427552725C08B
:1451A60004E411E09A010E94D32C86E191E0F801E80FF91F00
:1451BA0020803180C1018130E0E09E0721F08530E0E09E078D
:1451CE0071F404E411E09A010E94D32C86E191E0F801E80F8B
:1451E200F91F83E090E0918380834F5F5F4F4430E0E05E07C2
:1451F600B8F2599149910895AA92BA92580104E411E095014A
:14520A000E94D32C86E191E0F801E80FF91F80819181833049
:14521E00E0E09E0779F404E411E095010E94D32C86E191E0C2
:14523200F801E80FF91F81E090E0918380831EC004E411E0C1
:1452460095010E94D32C86E191E0F801E80FF91F808191812A
:14525A008630E0E09E0771F404E411E095010E94D32C86E149
:14526E0091E0F801E80FF91F85E090E091838083B990A99045
:145282000895AA92BA92580104E411E095010E94D32C86E123
:1452960091E0F801E80FF91F20803180C1018130E0E09E0762
:1452AA0021F08530E0E09E0771F404E411E095010E94D32C50
:1452BE0086E191E0F801E80FF91F83E090E091838083B990C9
:1452D200A99008950E94352D580104E411E095010E94D32C85
:1452E600280186E392E0F201E80FF91F008111812281338144
:1452FA008AE392E01201280E391E3A922A920E94F02D8EE369
:14530E0092E0F201E80FF91F008311832283338304E411E0CC
:1453220095010E94D32CD8018AE492E0FD01E80FF91F2080DA
:145336003180428053808EE392E0FD01E80FF91F008111811A
:14534A002281338186E492E03D01680E791E7A926A920E9427
:14535E00052E810192010E94EF2F180129018EE492E0FD010E
:14537200E80FF91F00811181228133818EE392E03D01680E17
:14538600791E7A926A920E94FA2F810192010E94E52D1801C7
:14539A00290182E592E0FD01E80FF91F608071808280938009
:1453AE008EE392E0FD01E80FF91F40815181628173810CE89D
:1453C20010E00E94BF2C86E492E0FD01E80FF91FFA93EA9367
:1453D6000E94FA2F8A019B010E94FA2D82E492E0FD01E80F3B
:1453EA00F91FFA93EA930E94D82D830194010E940730810172
:1453FE0092010E94E52D86E592E0FD01E80FF91F0083118353
:145412002283338304E411E095010E94D32C680186E492E0D6
:14542600F601E80FF91F208031804280538082E492E0F601B7
:14543A00E80FF91F208231824282538204E411E095010E9450
:14544E00D32C68018EE392E0F601E80FF91F208031804280E6
:14546200538086E492E0F601E80FF91F208231824282538293
:1454760004E411E095010E94D32C580186E592E0F501E80FEF
:14548A00F91F20803180428053800CE810E00E94BF2C3A93D2
:14549E002A931A930A93810192010E947F2E86E592E0F501BC
:1454B200E80FF91F00831183228333830C943E2D0E94002D8B
:1454C600580104E411E095010E94D32C28018CE292E0F2016D
:1454DA00E80FF91F008111810E94522E8AE392E01201280E52
:1454EE00391E3A922A920E94F02D8EE392E0F201E80FF91F27
:14550200008311832283338304E411E095010E94D32CD8013A
:1455160080E392E0FD01E80FF91F008111810E94522E180151
:14552A0029018EE392E0FD01E80FF91F60807180828093806D
:14553E008EE292E0FD01E80FF91F008111810E94522E3A9368
:145552002A931A930A93830194010E94122E810192010E948C
:14556600EF2F1801290182E392E0FD01E80FF91F00811181D9
:14557A000E94522E8EE392E03D01680E791E7A926A920E9423
:14558E00FA2F810192010E94E52D86E592E0FD01E80FF91F2D
:1455A200008311832283338304E411E095010E94D32C68010A
:1455B6008EE292E0F601E80FF91F2080318084E392E0F601D8
:1455CA00E80FF91F3182208204E411E095010E94D32C6801F0
:1455DE008EE392E0F601E80FF91F00811181228133810E94C4
:1455F200202E8EE292E0F601E80FF91F1183008304E411E07F
:1456060095010E94D32C580186E592E0F501E80FF91F20807E
:14561A003180428053800CE810E00E94BF2C3A932A931A938E
:14562E000A93810192010E947F2E86E592E0F501E80FF91F85
:1456420000831183228333830C94E32C919A909A08E010E006
:145656000E943E04919808E010E00E943E0490980895919889
:14566A00909A08E010E00E943E04919A08E010E00E943E045F
:14567E00909808959198909A08E010E00E943E04909808957F
:14569200919A909A08E010E00E943E0490980895AA924A9315
:1456A600A02E442716C090980A2D142F0E94502D802F807879
:1456BA0011F0919A01C0919804E010E00E943E04909A04E000
:1456CE0010E00E943E0490984395483040F304E010E00E94D3
:1456E2003E04899804E010E00E943E04819B00C0909A04E0AF
:1456F60010E00E943E049098899A4991A9900895AA924A93B8
:14570A008998AA2444270BC0AA0C909A04E010E00E943E04CE
:14571E00819B01C0A39490984395483098F3899A0A2D49912C
:14573200A9900895AA92CA92A22EC02E87DF00EDAFDF0C2D1D
:14574600ADDF0A2DABDF8DDFC990A9900895AA92BA92A02E11
:14575A0079DF00EDA1DF0A2D9FDF74DF01ED9CDFCDDFA02E8B
:14576E00BB2490DF7ADF8501B990A99008950E94792C0E94F2
:14578200FA2C6901EE84FF84488959896A897B89AC88BD886B
:145796002A2D0027CDDF262F01E0CADF242F02E0C7DF2E2DC0
:1457AA0004E0C4DF2C2D05E0C1DF2A853B8506E0BDDF0E94F3
:1457BE00EF2C2496089581B3876081BB222422BA20E107E004
:1457D200B1DF89B7846089BF80916A00806380936A0008954F
:1457E6000E94272D580106E0B2DF402F26E938E00A2D0E947A
:1457FA00E306242F22952F702F7020630A2D0E944106242F74
:14580E002F7020630A2D0E9441062DE20A2D0E94410605E030
:1458220098DF402F242F22952F70217020630A2D0E944106AF
:14583600242F2F7020630A2D0E9441062DE20A2D0E9441069A
:14584A0004E083DF68014C2D242F22952F70237020630A2D2C
:14585E000E944106242F2F7020630A2D0E94410620E20A2D7F
:145872000E94410602E06DDF68014C2D242F22952F702370ED
:1458860020630A2D0E944106242F2F7020630A2D0E944106D6
:14589A002AE30A2D0E94410601E057DF68014C2D242F2295CA
:1458AE002F7020630A2D0E944106242F2F7020630A2D0E9456
:1458C20041062AE30A2D0E944106002742DF68014C2D242FE1
:1458D60022952F7020630A2D0E944106242F2F7020630A2D19
:1458EA000E9441060C942E2D3A932A931A930A930895222310
:1458FE0021F0159507952A95FACF08956894DA92D12E04C0EF
:14591200E894DA92D12ED32617FF04C0109500950F5F1F4FB1
:1459260037FF04C0309520952F5F3F4F0E94A62CD7FE04C0D0
:14593A00109500950F5F1F4FD9900895689401C0E894EA9288
:14594E00FA928A93EE24FF2480E1000F111FEE1CFF1CE216AA
:14596200F30618F0E21AF30A03958A95A1F716F40E2D1F2D57
:145976008991F990E9900895EA93FA930A92E02FF12FD89522
:14598A00002D3196D895102D3196D895202D3196D895302D59
:14599E000990F991E99108950A921A928A939A93029FC001C7
:1459B200129F900D039F900D8C0199918991199009900895A4
:1459C600A990B990C990D9900895A990B990C990D990E9902F
:1459DA00F9900895A990B990C990D990E990F9904991599189
:1459EE006991799108957A936A935A934A93FA92EA92DA92BC
:145A0200CA92BA92AA9208955A934A93BA92AA920895A990E7
:145A1600B9904991599108957A936A935A934A930895499187
:145A2A0059916991799108957A936A935A934A93BA92AA9281
:145A3E000895A990B990499159916991799108955A934A9306
:145A5200DA92CA92BA92AA920895A990B990C990D990499135
:145A6600599108957A936A935A934A93DA92CA92BA92AA9281
:145A7A000895A990B990C990D99049915991699179910895D2
:145A8E0000951095209530950F5F1F4F2F4F3F4F0895112397
:145AA20019F0000F1A95FBCF0895AA93BA93EA93FA930A9292
:145AB600AF81B885ED81FE810030010729F001900D920150B0
:145ACA001040F8CF0990F991E991B991A9912496089568943D
:145ADE0001C0E8940E947E2F0E94102F09F448C0E62CD52C2F
:145AF200C42CB32EA22E912E802E00811181228133810E9486
:145B0600102F09F444C0842D952D8C199D09B9F072F4909559
:145B1A00809501964C2C5D2C8831B8F5359527951795079596
:145B2E000197D1F708C0883118F5B594A79497948794019713
:145B4200D1F766242EF0080D191D2A1D3B1D09C0801A910AF7
:145B5600A20AB30A082D192D2A2D3B2D332322F40E94472D16
:145B6A0080E8682E0E94392F02C00E946E2F0E948D2F089523
:145B7E000081118122813381C6F70E94182FA9F380E83827A0
:145B9200F2CF082D192D2A2D3B2D4C2C5D2C6E2C33233AF7E2
:145BA6000E94472D80E8682EE2CFFA93EA93EA81FB810E9493
:145BBA00702DE991F991398328831A930A930895FA93EA93DE
:145BCE00EC2FFD2F32960E94702DE991F99124960895FA938D
:145BE200EA93EA81FB810E946E2DE991F99122960895FA9328
:145BF600EA93EC2FFD2F32960E946E2DE991F9912496089577
:145C0A00FA93EA93EA81FB810E946E2DE991F99139832883ED
:145C1E001A930A930895FA93EA93EC2FFD2F32960E946E2D35
:145C3200E991F9913B832A831983088308954A925A926A9267
:145C46008A930E94202F11F15520E2F08FE14816C0F487E109
:145C5A004816D1F058F4419489EE481A05C035952795179526
:145C6E0007954A94D1F70EC087E1481A000F111F221F331F76
:145C82004A94D1F705C03FE7232F132F032F04C0662011F06C
:145C96000E94472D89916990599049900895689401C0E89439
:145CAA002227332746F017FD209517FD309503C0689401C0EB
:145CBE00E8944A925A926A928A9387E1482E5524662436F06E
:145CD200332322F40E94472D80E8682E0E94392F8991699021
:145CE600599049900895FA93EA93EA81FB8127D0E991F9915F
:145CFA0022960895FA93EA93EC2FFD2F32961DD0E991F99137
:145D0E0024960895FA93EA93EA81FB8114D0E991F991398395
:145D220028831A930A930895FA93EA93EC2FFD2F329607D0EB
:145D3600E991F9913B832A831983088308950A921A922A9222
:145D4A003A920E947E2F3A932A931A930A93008111812281A0
:145D5E0033810E94202F09F457C0E62CD52CC42CB32EA22EC4
:145D7200912E802E09911991299139910E94202FA1F16E24D3
:145D86004C185D0880E8481653060CF033C081E848168FEFED
:145D9A0058060CF436C080E23324232E122E012E302F222780
:145DAE001127002726941794079437952795000F111F221F7A
:145DC200331F001C111C221C331C28F0081819082A083B08D7
:145DD60004C0080C191C2A1C3B1C0AF001608A9551F70E94AB
:145DEA00392F0E948D2F399029901990099008950FEF102F41
:145DFE002FE73FE7662099F30E94472DF0CF0027102F202FB9
:145E1200302FEBCF0991199129913991EDCF0FD029F0662061
:145E260011F00E94472D98940895002329F4112319F42223C2
:145E3A0009F433230895F7DF99F08A93632E80E86822220F34
:145E4E00331F432E8FE7481A55248827580A269530E8232BFA
:145E620033278991989408954424552466240895DEDF09F42D
:145E76000895AA93BA93D2019A938A938EE790E0332349F060
:145E8A003695279517950795A817B907CCF41196F5CF809576
:145E9E00909501962223BAF0000F111F221FA817B90714F042
:145EB2001197F6CF0027112722273327899199912D01B991B1
:145EC600A991089533270FEF102F2FE7322F899199912D0171
:145EDA0002C0AA93BA93A7DF49F0D201A158BF4F2D01342D40
:145EEE00220F369527953629B991A99108954A925A926A92A4
:145F02007A928A929A92AA92BA92CA92DA92EA92FA928A93C2
:145F16009A93089599918991F990E990D990C990B990A99023
:145F2A0099908990799069905990499008950E947E2FAA9334
:145F3E00BA930E94202FE1F1E62CD52CC42CB32EA22E912ECC
:145F5200802E00811181228133810E94202F71F16E244C0CE6
:145F66005D1C80E84816530664F581E848168FEF58066CF136
:145F7A00A29EB12DA02D919E912D802DA09E800D911DA31F53
:145F8E00B31F829E800D911DA31FB31F929E900DA11DB31FE1
:145FA200A19E900DA11DB31F2B2F1A2F092F880F001F111FBE
:145FB600221F331F0E94392FB991A9910E948D2F08950FEFBD
:145FCA00102F2FE78FE7482EF5CF0027102F202F302FF0CFEB
:145FDE00FA93EA93EC2FFD2F32960E949C2FE991F99124966B
:145FF2000895FA93EA93EA81FB810E949C2FE991F9913983E0
:1460060028831A930A930895FA93EA93EC2FFD2F32960E9439
:14601A009C2FE991F9913B832A831983088308950E946E2D37
:14602E0033233AF00E94182F11F001E00895002708950FEFB4
:146042000895FA93EA93EC2FFD2F32960E941530E991F991A9
:06605600249600230895CA
:00000001FF
