:040000000C94060551
:04000C000C94C22668
:040028000C94D20B57
:040038000C94990B80
:040040000C941E0BF3
:080048000C946C100C940111E2
:040074000C941F0CBD
:14008C006EB7B4B0D7B2E2CAD4B5DAD2BBB4CE000000000030
:1400A00000000000000000000000000000000000000000004C
:1400B400000000000000000000000000000000000000000038
:1400C800000000000000000000000000000000000000000024
:1400DC00000000000000000000000000000000000000000010
:1400F0000000000000000000000000000000000000000000FC
:140104000000000000000000000000000000000000000000E7
:140118000000000000000000000000000000000000000000D3
:14012C000000000000000000000000000000000000000000BF
:140140000000000000000000000000000000000000000000AB
:14015400000000000000000000000000000000000000000097
:14016800000000000000000000000000000000000000000083
:14017C0000000000000000000000000000000000000000006F
:1401900000000000000000000000000000000000000000005B
:1401A40000007A30000000000000000000000000000000009D
:1401B800000000000000000000000000000000000000000033
:1401CC0000000000000000000000000000000000000000001F
:1401E00000000000000000000000000000000000000000000B
:1401F4000000000000000000000000000000000000000000F7
:140208000000000000000000000000000000000000000000E2
:14021C000000000000000000000000000000000000000000CE
:140230000000000000000000000000000000000000000000BA
:140244000000000000000000000000000000000000000000A6
:14025800000000000000000000000000000000000000000092
:14026C0000000000000000000000000000000000000000007E
:1402800000000000000000000000000000000000000000006A
:14029400000000000000000000000000000000000000000056
:1402A800000000000000000000000000000000000000000042
:1402BC0000000000000000E803000000000000000000000043
:1402D00000000000000000000000000000000000000000001A
:1402E400000000000000000000000000000000000000000006
:1402F8000000000000000000000000000000000000000000F2
:14030C000000000000000000000000000000000000000000DD
:14078000000000000000000000000000000000000040000124
:14079400000000000000000000000000000000000000000051
:1407A80000000000000000000000000000000000000000003D
:1407BC00000000000000000000000000000000000000000029
:1407D000000000000000000000000000000000000000000015
:1407E400000000000000000000000000000000000000000001
:1407F8000000000000000000000000000000000000000000ED
:14080C000000000000000000000000000000000000000000D8
:140820000000000000000000000000000000000000000000C4
:140834000000000000000000000000000000000000000000B0
:1408480000000000000000000000000000000000000000009C
:14085C00000000000000000000000000000000000000000088
:14087000000000000000000000000000000000000000000074
:14088400000000000000000000000000000000000000000060
:1408980000000001000200030004000600070009000A000220
:1408AC000003000500060008000900CAFDBEDDD6D8D6C3D69A
:1408C000D0A1A3A1A3A1A300CFB5CDB3D6D8D6C3D6D0A1A353
:1408D400A1A3A1A3002D2000C8B7C8CF00CAC7B7F1D6D8D668
:1408E800C300CEC2B6C8B1A3B4E6CAA7B0DCA3A100CEC2B6B6
:1408FC00C8B1A3B4E6B3C9B9A6A3A100CAB1BCE4B1A3B4E60A
:14091000B3C9B9A6A3A100D6D8D6C3CFB5CDB300C9E8D6C31F
:14092400CAB1BCE400B6CFB5E7D7D4B6AFBBD6B8B400B1A322
:14093800B4E6D6D02E202E202E00B1A3B4E600CEC2B6C800A5
:14094C0020003A2000BAE3CEC200C9FDCEC20000202020201A
:14096000202020202020202020202020002020202020200043
:14097400D6D8D6C300D4CBD0D000B1E0BCAD00D7B4CCAC3AB2
:1409880000C4BFB1EA3A00CEC2B6C83A005400BBD6B8B4D694
:14099C00D02E202E202E00C8A1CFFB00BBD6B8B400CAC7B735
:1409B000F1BBD6B8B4C9CFB4CEB9A4D7F700B5C8B4FD00BD15
:1409C400E1CAF800D4DDCDA300B9CAD5CF00CDA3D6B900C96C
:1409D800E8D6C300CDA3D6B92020202000BFAACABC202020BC
:1409EC0020002054343A002054333A002054323A002054318F
:0B0A00003A00CAB1BCE43A00323000FA
:140A0C00CFEFD0E1CDBFDEBFCE51D0400AEA08830024EFE796
:140A2000FAE01AE0E739F10711F00192FBCF0083ECE8F0E051
:140A3400A0E0B1E01AE000E00BBFEB30F10721F0C8953196B1
:140A48000D92F9CF0E949B0AFFCF000F111F0150104081E0DD
:140A5C0090E080179107C8F308954A935A93A80141505040FB
:140A700005E714E0EEDF81E090E084179507B0F35991499156
:140A840008954A935A93A8014150504008EE13E0E8DF81E01C
:140A980090E084179507B0F35991499108954A935A9380EE67
:140AAC0084BB809164008061809364008FED85BB80916500F8
:140AC00080618093650001E010E00E94290543B355274F3C2B
:140AD400E0E05E07E9F04F3CE0E05E07DCF0473DE0E05E07EB
:140AE80099F04B3DE0E05E0769F04D3DE0E05E0739F04E3D08
:140AFC00E0E05E0709F00AC005E699C001E697C004E695C03D
:140B100005E793C00CE691C08FEB85BB80916500806180932B
:140B2400650001E010E00E94290543B355274F3AE0E05E0797
:140B3800E9F04F3AE0E05E07DCF0473BE0E05E0799F04B3BA0
:140B4C00E0E05E0769F04D3BE0E05E0739F04E3BE0E05E0793
:140B600009F00AC003E769C002E767C004E765C003E663C07F
:140B74000BE261C08FE785BB8091650080618093650001E0F9
:140B880010E00E94290543B355274F36E0E05E07E9F04F361F
:140B9C00E0E05E07DCF04737E0E05E0799F04B37E0E05E0781
:140BB00069F04D37E0E05E0739F04E37E0E05E0709F00AC099
:140BC40000E339C003E337C002E335C001E333C006E331C0D9
:140BD8008FEF85BB809165008F708093650001E010E00E94EB
:140BEC00290543B355274F3EE0E05E07E9F04F3EE0E05E0718
:140C0000DCF0473FE0E05E0799F04B3FE0E05E0769F04D3F4C
:140C1400E0E05E0739F04E3FE0E05E0709F00AC007E309C056
:140C280008E307C009E305C004E303C005E301C00EE6599124
:140C3C0049910895AA924A9330DF402F02E010E00E943305EA
:140C50002ADFA02E401761F44E3651F020900001241611F458
:140C64000EE608C040930001042F04C08EE6809300010EE679
:140C78004991A99008954A935A9322242ABA809165008D7F42
:140C8C008093650080916500816080936500809165008860AF
:140CA0008093650001E010E00E94290549B355274078507037
:140CB4008FEF8ABB80916500877F809365008A015991499126
:140CC8000895AA92A02ED7DF00300107E1F7809165008D7F29
:140CDC0080936500809165008E7F8093650080916500877F15
:140CF00080936500ABBA8091650088608093650001E010E06C
:140D04000E94290580916500877F80936500A9900895AA9205
:140D1800A02EB1DF00300107E1F78091650082608093650089
:140D2C00809165008E7F8093650080916500877F80936500C4
:140D4000ABBA8091650088608093650001E010E00E942905C3
:140D540080916500877F80936500A990089501E0B2DF01E06E
:140D680010E00C9433054A935A9322242ABA809165008D7F39
:140D7C008093650080916500816080936500809162008160C8
:140D90008093620001E010E00E94290549B355274078507049
:140DA4008FEF8ABB809162008E7F809362008A015991499134
:140DB8000895AA92A02ED7DF00300107E1F7809165008D7F38
:140DCC0080936500809165008E7F80936500809162008E7F20
:140DE00080936200ABBA8091620081608093620001E010E08B
:140DF4000E942905809162008E7F80936200A9900895AA9214
:140E0800A02EB1DF00300107E1F78091650082608093650098
:140E1C00809165008E7F80936500809162008E7F80936200D2
:140E3000ABBA8091620081608093620001E010E00E942905DF
:140E4400809162008E7F80936200A990089501E0B2CFAA9231
:140E58004A93A22E402F442311F0413019F40A2D56DF06C052
:140E6C00423011F0433011F40A2DC7DF4991A99008954A931D
:140E80006A93622F402F662321F4042F00581DDF11C06130DA
:140E940021F4042F005717DF0BC0623021F4042F005889DF50
:140EA80005C0633019F4042F005783DF6991499108950E94D2
:140EBC00E639622F402FAE80662331F4042F0058FEDE0A2D89
:140ED00022DF17C0613031F4042F0057F6DE0A2D1ADF0FC023
:140EE400623031F4042F005866DF0A2D8ADF07C0633029F45C
:140EF800042F00575EDF0A2D82DF0C94ED390E94E639A22E30
:140F0C00602F4E815F81AA2071F4062F0058D7DE05C0FA0162
:140F20000081F9DE4F5F5F4FFA0120802220B9F732C08A2DD3
:140F3400813071F4062F0057C6DE05C0FA010081E8DE4F5FAE
:140F48005F4FFA0120802220B9F721C08A2D823071F4062F76
:140F5C0000582DDF05C0FA0100814FDF4F5F5F4FFA012080B7
:140F70002220B9F710C08A2D833069F4062F00571CDF05C098
:140F8400FA0100813EDF4F5F5F4FFA0120802220B9F70C9437
:140F9800ED390E94DC39A901602F662311F0613059F405C002
:140FAC00FA010081B2DE4F5F5F4FFA0120802220B9F70EC06E
:140FC000623011F0633051F405C0FA0100811BDF4F5F5F4F1B
:140FD400FA0120802220B9F70C94E1394A935A9322242ABACE
:140FE800809165008D7F80936500809165008160809365002C
:140FFC008091650088608093650001E010E00E94330549B364
:1410100055274F778FEF8ABB80916500877F80936500042FA0
:141024005991499108954A935A9322242ABA809165008D7FE1
:14103800809365008091650081608093650080916200816009
:14104C008093620001E010E00E94330549B355274F778FEFB4
:141060008ABB809162008E7F80936200042F599149910895AE
:1410740076DEEDCEAA92BA9222242ABA80916500826080933C
:141088006500809165008160809365008091650088608093AF
:14109C00650001E010E00E943305A9B2BB248FEF8ABB809122
:1410B0006500877F809365000A2DB990A9900895AA92BA926B
:1410C40022242ABA80916500826080936500809165008160C7
:1410D800809365008091620081608093620001E010E00E9450
:1410EC003305A9B2BB248FEF8ABB809162008E7F80936200C6
:141100000A2DB990A99008950E94E639622F402F662349F4FE
:14111400042F0058D8DD0AE010E00E942905AADF24C06130DF
:1411280049F4042F0057CDDD0AE010E00E9429059FDF19C041
:14113C00623051F4042F00583ADE0AE010E00E942905B8DFE4
:14115000A02E0DC0633051F4042F00572EDE0AE010E00E9406
:141164002905ACDFA02E01C000270C94ED39AA92A02E0A2D01
:14117800A8DD7EDFA9900895AA92A02E0A2DA1DD9BDFA99039
:14118C0008958AB38F6F8ABB8FEF8BBB809164008F608093F7
:1411A0006400809165008F6080936500809161008160809394
:1411B40061008091620081608093620000E383DD08E081DD74
:1411C80001E07FDD06E07DDD0CE07BDD00E3F1DD08E0EFDDED
:1411DC0001E0EDDD06E0EBDD0CE0E9CD4A935A93A801403021
:1411F000450719F40CE069DD30C04130E0E05E0719F40EE0DF
:1412040062DD29C04230E0E05E0719F40DE05BDD22C0433090
:14121800E0E05E0719F40FE054DD1BC04430E0E05E0719F4EF
:14122C000CE0C5DD14C04530E0E05E0719F40EE0BEDD0DC04F
:141240004630E0E05E0719F40DE0B7DD06C04730E0E05E070F
:1412540011F40FE0B0DD59914991089506E333DD06E3A9CD4C
:1412680000E32FDD00E3A5CD0E945A390E94C739622F21970E
:14127C00AF848A2D0B8480198F5FC82ECC0CEADF662349F401
:141290008B8580588150888340E880E8A82EE82E22C0613097
:1412A40051F48B8580588150888340E980E8A82E80E9E82E47
:1412B80016C0623049F48B8580588150888340E880E8A82E53
:1412CC00E82E0BC0633049F48B8580588150888340E980E808
:1412E000A82E80E9E82E662311F06130A1F4AA240EC0242E07
:1412F4004F5F022DE8DC0881E6DCEE2403C0002708DDE394A2
:14130800EC14D8F3A3948A2D803178F317C0623011F06330FF
:14131C0099F4AA240EC0242E4F5F022D48DD088146DDEE2482
:1413300003C0002768DDE394EC14D8F3A3948A2D803178F32E
:1413440091DF21960E94BC39249608950E945A390E94C739A9
:14135800622F2197AF848A2D0B8480198F5FC82ECC0C7ADF11
:14136C00662349F48B8580588150888340E880E8A82EE82E67
:1413800022C0613051F48B8580588150888340E980E8A82E76
:1413940080E9E82E16C0623049F48B8580588150888340E835
:1413A80080E8A82EE82E0BC0633049F48B858058815088837E
:1413BC0040E980E8A82E80E9E82E662311F06130A1F4AA24B9
:1413D0000EC0242E4F5F022D78DC088176DCEE2403C00FEF0A
:1413E40098DCE394EC14D8F3A3948A2D803178F317C06230CC
:1413F80011F0633099F4AA240EC0242E4F5F022DD8DC0881B8
:14140C00D6DCEE2403C00FEFF8DCE394EC14D8F3A3948A2D43
:14142000803178F321DF21960E94BC39249608953A932A936D
:141434000E94C739C02E04E346DC04E3BCDC6C2D4A8560685C
:141448004068AA2413C0242E4F5F022D3ADC062F38DCEE24A7
:14145C0007C0EC85FD850191FD87EC8756DCE3948E2D88311C
:14147000B0F3A3948A2D803250F36C2D4A8560684068EE24F8
:1414840013C0242E4F5F022D96DC062F94DCEE2407C0EC85F1
:14149800FD850191FD87EC87B2DCE3948E2D8831B0F3A394E2
:1414AC008A2D803450F306E30ADC06E380DC01E010E00E94F7
:1414C000290500E302DC00E378DC0E94BC392296089522974D
:1414D40081E091E09983888323E0002712DD81E091E0998304
:1414E8008883222700270BDD87E0888321E001E02BDF08EB3C
:1414FC001BE00E94330587E0888321E001E0B2DE82E08883B6
:1415100021E002E01DDF0CE211E00E94330587E0888322E0BB
:1415240002E0A4DE85E0888321E003E00FDF22960895219700
:141538008FEF84BB222425BA8AED82B986EF8093610083B1EE
:14154C008C6F83B9809162008F6F8093620078940E94C708F1
:141560000E943A0882E090E090938C0A80938B0A8CE08883E9
:14157400222701E00E9438098CE0888321E001E00E9438091A
:141588008CE0888322E001E00E9438098CE0888323E001E0B7
:14159C000E9438090E9402310E94C3380E945610222700ECA9
:1415B0000E94F60A28EB0EEF0E94E70A00270E94150B02C037
:1415C4000E946226FDCF219608950093930A2093920A222404
:1415D8002EBC0DBD2CBD2FBC85E08EBD87B7846087BF0895C2
:1415EC000093910A2093900A222420928A000093890020931F
:14160000880020928B0085E080938A0080917D00846080938A
:141614007D00089500938F0A02BF87B7816087BF87E083BFAD
:14162800089500938E0A04BD87B7806487BF85E085BD089579
:14163C000A921A922A923A924A925A926A927A928A929A92B2
:141650000A931A932A933A938A939A93AA93BA93EA93FA93D4
:141664000FB60A922197222423BE209035033090360322200F
:1416780059F5332049F58091370390913803019790933803E2
:14168C008093370324E630E08C010E948639C801C0968883CB
:1416A00022270AE00E945D0783E7888322270BE00E945D074E
:1416B40081E090E0209037033090380382159305F0F4222413
:1416C80022BE87E083BF19C08091370390913803019790934A
:1416DC003803809337038130E0E09E0741F480E290E0909332
:1416F0003803809337030E94A92F222422BE87E083BF21965E
:1417040009900FBEF991E991B991A99199918991399129911B
:141718001991099199908990799069905990499039902990F1
:14172C001990099018950A921A922A923A924A925A926A9226
:141740007A928A929A920A931A932A933A938A939A93AA93E6
:14175400BA93EA93FA930FB60A9222242EBC0E94CE0F20906A
:14176800930A2DBC2090920A2CBC85E08EBD09900FBEF99113
:14177C00E991B991A991999189913991299119910991999026
:141790008990799069905990499039902990199009901895F7
:1417A4000A921A922A923A924A925A926A927A928A929A9249
:1417B8000A931A932A933A938A939A93AA93BA93EA93FA936B
:1417CC000FB60A92222425BC2090050830900608222051F46F
:1417E000332041F480E490E090930608809305080E94C226BE
:1417F4008091050890910608019790930608809305082090FB
:141808008E0A24BC85E085BD09900FBEF991E991B991A991BF
:14181C00999189913991299119910991999089907990699068
:1418300059904990399029901990099018952A923A928A93CC
:141844009A932FB62A92222420928A00332430921C02209257
:141858001B028FEF90E090931E0280931D02909320028093A4
:14186C001F0220905F0430906004232C332427FC30943092C1
:1418800022022092210280915F049091600490709093240219
:141894008093230220903D0330903E03309226022092250254
:1418A8002090490430904A04232C33243092280220922702B4
:1418BC008091490490914A048870907090932A0280932902C6
:1418D000209047043090480430922C0220922B0220904B042F
:1418E40030904C04232C332430922E0220922D0280914B0407
:1418F80090914C0490709093300280932F02209091053090CC
:14190C009205232C332427FC309430923202209231028091B7
:141920009105909192059070909334028093330220906F04A1
:1419340030907004309236022092350220907B0530907C0517
:14194800232C3324309238022092370280917B0590917C05CB
:14195C008870907090933A02809339022090790530907A0565
:1419700030923C0220923B0220907D0530907E05232C332459
:1419840030923E0220923D0280917D0590917E059070909302
:14199800400280933F022090C3063090C406232C332427FCD9
:1419AC00309430924202209241028091C3069091C4069070A3
:1419C00090934402809343022090A1053090A205309246028B
:1419D400209245022090AD063090AE06232C3324309248027D
:1419E800209247028091AD069091AE068870907090934A02F0
:1419FC00809349022090AB063090AC0630924C0220924B0297
:141A10002090AF063090B006232C332430924E0220924D022E
:141A24008091AF069091B00690709093500280934F02209088
:141A3800F5073090F607232C332427FC30943092520220928C
:141A4C0051028091F5079091F6079070909354028093530227
:141A60002090D3063090D40630925602209255022090DF0796
:141A74003090E007232C332430925802209257028091DF07F3
:141A88009091E0078870907090935A02809359022090DD07C9
:141A9C003090DE0730925C0220925B022090E1073090E20721
:141AB000232C332430925E0220925D028091E1079091E20746
:141AC40090709093600280935F0222243324309262022092A0
:141AD80061028EEF90E090936402809363029093660280930B
:141AEC00650286E29093320380933103559A2090910A20928C
:141B000089002090900A2092880085E080938A0029902FBE1C
:141B1400999189913990299018954A935A931B9A1C9A01E034
:141B280010E00E9429051C9801E010E00E9429051B9801E000
:141B3C0010E00E9429051B9A4427552724C01B9801E010E0D1
:141B50000E9429052090390330903A03220C331C30923A034C
:141B64002092390381B199278470907095958795959587950D
:141B7800282A392A30923A03209239031B9A01E010E00E948F
:141B8C0029054F5F5F4F4830E0E05E07C0F24427552724C0A1
:141BA0001B9801E010E00E94290520903B0330903C03220CC2
:141BB400331C30923C0320923B0381B19927847090709595CD
:141BC800879595958795282A392A30923C0320923B031B9A4C
:141BDC0001E010E00E9429054F5F5F4F4830E0E05E07C0F2A9
:141BF0001C9A0AE010E00E9429055991499108954A935A9356
:141C04001E9A1F9A01E010E00E9429051F9801E010E00E9490
:141C180029051E9801E010E00E9429051E9A4427552728C0AC
:141C2C001E9801E010E00E9429052090390330903A03220C36
:141C4000331C30923A032092390325E030E001B111270072E3
:141C540010700E945F392090390330903A03202A312A309272
:141C68003A03209239031E9A01E010E00E9429054F5F5F4F88
:141C7C004830E0E05E07A0F24427552728C01E9801E010E0CF
:141C90000E94290520903B0330903C03220C331C30923C0305
:141CA40020923B0325E030E001B11127007210700E945F3911
:141CB80020903B0330903C03202A312A30923C0320923B0395
:141CCC001E9A01E010E00E9429054F5F5F4F4830E0E05E07B2
:141CE000A0F21F9A0AE010E00E9429055991499108954A93BD
:141CF4005A93809162008260809362008091620084608093BB
:141D0800620001E010E00E942905809162008B7F80936200D2
:141D1C0001E010E00E942905809162008D7F8093620001E03D
:141D300010E00E94290580916200826080936200442755272E
:141D440028C0809162008D7F8093620001E010E00E9429050E
:141D58002090390330903A03220C331C30923A032092390324
:141D6C0080B1992781709070282A392A30923A0320923903DF
:141D80008091620082608093620001E010E00E9429054F5F36
:141D94005F4F4830E0E05E07A0F24427552728C0809162001C
:141DA8008D7F8093620001E010E00E94290520903B03309057
:141DBC003C03220C331C30923C0320923B0380B19927817084
:141DD0009070282A392A30923C0320923B0380916200826004
:141DE4008093620001E010E00E9429054F5F5F4F4830E0E041
:141DF8005E07A0F2809162008460809362000AE010E00E9498
:141E0C0029055991499108954A935A93809162008061809302
:141E200062008091620080628093620001E010E00E942905E1
:141E3400809162008F7D8093620001E010E00E9429058091F4
:141E480062008F7E8093620001E010E00E942905809162008E
:141E5C008061809362004427552733C0809162008F7E8093AF
:141E7000620001E010E00E9429052090390330903A03220C44
:141E8400331C30923A032092390381B19927887090701C0107
:141E98003594279435942794359427944090390350903A0381
:141EAC004228532850923A03409239038091620080618093A9
:141EC000620001E010E00E9429054F5F5F4F4830E0E05E0712
:141ED40048F24427552733C0809162008F7E8093620001E010
:141EE80010E00E94290520903B0330903C03220C331C3092FA
:141EFC003C0320923B0381B19927887090701C013594279418
:141F1000359427943594279440903B0350903C0342285328A3
:141F240050923C0340923B038091620080618093620001E0CE
:141F380010E00E9429054F5F5F4F4830E0E05E0748F2809191
:141F4C0062008062809362000AE010E00E942905599149915A
:141F600008954A935A93A8014030450769F04130E0E05E07B2
:141F740059F04230E0E05E0749F04330E0E05E0739F007C0B8
:141F8800CADD05C039DE03C0B0DE01C03FDF59914991089531
:141F9C0080910708909108088333E0E09E0731F481E090E0CF
:141FB000909308088093070880913D0390913E038130E0E0A4
:141FC4009E0789F4209007083090080840906D0450906E04C5
:141FD8004214530410F0A89A07C085B38E7F85BB03C085B3BF
:141FEC008E7F85BB80916F04909170048130E0E09E0789F4E8
:14200000209007083090080840906D0450906E0442145304FD
:1420140010F0A99A07C085B38D7F85BB03C085B38D7F85BBE3
:142028008091A1059091A2058130E0E09E0789F420900708D3
:14203C003090080840906D0450906E044214530410F0AA9A3C
:1420500007C085B38B7F85BB03C085B38B7F85BB8091D30604
:142064009091D4068130E0E09E0789F420900708309008084B
:1420780040906D0450906E044214530410F0AB9A07C085B3D0
:14208C00877F85BB03C085B3877F85BB809107089091080868
:1420A00001969093080880930708089522242AB82BB886E032
:1420B4008093950087E689B9209290008AB188698AB9089573
:1420C8005D9BFECF0CB908955F9BFECF0CB108950A921A9274
:1420DC002A923A924A925A926A927A928A929A920A931A9306
:1420F0002A933A938A939A93AA93BA93EA93FA930FB60A9213
:142104004A9357984CB180911A028A3751F4413608F45CC03C
:1421180089E6841708F458C040931A0255C020901A0242156E
:14212C0059F4E1D02224332430921902209218028AE78093D7
:142140001A0246C0403068F189E0841750F180E191E0E09118
:142154001802F0911902EE0FFF1FE80FF91F242E332431823B
:14216800208280911802909119020196909319028093180258
:14217C0083E890E020901802309019028215930508F522245D
:14219000332430921902209218028AE780931A0217C041364D
:1421A40060F089E6841748F02224332430921902209218024F
:1421B80040931A0209C02224332430921902209218028AE7A4
:1421CC0080931A02579A499109900FBEF991E991B991A99117
:1421E00099918991399129911991099199908990799069909B
:1421F40059904990399029901990099018951A922A923A9270
:142208004A925A928A939A93EA93FA931FB61A925598209088
:14221C0031033090320340903303509034034214530490F437
:142230008BE192E0F201EE0FFF1FE80FF91F208031802CB86A
:14224400C20101969093340380933303559A0AC02224332433
:142258003092320320923103309234032092330319901FBE2E
:14226C00F991E991999189915990499039902990199018957C
:142280004A935A93A80105C0FA0100811DDF4F5F5F4FFA0143
:1422940020802220B9F70AE015DF5991499108950E94D239B8
:1422A800580140911001509111014030450769F04130E0E0AE
:1422BC005E0769F04230E0E05E0769F04330E0E05E0761F077
:1422D0000EC085010E9423360AC085010E94853606C08501B2
:1422E4000E94713485010E94EF330C94D7394A935A9340910A
:1422F8001A0255274136E0E05E0709F14236E0E05E0709F10D
:14230C004336E0E05E0709F14436E0E05E0709F14536E0E051
:142320005E0709F14636E0E05E0721F14736E0E05E0739F1CB
:142334004836E0E05E0751F14936E0E05E0769F152C0002779
:142348001127ACDF4EC001E010E0A8DF4AC002E010E0A4DFF9
:14235C0046C003E010E0A0DF42C020E131E0002711270E9400
:1423700086333BC020E131E001E010E00E94863334C020E172
:1423840031E002E010E00E9486332DC020E131E003E010E035
:142398000E94863326C040911001509111014030450749F026
:1423AC004130E0E05E0741F04230E0E05E0739F016C00E941E
:1423C000A63513C00E94F23510C0002711270E94713401E03B
:1423D40010E00E94713402E010E00E94713403E010E00E9430
:1423E80071345991499108950E94CB3979016801AE80BF80E5
:1423FC008FB78F778FBFE199FECFEEBACFBAADBAE29AE19A5D
:1424100001E010E00E94290578940C94B5390E94CD3969016B
:1424240058018FB78F778FBFE199FECFCEBAAFBAE09A01E01E
:1424380010E00E942905ADB2BB24789485010C94B039AA923B
:14244C00BA925801229786E79AE0998388832A2D00270E94F0
:14246000830785010E94D4382296B990A9900895AA92BA924B
:14247400580185010E94D438B990A99008950E94023A229711
:1424880081E090E09093800A80937F0A81E79AE0998388831D
:14249C0021E001E00E9483078CE69AE09983888321E006E024
:1424B0000E94830787E69AE09983888322E001E00E948307CF
:1424C40082E69AE09983888322E006E00E94830789E59AE0FF
:1424D8009983888323E001E00E94830720E53AE003E00E9415
:1424EC00CD072BE43AE003E00E94CD0789E59AE09983888377
:1425000023E001E00E94830720E53AE003E00E94CD072BE430
:142514003AE003E00E94CD074427552783E0888321E002E008
:142528000E94A8097DC3002711278BDFAA24BB24D3C0AA2039
:14253C0049F4BB2039F461E070E021E003E00E943F0723C006
:14255000C5018130E0E09E0739F461E070E021E008E00E9452
:142564003F0717C0C5018230E0E09E0739F462E070E022E0A8
:1425780003E00E943F070BC0C5018330E0E09E0731F462E074
:14258C0070E022E008E00E943F0702E311E095010E94A03932
:1425A0008DE393E0F801E80FF91FC080D180CC2011F4DD20BD
:1425B400F9F0C6018130E0E09E0701F18230E0E09E0709F447
:1425C8006BC08330E0E09E0709F46CC08430E0E09E0709F47D
:1425DC006DC08530E0E09E0709F46EC08630E0E09E0709F461
:1425F0006FC073C026E43AE0062F0E94CD076DC002E311E0A3
:1426040095010E94A0398FE594E0F801E80FF91F00811181AE
:1426180024E630E00E946A3998012063062F0E942B0702E345
:14262C0011E095010E94A0398FE594E0F801E80FF91F008127
:1426400011812AE030E00E946A392AE030E00E9466399801A1
:142654002063062F0E942B0702E311E095010E94A0398FE58B
:1426680094E0F801E80FF91F008111812AE030E00E94663974
:14267C0098012063062F0E942B0720E2062F0E942B0721EA0F
:14269000062F0E942B0726EE062F0E942B071DC021E43AE014
:1426A400062F0E94CD0717C02CE33AE0062F0E94CD0711C0FB
:1426B80027E33AE0062F0E94CD070BC022E33AE0062F0E947E
:1426CC00CD0705C02CE33AE0062F0E94CD07C50101965C01D3
:1426E000C5018430E0E09E0708F427CF0E942006A02E013648
:1426F40009F053C088E090E090938C0A80938B0A40304507D1
:14270800C9F04130E0E05E07E1F04230E0E05E07F9F04330AA
:14271C00E0E05E0711F14430E0E05E0729F14530E0E05E0735
:1427300041F14630E0E05E0759F177C283E0888321E002E0F4
:142744000E94380970C288E0888321E007E00E94380969C203
:1427580083E0888322E002E00E94380962C288E0888322E09F
:14276C0007E00E9438095BC283E0888323E002E00E9438093C
:1427800054C287E0888323E006E00E9438094DC28BE088836C
:1427940023E00AE00E94380946C28A2D843609F04CC0403073
:1427A800450769F04130E0E05E07C1F04230E0E05E0719F190
:1427BC004330E0E05E0771F131C283E0888321E002E00E9429
:1427D000380983E0888322E002E00E94A80942E050E022C2D9
:1427E40088E0888321E007E00E94380988E0888322E007E047
:1427F8000E94A80943E050E013C283E0888322E002E00E945E
:14280C00380983E0888323E002E00E94A80944E050E004C2B7
:1428200088E0888322E007E00E94380987E0888323E006E00A
:142834000E94A80945E050E0F5C18A2D853709F061C0423033
:14284800E0E05E0791F04330E0E05E07E9F04430E0E05E07CC
:14285C0041F14530E0E05E0799F14630E0E05E0709F43DC07D
:14287000DBC183E0888322E002E00E94380983E0888321E014
:1428840002E00E94A80944275527CCC188E0888322E007E03B
:142898000E94380988E0888321E007E00E94A80941E050E04A
:1428AC00BDC185E0888323E002E00E94380983E0888322E0F2
:1428C00002E00E94A80942E050E0AEC187E0888323E006E0B3
:1428D4000E94380988E0888322E007E00E94A80943E050E00B
:1428E8009FC18BE0888323E00AE00E94380988E0888322E0C1
:1428FC0007E00E94A80943E050E090C18A2D8C3609F04DC06B
:142910004130E0E05E0769F04330E0E05E07C1F04530E0E046
:142924005E0719F14630E0E05E0771F17BC188E0888321E083
:1429380007E00E94380983E0888321E002E00E94A8094427B2
:14294C0055276CC188E0888322E007E00E94380983E0888321
:1429600022E002E00E94A80942E050E05DC187E0888323E047
:1429740006E00E94380983E0888323E002E00E94A80944E0BC
:1429880050E04EC18BE0888323E00AE00E94380987E0888344
:14299C0023E006E00E94A80945E050E03FC18A2D823709F02D
:1429B0004CC04030450769F04230E0E05E07C1F04430E0E076
:1429C4005E0719F14530E0E05E0771F12BC183E0888321E039
:1429D80002E00E94380988E0888321E007E00E94A80941E057
:1429EC0050E01CC183E0888322E002E00E94380988E0888322
:142A000022E007E00E94A80943E050E00DC183E0888323E0F4
:142A140002E00E94380987E0888323E006E00E94A80945E016
:142A280050E0FEC087E0888323E006E00E9438098BE08883F8
:142A3C0023E00AE00E94A80946E050E0EFC08A2D833709F0D7
:142A500053C085E090E090938C0A80938B0A40304507C9F0B4
:142A64004130E0E05E07E1F04230E0E05E07F9F04330E0E044
:142A78005E0711F14430E0E05E0729F14530E0E05E0741F164
:142A8C004630E0E05E0759F1CAC083E0888321E002E00E94D4
:142AA0003809C3C088E0888321E007E00E943809BCC083E041
:142AB400888322E002E00E943809B5C088E0888322E007E06B
:142AC8000E943809AEC083E0888323E002E00E943809A7C00C
:142ADC0087E0888323E006E00E943809A0C08BE0888323E0CF
:142AF0000AE00E94380999C08A2D843709F094C04030450731
:142B0400F1F04130E0E05E0791F14230E0E05E0709F443C02D
:142B18004330E0E05E0709F455C04430E0E05E0709F466C043
:142B2C004530E0E05E0709F464C04630E0E05E0709F462C020
:142B400073C083E0888321E002E00E94380981E090E0909326
:142B5400800A80937F0A222433243092820A2092810A83E0BC
:142B680090938C0A80938B0A5CC088E0888321E007E00E94DF
:142B7C00380981E090E09093800A80937F0A9093820A809328
:142B9000810A83E090938C0A80938B0A46C083E0888322E06C
:142BA40002E00E94380981E090E09093800A80937F0A82E0DC
:142BB8009093820A8093810A83E090938C0A80938B0A2FC009
:142BCC0088E0888322E007E00E94380981E090E09093800A38
:142BE00080937F0A83E09093820A8093810A90938C0A8093C9
:142BF4008B0A19C00E94A63515C00E94F23512C08BE08883FC
:142C080023E00AE00E94380981E090E09093800A80937F0ACE
:142C1C0085E090938C0A80938B0A01C082CC22960C940B3A32
:142C30000E94C7392297442755272227332701E010E00E9438
:142C44000F1278012227332702E010E00E940F1268012227F8
:142C5800332703E010E00E940F1258012227332704E010E0A8
:142C6C000E940F12B801EE2071F4FF2061F4CC2051F4DD20C3
:142C800041F4AA2031F4BB2021F40030010709F403C181E2D0
:142C94009AE099838883222702E00E9483078CE19AE0998331
:142CA800888322E002E00E94830787E19AE09983888322E0F2
:142CBC0008E00E94830722273327002711270E940F125801D2
:142CD000B5010130E0E01E0749F44427552784E0888322E08F
:142CE40003E00E94A80908C041E050E08AE0888322E009E02D
:142CF8000E94A80900270E940C0BC9C0809137039091380365
:142D0C008130E0E09E0791F58AE0888322E009E00E943809D4
:142D200084E0888322E003E00E9438094030450781F40E9495
:142D34003A088BE09AE09983888322E005E00E9483070E9488
:142D4800523208EC10E00E94330581E090E090938C0A809398
:142D5C008B0A909336038093350380E290933803809337031A
:142D700000270E940C0BA2C00E942006A02E6A2D77276C36A0
:142D8400E0E07E0779F06C36E0E07E070CF481C06237E0E00C
:142D98007E0741F16437E0E07E0709F444C077C0222423BE31
:142DAC0080E2888322270AE00E945D0780E2888322270BE0CC
:142DC0000E945D074130E0E05E0709F064C08AE0888322E0CF
:142DD40009E00E94380984E0888322E003E00E94A80944270D
:142DE800552755C0222423BE80E2888322270AE00E945D0779
:142DFC0080E2888322270BE00E945D074030450709F043C064
:142E100084E0888322E003E00E9438098AE0888322E009E017
:142E24000E94A80941E050E034C0222423BE8AE0888322E064
:142E380009E00E94380984E0888322E003E00E943809403013
:142E4C00450781F40E943A088BE09AE09983888322E005E0DA
:142E60000E9483070E94523208EC10E00E94330581E090E07D
:142E740090938C0A80938B0A909336038093350380E29093BD
:142E880038038093370300270E940C0B13C036CF81E090E025
:142E9C0090938C0A80938B0A909336038093350380E2909395
:142EB00038038093370300270E940C0B22960C94BC390E94B7
:142EC400DC3922974427552789E09AE09983888322270027CB
:142ED8000E9483072091810A3091820A2F5F3F4F206300276B
:142EEC000E942B072AE300270E942B0783E09AE099838883F2
:142F000021E001E00E9483078DEF99E09983888321E007E0AB
:142F14000E94830787EF99E09983888322E001E00E94830758
:142F280082EF99E09983888323E000270E9483078DEE99E03A
:142F3C009983888323E003E00E9483078CE39AE09983888338
:142F500023E007E00E94830788EE99E09983888323E00AE054
:142F64000E94830782E0888323E001E00E94A80981C32227FC
:142F780002E00E943F070027112776DA2091810A3091820A43
:142F8C0002E311E00E94A0398DE393E0F801E80FF91F8081F4
:142FA00091818230E0E09E0709F45CC021E004E00E943F070E
:142FB4002091810A3091820A02E311E00E94A0398FE594E047
:142FC800F801E80FF91F0081118124E630E00E946A399801E2
:142FDC00206301E00E942B072091810A3091820A02E311E04A
:142FF0000E94A0398FE594E0F801E80FF91F008111812AE045
:1430040030E00E946A392AE030E00E9466399801206301E00B
:143018000E942B072091810A3091820A02E311E00E94A039F6
:14302C008FE594E0F801E80FF91F008111812AE030E00E94D1
:1430400066399801206301E00E942B0720E201E00E942B0755
:1430540021EA01E00E942B0726EE01E00E942B0722E004E0F9
:143068000E943F072091810A3091820A02E311E00E94A03992
:14307C008DE393E0F801E80FF91F6081718160306707F1F0A3
:143090006130E0E07E0799F16230E0E07E0709F46EC1633036
:1430A400E0E07E0709F482C16430E0E07E0709F48EC16530D9
:1430B800E0E07E0709F4A2C16630E0E07E0709F4B6C1CDC182
:1430CC0081EE99E09983888321E009E00E94830780ED99E0E5
:1430E0009983888322E004E00E94830786E49AE09983888398
:1430F40022E004E00E948307B4C18FEC99E09983888321E025
:1431080009E00E94830721EA01E00E942B0726EE01E00E9447
:14311C002B072091810A3091820A02E311E00E94A03987E428
:1431300094E0F801E80FF91F6081718182E190E0861797072E
:1431440008F52AE030E08B0101501040169507950F5F1F4F10
:143158000E9486399801206302E00E942B072AE030E08B018A
:14316C0001501040169507950F5F1F4F0E9484399801206310
:1431800002E00E942B070FC09B0121503040369527952F5F24
:143194003F4F206302E00E942B0720E202E00E942B072AE39B
:1431A80002E00E942B0720E202E00E942B0760FF15C02AEC5B
:1431BC0039E002E00E94CD072091810A3091820A02E311E02F
:1431D0000E94A03983E594E0F801E80FF91F6081718114C0E5
:1431E40025EC39E002E00E94CD072091810A3091820A02E3E7
:1431F80011E00E94A0398DE594E0F801E80FF91F6081718196
:14320C0024E630E08B010E948639C8018063888321E009E006
:143220000E945D072AE030E08B010E9486392AE030E00E94D1
:1432340084399801206301E00E942B072AE030E08B010E94B0
:1432480084399801206301E00E942B0720E201E00E942B072D
:14325C0021EA01E00E942B0726EE01E00E942B0722E008E0EB
:143270000E943F072091810A3091820A02E311E00E94A03988
:143284008BE494E0F801E80FF91F6081718120E13EE08B01CD
:143298000E948639B8012AE030E00E9486399801206302E08F
:1432AC000E942B072AE030E08B010E9484399801206302E037
:1432C0000E942B072AE302E00E942B072091810A3091820ADA
:1432D40002E311E00E94A0398BE494E0F801E80FF91F6081C9
:1432E80071812CE330E08B010E9486392CE330E00E94843956
:1432FC00B8012AE030E00E9486399801206302E00E942B07B8
:143310002AE030E08B010E9484399801206302E00E942B07D2
:143324002AE302E00E942B072091810A3091820A02E311E073
:143338000E94A0398BE494E0F801E80FF91F608171812CE339
:14334C0030E08B010E948439B8012AE030E00E9486399801A5
:14336000206302E00E942B072AE030E08B010E948439980182
:14337400206302E00E942B0774C081EE99E09983888321E0C8
:1433880009E00E94830780ED99E09983888322E004E00E9487
:14339C00830781E49AE09983888322E004E00E9483075BC060
:1433B00080ED99E09983888322E004E00E9483078CE39AE001
:1433C4009983888322E004E00E9483074AC081EE99E09983AE
:1433D800888321E009E00E94830780ED99E09983888322E0B1
:1433EC0004E00E94830787E39AE09983888322E004E00E942A
:14340000830731C081EE99E09983888321E009E00E94830718
:1434140080ED99E09983888322E004E00E94830782E39AE0A6
:143428009983888322E004E00E94830718C081EE99E099837B
:14343C00888321E009E00E94830780ED99E09983888322E04C
:1434500004E00E9483078CE39AE09983888322E004E00E94C0
:1434640083070E942006602F0536F9F482E0888323E001E0FA
:143478000E94380985E0888323E004E00E94380989E08883AF
:14348C0023E008E00E9438098CE0888323E00BE00E94380916
:1434A00081E090E090938C0A80938B0AE6C06C36D1F5413067
:1434B400E0E05E0749F04230E0E05E07A1F04330E0E05E07E6
:1434C800F9F0D6C085E0888323E004E00E94380982E08883CA
:1434DC0023E001E00E94A80944275527C7C089E0888323E0C0
:1434F00008E00E94380985E0888323E004E00E94A80941E032
:1435040050E0B8C08CE0888323E00BE00E94380989E088834F
:1435180023E008E00E94A80942E050E0A9C06237C9F54030DF
:14352C00450749F04130E0E05E07A1F04230E0E05E07F9F05F
:143540009BC085E0888323E004E00E94A80982E0888323E002
:1435540001E00E94380941E050E08CC089E0888323E008E0A3
:143568000E94A80985E0888323E004E00E94380942E050E070
:14357C007DC08CE0888323E00BE00E94A80989E0888323E0CF
:1435900008E00E94380943E050E06EC0643709F04AC04030CD
:1435A400450769F04130E0E05E07B1F04230E0E05E07C9F0E7
:1435B8004330E0E05E0721F15BC082E0888323E001E00E9447
:1435CC00380984E090E090938C0A80938B0A4FC00091810A4A
:1435E0001091820A0E94233647C080ED99E09983888322E099
:1435F40004E00E9483070091810A1091820A0E94853638C015
:143608008CE0888323E00BE00E94380981E090E09093860AE2
:14361C008093850A83E09093800A80937F0A87E090938C0A2C
:1436300080938B0A22C06337F9F482E0888323E001E00E9482
:14364400380985E0888323E004E00E94380989E0888323E080
:1436580008E00E9438098CE0888323E00BE00E94380984E0E7
:14366C0090E090938C0A80938B0A01C07ECC22960C94E139FC
:143680000E945A390E94C7395901229782EA90E06C0184EC93
:143694007C0166277727442755278C859D858330E0E09E0748
:1436A80030F5C88221E002E00E945D0797012F5F3F4F01E021
:1436BC000E942B07C88222E002E00E945D0797012E5F3F4F3F
:1436D00002E00E942B07C88223E002E00E945D0797012D5FD7
:1436E4003F4F03E00E942B07002411241D860C868FC08C859F
:1436F8009D858330E0E09E0750F18630E0E09E0730F5C882B9
:14370C0021E002E00E945D0797012C5F3F4F01E00E942B075A
:14372000C88222E002E00E945D0797012B5F3F4F02E00E942D
:143734002B07C88223E002E00E945D0797012A5F3F4F03E088
:143748000E942B0781E090E09D878C875FC08C859D85863089
:14375C00E0E09E0750F18930E0E09E0730F5C88221E002E043
:143770000E945D079701295F3F4F01E00E942B07C88222E090
:1437840002E00E945D079701285F3F4F02E00E942B07C8829C
:1437980023E002E00E945D079701275F3F4F03E00E942B07CF
:1437AC0082E090E09D878C872FC08C859D858930E0E09E07C0
:1437C00048F18C30E0E09E0728F5C88221E002E00E945D074B
:1437D4009701265F3F4F01E00E942B07C88222E002E00E94B1
:1437E8005D079701255F3F4F02E00E942B07C88223E002E0DA
:1437FC000E945D079701245F3F4F03E00E942B0783E090E080
:143810009D878C8701E210E02C853D850E94A039A80161E0C2
:1438240070E0C5C06130E0E07E0771F4FA01EE0FFF1FEA0D73
:14383800FB1D8081918180638883262F03E00E945D0710C055
:14384C00CA010196AC01FC01EE0FFF1FEA0DFB1D808191811F
:1438600080638883262F03E00E945D07CA010196AC01FC011C
:14387400EE0FFF1FEA0DFB1D208131812063062F0E942B0737
:1438880022EC39E0062F0E94CD07CA010196AC01FC01EE0F51
:14389C00FF1FEA0DFB1D208131812063062F0E942B07CA0141
:1438B0000196AC01FC01EE0FFF1FEA0DFB1D208131812063C3
:1438C400062F0E942B07CA010196AC01FC01EE0FFF1FEA0DC9
:1438D800FB1D8081918180638883262F07E00E945D07CA01B6
:1438EC000196AC01FC01EE0FFF1FEA0DFB1D20813181206387
:14390000062F0E942B0722EC39E0062F0E94CD07CA01019676
:14391400AC01FC01EE0FFF1FEA0DFB1D208131812063062FC0
:143928000E942B07CA010196AC01FC01EE0FFF1FEA0DFB1D81
:14393C00208131812063062F0E942B0780EC99E0998388838C
:14395000262F0AE00E948307CA010196AC01FC01EE0FFF1FD1
:14396400EA0DFB1D208131812063062F0E942B07CA010196FF
:14397800AC01FC01EE0FFF1FEA0DFB1D208131812063062F5C
:14398C000E942B07CA0101966C01AC01FC01EE0FFF1FEA0DC8
:1439A000FB1D208131812063062F0E942B076F5F7F4F83E01D
:1439B40090E08617970708F035CF22960E94BC3924960895B2
:1439C8000E945A390E94C739CE84DF842BE030E00A851B8515
:1439DC000E94863958012BE030E00A851B850E948439B801BB
:1439F00023E030E085010E94843978010030010751F0C70111
:143A04000130E0E01E0741F00230E0E01E0739F008C041E03E
:143A180050E005C042E050E002C043E050E02BE030E00C8592
:143A2C001D850E94863923E030E00E9486397801003001075E
:143A400071F0C7010130E0E01E07A1F00230E0E01E0701F199
:143A54000330E0E01E0769F135C080E290E00A841B84801563
:143A6800910570F59601850107DE2AC081E490E00A841B8461
:143A7C008015910528F0C0018132E0E09E07F0F49601850119
:143A9000F7DD1AC08A859B858234E0E09E0738F082E690E02A
:143AA4000A841B848015910568F496018501E6DD09C08A85A2
:143AB8009B858336E0E09E0718F496018501DCDD4130E0E0A9
:143ACC005E0749F403E010E00E94F40804E010E00E94F40861
:143AE00010C04230E0E05E0721F04330E0E05E0741F4002766
:143AF40011270E94F40807E010E00E94F4086030670729F458
:143B0800242F03E00E943F0731C06230E0E07E0729F4242F53
:143B1C0005E00E943F0728C06430E0E07E0729F4242F07E0B0
:143B30000E943F071FC06630E0E07E0729F4242F09E00E94E4
:143B44003F0716C06830E0E07E0751F4242F0AE00E943F070A
:143B580020EC39E0042F0E94CD0708C06930E0E07E0721F4D0
:143B6C00242F0BE00E943F070E94BC39249608950E94023A53
:143B8000EF97EF97EF97EF972C97442755276627772789E0DB
:143B940098E0FE01329606E011E0FA93EA939A938A930E9411
:143BA8001A3A89E09AE099838883222700270E94830720915E
:143BBC00810A3091820A2F5F3F4F206300270E942B072AE376
:143BD00000270E942B078AEC99E099838883222704E00E9401
:143BE400830785EC99E099838883222707E00E9483078BEB60
:143BF80099E09983888322270AE00E94830786EB99E09983B4
:143C0C00888321E000270E94830787E19AE09983888322E03A
:143C200000270E94830788EE99E09983888323E000270E945B
:143C34008307AA24BB2420C01501220C331C21012091810A74
:143C48003091820A02E311E00E94A0398FE393E01801280E96
:143C5C00391EF201E20DF31D20803180CE010296F201E80F69
:143C7000F91F31822082C50101965C01C5018438E0E09E0732
:143C8400D8F29E012E5F3F4F00271127F7DC4427552721E08E
:143C980003E00E943F0703E010E00E94F4082BC20E94200627
:143CAC00A02E053609F582E0888321E001E00E94380982E069
:143CC000888322E001E00E94380982E0888323E001E00E942C
:143CD4003809002711270E94F40804E010E00E94F40883E0C9
:143CE80090E090938C0A80938B0A06C28A2D853709F046C0BD
:143CFC004538E0E05E0779F482E0888321E001E00E94A80903
:143D100082E0888322E001E00E94380944E850E0EEC14638E3
:143D2400E0E05E0779F482E0888322E001E00E94A80982E0F4
:143D3800888323E001E00E94380945E850E0DBC18AE090E0D2
:143D4C008417950708F0D5C183E88417950708F4D0C1BA01B4
:143D60002BE030E08A010E9486399801215030400BE010E0F3
:143D74000E94A039A801CE010296998388839B0121DEBBC172
:143D88008A2D843609F040C04438E0E05E0779F482E0888342
:143D9C0021E001E00E94380982E0888322E001E00E94A809AB
:143DB00045E850E0A4C14538E0E05E0779F482E0888322E0BF
:143DC40001E00E94380982E0888323E001E00E94A80946E855
:143DD80050E091C14937E0E05E0708F08CC1BA012BE030E095
:143DEC008A010E94863998012F5F3F4F0BE010E00E94A039CC
:143E0000A801CE010296998388839B01DDDD77C18A2D8C3670
:143E140009F049C0BA012BE030E08A010E94843900300107A0
:143E280089F482E0888321E001E00E94A809002711270E9466
:143E3C00F40804E010E00E94F40844E850E059C12BE030E073
:143E50008A010E9484396801C6010230E0E01E0761F00430A8
:143E6400E0E01E0741F00630E0E01E0721F00830E0E01E07EB
:143E780051F442505040CE010296998388839B018A019EDD9F
:143E8C0038C14030450709F434C141505040CE0102969983D7
:143EA00088839B018A0190DD2AC18A2D823741F583E890E003
:143EB40084179507A0F482E0888321E001E00E94380982E09B
:143EC800888322E001E00E94380982E0888323E001E00E9422
:143EDC003809AB0107C04338E0E05E0718F4BA014F5F5F4F5B
:143EF000CE010296998388839B018A0165DDFFC08A2D843796
:143F040009F098C04438E0E05E0709F03EC082E0888321E052
:143F180001E00E94380982E0888322E001E00E94380982E03C
:143F2C00888323E001E00E943809002711270E94F40804E0CE
:143F400010E00E94F4080E943A088AEA99E09983888322E0E5
:143F540005E00E94830781E090E09093840A8093830A84E0C2
:143F68009093800A80937F0A86E090938C0A80938B0A9E0196
:143F7C002E5F3F4F0091810A1091820A0E948633B9C045387C
:143F9000E0E05E0709F582E0888321E001E00E94380982E066
:143FA400888322E001E00E94380982E0888323E001E00E9445
:143FB8003809002711270E94F40804E010E00E94F40883E0E2
:143FCC0090E090938C0A80938B0A94C04638E0E05E0709F020
:143FE0008EC082E0888321E001E00E94380982E0888322E0DE
:143FF40001E00E94380982E0888323E001E00E94380900279A
:1440080011270E94F40804E010E00E94F40881E090E0909368
:14401C00860A8093850A84E09093800A80937F0A87E0909327
:144030008C0A80938B0A64C08A2D803399F0813389F0823345
:1440440079F0833369F0843359F0853349F0863339F0873363
:1440580029F0883319F0893309F04DC04438E0E05E0708F01C
:14406C0048C02BE030E08A010E94863923E030E00E948439BF
:144080000030010731F42A2D206301E00E942B0705C02A2D24
:14409400206302E00E942B07CE010296FA01EE0FFF1FE80F6B
:1440A800F91F8A2D9927C09791838083BA016338E0E07E076C
:1440BC0050F44F5F5F4FCE010296998388839B018A017CDC43
:1440D00016C04338E0E05E0791F482E0888321E001E00E94F0
:1440E400A809002711270E94F40804E010E00E94F40844E87C
:1440F80050E063E670E0D4CDEF96EF96EF96EF962C960C94D4
:14410C000B3A0E94E6392297442755278DE999E099838883E3
:14412000222704E00E94830784E999E09983888321E004E040
:144134000E9483078BE899E09983888322E004E00E94830726
:1441480022273327002711270E940F12B8010030010759F460
:14415C0081EA8883222703E00E945D0721EC00270E942B079F
:144170000AC081EA8883222703E00E945D072CEC00270E94E8
:144184002B07442755278AE08883222705E00E94A809DCC07C
:144198000E942006A02E053739F54130E0E05E0729F04230F2
:1441AC00E0E05E0781F0CEC088E0888321E005E00E9438099F
:1441C0008AE08883222705E00E94A80944275527BFC088E027
:1441D400888322E005E00E94380988E0888321E005E00E9407
:1441E800A80941E050E0B0C08A2D843631F54030450729F0E5
:1441FC004130E0E05E0781F0A5C08AE08883222705E00E94FE
:14421000380988E0888321E005E00E94A80941E050E096C006
:1442240088E0888321E005E00E94380988E0888322E005E0F0
:144238000E94A80942E050E087C08A2D853639F5403045072A
:14424C0049F04130E0E05E0761F04230E0E05E0779F014C06A
:144260008AE08883222705E00E9438090DC088E0888321E083
:1442740005E00E94380906C088E0888322E005E00E9438096B
:1442880081E090E090938C0A80938B0A5EC08A2D843709F067
:14429C0059C04030450749F04130E0E05E0771F14230E0E0D6
:1442B0005E07B1F14DC06030670719F461E070E002C06627FB
:1442C40077277983688322273327002711270E94F811603024
:1442D800670759F481EA8883222703E00E945D0721EC00273B
:1442EC000E942B072FC081EA8883222703E00E945D072CEC3B
:1443000000270E942B0724C088E090E090938C0A80938B0A91
:14431400888321E005E00E94380919C085E090E09093800A66
:1443280080937F0A87E090938C0A80938B0A222433243092BE
:14433C00860A2092850A88E0888322E005E00E94380901C09E
:1443500023CF22960C94ED3922972090830A3090840A222063
:1443640059F4332049F48CE799E09983888321E004E00E94CE
:14437800830721C08091830A9091840A8130E0E09E0749F426
:14438C008DE699E09983888321E004E00E94830710C0809118
:1443A000830A9091840A8230E0E09E0741F48EE599E0998379
:1443B400888321E004E00E94830704E610E00E943305209075
:1443C8007F0A3090800A30928C0A20928B0A229608950E9478
:1443DC00E639229741E050E085E599E099838883222702E06F
:1443F0000E94830780E599E09983888322E002E00E94830778
:1444040087E19AE09983888322E008E00E9483078AE0888310
:1444180022E009E00E94A80978C00E942006A02E6A2D77274F
:14442C006C36E0E07E07A1F08CE690E08617970734F0653628
:14444000E0E07E0709F450C064C06237E0E07E07C9F06437C0
:14445400E0E07E0741F15BC04130E0E05E0709F056C08AE0B3
:14446800888322E009E00E94380984E0888322E003E00E9471
:14447C00A8094427552747C04030450709F043C084E0888366
:1444900022E003E00E9438098AE0888322E009E00E94A8099D
:1444A40041E050E034C04030450769F484E0888322E003E052
:1444B8000E94380989E090E090938C0A80938B0A25C08AE084
:1444CC00888322E009E00E94380920907F0A3090800A3092BE
:1444E0008C0A20928B0A16C084E0888322E003E00E943809DE
:1444F4008AE0888322E009E00E94380920907F0A3090800AEE
:1445080030928C0A20928B0A01C087CF22960C94ED390E94C9
:14451C00E639EF972397442755278FE099E0FE01B6960CE125
:1445300010E0FA93EA939A938A930E941A3A06E00E948B38F2
:14454400B80182E090E099878887222433243B862A861B017F
:14455800369427943694279436942794369427943D862C86C6
:14456C00CB018F7090709F878E8705E00E948B38B801CB0166
:1445800096958795969587959695879596958795817090701A
:14459400998B888BCB018F7090709B8B8A8B04E00E948B388D
:1445A8005801B501CB01969587959695879596958795969524
:1445BC008795837090709D8B8C8BCB018F7090709F8B8E8B8F
:1445D00002E00E948B385801B501CB01969587959695879527
:1445E400969587959695879583709070998F888FCB018F7038
:1445F80090709B8F8A8F01E00E948B385801B501CB01969520
:14460C008795969587959695879596958795877090709D8F86
:144620008C8FCB018F7090709F8F8E8F00270E948B38580170
:14463400B501CB0196958795969587959695879596958795D4
:144648008770907099A388A3CB018F7090709BA38AA3222781
:14465C0001E00E943F076627772720C0CE010896FB01EE0F10
:14467000FF1FE80FF91F20813181206300270E942B0720E236
:1446840000270E942B076330E0E07E0721F06530E0E07E0764
:1446980029F42DE439E000270E94CD076F5F7F4F6830E0E036
:1446AC007E07E0F221E002E00E943F0768E070E020C0CE0191
:1446C0000896FB01EE0FFF1FE80FF91F20813181206301E06B
:1446D4000E942B0720E200270E942B076930E0E07E0721F012
:1446E8006B30E0E07E0729F422EC39E000270E94CD076F5F2F
:1446FC007F4F6E30E0E07E07E0F286EB99E09983888322E014
:1447100003E00E94830787E19AE09983888322E008E00E94F1
:14472400830744275527222701E00E943F0703E010E00E9489
:14473800F40884C203E010E00E9425120E942006A02E6A2D52
:14474C00053771F58DE090E084179507B8F485E0888322E085
:1447600004E00E9438098AE0888322E009E00E94380921E03A
:1447740002E00E943F0703E010E00E94F40848E050E05EC27E
:1447880087E090E08417950708F058C24E30E0E05E0708F062
:14479C0053C2222701E00E943F07442755274CC2643619F545
:1447B00087E090E08417950788F44E30E0E05E0768F4002745
:1447C40011270E94F40885E0888322E004E00E94A8094EE034
:1447D80050E034C287E090E08417950708F42EC221E002E0CA
:1447EC000E943F0748E050E027C26C3609F043C088E090E01A
:144800008417950790F04030450779F0415050402227CE018F
:144814008696FA01EE0FFF1FE80FF91F008111810E943F0754
:144828000DC288E090E08417950798F44E30E0E05E0778F403
:14483C004150504021E0CE018696FA01EE0FFF1FE80FF91F36
:14485000008111810E943F07F5C14F30E0E05E0709F0F0C155
:144864008AE0888322E009E00E94380985E0888322E004E0A7
:144878000E94A8094EE050E0E1C1623709F03AC04730E0E016
:14488C005E0778F44F5F5F4F2227CE018696FA01EE0FFF1FA1
:1448A000E80FF91F008111810E943F07CBC14D30E0E05E07CC
:1448B40078F44F5F5F4F21E0CE018696FA01EE0FFF1FE80F2F
:1448C800F91F008111810E943F07B8C14E30E0E05E0709F0B4
:1448DC00B3C185E0888322E004E00E9438098AE0888322E0A4
:1448F00009E00E94A8094FE050E0A4C16536B9F4002711270D
:144904000E94F40885E0888322E004E00E9438098AE0888353
:1449180022E009E00E94380981E090E090938C0A80938B0A8B
:14492C008CC1643709F085C04E30E0E05E0709F064C028A1C8
:1449400039A100E110E00E94A03918014AA05BA0240C351CBE
:144954003F822E822C8D3D8D00E110E00E94A03918014E8C1C
:144968005F8C240C351C3D822C82288D398D00E110E00E9474
:14497C00A03918014A8C5B8C240C351C3B822A822C893D8913
:1449900000E110E00E94A03918014E885F88240C351C3982B5
:1449A40028822889398900E110E00E94A03998012A883B8888
:1449B800220D331D2C843D8400E110E02F933F9391010E9462
:1449CC00A03918013F912F914E845F84240C351C81010E94FB
:1449E0009F38222433243092840A2092830A88E090E09093C5
:1449F400800A80937F0A86E090938C0A80938B0A20C14F3062
:144A0800E0E05E0709F01AC1002711270E94F40885E0888334
:144A1C0022E004E00E9438098AE0888322E009E00E9438097A
:144A300081E090E090938C0A80938B0A04C1603399F06133CB
:144A440089F0623379F0633369F0643359F0653349F06633AE
:144A580039F0673329F0683319F0693309F0EEC04E30E0E049
:144A6C005E0708F0E9C0262F206300270E942B0720E2002734
:144A80000E942B0777276033E0E07E0709F42EC06133E0E099
:144A94007E0709F435C06233E0E07E0709F43CC06333E0E06E
:144AA8007E0709F443C06433E0E07E0709F44AC06533E0E03A
:144ABC007E0709F451C06633E0E07E0709F458C06733E0E006
:144AD0007E0709F45FC06833E0E07E0709F466C06933E0E0D2
:144AE4007E0709F46DC077C0CE010896FA01EE0FFF1FE80F5E
:144AF800F91F22243324318220826BC0CE010896FA01EE0F10
:144B0C00FF1FE80FF91F81E090E0918380835FC0CE010896F4
:144B2000FA01EE0FFF1FE80FF91F82E090E09183808353C060
:144B3400CE010896FA01EE0FFF1FE80FF91F83E090E09183F4
:144B4800808347C0CE010896FA01EE0FFF1FE80FF91F84E059
:144B5C0090E0918380833BC0CE010896FA01EE0FFF1FE80F49
:144B7000F91F85E090E0918380832FC0CE010896FA01EE0FD9
:144B8400FF1FE80FF91F86E090E09183808323C0CE010896B3
:144B9800FA01EE0FFF1FE80FF91F87E090E09183808317C01F
:144BAC00CE010896FA01EE0FFF1FE80FF91F88E090E0918377
:144BC00080830BC0CE010896FA01EE0FFF1FE80FF91F89E018
:144BD40090E0918380834330E0E05E0721F04530E0E05E0703
:144BE80031F42DE439E000270E94CD070DC04930E0E05E0762
:144BFC0021F04B30E0E05E0729F422EC39E000270E94CD0713
:144C10004F5F5F4F4830E0E05E0731F421E00EA91FA90E9450
:144C24003F070EC04E30E0E05E0751F4002711270E94F40883
:144C380085E0888322E004E00E94A8097BCDEF9623960C9499
:144C4C00ED3922972090850A3090860A222081F4332071F477
:144C60008CE399E09983888321E004E00E94830781B5886101
:144C740081BD8EE081BDFFCF8091850A9091860A8130E0E0B2
:144C88009E0771F48BE299E09983888321E004E00E948307F0
:144C9C000091810A1091820A0E94713402E310E00E943305C5
:144CB00020907F0A3090800A30928C0A20928B0A2296089579
:144CC4000E943A0880918B0A90918C0A8130E0E09E0719F478
:144CD8000E94411252C080918B0A90918C0A8230E0E09E074D
:144CEC0019F40E94181647C080918B0A90918C0A8330E0E000
:144D00009E0719F40E9461173CC080918B0A90918C0A8430C6
:144D1400E0E09E0719F40E94BE1D31C080918B0A90918C0A4E
:144D28008530E0E09E0711F4EED927C080918B0A90918C0A4D
:144D3C008630E0E09E0711F409DB1DC080918B0A90918C0A25
:144D50008730E0E09E0711F440DB13C080918B0A90918C0AE3
:144D64008830E0E09E0711F4D6DB09C080918B0A90918C0A42
:144D78008930E0E09E0709F466DF08950A921A922A923A925A
:144D8C004A925A926A927A928A929A920A931A932A933A9327
:144DA0008A939A93AA93BA93EA93FA930FB60A924A935A93F6
:144DB40022974427552789B78B7F89BF87B78F7B87BF80911A
:144DC800940A9091950A01969093950A8093940A88E592E090
:144DDC002090940A3090950A8215930508F0EFC222243324A1
:144DF0003092950A2092940A20903D0330903E0339822882A8
:144E040025E830E001E010E00E94F81120903D0330903E0310
:144E1800C1018130E0E09E0729F08330E0E09E0709F0A1C023
:144E2C0020904704309048043982288226E830E001E010E017
:144E40000E94F8112090490430904A04232C3324398228829D
:144E540027E830E001E010E00E94F8118091490490914A04E2
:144E680090709983888328E830E001E010E00E94F8112090C3
:144E7C004B0430904C04232C33243982288229E830E001E0B6
:144E900010E00E94F81180914B0490914C049070998388837B
:144EA4002AE830E001E010E00E94F81120904D0430904E0449
:144EB800232C3324398228822BE830E001E010E00E94F8113C
:144ECC0080914D0490914E049070998388832CE830E001E0D1
:144EE00010E00E94F8112090510430905204398228822DE88E
:144EF40030E001E010E00E94F8112090530430905404232CB0
:144F08003324398228822EE830E001E010E00E94F811809126
:144F1C005304909154049070998388832FE830E001E010E092
:144F30000E94F81120905D0430905E04232C332427FC309402
:144F44003982288220E930E001E010E00E94F81180915D04ED
:144F580090915E0490709983888321E930E001E010E00E940E
:144F6C00F81120906F04309070043982288225E830E002E06D
:144F800010E00E94F81180916F04909170048130E0E09E0753
:144F940029F08330E0E09E0709F0A1C02090790530907A0511
:144FA8003982288226E830E002E010E00E94F81120907B05C5
:144FBC0030907C05232C33243982288227E830E002E010E0A4
:144FD0000E94F81180917B0590917C0590709983888328E8B8
:144FE40030E002E010E00E94F81120907D0530907E05232C68
:144FF80033243982288229E830E002E010E00E94F81180913A
:14500C007D0590917E059070998388832AE830E002E010E04F
:145020000E94F81120907F0530908005232C3324398228824D
:145034002BE830E002E010E00E94F81180917F05909180058D
:145048009070998388832CE830E002E010E00E94F8112090DC
:14505C00830530908405398228822DE830E002E010E00E9471
:14507000F8112090850530908605232C3324398228822EE87D
:1450840030E002E010E00E94F8118091850590918605907044
:14509800998388832FE830E002E010E00E94F81120908F05F5
:1450AC0030909005232C332427FC30943982288220E930E090
:1450C00002E010E00E94F81180918F059091900590709983E8
:1450D400888321E930E002E010E00E94F8112090A105309010
:1450E800A2053982288225E830E003E010E00E94F8118091FC
:1450FC00A1059091A2058130E0E09E0729F08330E0E09E07EB
:1451100009F0A1C02090AB063090AC063982288226E830E0DB
:1451240003E010E00E94F8112090AD063090AE06232C33247C
:145138003982288227E830E003E010E00E94F8118091AD069D
:14514C009091AE0690709983888328E830E003E010E00E94BE
:14516000F8112090AF063090B006232C33243982288229E83B
:1451740030E003E010E00E94F8118091AF069091B0069070FC
:14518800998388832AE830E003E010E00E94F8112090B106E5
:14519C003090B206232C3324398228822BE830E003E010E086
:1451B0000E94F8118091B1069091B2069070998388832CE864
:1451C40030E003E010E00E94F8112090B5063090B6063982A7
:1451D80028822DE830E003E010E00E94F8112090B706309049
:1451EC00B806232C3324398228822EE830E003E010E00E944B
:14520000F8118091B7069091B8069070998388832FE830E096
:1452140003E010E00E94F8112090C1063090C206232C332463
:1452280027FC30943982288220E930E003E010E00E94F8118F
:14523C008091C1069091C20690709983888321E930E003E079
:1452500010E00E94F8112090D3063090D4063982288225E81A
:1452640030E004E010E00E94F8118091D3069091D406813011
:14527800E0E09E0729F08330E0E09E0709F0A1C02090DD079E
:14528C003090DE073982288226E830E004E010E00E94F81167
:1452A0002090DF073090E007232C33243982288227E830E093
:1452B40004E010E00E94F8118091DF079091E007907099834C
:1452C800888328E830E004E010E00E94F8112090E1073090D0
:1452DC00E207232C33243982288229E830E004E010E00E9433
:1452F000F8118091E1079091E2079070998388832AE830E055
:1453040004E010E00E94F8112090E3073090E407232C33242B
:14531800398228822BE830E004E010E00E94F8118091E3077F
:14532C009091E4079070998388832CE830E004E010E00E94A0
:14534000F8112090E7073090E807398228822DE830E004E095
:1453540010E00E94F8112090E9073090EA07232C33243982F8
:1453680028822EE830E004E010E00E94F8118091E9079091C0
:14537C00EA079070998388832FE830E004E010E00E94F8115F
:145390002090F3073090F407232C332427FC309439822882B2
:1453A40020E930E004E010E00E94F8118091F3079091F40736
:1453B80090709983888321E930E004E010E00E94F811809110
:1453CC003D0390913E038130E0E09E0709F060C140914704DF
:1453E000509148042090510430905204222009F044C03320DF
:1453F40009F041C080914B0490914C04019690934C048093BD
:145408004B042090490430904A048215930568F0CA0101964D
:14541C00909348048093470481E090E09093520480935104FD
:1454300035C140FF01C032C180914F049091500401969093EC
:14544400500480934F0420904D0430904E042816390608F012
:1454580021C180915304909154040196909354048093530401
:14546C00222433243092500420924F0411C122243324309243
:1454800052042092510430924C0420924B0440FFAAC09A0164
:1454940021503040369527950BE010E00E94A039A8018FE32B
:1454A80093E0FA013296EE0FFF1FE80FF91F208131810AE053
:1454BC0010E00E94A03998018FE393E0FA013396EE0FFF1F14
:1454D000E80FF91F20803180220D331D0CE310E00E94A0398F
:1454E40018018FE393E0FA01EE0FFF1FE80FF91F208131813E
:1454F8000AE010E00E94A03998018FE393E0FA013196EE0F0E
:14550C00FF1FE80FF91F40805180240D351D00E11EE00E94C9
:14552000A0392801420C531C50924A0440924904442049F4C8
:14553400552039F484E090E090933E0380933D03ABC08FE359
:1455480093E0FA013996EE0FFF1FE80FF91F208131810AE0AB
:14555C0010E00E94A03918018FE393E0FA013896EE0FFF1FEE
:14557000E80FF91F2081318104E610E00E94A0392801420CF9
:14558400531C8FE393E0FA013A96EE0FFF1FE80FF91F20802A
:145598003180420C531C509254044092530420905F0430905B
:1455AC0060049201221933090091490410914A040E9486394F
:1455C00010934E0400934D04222433243092500420924F0446
:1455D400209053043090540430925E0420925D045BC09A01B7
:1455E80021503040369527950BE010E00E94A039A8014C5F9D
:1455FC005F4F8FE393E0FA013296EE0FFF1FE80FF91F20817A
:1456100031810AE010E00E94A03998018FE393E0FA0133963D
:14562400EE0FFF1FE80FF91F20803180220D331D0CE310E099
:145638000E94A03918018FE393E0FA01EE0FFF1FE80FF91FC0
:14564C00208131810AE010E00E94A03998018FE393E0FA0129
:145660003196EE0FFF1FE80FF91F40805180240D351D00E150
:145674001EE00E94A0392801420C531C50924A044092490474
:14568800442041F4552031F484E090E090933E0380933D0350
:14569C0080916F04909170048130E0E09E0709F060C14091E0
:1456B000790550917A052090830530908405222009F044C048
:1456C400332009F041C080917D0590917E05019690937E0511
:1456D80080937D0520907B0530907C058215930568F0CA0166
:1456EC00019690937A058093790581E090E090938405809350
:14570000830535C140FF01C032C1809181059091820501964E
:14571400909382058093810520907F05309080052816390648
:1457280008F021C180918505909186050196909386058093F4
:14573C00850522243324309282052092810511C12224332442
:14575000309284052092830530927E0520927D0540FFAAC09E
:145764009A0121503040369527950BE010E00E94A039A8012F
:1457780081E794E0FA013296EE0FFF1FE80FF91F2081318101
:14578C000AE010E00E94A039980181E794E0FA013396EE0F7E
:1457A000FF1FE80FF91F20803180220D331D0CE310E00E9477
:1457B400A039180181E794E0FA01EE0FFF1FE80FF91F20814D
:1457C80031810AE010E00E94A039980181E794E0FA0131968F
:1457DC00EE0FFF1FE80FF91F40805180240D351D00E11EE09C
:1457F0000E94A0392801420C531C50927C0540927B0544202B
:1458040049F4552039F484E090E09093700480936F04ABC055
:1458180081E794E0FA013996EE0FFF1FE80FF91F2081318159
:14582C000AE010E00E94A039180181E794E0FA013896EE0F58
:14584000FF1FE80FF91F2081318104E610E00E94A039280156
:14585400420C531C81E794E0FA013A96EE0FFF1FE80FF91FB2
:1458680020803180420C531C5092860540928505209091050F
:14587C003090920592012219330900917B0510917C050E94E2
:1458900086391093800500937F05222433243092820520926E
:1458A400810520908505309086053092900520928F055BC02D
:1458B8009A0121503040369527950BE010E00E94A039A801DA
:1458CC004C5F5F4F81E794E0FA013296EE0FFF1FE80FF91FA6
:1458E000208131810AE010E00E94A039980181E794E0FA019C
:1458F4003396EE0FFF1FE80FF91F20803180220D331D0CE3EE
:1459080010E00E94A039180181E794E0FA01EE0FFF1FE80F1E
:14591C00F91F208131810AE010E00E94A039980181E794E042
:14593000FA013196EE0FFF1FE80FF91F40805180240D351D63
:1459440000E11EE00E94A0392801420C531C50927C054092DA
:145958007B05442041F4552031F484E090E09093700480930A
:14596C006F048091A1059091A2058130E0E09E0709F060C105
:145980004091AB065091AC062090B5063090B606222009F0DC
:1459940044C0332009F041C08091AF069091B0060196909357
:1459A800B0068093AF062090AD063090AE068215930568F00F
:1459BC00CA0101969093AC068093AB0681E090E09093B6062C
:1459D0008093B50635C140FF01C032C18091B3069091B40667
:1459E40001969093B4068093B3062090B1063090B206281652
:1459F800390608F021C18091B7069091B80601969093B8065D
:145A0C008093B706222433243092B4062092B30611C122241A
:145A200033243092B6062092B5063092B0062092AF0640FF12
:145A3400AAC09A0121503040369527950BE010E00E94A0399B
:145A4800A80183EA95E0FA013296EE0FFF1FE80FF91F208131
:145A5C0031810AE010E00E94A039980183EA95E0FA013396F0
:145A7000EE0FFF1FE80FF91F20803180220D331D0CE310E049
:145A84000E94A039180183EA95E0FA01EE0FFF1FE80FF91F73
:145A9800208131810AE010E00E94A039980183EA95E0FA01DC
:145AAC003196EE0FFF1FE80FF91F40805180240D351D00E100
:145AC0001EE00E94A0392801420C531C5092AE064092AD0658
:145AD400442049F4552039F484E090E09093A2058093A10524
:145AE800ABC083EA95E0FA013996EE0FFF1FE80FF91F2081C8
:145AFC0031810AE010E00E94A039180183EA95E0FA013896CB
:145B1000EE0FFF1FE80FF91F2081318104E610E00E94A039AF
:145B24002801420C531C83EA95E0FA013A96EE0FFF1FE80FC8
:145B3800F91F20803180420C531C5092B8064092B706209054
:145B4C00C3063090C4069201221933090091AD061091AE064F
:145B60000E9486391093B2060093B106222433243092B40612
:145B74002092B3062090B7063090B8063092C2062092C106C4
:145B88005BC09A0121503040369527950BE010E00E94A03995
:145B9C00A8014C5F5F4F83EA95E0FA013296EE0FFF1FE80F3C
:145BB000F91F208131810AE010E00E94A039980183EA95E0A6
:145BC400FA013396EE0FFF1FE80FF91F20803180220D331D0F
:145BD8000CE310E00E94A039180183EA95E0FA01EE0FFF1F4E
:145BEC00E80FF91F208131810AE010E00E94A039980183EAE8
:145C000095E0FA013196EE0FFF1FE80FF91F40805180240D6D
:145C1400351D00E11EE00E94A0392801420C531C5092AE0654
:145C28004092AD06442041F4552031F484E090E09093A20512
:145C3C008093A1058091D3069091D4068130E0E09E0709F0A7
:145C500060C14091DD075091DE072090E7073090E807222015
:145C640009F044C0332009F041C08091E1079091E207019648
:145C78009093E2078093E1072090DF073090E00782159305A5
:145C8C0068F0CA0101969093DE078093DD0781E090E0909357
:145CA000E8078093E70735C140FF01C032C18091E5079091F9
:145CB400E60701969093E6078093E5072090E3073090E40704
:145CC8002816390608F021C18091E9079091EA0701969093A4
:145CDC00EA078093E907222433243092E6072092E50711C104
:145CF000222433243092E8072092E7073092E2072092E1076D
:145D040040FFAAC09A0121503040369527950BE010E00E9462
:145D1800A039A80185ED96E0FA013296EE0FFF1FE80FF91F20
:145D2C00208131810AE010E00E94A039980185ED96E0FA013F
:145D40003396EE0FFF1FE80FF91F20803180220D331D0CE39D
:145D540010E00E94A039180185ED96E0FA01EE0FFF1FE80FC2
:145D6800F91F208131810AE010E00E94A039980185ED96E0E6
:145D7C00FA013196EE0FFF1FE80FF91F40805180240D351D13
:145D900000E11EE00E94A0392801420C531C5092E007409224
:145DA400DF07442049F4552039F484E090E09093D4068093DE
:145DB800D306ABC085ED96E0FA013996EE0FFF1FE80FF91FB7
:145DCC00208131810AE010E00E94A039180185ED96E0FA011F
:145DE0003896EE0FFF1FE80FF91F2081318104E610E00E94E8
:145DF400A0392801420C531C85ED96E0FA013A96EE0FFF1F0E
:145E0800E80FF91F20803180420C531C5092EA074092E907D4
:145E1C002090F5073090F6079201221933090091DF071091E7
:145E3000E0070E9486391093E4070093E307222433243092AC
:145E4400E6072092E5072090E9073090EA073092F4072092FF
:145E5800F3075BC09A0121503040369527950BE010E00E94A1
:145E6C00A039A8014C5F5F4F85ED96E0FA013296EE0FFF1F81
:145E8000E80FF91F208131810AE010E00E94A039980185ED4C
:145E940096E0FA013396EE0FFF1FE80FF91F20803180220D16
:145EA800331D0CE310E00E94A039180185ED96E0FA01EE0F43
:145EBC00FF1FE80FF91F208131810AE010E00E94A039980164
:145ED00085ED96E0FA013196EE0FFF1FE80FF91F4080518059
:145EE400240D351D00E11EE00E94A0392801420C531C509205
:145EF800E0074092DF07442041F4552031F484E090E09093CD
:145F0C00D4068093D30687B7806487BF89B7846089BF22962F
:145F20005991499109900FBEF991E991B991A9919991899177
:145F340039912991199109919990899079906990599049908B
:145F4800399029901990099018950E94E63922974427552773
:145F5C004BC18A010E94B10F20903B0330903C0322FE0FC05C
:145F700002E311E09A010E94A0398DE393E0F801E80FF91F46
:145F840082E090E09183808331C102E311E09A010E94A03942
:145F98008FE594E0F801E80FF91F84E591E09183808302E32F
:145FAC0011E09A010E94A0398FE594E0F801E80FF91F8091D9
:145FC0003B0390913C03807F90701C01369427943694279409
:145FD40036942794369427948091390390913A038F73907002
:145FE800880F991F880F991F880F991F880F991F8229932902
:145FFC009183808302E311E09A010E94A0398DE393E0F801B2
:14601000E80FF91F808191818130E0E09E0709F083C066277B
:14602400772736C08A010E94B10F02E311E09A010E94A039FB
:1460380018018FE594E0280E391E210180913B0390913C03F5
:14604C00807F90701C013694279436942794369427943694CB
:1460600027948091390390913A038F739070880F991F880FDE
:14607400991F880F991F880F991F82299329F2012080318017
:14608800280E391E318220826F5F7F4F6930E0E07E0708F4AC
:14609C00C5CF02E311E09A010E94A03918018FE594E0280E39
:1460B000391E2AE030E0F101008111810E946A39F10111839B
:1460C400008302E311E09A010E94A03987E494E0F801E80F8A
:1460D800F91F2080318020FE03C08A013BD684C002E311E0B4
:1460EC009A010E94A03958018FE594E0F501E80FF91F2080A4
:1461000031808DE594E0F501E80FF91F8081918182199309A5
:146114008A30E0E09E071CF48A011ED667C08A01DBD664C042
:1461280002E311E09A010E94A0398DE393E0F801E80FF91F8C
:14613C00808191818530E0E09E0709F035C002E311E09A01C3
:146150000E94A0398DE393E0F801E80FF91F81E090E09183F0
:14616400808302E311E09A010E94A03987E494E0F801E80F69
:14617800F91F81E090E09183808302E311E09A010E94A03927
:14618C0081E594E0F801E80FF91F81E090E09183808385E0D0
:1461A0009983888325E830E08A010F5F1F4F0E94F8111EC0B7
:1461B40002E311E09A010E94A0398DE393E0F801E80FF91F00
:1461C800808191818230E0E09E0771F402E311E09A010E9421
:1461DC00A0398DE393E0F801E80FF91F2224332431822082F9
:1461F0004F5F5F4F4430E0E05E0708F4B0CE22960C94ED39AE
:146204000E94DC394427552744C102E311E09A010E94A039F7
:146218008DE393E0F801E80FF91F2224332431822082662708
:14622C00772715C002E311E09A010E94A03918018FE393E001
:14624000280E391EFB01EE0FFF1FE20DF31D22243324318257
:1462540020826F5F7F4F6438E0E07E0738F302E311E09A017B
:146268000E94A03987E494E0F801E80FF91F22243324318270
:14627C00208202E311E09A010E94A03989E494E0F801E80FAF
:14629000F91F222433243182208202E311E09A010E94A03904
:1462A4008BE494E0F801E80FF91F222433243182208202E324
:1462B80011E09A010E94A0398DE494E0F801E80FF91F222498
:1462CC0033243182208202E311E09A010E94A0398FE494E03F
:1462E000F801E80FF91F222433243182208202E311E09A013F
:1462F4000E94A03981E594E0F801E80FF91F81E090E0918354
:14630800808302E311E09A010E94A03983E594E0F801E80FC6
:14631C00F91F222433243182208202E311E09A010E94A03977
:1463300085E594E0F801E80FF91F222433243182208202E39C
:1463440011E09A010E94A03987E594E0F801E80FF91F222410
:1463580033243182208202E311E09A010E94A03989E594E0B7
:14636C00F801E80FF91F222433243182208202E311E09A01B2
:146380000E94A0398BE594E0F801E80FF91F22243324318252
:14639400208202E311E09A010E94A0398DE594E0F801E80F91
:1463A800F91F222433243182208202E311E09A010E94A039EB
:1463BC008FE594E0F801E80FF91F222433243182208202E306
:1463D00011E09A010E94A03981E694E0F801E80FF91F222489
:1463E40033243182208202E311E09A010E94A03983E694E030
:1463F800F801E80FF91F222433243182208202E311E09A0126
:14640C000E94A03985E694E0F801E80FF91F222433243182CA
:14642000208202E311E09A010E94A03987E694E0F801E80F09
:14643400F91F85E090E09183808302E311E09A010E94A03964
:1464480089E694E0F801E80FF91F81E090E09183808302E388
:14645C0011E09A010E94A0398BE694E0F801E80FF91F81E0D7
:1464700090E09183808302E311E09A010E94A0398DE694E0BE
:14648400F801E80FF91F22243324318220824F5F5F4F44303A
:14649800E0E05E0708F4B7CE0C94E1390E94023A44275527CB
:1464AC0028C1222733278A010F5F1F4F0E940F12B80101303C
:1464C000E0E01E0709F019C125E830E08A010F5F1F4F0E94EA
